{
  "_format": "hh-sol-artifact-1",
  "contractName": "StarNft",
  "sourceName": "contracts/StarNft.sol",
  "abi": [
    {
      "inputs": [
        {
          "internalType": "string",
          "name": "baseURI",
          "type": "string"
        },
        {
          "internalType": "address",
          "name": "vrfCoordinator",
          "type": "address"
        },
        {
          "internalType": "address",
          "name": "vrfLinkToken",
          "type": "address"
        },
        {
          "internalType": "bytes32",
          "name": "vrfKeyhash",
          "type": "bytes32"
        }
      ],
      "stateMutability": "nonpayable",
      "type": "constructor"
    },
    {
      "anonymous": false,
      "inputs": [
        {
          "indexed": true,
          "internalType": "address",
          "name": "owner",
          "type": "address"
        },
        {
          "indexed": true,
          "internalType": "address",
          "name": "approved",
          "type": "address"
        },
        {
          "indexed": true,
          "internalType": "uint256",
          "name": "tokenId",
          "type": "uint256"
        }
      ],
      "name": "Approval",
      "type": "event"
    },
    {
      "anonymous": false,
      "inputs": [
        {
          "indexed": true,
          "internalType": "address",
          "name": "owner",
          "type": "address"
        },
        {
          "indexed": true,
          "internalType": "address",
          "name": "operator",
          "type": "address"
        },
        {
          "indexed": false,
          "internalType": "bool",
          "name": "approved",
          "type": "bool"
        }
      ],
      "name": "ApprovalForAll",
      "type": "event"
    },
    {
      "anonymous": false,
      "inputs": [
        {
          "indexed": true,
          "internalType": "uint256",
          "name": "tokenId",
          "type": "uint256"
        }
      ],
      "name": "MintedNewNFT",
      "type": "event"
    },
    {
      "anonymous": false,
      "inputs": [],
      "name": "MintedSpecialNFT",
      "type": "event"
    },
    {
      "anonymous": false,
      "inputs": [
        {
          "indexed": true,
          "internalType": "address",
          "name": "previousOwner",
          "type": "address"
        },
        {
          "indexed": true,
          "internalType": "address",
          "name": "newOwner",
          "type": "address"
        }
      ],
      "name": "OwnershipTransferred",
      "type": "event"
    },
    {
      "anonymous": false,
      "inputs": [
        {
          "indexed": false,
          "internalType": "bool",
          "name": "pause",
          "type": "bool"
        }
      ],
      "name": "PauseEvent",
      "type": "event"
    },
    {
      "anonymous": false,
      "inputs": [
        {
          "indexed": true,
          "internalType": "address",
          "name": "from",
          "type": "address"
        },
        {
          "indexed": true,
          "internalType": "address",
          "name": "to",
          "type": "address"
        },
        {
          "indexed": true,
          "internalType": "uint256",
          "name": "tokenId",
          "type": "uint256"
        }
      ],
      "name": "Transfer",
      "type": "event"
    },
    {
      "inputs": [],
      "name": "DEV_ADDRESS",
      "outputs": [
        {
          "internalType": "address",
          "name": "",
          "type": "address"
        }
      ],
      "stateMutability": "view",
      "type": "function"
    },
    {
      "inputs": [],
      "name": "INITIAL_TOKEN_COUNT",
      "outputs": [
        {
          "internalType": "uint256",
          "name": "",
          "type": "uint256"
        }
      ],
      "stateMutability": "view",
      "type": "function"
    },
    {
      "inputs": [],
      "name": "MINT_PRICE",
      "outputs": [
        {
          "internalType": "uint256",
          "name": "",
          "type": "uint256"
        }
      ],
      "stateMutability": "view",
      "type": "function"
    },
    {
      "inputs": [],
      "name": "VRF_FEE",
      "outputs": [
        {
          "internalType": "uint256",
          "name": "",
          "type": "uint256"
        }
      ],
      "stateMutability": "view",
      "type": "function"
    },
    {
      "inputs": [],
      "name": "WHITE_LIST_HOURS",
      "outputs": [
        {
          "internalType": "uint256",
          "name": "",
          "type": "uint256"
        }
      ],
      "stateMutability": "view",
      "type": "function"
    },
    {
      "inputs": [
        {
          "internalType": "address",
          "name": "addr",
          "type": "address"
        }
      ],
      "name": "addWhiteList",
      "outputs": [],
      "stateMutability": "nonpayable",
      "type": "function"
    },
    {
      "inputs": [
        {
          "internalType": "address",
          "name": "to",
          "type": "address"
        },
        {
          "internalType": "uint256",
          "name": "tokenId",
          "type": "uint256"
        }
      ],
      "name": "approve",
      "outputs": [],
      "stateMutability": "nonpayable",
      "type": "function"
    },
    {
      "inputs": [],
      "name": "bPaused",
      "outputs": [
        {
          "internalType": "bool",
          "name": "",
          "type": "bool"
        }
      ],
      "stateMutability": "view",
      "type": "function"
    },
    {
      "inputs": [
        {
          "internalType": "address",
          "name": "owner",
          "type": "address"
        }
      ],
      "name": "balanceOf",
      "outputs": [
        {
          "internalType": "uint256",
          "name": "",
          "type": "uint256"
        }
      ],
      "stateMutability": "view",
      "type": "function"
    },
    {
      "inputs": [
        {
          "internalType": "uint256",
          "name": "tokenId",
          "type": "uint256"
        }
      ],
      "name": "getApproved",
      "outputs": [
        {
          "internalType": "address",
          "name": "",
          "type": "address"
        }
      ],
      "stateMutability": "view",
      "type": "function"
    },
    {
      "inputs": [],
      "name": "getUnsoldTokens",
      "outputs": [
        {
          "internalType": "uint256[]",
          "name": "",
          "type": "uint256[]"
        },
        {
          "internalType": "uint256",
          "name": "",
          "type": "uint256"
        }
      ],
      "stateMutability": "view",
      "type": "function"
    },
    {
      "inputs": [],
      "name": "getUnsoldTokens1",
      "outputs": [],
      "stateMutability": "nonpayable",
      "type": "function"
    },
    {
      "inputs": [
        {
          "internalType": "address",
          "name": "owner",
          "type": "address"
        },
        {
          "internalType": "address",
          "name": "operator",
          "type": "address"
        }
      ],
      "name": "isApprovedForAll",
      "outputs": [
        {
          "internalType": "bool",
          "name": "",
          "type": "bool"
        }
      ],
      "stateMutability": "view",
      "type": "function"
    },
    {
      "inputs": [
        {
          "internalType": "address",
          "name": "addr",
          "type": "address"
        }
      ],
      "name": "isWhiteList",
      "outputs": [
        {
          "internalType": "bool",
          "name": "",
          "type": "bool"
        }
      ],
      "stateMutability": "view",
      "type": "function"
    },
    {
      "inputs": [
        {
          "internalType": "address",
          "name": "to_",
          "type": "address"
        },
        {
          "internalType": "string",
          "name": "tokenUri_",
          "type": "string"
        }
      ],
      "name": "mintBreedToken",
      "outputs": [],
      "stateMutability": "nonpayable",
      "type": "function"
    },
    {
      "inputs": [
        {
          "internalType": "address",
          "name": "to",
          "type": "address"
        }
      ],
      "name": "mintSpecialToken",
      "outputs": [],
      "stateMutability": "nonpayable",
      "type": "function"
    },
    {
      "inputs": [
        {
          "internalType": "uint256[]",
          "name": "tokensId",
          "type": "uint256[]"
        }
      ],
      "name": "mintTokens",
      "outputs": [],
      "stateMutability": "nonpayable",
      "type": "function"
    },
    {
      "inputs": [],
      "name": "mintedTokenCount",
      "outputs": [
        {
          "internalType": "uint256",
          "name": "",
          "type": "uint256"
        }
      ],
      "stateMutability": "view",
      "type": "function"
    },
    {
      "inputs": [],
      "name": "name",
      "outputs": [
        {
          "internalType": "string",
          "name": "",
          "type": "string"
        }
      ],
      "stateMutability": "view",
      "type": "function"
    },
    {
      "inputs": [],
      "name": "owner",
      "outputs": [
        {
          "internalType": "address",
          "name": "",
          "type": "address"
        }
      ],
      "stateMutability": "view",
      "type": "function"
    },
    {
      "inputs": [
        {
          "internalType": "uint256",
          "name": "tokenId",
          "type": "uint256"
        }
      ],
      "name": "ownerOf",
      "outputs": [
        {
          "internalType": "address",
          "name": "",
          "type": "address"
        }
      ],
      "stateMutability": "view",
      "type": "function"
    },
    {
      "inputs": [
        {
          "internalType": "bytes32",
          "name": "requestId",
          "type": "bytes32"
        },
        {
          "internalType": "uint256",
          "name": "randomness",
          "type": "uint256"
        }
      ],
      "name": "rawFulfillRandomness",
      "outputs": [],
      "stateMutability": "nonpayable",
      "type": "function"
    },
    {
      "inputs": [],
      "name": "remainTokenCount",
      "outputs": [
        {
          "internalType": "uint256",
          "name": "",
          "type": "uint256"
        }
      ],
      "stateMutability": "view",
      "type": "function"
    },
    {
      "inputs": [],
      "name": "remainTokenCount1",
      "outputs": [],
      "stateMutability": "nonpayable",
      "type": "function"
    },
    {
      "inputs": [],
      "name": "remainTokenCount2",
      "outputs": [],
      "stateMutability": "nonpayable",
      "type": "function"
    },
    {
      "inputs": [
        {
          "internalType": "address",
          "name": "addr",
          "type": "address"
        }
      ],
      "name": "removeWhiteList",
      "outputs": [],
      "stateMutability": "nonpayable",
      "type": "function"
    },
    {
      "inputs": [],
      "name": "renounceOwnership",
      "outputs": [],
      "stateMutability": "nonpayable",
      "type": "function"
    },
    {
      "inputs": [
        {
          "internalType": "address",
          "name": "_to",
          "type": "address"
        },
        {
          "internalType": "uint8",
          "name": "amount",
          "type": "uint8"
        }
      ],
      "name": "requestRandomNFT",
      "outputs": [],
      "stateMutability": "payable",
      "type": "function"
    },
    {
      "inputs": [
        {
          "internalType": "address",
          "name": "from",
          "type": "address"
        },
        {
          "internalType": "address",
          "name": "to",
          "type": "address"
        },
        {
          "internalType": "uint256",
          "name": "tokenId",
          "type": "uint256"
        }
      ],
      "name": "safeTransferFrom",
      "outputs": [],
      "stateMutability": "nonpayable",
      "type": "function"
    },
    {
      "inputs": [
        {
          "internalType": "address",
          "name": "from",
          "type": "address"
        },
        {
          "internalType": "address",
          "name": "to",
          "type": "address"
        },
        {
          "internalType": "uint256",
          "name": "tokenId",
          "type": "uint256"
        },
        {
          "internalType": "bytes",
          "name": "_data",
          "type": "bytes"
        }
      ],
      "name": "safeTransferFrom",
      "outputs": [],
      "stateMutability": "nonpayable",
      "type": "function"
    },
    {
      "inputs": [
        {
          "internalType": "address",
          "name": "operator",
          "type": "address"
        },
        {
          "internalType": "bool",
          "name": "approved",
          "type": "bool"
        }
      ],
      "name": "setApprovalForAll",
      "outputs": [],
      "stateMutability": "nonpayable",
      "type": "function"
    },
    {
      "inputs": [
        {
          "internalType": "string",
          "name": "baseURI",
          "type": "string"
        }
      ],
      "name": "setBaseURI",
      "outputs": [],
      "stateMutability": "nonpayable",
      "type": "function"
    },
    {
      "inputs": [
        {
          "internalType": "bool",
          "name": "pause",
          "type": "bool"
        }
      ],
      "name": "setPause",
      "outputs": [],
      "stateMutability": "nonpayable",
      "type": "function"
    },
    {
      "inputs": [
        {
          "internalType": "bytes4",
          "name": "interfaceId",
          "type": "bytes4"
        }
      ],
      "name": "supportsInterface",
      "outputs": [
        {
          "internalType": "bool",
          "name": "",
          "type": "bool"
        }
      ],
      "stateMutability": "view",
      "type": "function"
    },
    {
      "inputs": [],
      "name": "symbol",
      "outputs": [
        {
          "internalType": "string",
          "name": "",
          "type": "string"
        }
      ],
      "stateMutability": "view",
      "type": "function"
    },
    {
      "inputs": [
        {
          "internalType": "uint256",
          "name": "tokenId",
          "type": "uint256"
        }
      ],
      "name": "tokenURI",
      "outputs": [
        {
          "internalType": "string",
          "name": "",
          "type": "string"
        }
      ],
      "stateMutability": "view",
      "type": "function"
    },
    {
      "inputs": [
        {
          "internalType": "address",
          "name": "from",
          "type": "address"
        },
        {
          "internalType": "address",
          "name": "to",
          "type": "address"
        },
        {
          "internalType": "uint256",
          "name": "tokenId",
          "type": "uint256"
        }
      ],
      "name": "transferFrom",
      "outputs": [],
      "stateMutability": "nonpayable",
      "type": "function"
    },
    {
      "inputs": [
        {
          "internalType": "address",
          "name": "newOwner",
          "type": "address"
        }
      ],
      "name": "transferOwnership",
      "outputs": [],
      "stateMutability": "nonpayable",
      "type": "function"
    },
    {
      "inputs": [
        {
          "internalType": "address",
          "name": "owner",
          "type": "address"
        }
      ],
      "name": "walletOfOwner",
      "outputs": [
        {
          "internalType": "uint256[]",
          "name": "",
          "type": "uint256[]"
        }
      ],
      "stateMutability": "view",
      "type": "function"
    },
    {
      "inputs": [
        {
          "internalType": "address",
          "name": "",
          "type": "address"
        }
      ],
      "name": "whiteList",
      "outputs": [
        {
          "internalType": "bool",
          "name": "",
          "type": "bool"
        }
      ],
      "stateMutability": "view",
      "type": "function"
    },
    {
      "inputs": [],
      "name": "withdrawAll",
      "outputs": [],
      "stateMutability": "nonpayable",
      "type": "function"
    }
  ],
  "bytecode": "0x60c06040526000600f60006101000a81548160ff02191690831515021790555060006012553480156200003157600080fd5b5060405162005e9e38038062005e9e8339818101604052810190620000579190620006c6565b82826040518060400160405280600781526020017f537461724e6674000000000000000000000000000000000000000000000000008152506040518060400160405280600481526020017f53746172000000000000000000000000000000000000000000000000000000008152508160009080519060200190620000dd92919062000576565b508060019080519060200190620000f692919062000576565b5050508173ffffffffffffffffffffffffffffffffffffffff1660a08173ffffffffffffffffffffffffffffffffffffffff1660601b815250508073ffffffffffffffffffffffffffffffffffffffff1660808173ffffffffffffffffffffffffffffffffffffffff1660601b815250505050620001896200017d6200025960201b60201c565b6200026160201b60201c565b6200019a846200032760201b60201c565b82600a60006101000a81548173ffffffffffffffffffffffffffffffffffffffff021916908373ffffffffffffffffffffffffffffffffffffffff16021790555081600960006101000a81548173ffffffffffffffffffffffffffffffffffffffff021916908373ffffffffffffffffffffffffffffffffffffffff1602179055508060088190555042600e819055506200024f73a5dbc34d69b745d5ee9494e6960a811613b9ae32620003d260201b60201c565b50505050620009c7565b600033905090565b6000600760009054906101000a900473ffffffffffffffffffffffffffffffffffffffff16905081600760006101000a81548173ffffffffffffffffffffffffffffffffffffffff021916908373ffffffffffffffffffffffffffffffffffffffff1602179055508173ffffffffffffffffffffffffffffffffffffffff168173ffffffffffffffffffffffffffffffffffffffff167f8be0079c531659141344cd1fd0a4f28419497f9722a3daafe3b4186f6b6457e060405160405180910390a35050565b620003376200025960201b60201c565b73ffffffffffffffffffffffffffffffffffffffff166200035d6200054c60201b60201c565b73ffffffffffffffffffffffffffffffffffffffff1614620003b6576040517f08c379a0000000000000000000000000000000000000000000000000000000008152600401620003ad90620007cf565b60405180910390fd5b8060109080519060200190620003ce92919062000576565b5050565b620003e26200025960201b60201c565b73ffffffffffffffffffffffffffffffffffffffff16620004086200054c60201b60201c565b73ffffffffffffffffffffffffffffffffffffffff161462000461576040517f08c379a00000000000000000000000000000000000000000000000000000000081526004016200045890620007cf565b60405180910390fd5b600d60008273ffffffffffffffffffffffffffffffffffffffff1673ffffffffffffffffffffffffffffffffffffffff16815260200190815260200160002060009054906101000a900460ff1615620004f1576040517f08c379a0000000000000000000000000000000000000000000000000000000008152600401620004e890620007f1565b60405180910390fd5b6001600d60008373ffffffffffffffffffffffffffffffffffffffff1673ffffffffffffffffffffffffffffffffffffffff16815260200190815260200160002060006101000a81548160ff02191690831515021790555050565b6000600760009054906101000a900473ffffffffffffffffffffffffffffffffffffffff16905090565b8280546200058490620008ff565b90600052602060002090601f016020900481019282620005a85760008555620005f4565b82601f10620005c357805160ff1916838001178555620005f4565b82800160010185558215620005f4579182015b82811115620005f3578251825591602001919060010190620005d6565b5b50905062000603919062000607565b5090565b5b808211156200062257600081600090555060010162000608565b5090565b60006200063d620006378462000847565b62000813565b9050828152602081018484840111156200065657600080fd5b62000663848285620008c9565b509392505050565b6000815190506200067c8162000993565b92915050565b6000815190506200069381620009ad565b92915050565b600082601f830112620006ab57600080fd5b8151620006bd84826020860162000626565b91505092915050565b60008060008060808587031215620006dd57600080fd5b600085015167ffffffffffffffff811115620006f857600080fd5b620007068782880162000699565b945050602062000719878288016200066b565b93505060406200072c878288016200066b565b92505060606200073f8782880162000682565b91505092959194509250565b60006200075a6020836200087a565b91507f4f776e61626c653a2063616c6c6572206973206e6f7420746865206f776e65726000830152602082019050919050565b60006200079c600d836200087a565b91507f416c7265616479204164646564000000000000000000000000000000000000006000830152602082019050919050565b60006020820190508181036000830152620007ea816200074b565b9050919050565b600060208201905081810360008301526200080c816200078d565b9050919050565b6000604051905081810181811067ffffffffffffffff821117156200083d576200083c62000964565b5b8060405250919050565b600067ffffffffffffffff82111562000865576200086462000964565b5b601f19601f8301169050602081019050919050565b600082825260208201905092915050565b60006200089882620008a9565b9050919050565b6000819050919050565b600073ffffffffffffffffffffffffffffffffffffffff82169050919050565b60005b83811015620008e9578082015181840152602081019050620008cc565b83811115620008f9576000848401525b50505050565b600060028204905060018216806200091857607f821691505b602082108114156200092f576200092e62000935565b5b50919050565b7f4e487b7100000000000000000000000000000000000000000000000000000000600052602260045260246000fd5b7f4e487b7100000000000000000000000000000000000000000000000000000000600052604160045260246000fd5b6200099e816200088b565b8114620009aa57600080fd5b50565b620009b8816200089f565b8114620009c457600080fd5b50565b60805160601c60a05160601c61549d62000a0160003960008181611cf40152612cc30152600081816119210152612c87015261549d6000f3fe6080604052600436106102465760003560e01c8063715018a611610139578063b182d64d116100b6578063e521795f1161007a578063e521795f14610820578063e7cd4a041461084b578063e985e9c514610874578063f2fde38b146108b1578063f99031a7146108da578063fdf5a49f1461091757610246565b8063b182d64d1461074f578063b88d4fde14610766578063bedb86fb1461078f578063c002d23d146107b8578063c87b56dd146107e357610246565b80638da5cb5b116100fd5780638da5cb5b1461067e5780639363d186146106a957806394985ddd146106d257806395d89b41146106fb578063a22cb4651461072657610246565b8063715018a6146105de578063721c492c146105f5578063755cb23414610611578063853828b61461063c5780638d0419881461065357610246565b806342842e0e116101c75780635639e8cf1161018b5780635639e8cf146104e457806361ef4fdf1461050f5780636352211e146105385780636d00e5011461057557806370a08231146105a157610246565b806342842e0e1461042757806342e9711414610450578063438b6300146104675780635179536f146104a457806355f804b3146104bb57610246565b80631c9c7c9c1161020e5780631c9c7c9c146103445780632042e5c21461036f57806323b872dd14610398578063276d3fb1146103c1578063372c12b1146103ea57610246565b806301ffc9a71461024b57806306fdde0314610288578063081812fc146102b3578063095ea7b3146102f057806311319b1e14610319575b600080fd5b34801561025757600080fd5b50610272600480360381019061026d9190613d4c565b610942565b60405161027f9190614a8d565b60405180910390f35b34801561029457600080fd5b5061029d610a24565b6040516102aa9190614b16565b60405180910390f35b3480156102bf57600080fd5b506102da60048036038101906102d59190613ddf565b610ab6565b6040516102e79190614996565b60405180910390f35b3480156102fc57600080fd5b5061031760048036038101906103129190613c05565b610b3b565b005b34801561032557600080fd5b5061032e610c53565b60405161033b9190614a8d565b60405180910390f35b34801561035057600080fd5b50610359610c66565b6040516103669190614ed8565b60405180910390f35b34801561037b57600080fd5b5061039660048036038101906103919190613a46565b610c72565b005b3480156103a457600080fd5b506103bf60048036038101906103ba9190613aab565b610dd5565b005b3480156103cd57600080fd5b506103e860048036038101906103e39190613c7d565b610e35565b005b3480156103f657600080fd5b50610411600480360381019061040c9190613a46565b610ff2565b60405161041e9190614a8d565b60405180910390f35b34801561043357600080fd5b5061044e60048036038101906104499190613aab565b611012565b005b34801561045c57600080fd5b50610465611032565b005b34801561047357600080fd5b5061048e60048036038101906104899190613a46565b611076565b60405161049b9190614a3b565b60405180910390f35b3480156104b057600080fd5b506104b96111b2565b005b3480156104c757600080fd5b506104e260048036038101906104dd9190613d9e565b6111f1565b005b3480156104f057600080fd5b506104f9611287565b6040516105069190614996565b60405180910390f35b34801561051b57600080fd5b5061053660048036038101906105319190613a46565b61129f565b005b34801561054457600080fd5b5061055f600480360381019061055a9190613ddf565b6113b6565b60405161056c9190614996565b60405180910390f35b34801561058157600080fd5b5061058a611468565b604051610598929190614a5d565b60405180910390f35b3480156105ad57600080fd5b506105c860048036038101906105c39190613a46565b611587565b6040516105d59190614ed8565b60405180910390f35b3480156105ea57600080fd5b506105f361163f565b005b61060f600480360381019061060a9190613c41565b6116c7565b005b34801561061d57600080fd5b50610626611a9e565b6040516106339190614ed8565b60405180910390f35b34801561064857600080fd5b50610651611aa4565b005b34801561065f57600080fd5b50610668611b79565b6040516106759190614ed8565b60405180910390f35b34801561068a57600080fd5b50610693611bde565b6040516106a09190614996565b60405180910390f35b3480156106b557600080fd5b506106d060048036038101906106cb9190613bb1565b611c08565b005b3480156106de57600080fd5b506106f960048036038101906106f49190613d10565b611cf2565b005b34801561070757600080fd5b50610710611d8e565b60405161071d9190614b16565b60405180910390f35b34801561073257600080fd5b5061074d60048036038101906107489190613b75565b611e20565b005b34801561075b57600080fd5b50610764611fa1565b005b34801561077257600080fd5b5061078d60048036038101906107889190613afa565b612038565b005b34801561079b57600080fd5b506107b660048036038101906107b19190613cbe565b61209a565b005b3480156107c457600080fd5b506107cd612179565b6040516107da9190614ed8565b60405180910390f35b3480156107ef57600080fd5b5061080a60048036038101906108059190613ddf565b612184565b6040516108179190614b16565b60405180910390f35b34801561082c57600080fd5b5061083561228c565b6040516108429190614ed8565b60405180910390f35b34801561085757600080fd5b50610872600480360381019061086d9190613a46565b612291565b005b34801561088057600080fd5b5061089b60048036038101906108969190613a6f565b6123f5565b6040516108a89190614a8d565b60405180910390f35b3480156108bd57600080fd5b506108d860048036038101906108d39190613a46565b612489565b005b3480156108e657600080fd5b5061090160048036038101906108fc9190613a46565b612581565b60405161090e9190614a8d565b60405180910390f35b34801561092357600080fd5b5061092c612653565b6040516109399190614ed8565b60405180910390f35b60007f80ac58cd000000000000000000000000000000000000000000000000000000007bffffffffffffffffffffffffffffffffffffffffffffffffffffffff1916827bffffffffffffffffffffffffffffffffffffffffffffffffffffffff19161480610a0d57507f5b5e139f000000000000000000000000000000000000000000000000000000007bffffffffffffffffffffffffffffffffffffffffffffffffffffffff1916827bffffffffffffffffffffffffffffffffffffffffffffffffffffffff1916145b80610a1d5750610a1c8261266f565b5b9050919050565b606060008054610a3390615250565b80601f0160208091040260200160405190810160405280929190818152602001828054610a5f90615250565b8015610aac5780601f10610a8157610100808354040283529160200191610aac565b820191906000526020600020905b815481529060010190602001808311610a8f57829003601f168201915b5050505050905090565b6000610ac1826126d9565b610b00576040517f08c379a0000000000000000000000000000000000000000000000000000000008152600401610af790614cd8565b60405180910390fd5b6004600083815260200190815260200160002060009054906101000a900473ffffffffffffffffffffffffffffffffffffffff169050919050565b6000610b46826113b6565b90508073ffffffffffffffffffffffffffffffffffffffff168373ffffffffffffffffffffffffffffffffffffffff161415610bb7576040517f08c379a0000000000000000000000000000000000000000000000000000000008152600401610bae90614dd8565b60405180910390fd5b8073ffffffffffffffffffffffffffffffffffffffff16610bd6612745565b73ffffffffffffffffffffffffffffffffffffffff161480610c055750610c0481610bff612745565b6123f5565b5b610c44576040517f08c379a0000000000000000000000000000000000000000000000000000000008152600401610c3b90614c58565b60405180910390fd5b610c4e838361274d565b505050565b600f60009054906101000a900460ff1681565b67016345785d8a000081565b610c7a612745565b73ffffffffffffffffffffffffffffffffffffffff16610c98611bde565b73ffffffffffffffffffffffffffffffffffffffff1614610cee576040517f08c379a0000000000000000000000000000000000000000000000000000000008152600401610ce590614cf8565b60405180910390fd5b600d60008273ffffffffffffffffffffffffffffffffffffffff1673ffffffffffffffffffffffffffffffffffffffff16815260200190815260200160002060009054906101000a900460ff16610d7a576040517f08c379a0000000000000000000000000000000000000000000000000000000008152600401610d7190614db8565b60405180910390fd5b6000600d60008373ffffffffffffffffffffffffffffffffffffffff1673ffffffffffffffffffffffffffffffffffffffff16815260200190815260200160002060006101000a81548160ff02191690831515021790555050565b610de6610de0612745565b82612806565b610e25576040517f08c379a0000000000000000000000000000000000000000000000000000000008152600401610e1c90614e78565b60405180910390fd5b610e308383836128e4565b505050565b610e3d612745565b73ffffffffffffffffffffffffffffffffffffffff16610e5b611bde565b73ffffffffffffffffffffffffffffffffffffffff1614610eb1576040517f08c379a0000000000000000000000000000000000000000000000000000000008152600401610ea890614cf8565b60405180910390fd5b600f60009054906101000a900460ff16610f00576040517f08c379a0000000000000000000000000000000000000000000000000000000008152600401610ef790614d98565b60405180910390fd5b60005b8151811015610fee57600073ffffffffffffffffffffffffffffffffffffffff16610f6d838381518110610f60577f4e487b7100000000000000000000000000000000000000000000000000000000600052603260045260246000fd5b60200260200101516113b6565b73ffffffffffffffffffffffffffffffffffffffff161415610fdb57610fda610f94611bde565b838381518110610fcd577f4e487b7100000000000000000000000000000000000000000000000000000000600052603260045260246000fd5b6020026020010151612b40565b5b8080610fe690615282565b915050610f03565b5050565b600d6020528060005260406000206000915054906101000a900460ff1681565b61102d83838360405180602001604052806000815250612038565b505050565b6060600061103e611468565b80925081935050506001600c600080815260200190815260200160002060006101000a81548160ff0219169083151502179055505050565b6060600061108383611587565b905060008167ffffffffffffffff8111156110c7577f4e487b7100000000000000000000000000000000000000000000000000000000600052604160045260246000fd5b6040519080825280602002602001820160405280156110f55781602001602082028036833780820191505090505b5090506000805b838110156111a6578573ffffffffffffffffffffffffffffffffffffffff16611124826113b6565b73ffffffffffffffffffffffffffffffffffffffff161415611193578083838061114d90615282565b945081518110611186577f4e487b7100000000000000000000000000000000000000000000000000000000600052603260045260246000fd5b6020026020010181815250505b808061119e90615282565b9150506110fc565b50819350505050919050565b60006001116111c25760006111c5565b60015b600c600080815260200190815260200160002060006101000a81548160ff021916908315150217905550565b6111f9612745565b73ffffffffffffffffffffffffffffffffffffffff16611217611bde565b73ffffffffffffffffffffffffffffffffffffffff161461126d576040517f08c379a000000000000000000000000000000000000000000000000000000000815260040161126490614cf8565b60405180910390fd5b8060109080519060200190611283929190613780565b5050565b73a5dbc34d69b745d5ee9494e6960a811613b9ae3281565b6112a7612745565b73ffffffffffffffffffffffffffffffffffffffff166112c5611bde565b73ffffffffffffffffffffffffffffffffffffffff161461131b576040517f08c379a000000000000000000000000000000000000000000000000000000000815260040161131290614cf8565b60405180910390fd5b600c600080815260200190815260200160002060009054906101000a900460ff161561137c576040517f08c379a000000000000000000000000000000000000000000000000000000000815260040161137390614b38565b60405180910390fd5b611387816000612b40565b7f76e11c4d3d4ec2eb808f29c109ef11549f2aae0748eacf5a73c9500ccf02a46160405160405180910390a150565b6000806002600084815260200190815260200160002060009054906101000a900473ffffffffffffffffffffffffffffffffffffffff169050600073ffffffffffffffffffffffffffffffffffffffff168173ffffffffffffffffffffffffffffffffffffffff16141561145f576040517f08c379a000000000000000000000000000000000000000000000000000000000815260040161145690614c98565b60405180910390fd5b80915050919050565b606060008061277567ffffffffffffffff8111156114af577f4e487b7100000000000000000000000000000000000000000000000000000000600052604160045260246000fd5b6040519080825280602002602001820160405280156114dd5781602001602082028036833780820191505090505b5090506000805b61277581101561157a57600c600082815260200190815260200160002060009054906101000a900460ff16611566578083838061152090615282565b945081518110611559577f4e487b7100000000000000000000000000000000000000000000000000000000600052603260045260246000fd5b6020026020010181815250505b6001816115739190615037565b90506114e4565b5081819350935050509091565b60008073ffffffffffffffffffffffffffffffffffffffff168273ffffffffffffffffffffffffffffffffffffffff1614156115f8576040517f08c379a00000000000000000000000000000000000000000000000000000000081526004016115ef90614c78565b60405180910390fd5b600360008373ffffffffffffffffffffffffffffffffffffffff1673ffffffffffffffffffffffffffffffffffffffff168152602001908152602001600020549050919050565b611647612745565b73ffffffffffffffffffffffffffffffffffffffff16611665611bde565b73ffffffffffffffffffffffffffffffffffffffff16146116bb576040517f08c379a00000000000000000000000000000000000000000000000000000000081526004016116b290614cf8565b60405180910390fd5b6116c56000612ba7565b565b60006116d1611b79565b14611711576040517f08c379a000000000000000000000000000000000000000000000000000000000815260040161170890614eb8565b60405180910390fd5b600f60009054906101000a900460ff1615611761576040517f08c379a000000000000000000000000000000000000000000000000000000000815260040161175890614e18565b60405180910390fd5b610e10600461177091906150f5565b600e5461177d9190615037565b42116117cc5761178c82612581565b6117cb576040517f08c379a00000000000000000000000000000000000000000000000000000000081526004016117c290614df8565b60405180910390fd5b5b60018160ff161115611813576040517f08c379a000000000000000000000000000000000000000000000000000000000815260040161180a90614c18565b60405180910390fd5b612775600c600080815260200190815260200160002060009054906101000a900460ff16611842576001611845565b60005b60ff168260ff16611854611b79565b61185e9190615037565b6118689190615037565b11156118a9576040517f08c379a00000000000000000000000000000000000000000000000000000000081526004016118a090614c18565b60405180910390fd5b6118c68160ff1666038d7ea4c68000612c6d90919063ffffffff16565b341015611908576040517f08c379a00000000000000000000000000000000000000000000000000000000081526004016118ff90614d78565b60405180910390fd5b8060ff1667016345785d8a000061191f91906150f5565b7f000000000000000000000000000000000000000000000000000000000000000073ffffffffffffffffffffffffffffffffffffffff166370a08231306040518263ffffffff1660e01b81526004016119789190614996565b60206040518083038186803b15801561199057600080fd5b505afa1580156119a4573d6000803e3d6000fd5b505050506040513d601f19601f820116820180604052508101906119c89190613e08565b1015611a09576040517f08c379a0000000000000000000000000000000000000000000000000000000008152600401611a0090614bf8565b60405180910390fd5b60005b8160ff168160ff161015611a99576000611a3060085467016345785d8a0000612c83565b905083600b600083815260200190815260200160002060006101000a81548173ffffffffffffffffffffffffffffffffffffffff021916908373ffffffffffffffffffffffffffffffffffffffff16021790555050600181611a92919061508d565b9050611a0c565b505050565b61277581565b611aac612745565b73ffffffffffffffffffffffffffffffffffffffff16611aca611bde565b73ffffffffffffffffffffffffffffffffffffffff1614611b20576040517f08c379a0000000000000000000000000000000000000000000000000000000008152600401611b1790614cf8565b60405180910390fd5b600047905060008111611b3257600080fd5b611b7673a5dbc34d69b745d5ee9494e6960a811613b9ae32611b716064611b63606486612c6d90919063ffffffff16565b612de590919063ffffffff16565b612dfb565b50565b6000806000905060005b612775811015611bd657600c600082815260200190815260200160002060009054906101000a900460ff16611bc257600182611bbf9190615037565b91505b600181611bcf9190615037565b9050611b83565b508091505090565b6000600760009054906101000a900473ffffffffffffffffffffffffffffffffffffffff16905090565b611c10612745565b73ffffffffffffffffffffffffffffffffffffffff16611c2e611bde565b73ffffffffffffffffffffffffffffffffffffffff1614611c84576040517f08c379a0000000000000000000000000000000000000000000000000000000008152600401611c7b90614cf8565b60405180910390fd5b611c9d82612775601254611c989190615037565b612eac565b8060116000612775601254611cb29190615037565b81526020019081526020016000209080519060200190611cd3929190613780565b50600160126000828254611ce79190615037565b925050819055505050565b7f000000000000000000000000000000000000000000000000000000000000000073ffffffffffffffffffffffffffffffffffffffff163373ffffffffffffffffffffffffffffffffffffffff1614611d80576040517f08c379a0000000000000000000000000000000000000000000000000000000008152600401611d7790614d58565b60405180910390fd5b611d8a8282612eca565b5050565b606060018054611d9d90615250565b80601f0160208091040260200160405190810160405280929190818152602001828054611dc990615250565b8015611e165780601f10611deb57610100808354040283529160200191611e16565b820191906000526020600020905b815481529060010190602001808311611df957829003601f168201915b5050505050905090565b611e28612745565b73ffffffffffffffffffffffffffffffffffffffff168273ffffffffffffffffffffffffffffffffffffffff161415611e96576040517f08c379a0000000000000000000000000000000000000000000000000000000008152600401611e8d90614bd8565b60405180910390fd5b8060056000611ea3612745565b73ffffffffffffffffffffffffffffffffffffffff1673ffffffffffffffffffffffffffffffffffffffff16815260200190815260200160002060008473ffffffffffffffffffffffffffffffffffffffff1673ffffffffffffffffffffffffffffffffffffffff16815260200190815260200160002060006101000a81548160ff0219169083151502179055508173ffffffffffffffffffffffffffffffffffffffff16611f50612745565b73ffffffffffffffffffffffffffffffffffffffff167f17307eab39ab6107e8899845ad3d59bd9653f200f220920489ca2b5937696c3183604051611f959190614a8d565b60405180910390a35050565b6000805b612775811015611ff857600c600082815260200190815260200160002060009054906101000a900460ff16611fe457600182611fe19190615037565b91505b600181611ff19190615037565b9050611fa5565b506000811161200857600061200b565b60015b600c600080815260200190815260200160002060006101000a81548160ff02191690831515021790555050565b612049612043612745565b83612806565b612088576040517f08c379a000000000000000000000000000000000000000000000000000000000815260040161207f90614e78565b60405180910390fd5b61209484848484612ff7565b50505050565b6120a2612745565b73ffffffffffffffffffffffffffffffffffffffff166120c0611bde565b73ffffffffffffffffffffffffffffffffffffffff1614612116576040517f08c379a000000000000000000000000000000000000000000000000000000000815260040161210d90614cf8565b60405180910390fd5b80600f60006101000a81548160ff0219169083151502179055507f10e1c3fcaff06b68391033547e8f9bb8067d7c4a2e32659b0629153814d242d3600f60009054906101000a900460ff1660405161216e9190614a8d565b60405180910390a150565b66038d7ea4c6800081565b606061218f826126d9565b6121ce576040517f08c379a00000000000000000000000000000000000000000000000000000000081526004016121c590614d38565b60405180910390fd5b6127758210156121e8576121e182613053565b9050612287565b60116000838152602001908152602001600020805461220690615250565b80601f016020809104026020016040519081016040528092919081815260200182805461223290615250565b801561227f5780601f106122545761010080835404028352916020019161227f565b820191906000526020600020905b81548152906001019060200180831161226257829003601f168201915b505050505090505b919050565b600481565b612299612745565b73ffffffffffffffffffffffffffffffffffffffff166122b7611bde565b73ffffffffffffffffffffffffffffffffffffffff161461230d576040517f08c379a000000000000000000000000000000000000000000000000000000000815260040161230490614cf8565b60405180910390fd5b600d60008273ffffffffffffffffffffffffffffffffffffffff1673ffffffffffffffffffffffffffffffffffffffff16815260200190815260200160002060009054906101000a900460ff161561239a576040517f08c379a000000000000000000000000000000000000000000000000000000000815260040161239190614e38565b60405180910390fd5b6001600d60008373ffffffffffffffffffffffffffffffffffffffff1673ffffffffffffffffffffffffffffffffffffffff16815260200190815260200160002060006101000a81548160ff02191690831515021790555050565b6000600560008473ffffffffffffffffffffffffffffffffffffffff1673ffffffffffffffffffffffffffffffffffffffff16815260200190815260200160002060008373ffffffffffffffffffffffffffffffffffffffff1673ffffffffffffffffffffffffffffffffffffffff16815260200190815260200160002060009054906101000a900460ff16905092915050565b612491612745565b73ffffffffffffffffffffffffffffffffffffffff166124af611bde565b73ffffffffffffffffffffffffffffffffffffffff1614612505576040517f08c379a00000000000000000000000000000000000000000000000000000000081526004016124fc90614cf8565b60405180910390fd5b600073ffffffffffffffffffffffffffffffffffffffff168173ffffffffffffffffffffffffffffffffffffffff161415612575576040517f08c379a000000000000000000000000000000000000000000000000000000000815260040161256c90614b78565b60405180910390fd5b61257e81612ba7565b50565b600061258b612745565b73ffffffffffffffffffffffffffffffffffffffff166125a9611bde565b73ffffffffffffffffffffffffffffffffffffffff16146125ff576040517f08c379a00000000000000000000000000000000000000000000000000000000081526004016125f690614cf8565b60405180910390fd5b600d60008373ffffffffffffffffffffffffffffffffffffffff1673ffffffffffffffffffffffffffffffffffffffff16815260200190815260200160002060009054906101000a900460ff169050919050565b600061265d611b79565b61277561266a919061514f565b905090565b60007f01ffc9a7000000000000000000000000000000000000000000000000000000007bffffffffffffffffffffffffffffffffffffffffffffffffffffffff1916827bffffffffffffffffffffffffffffffffffffffffffffffffffffffff1916149050919050565b60008073ffffffffffffffffffffffffffffffffffffffff166002600084815260200190815260200160002060009054906101000a900473ffffffffffffffffffffffffffffffffffffffff1673ffffffffffffffffffffffffffffffffffffffff1614159050919050565b600033905090565b816004600083815260200190815260200160002060006101000a81548173ffffffffffffffffffffffffffffffffffffffff021916908373ffffffffffffffffffffffffffffffffffffffff160217905550808273ffffffffffffffffffffffffffffffffffffffff166127c0836113b6565b73ffffffffffffffffffffffffffffffffffffffff167f8c5be1e5ebec7d5bd14f71427d1e84f3dd0314c0f7b2291e5b200ac8c7c3b92560405160405180910390a45050565b6000612811826126d9565b612850576040517f08c379a000000000000000000000000000000000000000000000000000000000815260040161284790614c38565b60405180910390fd5b600061285b836113b6565b90508073ffffffffffffffffffffffffffffffffffffffff168473ffffffffffffffffffffffffffffffffffffffff1614806128ca57508373ffffffffffffffffffffffffffffffffffffffff166128b284610ab6565b73ffffffffffffffffffffffffffffffffffffffff16145b806128db57506128da81856123f5565b5b91505092915050565b8273ffffffffffffffffffffffffffffffffffffffff16612904826113b6565b73ffffffffffffffffffffffffffffffffffffffff161461295a576040517f08c379a000000000000000000000000000000000000000000000000000000000815260040161295190614d18565b60405180910390fd5b600073ffffffffffffffffffffffffffffffffffffffff168273ffffffffffffffffffffffffffffffffffffffff1614156129ca576040517f08c379a00000000000000000000000000000000000000000000000000000000081526004016129c190614bb8565b60405180910390fd5b6129d58383836130fa565b6129e060008261274d565b6001600360008573ffffffffffffffffffffffffffffffffffffffff1673ffffffffffffffffffffffffffffffffffffffff1681526020019081526020016000206000828254612a30919061514f565b925050819055506001600360008473ffffffffffffffffffffffffffffffffffffffff1673ffffffffffffffffffffffffffffffffffffffff1681526020019081526020016000206000828254612a879190615037565b92505081905550816002600083815260200190815260200160002060006101000a81548173ffffffffffffffffffffffffffffffffffffffff021916908373ffffffffffffffffffffffffffffffffffffffff160217905550808273ffffffffffffffffffffffffffffffffffffffff168473ffffffffffffffffffffffffffffffffffffffff167fddf252ad1be2c89b69c2b068fc378daa952ba7f163c4a11628f55a4df523b3ef60405160405180910390a4505050565b612b4a8282612eac565b6001600c600083815260200190815260200160002060006101000a81548160ff021916908315150217905550807fe022f58b17edead5c8a541758e9b66796ebfbf27d6fd8044500f2468ac6e39fc60405160405180910390a25050565b6000600760009054906101000a900473ffffffffffffffffffffffffffffffffffffffff16905081600760006101000a81548173ffffffffffffffffffffffffffffffffffffffff021916908373ffffffffffffffffffffffffffffffffffffffff1602179055508173ffffffffffffffffffffffffffffffffffffffff168173ffffffffffffffffffffffffffffffffffffffff167f8be0079c531659141344cd1fd0a4f28419497f9722a3daafe3b4186f6b6457e060405160405180910390a35050565b60008183612c7b91906150f5565b905092915050565b60007f000000000000000000000000000000000000000000000000000000000000000073ffffffffffffffffffffffffffffffffffffffff16634000aea07f000000000000000000000000000000000000000000000000000000000000000084866000604051602001612cf7929190614aa8565b6040516020818303038152906040526040518463ffffffff1660e01b8152600401612d24939291906149fd565b602060405180830381600087803b158015612d3e57600080fd5b505af1158015612d52573d6000803e3d6000fd5b505050506040513d601f19601f82011682018060405250810190612d769190613ce7565b506000612d998460003060066000898152602001908152602001600020546130ff565b905060016006600086815260200190815260200160002054612dbb9190615037565b6006600086815260200190815260200160002081905550612ddc848261313b565b91505092915050565b60008183612df391906150c4565b905092915050565b60008273ffffffffffffffffffffffffffffffffffffffff1682604051612e2190614981565b60006040518083038185875af1925050503d8060008114612e5e576040519150601f19603f3d011682016040523d82523d6000602084013e612e63565b606091505b5050905080612ea7576040517f08c379a0000000000000000000000000000000000000000000000000000000008152600401612e9e90614e58565b60405180910390fd5b505050565b612ec682826040518060200160405280600081525061316e565b5050565b60606000612ed6611468565b809250819350505060008114612f21576040517f08c379a0000000000000000000000000000000000000000000000000000000008152600401612f1890614e98565b60405180910390fd5b6000600c600080815260200190815260200160002060009054906101000a900460ff16612f4f576001612f52565b60005b60ff168285612f6191906152df565b612f6b9190615037565b90506000600b600087815260200190815260200160002060009054906101000a900473ffffffffffffffffffffffffffffffffffffffff169050612fef81858481518110612fe2577f4e487b7100000000000000000000000000000000000000000000000000000000600052603260045260246000fd5b6020026020010151612b40565b505050505050565b6130028484846128e4565b61300e848484846131c9565b61304d576040517f08c379a000000000000000000000000000000000000000000000000000000000815260040161304490614b58565b60405180910390fd5b50505050565b606061305e826126d9565b61309d576040517f08c379a000000000000000000000000000000000000000000000000000000000815260040161309490614d38565b60405180910390fd5b60006130a7613360565b905060008151116130c757604051806020016040528060008152506130f2565b806130d1846133f2565b6040516020016130e292919061495d565b6040516020818303038152906040525b915050919050565b505050565b6000848484846040516020016131189493929190614ad1565b6040516020818303038152906040528051906020012060001c9050949350505050565b60008282604051602001613150929190614931565b60405160208183030381529060405280519060200120905092915050565b613178838361359f565b61318560008484846131c9565b6131c4576040517f08c379a00000000000000000000000000000000000000000000000000000000081526004016131bb90614b58565b60405180910390fd5b505050565b60006131ea8473ffffffffffffffffffffffffffffffffffffffff1661376d565b15613353578373ffffffffffffffffffffffffffffffffffffffff1663150b7a02613213612745565b8786866040518563ffffffff1660e01b815260040161323594939291906149b1565b602060405180830381600087803b15801561324f57600080fd5b505af192505050801561328057506040513d601f19601f8201168201806040525081019061327d9190613d75565b60015b613303573d80600081146132b0576040519150601f19603f3d011682016040523d82523d6000602084013e6132b5565b606091505b506000815114156132fb576040517f08c379a00000000000000000000000000000000000000000000000000000000081526004016132f290614b58565b60405180910390fd5b805181602001fd5b63150b7a0260e01b7bffffffffffffffffffffffffffffffffffffffffffffffffffffffff1916817bffffffffffffffffffffffffffffffffffffffffffffffffffffffff191614915050613358565b600190505b949350505050565b60606010805461336f90615250565b80601f016020809104026020016040519081016040528092919081815260200182805461339b90615250565b80156133e85780601f106133bd576101008083540402835291602001916133e8565b820191906000526020600020905b8154815290600101906020018083116133cb57829003601f168201915b5050505050905090565b6060600082141561343a576040518060400160405280600181526020017f3000000000000000000000000000000000000000000000000000000000000000815250905061359a565b600082905060005b6000821461346c57808061345590615282565b915050600a8261346591906150c4565b9150613442565b60008167ffffffffffffffff8111156134ae577f4e487b7100000000000000000000000000000000000000000000000000000000600052604160045260246000fd5b6040519080825280601f01601f1916602001820160405280156134e05781602001600182028036833780820191505090505b5090505b60008514613593576001826134f9919061514f565b9150600a8561350891906152df565b60306135149190615037565b60f81b818381518110613550577f4e487b7100000000000000000000000000000000000000000000000000000000600052603260045260246000fd5b60200101907effffffffffffffffffffffffffffffffffffffffffffffffffffffffffffff1916908160001a905350600a8561358c91906150c4565b94506134e4565b8093505050505b919050565b600073ffffffffffffffffffffffffffffffffffffffff168273ffffffffffffffffffffffffffffffffffffffff16141561360f576040517f08c379a000000000000000000000000000000000000000000000000000000000815260040161360690614cb8565b60405180910390fd5b613618816126d9565b15613658576040517f08c379a000000000000000000000000000000000000000000000000000000000815260040161364f90614b98565b60405180910390fd5b613664600083836130fa565b6001600360008473ffffffffffffffffffffffffffffffffffffffff1673ffffffffffffffffffffffffffffffffffffffff16815260200190815260200160002060008282546136b49190615037565b92505081905550816002600083815260200190815260200160002060006101000a81548173ffffffffffffffffffffffffffffffffffffffff021916908373ffffffffffffffffffffffffffffffffffffffff160217905550808273ffffffffffffffffffffffffffffffffffffffff16600073ffffffffffffffffffffffffffffffffffffffff167fddf252ad1be2c89b69c2b068fc378daa952ba7f163c4a11628f55a4df523b3ef60405160405180910390a45050565b600080823b905060008111915050919050565b82805461378c90615250565b90600052602060002090601f0160209004810192826137ae57600085556137f5565b82601f106137c757805160ff19168380011785556137f5565b828001600101855582156137f5579182015b828111156137f45782518255916020019190600101906137d9565b5b5090506138029190613806565b5090565b5b8082111561381f576000816000905550600101613807565b5090565b600061383661383184614f24565b614ef3565b9050808382526020820190508285602086028201111561385557600080fd5b60005b85811015613885578161386b8882613a07565b845260208401935060208301925050600181019050613858565b5050509392505050565b60006138a261389d84614f50565b614ef3565b9050828152602081018484840111156138ba57600080fd5b6138c584828561520e565b509392505050565b60006138e06138db84614f80565b614ef3565b9050828152602081018484840111156138f857600080fd5b61390384828561520e565b509392505050565b60008135905061391a816153dd565b92915050565b600082601f83011261393157600080fd5b8135613941848260208601613823565b91505092915050565b600081359050613959816153f4565b92915050565b60008151905061396e816153f4565b92915050565b6000813590506139838161540b565b92915050565b60008135905061399881615422565b92915050565b6000815190506139ad81615422565b92915050565b600082601f8301126139c457600080fd5b81356139d484826020860161388f565b91505092915050565b600082601f8301126139ee57600080fd5b81356139fe8482602086016138cd565b91505092915050565b600081359050613a1681615439565b92915050565b600081519050613a2b81615439565b92915050565b600081359050613a4081615450565b92915050565b600060208284031215613a5857600080fd5b6000613a668482850161390b565b91505092915050565b60008060408385031215613a8257600080fd5b6000613a908582860161390b565b9250506020613aa18582860161390b565b9150509250929050565b600080600060608486031215613ac057600080fd5b6000613ace8682870161390b565b9350506020613adf8682870161390b565b9250506040613af086828701613a07565b9150509250925092565b60008060008060808587031215613b1057600080fd5b6000613b1e8782880161390b565b9450506020613b2f8782880161390b565b9350506040613b4087828801613a07565b925050606085013567ffffffffffffffff811115613b5d57600080fd5b613b69878288016139b3565b91505092959194509250565b60008060408385031215613b8857600080fd5b6000613b968582860161390b565b9250506020613ba78582860161394a565b9150509250929050565b60008060408385031215613bc457600080fd5b6000613bd28582860161390b565b925050602083013567ffffffffffffffff811115613bef57600080fd5b613bfb858286016139dd565b9150509250929050565b60008060408385031215613c1857600080fd5b6000613c268582860161390b565b9250506020613c3785828601613a07565b9150509250929050565b60008060408385031215613c5457600080fd5b6000613c628582860161390b565b9250506020613c7385828601613a31565b9150509250929050565b600060208284031215613c8f57600080fd5b600082013567ffffffffffffffff811115613ca957600080fd5b613cb584828501613920565b91505092915050565b600060208284031215613cd057600080fd5b6000613cde8482850161394a565b91505092915050565b600060208284031215613cf957600080fd5b6000613d078482850161395f565b91505092915050565b60008060408385031215613d2357600080fd5b6000613d3185828601613974565b9250506020613d4285828601613a07565b9150509250929050565b600060208284031215613d5e57600080fd5b6000613d6c84828501613989565b91505092915050565b600060208284031215613d8757600080fd5b6000613d958482850161399e565b91505092915050565b600060208284031215613db057600080fd5b600082013567ffffffffffffffff811115613dca57600080fd5b613dd6848285016139dd565b91505092915050565b600060208284031215613df157600080fd5b6000613dff84828501613a07565b91505092915050565b600060208284031215613e1a57600080fd5b6000613e2884828501613a1c565b91505092915050565b6000613e3d83836148fc565b60208301905092915050565b613e5281615183565b82525050565b6000613e6382614fc0565b613e6d8185614fee565b9350613e7883614fb0565b8060005b83811015613ea9578151613e908882613e31565b9750613e9b83614fe1565b925050600181019050613e7c565b5085935050505092915050565b613ebf81615195565b82525050565b613ece816151a1565b82525050565b613ee5613ee0826151a1565b6152cb565b82525050565b6000613ef682614fcb565b613f008185614fff565b9350613f1081856020860161521d565b613f19816153cc565b840191505092915050565b6000613f2f82614fd6565b613f39818561501b565b9350613f4981856020860161521d565b613f52816153cc565b840191505092915050565b6000613f6882614fd6565b613f72818561502c565b9350613f8281856020860161521d565b80840191505092915050565b6000613f9b600e8361501b565b91507f416c7265616479206d696e7465640000000000000000000000000000000000006000830152602082019050919050565b6000613fdb60328361501b565b91507f4552433732313a207472616e7366657220746f206e6f6e20455243373231526560008301527f63656976657220696d706c656d656e74657200000000000000000000000000006020830152604082019050919050565b600061404160268361501b565b91507f4f776e61626c653a206e6577206f776e657220697320746865207a65726f206160008301527f64647265737300000000000000000000000000000000000000000000000000006020830152604082019050919050565b60006140a7601c8361501b565b91507f4552433732313a20746f6b656e20616c7265616479206d696e746564000000006000830152602082019050919050565b60006140e760248361501b565b91507f4552433732313a207472616e7366657220746f20746865207a65726f2061646460008301527f72657373000000000000000000000000000000000000000000000000000000006020830152604082019050919050565b600061414d60198361501b565b91507f4552433732313a20617070726f766520746f2063616c6c6572000000000000006000830152602082019050919050565b600061418d602b8361501b565b91507f4e6f7420656e6f756768204c494e4b202d2066696c6c20636f6e74726163742060008301527f77697468206661756365740000000000000000000000000000000000000000006020830152604082019050919050565b60006141f360098361501b565b91507f4d6178206c696d697400000000000000000000000000000000000000000000006000830152602082019050919050565b6000614233602c8361501b565b91507f4552433732313a206f70657261746f7220717565727920666f72206e6f6e657860008301527f697374656e7420746f6b656e00000000000000000000000000000000000000006020830152604082019050919050565b600061429960388361501b565b91507f4552433732313a20617070726f76652063616c6c6572206973206e6f74206f7760008301527f6e6572206e6f7220617070726f76656420666f7220616c6c00000000000000006020830152604082019050919050565b60006142ff602a8361501b565b91507f4552433732313a2062616c616e636520717565727920666f7220746865207a6560008301527f726f2061646472657373000000000000000000000000000000000000000000006020830152604082019050919050565b600061436560298361501b565b91507f4552433732313a206f776e657220717565727920666f72206e6f6e657869737460008301527f656e7420746f6b656e00000000000000000000000000000000000000000000006020830152604082019050919050565b60006143cb60208361501b565b91507f4552433732313a206d696e7420746f20746865207a65726f20616464726573736000830152602082019050919050565b600061440b602c8361501b565b91507f4552433732313a20617070726f76656420717565727920666f72206e6f6e657860008301527f697374656e7420746f6b656e00000000000000000000000000000000000000006020830152604082019050919050565b600061447160208361501b565b91507f4f776e61626c653a2063616c6c6572206973206e6f7420746865206f776e65726000830152602082019050919050565b60006144b160298361501b565b91507f4552433732313a207472616e73666572206f6620746f6b656e2074686174206960008301527f73206e6f74206f776e00000000000000000000000000000000000000000000006020830152604082019050919050565b6000614517602f8361501b565b91507f4552433732314d657461646174613a2055524920717565727920666f72206e6f60008301527f6e6578697374656e7420746f6b656e00000000000000000000000000000000006020830152604082019050919050565b600061457d601f8361501b565b91507f4f6e6c7920565246436f6f7264696e61746f722063616e2066756c66696c6c006000830152602082019050919050565b60006145bd60118361501b565b91507f56616c75652062656c6f772070726963650000000000000000000000000000006000830152602082019050919050565b60006145fd60108361501b565b91507f50617573652069732064697361626c65000000000000000000000000000000006000830152602082019050919050565b600061463d600f8361501b565b91507f416c72656164792072656d6f76656400000000000000000000000000000000006000830152602082019050919050565b600061467d60218361501b565b91507f4552433732313a20617070726f76616c20746f2063757272656e74206f776e6560008301527f72000000000000000000000000000000000000000000000000000000000000006020830152604082019050919050565b60006146e360248361501b565b91507f41646472657373206973206e6f7420696e636c7564656420696e20776869746560008301527f4c697374000000000000000000000000000000000000000000000000000000006020830152604082019050919050565b6000614749600e8361501b565b91507f53616c6573206e6f74206f70656e0000000000000000000000000000000000006000830152602082019050919050565b6000614789600083615010565b9150600082019050919050565b60006147a3600d8361501b565b91507f416c7265616479204164646564000000000000000000000000000000000000006000830152602082019050919050565b60006147e360108361501b565b91507f5472616e73666572206661696c65642e000000000000000000000000000000006000830152602082019050919050565b600061482360318361501b565b91507f4552433732313a207472616e736665722063616c6c6572206973206e6f74206f60008301527f776e6572206e6f7220617070726f7665640000000000000000000000000000006020830152604082019050919050565b600061488960088361501b565b91507f536f6c64206f75740000000000000000000000000000000000000000000000006000830152602082019050919050565b60006148c960088361501b565b91507f536f6c646f7574210000000000000000000000000000000000000000000000006000830152602082019050919050565b614905816151f7565b82525050565b614914816151f7565b82525050565b61492b614926826151f7565b6152d5565b82525050565b600061493d8285613ed4565b60208201915061494d828461491a565b6020820191508190509392505050565b60006149698285613f5d565b91506149758284613f5d565b91508190509392505050565b600061498c8261477c565b9150819050919050565b60006020820190506149ab6000830184613e49565b92915050565b60006080820190506149c66000830187613e49565b6149d36020830186613e49565b6149e0604083018561490b565b81810360608301526149f28184613eeb565b905095945050505050565b6000606082019050614a126000830186613e49565b614a1f602083018561490b565b8181036040830152614a318184613eeb565b9050949350505050565b60006020820190508181036000830152614a558184613e58565b905092915050565b60006040820190508181036000830152614a778185613e58565b9050614a86602083018461490b565b9392505050565b6000602082019050614aa26000830184613eb6565b92915050565b6000604082019050614abd6000830185613ec5565b614aca602083018461490b565b9392505050565b6000608082019050614ae66000830187613ec5565b614af3602083018661490b565b614b006040830185613e49565b614b0d606083018461490b565b95945050505050565b60006020820190508181036000830152614b308184613f24565b905092915050565b60006020820190508181036000830152614b5181613f8e565b9050919050565b60006020820190508181036000830152614b7181613fce565b9050919050565b60006020820190508181036000830152614b9181614034565b9050919050565b60006020820190508181036000830152614bb18161409a565b9050919050565b60006020820190508181036000830152614bd1816140da565b9050919050565b60006020820190508181036000830152614bf181614140565b9050919050565b60006020820190508181036000830152614c1181614180565b9050919050565b60006020820190508181036000830152614c31816141e6565b9050919050565b60006020820190508181036000830152614c5181614226565b9050919050565b60006020820190508181036000830152614c718161428c565b9050919050565b60006020820190508181036000830152614c91816142f2565b9050919050565b60006020820190508181036000830152614cb181614358565b9050919050565b60006020820190508181036000830152614cd1816143be565b9050919050565b60006020820190508181036000830152614cf1816143fe565b9050919050565b60006020820190508181036000830152614d1181614464565b9050919050565b60006020820190508181036000830152614d31816144a4565b9050919050565b60006020820190508181036000830152614d518161450a565b9050919050565b60006020820190508181036000830152614d7181614570565b9050919050565b60006020820190508181036000830152614d91816145b0565b9050919050565b60006020820190508181036000830152614db1816145f0565b9050919050565b60006020820190508181036000830152614dd181614630565b9050919050565b60006020820190508181036000830152614df181614670565b9050919050565b60006020820190508181036000830152614e11816146d6565b9050919050565b60006020820190508181036000830152614e318161473c565b9050919050565b60006020820190508181036000830152614e5181614796565b9050919050565b60006020820190508181036000830152614e71816147d6565b9050919050565b60006020820190508181036000830152614e9181614816565b9050919050565b60006020820190508181036000830152614eb18161487c565b9050919050565b60006020820190508181036000830152614ed1816148bc565b9050919050565b6000602082019050614eed600083018461490b565b92915050565b6000604051905081810181811067ffffffffffffffff82111715614f1a57614f1961539d565b5b8060405250919050565b600067ffffffffffffffff821115614f3f57614f3e61539d565b5b602082029050602081019050919050565b600067ffffffffffffffff821115614f6b57614f6a61539d565b5b601f19601f8301169050602081019050919050565b600067ffffffffffffffff821115614f9b57614f9a61539d565b5b601f19601f8301169050602081019050919050565b6000819050602082019050919050565b600081519050919050565b600081519050919050565b600081519050919050565b6000602082019050919050565b600082825260208201905092915050565b600082825260208201905092915050565b600081905092915050565b600082825260208201905092915050565b600081905092915050565b6000615042826151f7565b915061504d836151f7565b9250827fffffffffffffffffffffffffffffffffffffffffffffffffffffffffffffffff0382111561508257615081615310565b5b828201905092915050565b600061509882615201565b91506150a383615201565b92508260ff038211156150b9576150b8615310565b5b828201905092915050565b60006150cf826151f7565b91506150da836151f7565b9250826150ea576150e961533f565b5b828204905092915050565b6000615100826151f7565b915061510b836151f7565b9250817fffffffffffffffffffffffffffffffffffffffffffffffffffffffffffffffff048311821515161561514457615143615310565b5b828202905092915050565b600061515a826151f7565b9150615165836151f7565b92508282101561517857615177615310565b5b828203905092915050565b600061518e826151d7565b9050919050565b60008115159050919050565b6000819050919050565b60007fffffffff0000000000000000000000000000000000000000000000000000000082169050919050565b600073ffffffffffffffffffffffffffffffffffffffff82169050919050565b6000819050919050565b600060ff82169050919050565b82818337600083830152505050565b60005b8381101561523b578082015181840152602081019050615220565b8381111561524a576000848401525b50505050565b6000600282049050600182168061526857607f821691505b6020821081141561527c5761527b61536e565b5b50919050565b600061528d826151f7565b91507fffffffffffffffffffffffffffffffffffffffffffffffffffffffffffffffff8214156152c0576152bf615310565b5b600182019050919050565b6000819050919050565b6000819050919050565b60006152ea826151f7565b91506152f5836151f7565b9250826153055761530461533f565b5b828206905092915050565b7f4e487b7100000000000000000000000000000000000000000000000000000000600052601160045260246000fd5b7f4e487b7100000000000000000000000000000000000000000000000000000000600052601260045260246000fd5b7f4e487b7100000000000000000000000000000000000000000000000000000000600052602260045260246000fd5b7f4e487b7100000000000000000000000000000000000000000000000000000000600052604160045260246000fd5b6000601f19601f8301169050919050565b6153e681615183565b81146153f157600080fd5b50565b6153fd81615195565b811461540857600080fd5b50565b615414816151a1565b811461541f57600080fd5b50565b61542b816151ab565b811461543657600080fd5b50565b615442816151f7565b811461544d57600080fd5b50565b61545981615201565b811461546457600080fd5b5056fea2646970667358221220361cf956f63a2f6a7e899a20a170507f9291fb46c6dfe785a02d9806b487b8d164736f6c63430008000033",
  "linkReferences": {},
  "deployedLinkReferences": {}
}