{
  "_format": "hh-sol-artifact-1",
  "contractName": "StarNft",
  "sourceName": "contracts/StarNft.sol",
  "abi": [
    {
      "inputs": [
        {
          "internalType": "string",
          "name": "baseURI",
          "type": "string"
        },
        {
          "internalType": "address",
          "name": "vrfCoordinator",
          "type": "address"
        },
        {
          "internalType": "address",
          "name": "vrfLinkToken",
          "type": "address"
        },
        {
          "internalType": "bytes32",
          "name": "vrfKeyhash",
          "type": "bytes32"
        }
      ],
      "stateMutability": "nonpayable",
      "type": "constructor"
    },
    {
      "anonymous": false,
      "inputs": [
        {
          "indexed": true,
          "internalType": "address",
          "name": "owner",
          "type": "address"
        },
        {
          "indexed": true,
          "internalType": "address",
          "name": "approved",
          "type": "address"
        },
        {
          "indexed": true,
          "internalType": "uint256",
          "name": "tokenId",
          "type": "uint256"
        }
      ],
      "name": "Approval",
      "type": "event"
    },
    {
      "anonymous": false,
      "inputs": [
        {
          "indexed": true,
          "internalType": "address",
          "name": "owner",
          "type": "address"
        },
        {
          "indexed": true,
          "internalType": "address",
          "name": "operator",
          "type": "address"
        },
        {
          "indexed": false,
          "internalType": "bool",
          "name": "approved",
          "type": "bool"
        }
      ],
      "name": "ApprovalForAll",
      "type": "event"
    },
    {
      "anonymous": false,
      "inputs": [
        {
          "indexed": true,
          "internalType": "uint256",
          "name": "tokenId",
          "type": "uint256"
        },
        {
          "indexed": true,
          "internalType": "uint256",
          "name": "remainCount",
          "type": "uint256"
        }
      ],
      "name": "MintedNewNFT",
      "type": "event"
    },
    {
      "anonymous": false,
      "inputs": [],
      "name": "MintedSpecialNFT",
      "type": "event"
    },
    {
      "anonymous": false,
      "inputs": [
        {
          "indexed": true,
          "internalType": "address",
          "name": "previousOwner",
          "type": "address"
        },
        {
          "indexed": true,
          "internalType": "address",
          "name": "newOwner",
          "type": "address"
        }
      ],
      "name": "OwnershipTransferred",
      "type": "event"
    },
    {
      "anonymous": false,
      "inputs": [
        {
          "indexed": false,
          "internalType": "bool",
          "name": "pause",
          "type": "bool"
        }
      ],
      "name": "PauseEvent",
      "type": "event"
    },
    {
      "anonymous": false,
      "inputs": [
        {
          "indexed": true,
          "internalType": "address",
          "name": "from",
          "type": "address"
        },
        {
          "indexed": true,
          "internalType": "address",
          "name": "to",
          "type": "address"
        },
        {
          "indexed": true,
          "internalType": "uint256",
          "name": "tokenId",
          "type": "uint256"
        }
      ],
      "name": "Transfer",
      "type": "event"
    },
    {
      "inputs": [],
      "name": "ABC_ADDRESS",
      "outputs": [
        {
          "internalType": "address",
          "name": "",
          "type": "address"
        }
      ],
      "stateMutability": "view",
      "type": "function"
    },
    {
      "inputs": [],
      "name": "BREED_PRICE",
      "outputs": [
        {
          "internalType": "uint256",
          "name": "",
          "type": "uint256"
        }
      ],
      "stateMutability": "view",
      "type": "function"
    },
    {
      "inputs": [],
      "name": "INITIAL_TOKEN_COUNT",
      "outputs": [
        {
          "internalType": "uint256",
          "name": "",
          "type": "uint256"
        }
      ],
      "stateMutability": "view",
      "type": "function"
    },
    {
      "inputs": [],
      "name": "MINT_PRICE",
      "outputs": [
        {
          "internalType": "uint256",
          "name": "",
          "type": "uint256"
        }
      ],
      "stateMutability": "view",
      "type": "function"
    },
    {
      "inputs": [],
      "name": "TEST_ADDRESS",
      "outputs": [
        {
          "internalType": "address",
          "name": "",
          "type": "address"
        }
      ],
      "stateMutability": "view",
      "type": "function"
    },
    {
      "inputs": [],
      "name": "XYZ_ADDRESS",
      "outputs": [
        {
          "internalType": "address",
          "name": "",
          "type": "address"
        }
      ],
      "stateMutability": "view",
      "type": "function"
    },
    {
      "inputs": [
        {
          "internalType": "address[]",
          "name": "addrs",
          "type": "address[]"
        }
      ],
      "name": "addWhiteLists",
      "outputs": [],
      "stateMutability": "nonpayable",
      "type": "function"
    },
    {
      "inputs": [
        {
          "internalType": "address",
          "name": "to",
          "type": "address"
        },
        {
          "internalType": "uint256",
          "name": "tokenId",
          "type": "uint256"
        }
      ],
      "name": "approve",
      "outputs": [],
      "stateMutability": "nonpayable",
      "type": "function"
    },
    {
      "inputs": [
        {
          "internalType": "address",
          "name": "owner",
          "type": "address"
        }
      ],
      "name": "balanceOf",
      "outputs": [
        {
          "internalType": "uint256",
          "name": "",
          "type": "uint256"
        }
      ],
      "stateMutability": "view",
      "type": "function"
    },
    {
      "inputs": [
        {
          "internalType": "uint256",
          "name": "tokenId",
          "type": "uint256"
        }
      ],
      "name": "getApproved",
      "outputs": [
        {
          "internalType": "address",
          "name": "",
          "type": "address"
        }
      ],
      "stateMutability": "view",
      "type": "function"
    },
    {
      "inputs": [
        {
          "internalType": "address",
          "name": "owner",
          "type": "address"
        },
        {
          "internalType": "address",
          "name": "operator",
          "type": "address"
        }
      ],
      "name": "isApprovedForAll",
      "outputs": [
        {
          "internalType": "bool",
          "name": "",
          "type": "bool"
        }
      ],
      "stateMutability": "view",
      "type": "function"
    },
    {
      "inputs": [
        {
          "internalType": "address",
          "name": "addr",
          "type": "address"
        }
      ],
      "name": "isWhiteList",
      "outputs": [
        {
          "internalType": "bool",
          "name": "",
          "type": "bool"
        }
      ],
      "stateMutability": "view",
      "type": "function"
    },
    {
      "inputs": [],
      "name": "isWhiteList1",
      "outputs": [
        {
          "internalType": "address",
          "name": "",
          "type": "address"
        }
      ],
      "stateMutability": "view",
      "type": "function"
    },
    {
      "inputs": [
        {
          "internalType": "address",
          "name": "to_",
          "type": "address"
        },
        {
          "internalType": "string",
          "name": "tokenUri_",
          "type": "string"
        }
      ],
      "name": "mintBreedToken",
      "outputs": [],
      "stateMutability": "payable",
      "type": "function"
    },
    {
      "inputs": [],
      "name": "mintUnsoldTokens",
      "outputs": [],
      "stateMutability": "nonpayable",
      "type": "function"
    },
    {
      "inputs": [],
      "name": "mintedInitialTokenCount",
      "outputs": [
        {
          "internalType": "uint256",
          "name": "",
          "type": "uint256"
        }
      ],
      "stateMutability": "view",
      "type": "function"
    },
    {
      "inputs": [],
      "name": "mintedTokenCount",
      "outputs": [
        {
          "internalType": "uint256",
          "name": "",
          "type": "uint256"
        }
      ],
      "stateMutability": "view",
      "type": "function"
    },
    {
      "inputs": [],
      "name": "name",
      "outputs": [
        {
          "internalType": "string",
          "name": "",
          "type": "string"
        }
      ],
      "stateMutability": "view",
      "type": "function"
    },
    {
      "inputs": [],
      "name": "owner",
      "outputs": [
        {
          "internalType": "address",
          "name": "",
          "type": "address"
        }
      ],
      "stateMutability": "view",
      "type": "function"
    },
    {
      "inputs": [
        {
          "internalType": "uint256",
          "name": "tokenId",
          "type": "uint256"
        }
      ],
      "name": "ownerOf",
      "outputs": [
        {
          "internalType": "address",
          "name": "",
          "type": "address"
        }
      ],
      "stateMutability": "view",
      "type": "function"
    },
    {
      "inputs": [
        {
          "internalType": "bytes32",
          "name": "requestId",
          "type": "bytes32"
        },
        {
          "internalType": "uint256",
          "name": "randomness",
          "type": "uint256"
        }
      ],
      "name": "rawFulfillRandomness",
      "outputs": [],
      "stateMutability": "nonpayable",
      "type": "function"
    },
    {
      "inputs": [],
      "name": "remainTokenCount",
      "outputs": [
        {
          "internalType": "uint256",
          "name": "",
          "type": "uint256"
        }
      ],
      "stateMutability": "view",
      "type": "function"
    },
    {
      "inputs": [
        {
          "internalType": "address",
          "name": "addr",
          "type": "address"
        }
      ],
      "name": "removeWhiteList",
      "outputs": [],
      "stateMutability": "nonpayable",
      "type": "function"
    },
    {
      "inputs": [],
      "name": "renounceOwnership",
      "outputs": [],
      "stateMutability": "nonpayable",
      "type": "function"
    },
    {
      "inputs": [
        {
          "internalType": "address",
          "name": "_to",
          "type": "address"
        },
        {
          "internalType": "uint8",
          "name": "amount",
          "type": "uint8"
        }
      ],
      "name": "requestRandomNFT",
      "outputs": [],
      "stateMutability": "payable",
      "type": "function"
    },
    {
      "inputs": [
        {
          "internalType": "address",
          "name": "from",
          "type": "address"
        },
        {
          "internalType": "address",
          "name": "to",
          "type": "address"
        },
        {
          "internalType": "uint256",
          "name": "tokenId",
          "type": "uint256"
        }
      ],
      "name": "safeTransferFrom",
      "outputs": [],
      "stateMutability": "nonpayable",
      "type": "function"
    },
    {
      "inputs": [
        {
          "internalType": "address",
          "name": "from",
          "type": "address"
        },
        {
          "internalType": "address",
          "name": "to",
          "type": "address"
        },
        {
          "internalType": "uint256",
          "name": "tokenId",
          "type": "uint256"
        },
        {
          "internalType": "bytes",
          "name": "_data",
          "type": "bytes"
        }
      ],
      "name": "safeTransferFrom",
      "outputs": [],
      "stateMutability": "nonpayable",
      "type": "function"
    },
    {
      "inputs": [
        {
          "internalType": "address",
          "name": "operator",
          "type": "address"
        },
        {
          "internalType": "bool",
          "name": "approved",
          "type": "bool"
        }
      ],
      "name": "setApprovalForAll",
      "outputs": [],
      "stateMutability": "nonpayable",
      "type": "function"
    },
    {
      "inputs": [
        {
          "internalType": "string",
          "name": "baseURI",
          "type": "string"
        }
      ],
      "name": "setBaseURI",
      "outputs": [],
      "stateMutability": "nonpayable",
      "type": "function"
    },
    {
      "inputs": [
        {
          "internalType": "bool",
          "name": "pause",
          "type": "bool"
        }
      ],
      "name": "setPause",
      "outputs": [],
      "stateMutability": "nonpayable",
      "type": "function"
    },
    {
      "inputs": [
        {
          "internalType": "bytes4",
          "name": "interfaceId",
          "type": "bytes4"
        }
      ],
      "name": "supportsInterface",
      "outputs": [
        {
          "internalType": "bool",
          "name": "",
          "type": "bool"
        }
      ],
      "stateMutability": "view",
      "type": "function"
    },
    {
      "inputs": [],
      "name": "symbol",
      "outputs": [
        {
          "internalType": "string",
          "name": "",
          "type": "string"
        }
      ],
      "stateMutability": "view",
      "type": "function"
    },
    {
      "inputs": [],
      "name": "testOwner",
      "outputs": [
        {
          "internalType": "address",
          "name": "",
          "type": "address"
        }
      ],
      "stateMutability": "view",
      "type": "function"
    },
    {
      "inputs": [
        {
          "internalType": "uint256",
          "name": "tokenId",
          "type": "uint256"
        }
      ],
      "name": "tokenURI",
      "outputs": [
        {
          "internalType": "string",
          "name": "",
          "type": "string"
        }
      ],
      "stateMutability": "view",
      "type": "function"
    },
    {
      "inputs": [
        {
          "internalType": "address",
          "name": "from",
          "type": "address"
        },
        {
          "internalType": "address",
          "name": "to",
          "type": "address"
        },
        {
          "internalType": "uint256",
          "name": "tokenId",
          "type": "uint256"
        }
      ],
      "name": "transferFrom",
      "outputs": [],
      "stateMutability": "nonpayable",
      "type": "function"
    },
    {
      "inputs": [
        {
          "internalType": "address",
          "name": "newOwner",
          "type": "address"
        }
      ],
      "name": "transferOwnership",
      "outputs": [],
      "stateMutability": "nonpayable",
      "type": "function"
    },
    {
      "inputs": [
        {
          "internalType": "address",
          "name": "owner",
          "type": "address"
        }
      ],
      "name": "walletOfOwner",
      "outputs": [
        {
          "internalType": "uint256[]",
          "name": "",
          "type": "uint256[]"
        }
      ],
      "stateMutability": "view",
      "type": "function"
    },
    {
      "inputs": [
        {
          "internalType": "address",
          "name": "",
          "type": "address"
        }
      ],
      "name": "whiteList",
      "outputs": [
        {
          "internalType": "bool",
          "name": "",
          "type": "bool"
        }
      ],
      "stateMutability": "view",
      "type": "function"
    },
    {
      "inputs": [],
      "name": "withdrawAll",
      "outputs": [],
      "stateMutability": "nonpayable",
      "type": "function"
    }
  ],
  "bytecode": "0x60c060405267016345785d8a0000600a556000601060006101000a81548160ff0219169083151502179055506000601060016101000a81548160ff02191690831515021790555060006012553480156200005857600080fd5b5060405162005f6338038062005f6383398181016040528101906200007e919062000905565b82826040518060400160405280600781526020017f537461724e6674000000000000000000000000000000000000000000000000008152506040518060400160405280600481526020017f5374617200000000000000000000000000000000000000000000000000000000815250816000908051906020019062000104929190620007b5565b5080600190805190602001906200011d929190620007b5565b5050508173ffffffffffffffffffffffffffffffffffffffff1660a08173ffffffffffffffffffffffffffffffffffffffff1660601b815250508073ffffffffffffffffffffffffffffffffffffffff1660808173ffffffffffffffffffffffffffffffffffffffff1660601b815250505050620001b0620001a4620004c260201b60201c565b620004ca60201b60201c565b620001c1846200059060201b60201c565b82600c60006101000a81548173ffffffffffffffffffffffffffffffffffffffff021916908373ffffffffffffffffffffffffffffffffffffffff16021790555081600b60006101000a81548173ffffffffffffffffffffffffffffffffffffffff021916908373ffffffffffffffffffffffffffffffffffffffff1602179055508060098190555042600f819055506000600367ffffffffffffffff81111562000295577f4e487b7100000000000000000000000000000000000000000000000000000000600052604160045260246000fd5b604051908082528060200260200182016040528015620002c45781602001602082028036833780820191505090505b50905073396823f49aa9f0e3fac4b939bc27ad5cd88264db8160008151811062000317577f4e487b7100000000000000000000000000000000000000000000000000000000600052603260045260246000fd5b602002602001019073ffffffffffffffffffffffffffffffffffffffff16908173ffffffffffffffffffffffffffffffffffffffff168152505073892e10cb1299c16e469cf0f79f18cca639d00f5b81600181518110620003a1577f4e487b7100000000000000000000000000000000000000000000000000000000600052603260045260246000fd5b602002602001019073ffffffffffffffffffffffffffffffffffffffff16908173ffffffffffffffffffffffffffffffffffffffff168152505073a5dbc34d69b745d5ee9494e6960a811613b9ae32816002815181106200042b577f4e487b7100000000000000000000000000000000000000000000000000000000600052603260045260246000fd5b602002602001019073ffffffffffffffffffffffffffffffffffffffff16908173ffffffffffffffffffffffffffffffffffffffff168152505062000476816200063b60201b60201c565b33601560006101000a81548173ffffffffffffffffffffffffffffffffffffffff021916908373ffffffffffffffffffffffffffffffffffffffff160217905550505050505062000c38565b600033905090565b6000600760009054906101000a900473ffffffffffffffffffffffffffffffffffffffff16905081600760006101000a81548173ffffffffffffffffffffffffffffffffffffffff021916908373ffffffffffffffffffffffffffffffffffffffff1602179055508173ffffffffffffffffffffffffffffffffffffffff168173ffffffffffffffffffffffffffffffffffffffff167f8be0079c531659141344cd1fd0a4f28419497f9722a3daafe3b4186f6b6457e060405160405180910390a35050565b620005a0620004c260201b60201c565b73ffffffffffffffffffffffffffffffffffffffff16620005c66200078b60201b60201c565b73ffffffffffffffffffffffffffffffffffffffff16146200061f576040517f08c379a00000000000000000000000000000000000000000000000000000000081526004016200061690620009cc565b60405180910390fd5b806011908051906020019062000637929190620007b5565b5050565b6200064b620004c260201b60201c565b73ffffffffffffffffffffffffffffffffffffffff16620006716200078b60201b60201c565b73ffffffffffffffffffffffffffffffffffffffff1614620006ca576040517f08c379a0000000000000000000000000000000000000000000000000000000008152600401620006c190620009cc565b60405180910390fd5b60005b815181101562000787576001600e600084848151811062000717577f4e487b7100000000000000000000000000000000000000000000000000000000600052603260045260246000fd5b602002602001015173ffffffffffffffffffffffffffffffffffffffff1673ffffffffffffffffffffffffffffffffffffffff16815260200190815260200160002060006101000a81548160ff0219169083151502179055506001816200077f919062000a66565b9050620006cd565b5050565b6000600760009054906101000a900473ffffffffffffffffffffffffffffffffffffffff16905090565b828054620007c39062000b41565b90600052602060002090601f016020900481019282620007e7576000855562000833565b82601f106200080257805160ff191683800117855562000833565b8280016001018555821562000833579182015b828111156200083257825182559160200191906001019062000815565b5b50905062000842919062000846565b5090565b5b808211156200086157600081600090555060010162000847565b5090565b60006200087c620008768462000a22565b620009ee565b9050828152602081018484840111156200089557600080fd5b620008a284828562000b0b565b509392505050565b600081519050620008bb8162000c04565b92915050565b600081519050620008d28162000c1e565b92915050565b600082601f830112620008ea57600080fd5b8151620008fc84826020860162000865565b91505092915050565b600080600080608085870312156200091c57600080fd5b600085015167ffffffffffffffff8111156200093757600080fd5b6200094587828801620008d8565b94505060206200095887828801620008aa565b93505060406200096b87828801620008aa565b92505060606200097e87828801620008c1565b91505092959194509250565b60006200099960208362000a55565b91507f4f776e61626c653a2063616c6c6572206973206e6f7420746865206f776e65726000830152602082019050919050565b60006020820190508181036000830152620009e7816200098a565b9050919050565b6000604051905081810181811067ffffffffffffffff8211171562000a185762000a1762000bd5565b5b8060405250919050565b600067ffffffffffffffff82111562000a405762000a3f62000bd5565b5b601f19601f8301169050602081019050919050565b600082825260208201905092915050565b600062000a738262000b01565b915062000a808362000b01565b9250827fffffffffffffffffffffffffffffffffffffffffffffffffffffffffffffffff0382111562000ab85762000ab762000b77565b5b828201905092915050565b600062000ad08262000ae1565b9050919050565b6000819050919050565b600073ffffffffffffffffffffffffffffffffffffffff82169050919050565b6000819050919050565b60005b8381101562000b2b57808201518184015260208101905062000b0e565b8381111562000b3b576000848401525b50505050565b6000600282049050600182168062000b5a57607f821691505b6020821081141562000b715762000b7062000ba6565b5b50919050565b7f4e487b7100000000000000000000000000000000000000000000000000000000600052601160045260246000fd5b7f4e487b7100000000000000000000000000000000000000000000000000000000600052602260045260246000fd5b7f4e487b7100000000000000000000000000000000000000000000000000000000600052604160045260246000fd5b62000c0f8162000ac3565b811462000c1b57600080fd5b50565b62000c298162000ad7565b811462000c3557600080fd5b50565b60805160601c60a05160601c6152f162000c72600039600081816118d801526127d5015260008181611572015261279901526152f16000f3fe6080604052600436106102305760003560e01c8063853828b61161012e578063bedb86fb116100ab578063d1d6222a1161006f578063d1d6222a146107fb578063e985e9c514610826578063f2fde38b14610863578063f99031a71461088c578063fdf5a49f146108c957610230565b8063bedb86fb14610728578063bede130c14610751578063bf424e7e14610768578063c002d23d14610793578063c87b56dd146107be57610230565b806395d89b41116100f257806395d89b41146106555780639e535c6914610680578063a22cb465146106ab578063afc9aae3146106d4578063b88d4fde146106ff57610230565b8063853828b6146105a35780638d041988146105ba5780638da5cb5b146105e55780639363d1861461061057806394985ddd1461062c57610230565b8063438b6300116101bc5780636c26eab9116101805780636c26eab9146104dd57806370a0823114610508578063715018a614610545578063721c492c1461055c578063755cb2341461057857610230565b8063438b6300146103e457806351e445651461042157806355f804b31461044c578063594ebab7146104755780636352211e146104a057610230565b8063105dacdf11610203578063105dacdf146103035780632042e5c21461032c57806323b872dd14610355578063372c12b11461037e57806342842e0e146103bb57610230565b806301ffc9a71461023557806306fdde0314610272578063081812fc1461029d578063095ea7b3146102da575b600080fd5b34801561024157600080fd5b5061025c60048036038101906102579190613cd9565b6108f4565b6040516102699190614941565b60405180910390f35b34801561027e57600080fd5b506102876109d6565b60405161029491906149ca565b60405180910390f35b3480156102a957600080fd5b506102c460048036038101906102bf9190613d6c565b610a68565b6040516102d1919061487a565b60405180910390f35b3480156102e657600080fd5b5061030160048036038101906102fc9190613b92565b610aed565b005b34801561030f57600080fd5b5061032a60048036038101906103259190613c0a565b610c05565b005b34801561033857600080fd5b50610353600480360381019061034e91906139d3565b610d3d565b005b34801561036157600080fd5b5061037c60048036038101906103779190613a38565b610ea0565b005b34801561038a57600080fd5b506103a560048036038101906103a091906139d3565b610f00565b6040516103b29190614941565b60405180910390f35b3480156103c757600080fd5b506103e260048036038101906103dd9190613a38565b610f20565b005b3480156103f057600080fd5b5061040b600480360381019061040691906139d3565b610f40565b604051610418919061491f565b60405180910390f35b34801561042d57600080fd5b50610436611081565b604051610443919061487a565b60405180910390f35b34801561045857600080fd5b50610473600480360381019061046e9190613d2b565b611099565b005b34801561048157600080fd5b5061048a61112f565b604051610497919061487a565b60405180910390f35b3480156104ac57600080fd5b506104c760048036038101906104c29190613d6c565b611147565b6040516104d4919061487a565b60405180910390f35b3480156104e957600080fd5b506104f26111f9565b6040516104ff9190614d2c565b60405180910390f35b34801561051457600080fd5b5061052f600480360381019061052a91906139d3565b6111ff565b60405161053c9190614d2c565b60405180910390f35b34801561055157600080fd5b5061055a6112b7565b005b61057660048036038101906105719190613bce565b61133f565b005b34801561058457600080fd5b5061058d6116e9565b60405161059a9190614d2c565b60405180910390f35b3480156105af57600080fd5b506105b86116ef565b005b3480156105c657600080fd5b506105cf6117d0565b6040516105dc9190614d2c565b60405180910390f35b3480156105f157600080fd5b506105fa6117e7565b604051610607919061487a565b60405180910390f35b61062a60048036038101906106259190613b3e565b611811565b005b34801561063857600080fd5b50610653600480360381019061064e9190613c9d565b6118d6565b005b34801561066157600080fd5b5061066a611972565b60405161067791906149ca565b60405180910390f35b34801561068c57600080fd5b50610695611a04565b6040516106a2919061487a565b60405180910390f35b3480156106b757600080fd5b506106d260048036038101906106cd9190613b02565b611a2a565b005b3480156106e057600080fd5b506106e9611bab565b6040516106f6919061487a565b60405180910390f35b34801561070b57600080fd5b5061072660048036038101906107219190613a87565b611bba565b005b34801561073457600080fd5b5061074f600480360381019061074a9190613c4b565b611c1c565b005b34801561075d57600080fd5b50610766611cfb565b005b34801561077457600080fd5b5061077d611e47565b60405161078a9190614d2c565b60405180910390f35b34801561079f57600080fd5b506107a8611e52565b6040516107b59190614d2c565b60405180910390f35b3480156107ca57600080fd5b506107e560048036038101906107e09190613d6c565b611e5d565b6040516107f291906149ca565b60405180910390f35b34801561080757600080fd5b50610810611f65565b60405161081d919061487a565b60405180910390f35b34801561083257600080fd5b5061084d600480360381019061084891906139fc565b611f7d565b60405161085a9190614941565b60405180910390f35b34801561086f57600080fd5b5061088a600480360381019061088591906139d3565b612011565b005b34801561089857600080fd5b506108b360048036038101906108ae91906139d3565b612109565b6040516108c09190614941565b60405180910390f35b3480156108d557600080fd5b506108de6121db565b6040516108eb9190614d2c565b60405180910390f35b60007f80ac58cd000000000000000000000000000000000000000000000000000000007bffffffffffffffffffffffffffffffffffffffffffffffffffffffff1916827bffffffffffffffffffffffffffffffffffffffffffffffffffffffff191614806109bf57507f5b5e139f000000000000000000000000000000000000000000000000000000007bffffffffffffffffffffffffffffffffffffffffffffffffffffffff1916827bffffffffffffffffffffffffffffffffffffffffffffffffffffffff1916145b806109cf57506109ce826121e8565b5b9050919050565b6060600080546109e5906150a4565b80601f0160208091040260200160405190810160405280929190818152602001828054610a11906150a4565b8015610a5e5780601f10610a3357610100808354040283529160200191610a5e565b820191906000526020600020905b815481529060010190602001808311610a4157829003601f168201915b5050505050905090565b6000610a7382612252565b610ab2576040517f08c379a0000000000000000000000000000000000000000000000000000000008152600401610aa990614b6c565b60405180910390fd5b6004600083815260200190815260200160002060009054906101000a900473ffffffffffffffffffffffffffffffffffffffff169050919050565b6000610af882611147565b90508073ffffffffffffffffffffffffffffffffffffffff168373ffffffffffffffffffffffffffffffffffffffff161415610b69576040517f08c379a0000000000000000000000000000000000000000000000000000000008152600401610b6090614c6c565b60405180910390fd5b8073ffffffffffffffffffffffffffffffffffffffff16610b886122be565b73ffffffffffffffffffffffffffffffffffffffff161480610bb75750610bb681610bb16122be565b611f7d565b5b610bf6576040517f08c379a0000000000000000000000000000000000000000000000000000000008152600401610bed90614aec565b60405180910390fd5b610c0083836122c6565b505050565b610c0d6122be565b73ffffffffffffffffffffffffffffffffffffffff16610c2b6117e7565b73ffffffffffffffffffffffffffffffffffffffff1614610c81576040517f08c379a0000000000000000000000000000000000000000000000000000000008152600401610c7890614b8c565b60405180910390fd5b60005b8151811015610d39576001600e6000848481518110610ccc577f4e487b7100000000000000000000000000000000000000000000000000000000600052603260045260246000fd5b602002602001015173ffffffffffffffffffffffffffffffffffffffff1673ffffffffffffffffffffffffffffffffffffffff16815260200190815260200160002060006101000a81548160ff021916908315150217905550600181610d329190614e8b565b9050610c84565b5050565b610d456122be565b73ffffffffffffffffffffffffffffffffffffffff16610d636117e7565b73ffffffffffffffffffffffffffffffffffffffff1614610db9576040517f08c379a0000000000000000000000000000000000000000000000000000000008152600401610db090614b8c565b60405180910390fd5b600e60008273ffffffffffffffffffffffffffffffffffffffff1673ffffffffffffffffffffffffffffffffffffffff16815260200190815260200160002060009054906101000a900460ff16610e45576040517f08c379a0000000000000000000000000000000000000000000000000000000008152600401610e3c90614c4c565b60405180910390fd5b6000600e60008373ffffffffffffffffffffffffffffffffffffffff1673ffffffffffffffffffffffffffffffffffffffff16815260200190815260200160002060006101000a81548160ff02191690831515021790555050565b610eb1610eab6122be565b8261237f565b610ef0576040517f08c379a0000000000000000000000000000000000000000000000000000000008152600401610ee790614cec565b60405180910390fd5b610efb83838361245d565b505050565b600e6020528060005260406000206000915054906101000a900460ff1681565b610f3b83838360405180602001604052806000815250611bba565b505050565b60606000610f4d836111ff565b905060008167ffffffffffffffff811115610f91577f4e487b7100000000000000000000000000000000000000000000000000000000600052604160045260246000fd5b604051908082528060200260200182016040528015610fbf5781602001602082028036833780820191505090505b5090506000805b600880549050811015611075578573ffffffffffffffffffffffffffffffffffffffff16610ff382611147565b73ffffffffffffffffffffffffffffffffffffffff161415611062578083838061101c906150d6565b945081518110611055577f4e487b7100000000000000000000000000000000000000000000000000000000600052603260045260246000fd5b6020026020010181815250505b808061106d906150d6565b915050610fc6565b50819350505050919050565b73892e10cb1299c16e469cf0f79f18cca639d00f5b81565b6110a16122be565b73ffffffffffffffffffffffffffffffffffffffff166110bf6117e7565b73ffffffffffffffffffffffffffffffffffffffff1614611115576040517f08c379a000000000000000000000000000000000000000000000000000000000815260040161110c90614b8c565b60405180910390fd5b806011908051906020019061112b929190613634565b5050565b73396823f49aa9f0e3fac4b939bc27ad5cd88264db81565b6000806002600084815260200190815260200160002060009054906101000a900473ffffffffffffffffffffffffffffffffffffffff169050600073ffffffffffffffffffffffffffffffffffffffff168173ffffffffffffffffffffffffffffffffffffffff1614156111f0576040517f08c379a00000000000000000000000000000000000000000000000000000000081526004016111e790614b2c565b60405180910390fd5b80915050919050565b60125481565b60008073ffffffffffffffffffffffffffffffffffffffff168273ffffffffffffffffffffffffffffffffffffffff161415611270576040517f08c379a000000000000000000000000000000000000000000000000000000000815260040161126790614b0c565b60405180910390fd5b600360008373ffffffffffffffffffffffffffffffffffffffff1673ffffffffffffffffffffffffffffffffffffffff168152602001908152602001600020549050919050565b6112bf6122be565b73ffffffffffffffffffffffffffffffffffffffff166112dd6117e7565b73ffffffffffffffffffffffffffffffffffffffff1614611333576040517f08c379a000000000000000000000000000000000000000000000000000000000815260040161132a90614b8c565b60405180910390fd5b61133d60006126b9565b565b60006113496117d0565b101561138a576040517f08c379a000000000000000000000000000000000000000000000000000000000815260040161138190614d0c565b60405180910390fd5b601060019054906101000a900460ff16156113da576040517f08c379a00000000000000000000000000000000000000000000000000000000081526004016113d190614cac565b60405180910390fd5b613840600f546113ea9190614e8b565b4211611439576113f982612109565b611438576040517f08c379a000000000000000000000000000000000000000000000000000000000815260040161142f90614c8c565b60405180910390fd5b5b60018160ff161115611480576040517f08c379a000000000000000000000000000000000000000000000000000000000815260040161147790614aac565b60405180910390fd5b612775601060009054906101000a900460ff1661149e5760016114a1565b60005b60ff168260ff166012546114b59190614e8b565b6114bf9190614e8b565b1115611500576040517f08c379a00000000000000000000000000000000000000000000000000000000081526004016114f790614aac565b60405180910390fd5b61151d8160ff1666038d7ea4c6800061277f90919063ffffffff16565b34101561155f576040517f08c379a000000000000000000000000000000000000000000000000000000000815260040161155690614c0c565b60405180910390fd5b8060ff16600a546115709190614f49565b7f000000000000000000000000000000000000000000000000000000000000000073ffffffffffffffffffffffffffffffffffffffff166370a08231306040518263ffffffff1660e01b81526004016115c9919061487a565b60206040518083038186803b1580156115e157600080fd5b505afa1580156115f5573d6000803e3d6000fd5b505050506040513d601f19601f820116820180604052508101906116199190613d95565b101561165a576040517f08c379a000000000000000000000000000000000000000000000000000000000815260040161165190614a8c565b60405180910390fd5b60005b8160ff168160ff1610156116e457600061167b600954600a54612795565b905083600d600083815260200190815260200160002060006101000a81548173ffffffffffffffffffffffffffffffffffffffff021916908373ffffffffffffffffffffffffffffffffffffffff160217905550506001816116dd9190614ee1565b905061165d565b505050565b61277581565b60004790506000811161170157600080fd5b61174573396823f49aa9f0e3fac4b939bc27ad5cd88264db611740606461173260058661277f90919063ffffffff16565b6128f790919063ffffffff16565b61290d565b61178973892e10cb1299c16e469cf0f79f18cca639d00f5b611784606461177660058661277f90919063ffffffff16565b6128f790919063ffffffff16565b61290d565b6117cd73a5dbc34d69b745d5ee9494e6960a811613b9ae326117c860646117ba605a8661277f90919063ffffffff16565b6128f790919063ffffffff16565b61290d565b50565b60006012546127756117e29190614fa3565b905090565b6000600760009054906101000a900473ffffffffffffffffffffffffffffffffffffffff16905090565b61182c600166038d7ea4c6800061277f90919063ffffffff16565b34101561186e576040517f08c379a000000000000000000000000000000000000000000000000000000000815260040161186590614c0c565b60405180910390fd5b6118818261187c60026129be565b612c73565b80601360006127756014546118969190614e8b565b815260200190815260200160002090805190602001906118b7929190613634565b506001601460008282546118cb9190614e8b565b925050819055505050565b7f000000000000000000000000000000000000000000000000000000000000000073ffffffffffffffffffffffffffffffffffffffff163373ffffffffffffffffffffffffffffffffffffffff1614611964576040517f08c379a000000000000000000000000000000000000000000000000000000000815260040161195b90614bec565b60405180910390fd5b61196e8282612c91565b5050565b606060018054611981906150a4565b80601f01602080910402602001604051908101604052809291908181526020018280546119ad906150a4565b80156119fa5780601f106119cf576101008083540402835291602001916119fa565b820191906000526020600020905b8154815290600101906020018083116119dd57829003601f168201915b5050505050905090565b601560009054906101000a900473ffffffffffffffffffffffffffffffffffffffff1681565b611a326122be565b73ffffffffffffffffffffffffffffffffffffffff168273ffffffffffffffffffffffffffffffffffffffff161415611aa0576040517f08c379a0000000000000000000000000000000000000000000000000000000008152600401611a9790614a6c565b60405180910390fd5b8060056000611aad6122be565b73ffffffffffffffffffffffffffffffffffffffff1673ffffffffffffffffffffffffffffffffffffffff16815260200190815260200160002060008473ffffffffffffffffffffffffffffffffffffffff1673ffffffffffffffffffffffffffffffffffffffff16815260200190815260200160002060006101000a81548160ff0219169083151502179055508173ffffffffffffffffffffffffffffffffffffffff16611b5a6122be565b73ffffffffffffffffffffffffffffffffffffffff167f17307eab39ab6107e8899845ad3d59bd9653f200f220920489ca2b5937696c3183604051611b9f9190614941565b60405180910390a35050565b6000611bb56122be565b905090565b611bcb611bc56122be565b8361237f565b611c0a576040517f08c379a0000000000000000000000000000000000000000000000000000000008152600401611c0190614cec565b60405180910390fd5b611c1684848484612cf4565b50505050565b611c246122be565b73ffffffffffffffffffffffffffffffffffffffff16611c426117e7565b73ffffffffffffffffffffffffffffffffffffffff1614611c98576040517f08c379a0000000000000000000000000000000000000000000000000000000008152600401611c8f90614b8c565b60405180910390fd5b80601060016101000a81548160ff0219169083151502179055507f10e1c3fcaff06b68391033547e8f9bb8067d7c4a2e32659b0629153814d242d3601060019054906101000a900460ff16604051611cf09190614941565b60405180910390a150565b611d036122be565b73ffffffffffffffffffffffffffffffffffffffff16611d216117e7565b73ffffffffffffffffffffffffffffffffffffffff1614611d77576040517f08c379a0000000000000000000000000000000000000000000000000000000008152600401611d6e90614b8c565b60405180910390fd5b601060019054906101000a900460ff16611dc6576040517f08c379a0000000000000000000000000000000000000000000000000000000008152600401611dbd90614c2c565b60405180910390fd5b600060125490505b612775811015611e3b576000611de382612d50565b604051602001611df3919061482a565b6040516020818303038152906040528051906020012060001c9050611e27611e196117e7565b611e22836129be565b612efd565b508080611e33906150d6565b915050611dce565b50612775601281905550565b66038d7ea4c6800081565b66038d7ea4c6800081565b6060611e6882612252565b611ea7576040517f08c379a0000000000000000000000000000000000000000000000000000000008152600401611e9e90614bcc565b60405180910390fd5b612775821015611ec157611eba82612f40565b9050611f60565b601360008381526020019081526020016000208054611edf906150a4565b80601f0160208091040260200160405190810160405280929190818152602001828054611f0b906150a4565b8015611f585780601f10611f2d57610100808354040283529160200191611f58565b820191906000526020600020905b815481529060010190602001808311611f3b57829003601f168201915b505050505090505b919050565b73a5dbc34d69b745d5ee9494e6960a811613b9ae3281565b6000600560008473ffffffffffffffffffffffffffffffffffffffff1673ffffffffffffffffffffffffffffffffffffffff16815260200190815260200160002060008373ffffffffffffffffffffffffffffffffffffffff1673ffffffffffffffffffffffffffffffffffffffff16815260200190815260200160002060009054906101000a900460ff16905092915050565b6120196122be565b73ffffffffffffffffffffffffffffffffffffffff166120376117e7565b73ffffffffffffffffffffffffffffffffffffffff161461208d576040517f08c379a000000000000000000000000000000000000000000000000000000000815260040161208490614b8c565b60405180910390fd5b600073ffffffffffffffffffffffffffffffffffffffff168173ffffffffffffffffffffffffffffffffffffffff1614156120fd576040517f08c379a00000000000000000000000000000000000000000000000000000000081526004016120f490614a0c565b60405180910390fd5b612106816126b9565b50565b60006121136122be565b73ffffffffffffffffffffffffffffffffffffffff166121316117e7565b73ffffffffffffffffffffffffffffffffffffffff1614612187576040517f08c379a000000000000000000000000000000000000000000000000000000000815260040161217e90614b8c565b60405180910390fd5b600e60008373ffffffffffffffffffffffffffffffffffffffff1673ffffffffffffffffffffffffffffffffffffffff16815260200190815260200160002060009054906101000a900460ff169050919050565b6000600880549050905090565b60007f01ffc9a7000000000000000000000000000000000000000000000000000000007bffffffffffffffffffffffffffffffffffffffffffffffffffffffff1916827bffffffffffffffffffffffffffffffffffffffffffffffffffffffff1916149050919050565b60008073ffffffffffffffffffffffffffffffffffffffff166002600084815260200190815260200160002060009054906101000a900473ffffffffffffffffffffffffffffffffffffffff1673ffffffffffffffffffffffffffffffffffffffff1614159050919050565b600033905090565b816004600083815260200190815260200160002060006101000a81548173ffffffffffffffffffffffffffffffffffffffff021916908373ffffffffffffffffffffffffffffffffffffffff160217905550808273ffffffffffffffffffffffffffffffffffffffff1661233983611147565b73ffffffffffffffffffffffffffffffffffffffff167f8c5be1e5ebec7d5bd14f71427d1e84f3dd0314c0f7b2291e5b200ac8c7c3b92560405160405180910390a45050565b600061238a82612252565b6123c9576040517f08c379a00000000000000000000000000000000000000000000000000000000081526004016123c090614acc565b60405180910390fd5b60006123d483611147565b90508073ffffffffffffffffffffffffffffffffffffffff168473ffffffffffffffffffffffffffffffffffffffff16148061244357508373ffffffffffffffffffffffffffffffffffffffff1661242b84610a68565b73ffffffffffffffffffffffffffffffffffffffff16145b8061245457506124538185611f7d565b5b91505092915050565b8273ffffffffffffffffffffffffffffffffffffffff1661247d82611147565b73ffffffffffffffffffffffffffffffffffffffff16146124d3576040517f08c379a00000000000000000000000000000000000000000000000000000000081526004016124ca90614bac565b60405180910390fd5b600073ffffffffffffffffffffffffffffffffffffffff168273ffffffffffffffffffffffffffffffffffffffff161415612543576040517f08c379a000000000000000000000000000000000000000000000000000000000815260040161253a90614a4c565b60405180910390fd5b61254e838383612fe7565b6125596000826122c6565b6001600360008573ffffffffffffffffffffffffffffffffffffffff1673ffffffffffffffffffffffffffffffffffffffff16815260200190815260200160002060008282546125a99190614fa3565b925050819055506001600360008473ffffffffffffffffffffffffffffffffffffffff1673ffffffffffffffffffffffffffffffffffffffff16815260200190815260200160002060008282546126009190614e8b565b92505081905550816002600083815260200190815260200160002060006101000a81548173ffffffffffffffffffffffffffffffffffffffff021916908373ffffffffffffffffffffffffffffffffffffffff160217905550808273ffffffffffffffffffffffffffffffffffffffff168473ffffffffffffffffffffffffffffffffffffffff167fddf252ad1be2c89b69c2b068fc378daa952ba7f163c4a11628f55a4df523b3ef60405160405180910390a4505050565b6000600760009054906101000a900473ffffffffffffffffffffffffffffffffffffffff16905081600760006101000a81548173ffffffffffffffffffffffffffffffffffffffff021916908373ffffffffffffffffffffffffffffffffffffffff1602179055508173ffffffffffffffffffffffffffffffffffffffff168173ffffffffffffffffffffffffffffffffffffffff167f8be0079c531659141344cd1fd0a4f28419497f9722a3daafe3b4186f6b6457e060405160405180910390a35050565b6000818361278d9190614f49565b905092915050565b60007f000000000000000000000000000000000000000000000000000000000000000073ffffffffffffffffffffffffffffffffffffffff16634000aea07f00000000000000000000000000000000000000000000000000000000000000008486600060405160200161280992919061495c565b6040516020818303038152906040526040518463ffffffff1660e01b8152600401612836939291906148e1565b602060405180830381600087803b15801561285057600080fd5b505af1158015612864573d6000803e3d6000fd5b505050506040513d601f19601f820116820180604052508101906128889190613c74565b5060006128ab846000306006600089815260200190815260200160002054612fec565b9050600160066000868152602001908152602001600020546128cd9190614e8b565b60066000868152602001908152602001600020819055506128ee8482613028565b91505092915050565b600081836129059190614f18565b905092915050565b60008273ffffffffffffffffffffffffffffffffffffffff168260405161293390614865565b60006040518083038185875af1925050503d8060008114612970576040519150601f19603f3d011682016040523d82523d6000602084013e612975565b606091505b50509050806129b9576040517f08c379a00000000000000000000000000000000000000000000000000000000081526004016129b090614ccc565b60405180910390fd5b505050565b600060086129cb8361305b565b908060018154018082558091505060019003906000526020600020906005020160009091909190915060008201518160000160006101000a81548160ff021916908360ff16021790555060208201518160000160016101000a81548160ff021916908360ff16021790555060408201518160000160026101000a81548160ff021916908360ff16021790555060608201518160000160036101000a81548160ff021916908360ff16021790555060808201518160000160046101000a81548160ff021916908360ff16021790555060a08201518160000160056101000a81548160ff021916908360ff16021790555060c08201518160000160066101000a81548160ff021916908360ff16021790555060e08201518160000160076101000a81548160ff021916908360ff1602179055506101008201518160000160086101000a81548160ff021916908360ff1602179055506101208201518160000160096101000a81548160ff021916908360ff16021790555061014082015181600001600a6101000a81548160ff021916908360ff16021790555061016082015181600001600b6101000a81548160ff021916908360ff16021790555061018082015181600001600c6101000a81548160ff021916908360ff1602179055506101a082015181600001600d6101000a81548160ff021916908360ff1602179055506101c082015181600001600e6101000a81548161ffff021916908361ffff1602179055506101e08201518160000160106101000a8154816fffffffffffffffffffffffffffffffff02191690836fffffffffffffffffffffffffffffffff160217905550610200820151816001015561022082015181600201556102408201518160030155610260820151816004015550506001600880549050612c6c9190614fa3565b9050919050565b612c8d8282604051806020016040528060008152506131cf565b5050565b600160126000828254612ca49190614e8b565b92505081905550612cf0600d600084815260200190815260200160002060009054906101000a900473ffffffffffffffffffffffffffffffffffffffff16612ceb836129be565b612efd565b5050565b612cff84848461245d565b612d0b8484848461322a565b612d4a576040517f08c379a0000000000000000000000000000000000000000000000000000000008152600401612d41906149ec565b60405180910390fd5b50505050565b60606000821415612d98576040518060400160405280600181526020017f30000000000000000000000000000000000000000000000000000000000000008152509050612ef8565b600082905060005b60008214612dca578080612db3906150d6565b915050600a82612dc39190614f18565b9150612da0565b60008167ffffffffffffffff811115612e0c577f4e487b7100000000000000000000000000000000000000000000000000000000600052604160045260246000fd5b6040519080825280601f01601f191660200182016040528015612e3e5781602001600182028036833780820191505090505b5090505b60008514612ef157600182612e579190614fa3565b9150600a85612e669190615133565b6030612e729190614e8b565b60f81b818381518110612eae577f4e487b7100000000000000000000000000000000000000000000000000000000600052603260045260246000fd5b60200101907effffffffffffffffffffffffffffffffffffffffffffffffffffffffffffff1916908160001a905350600a85612eea9190614f18565b9450612e42565b8093505050505b919050565b612f078282612c73565b612f0f6117d0565b817f9b369bc1256598a3468a2b3197437ae78f2f8bddee1c9ea6e45d2cb25673ec8360405160405180910390a35050565b6060612f4b82612252565b612f8a576040517f08c379a0000000000000000000000000000000000000000000000000000000008152600401612f8190614bcc565b60405180910390fd5b6000612f946133c1565b90506000815111612fb45760405180602001604052806000815250612fdf565b80612fbe84612d50565b604051602001612fcf929190614841565b6040516020818303038152906040525b915050919050565b505050565b6000848484846040516020016130059493929190614985565b6040516020818303038152906040528051906020012060001c9050949350505050565b6000828260405160200161303d9291906147fe565b60405160208183030381529060405280519060200120905092915050565b6130636136ba565b60405180610280016040528060208461307c9190615133565b60ff1681526020016008846130919190615133565b60ff168152602001600a846130a69190615133565b60ff168152602001600a846130bb9190615133565b60ff168152602001600a846130d09190615133565b60ff168152602001600a846130e59190615133565b60ff168152602001600a846130fa9190615133565b60ff168152602001600a8461310f9190615133565b60ff168152602001600a846131249190615133565b60ff168152602001600a846131399190615133565b60ff168152602001600a8461314e9190615133565b60ff168152602001600a846131639190615133565b60ff1681526020016002846131789190615133565b60ff168152602001600060ff168152602001600061ffff16815260200160006fffffffffffffffffffffffffffffffff16815260200160008152602001600081526020016000815260200160008152509050919050565b6131d98383613453565b6131e6600084848461322a565b613225576040517f08c379a000000000000000000000000000000000000000000000000000000000815260040161321c906149ec565b60405180910390fd5b505050565b600061324b8473ffffffffffffffffffffffffffffffffffffffff16613621565b156133b4578373ffffffffffffffffffffffffffffffffffffffff1663150b7a026132746122be565b8786866040518563ffffffff1660e01b81526004016132969493929190614895565b602060405180830381600087803b1580156132b057600080fd5b505af19250505080156132e157506040513d601f19601f820116820180604052508101906132de9190613d02565b60015b613364573d8060008114613311576040519150601f19603f3d011682016040523d82523d6000602084013e613316565b606091505b5060008151141561335c576040517f08c379a0000000000000000000000000000000000000000000000000000000008152600401613353906149ec565b60405180910390fd5b805181602001fd5b63150b7a0260e01b7bffffffffffffffffffffffffffffffffffffffffffffffffffffffff1916817bffffffffffffffffffffffffffffffffffffffffffffffffffffffff1916149150506133b9565b600190505b949350505050565b6060601180546133d0906150a4565b80601f01602080910402602001604051908101604052809291908181526020018280546133fc906150a4565b80156134495780601f1061341e57610100808354040283529160200191613449565b820191906000526020600020905b81548152906001019060200180831161342c57829003601f168201915b5050505050905090565b600073ffffffffffffffffffffffffffffffffffffffff168273ffffffffffffffffffffffffffffffffffffffff1614156134c3576040517f08c379a00000000000000000000000000000000000000000000000000000000081526004016134ba90614b4c565b60405180910390fd5b6134cc81612252565b1561350c576040517f08c379a000000000000000000000000000000000000000000000000000000000815260040161350390614a2c565b60405180910390fd5b61351860008383612fe7565b6001600360008473ffffffffffffffffffffffffffffffffffffffff1673ffffffffffffffffffffffffffffffffffffffff16815260200190815260200160002060008282546135689190614e8b565b92505081905550816002600083815260200190815260200160002060006101000a81548173ffffffffffffffffffffffffffffffffffffffff021916908373ffffffffffffffffffffffffffffffffffffffff160217905550808273ffffffffffffffffffffffffffffffffffffffff16600073ffffffffffffffffffffffffffffffffffffffff167fddf252ad1be2c89b69c2b068fc378daa952ba7f163c4a11628f55a4df523b3ef60405160405180910390a45050565b600080823b905060008111915050919050565b828054613640906150a4565b90600052602060002090601f01602090048101928261366257600085556136a9565b82601f1061367b57805160ff19168380011785556136a9565b828001600101855582156136a9579182015b828111156136a857825182559160200191906001019061368d565b5b5090506136b69190613793565b5090565b604051806102800160405280600060ff168152602001600060ff168152602001600060ff168152602001600060ff168152602001600060ff168152602001600060ff168152602001600060ff168152602001600060ff168152602001600060ff168152602001600060ff168152602001600060ff168152602001600060ff168152602001600060ff168152602001600060ff168152602001600061ffff16815260200160006fffffffffffffffffffffffffffffffff168152602001600081526020016000815260200160008152602001600081525090565b5b808211156137ac576000816000905550600101613794565b5090565b60006137c36137be84614d78565b614d47565b905080838252602082019050828560208602820111156137e257600080fd5b60005b8581101561381257816137f88882613898565b8452602084019350602083019250506001810190506137e5565b5050509392505050565b600061382f61382a84614da4565b614d47565b90508281526020810184848401111561384757600080fd5b613852848285615062565b509392505050565b600061386d61386884614dd4565b614d47565b90508281526020810184848401111561388557600080fd5b613890848285615062565b509392505050565b6000813590506138a781615231565b92915050565b600082601f8301126138be57600080fd5b81356138ce8482602086016137b0565b91505092915050565b6000813590506138e681615248565b92915050565b6000815190506138fb81615248565b92915050565b6000813590506139108161525f565b92915050565b60008135905061392581615276565b92915050565b60008151905061393a81615276565b92915050565b600082601f83011261395157600080fd5b813561396184826020860161381c565b91505092915050565b600082601f83011261397b57600080fd5b813561398b84826020860161385a565b91505092915050565b6000813590506139a38161528d565b92915050565b6000815190506139b88161528d565b92915050565b6000813590506139cd816152a4565b92915050565b6000602082840312156139e557600080fd5b60006139f384828501613898565b91505092915050565b60008060408385031215613a0f57600080fd5b6000613a1d85828601613898565b9250506020613a2e85828601613898565b9150509250929050565b600080600060608486031215613a4d57600080fd5b6000613a5b86828701613898565b9350506020613a6c86828701613898565b9250506040613a7d86828701613994565b9150509250925092565b60008060008060808587031215613a9d57600080fd5b6000613aab87828801613898565b9450506020613abc87828801613898565b9350506040613acd87828801613994565b925050606085013567ffffffffffffffff811115613aea57600080fd5b613af687828801613940565b91505092959194509250565b60008060408385031215613b1557600080fd5b6000613b2385828601613898565b9250506020613b34858286016138d7565b9150509250929050565b60008060408385031215613b5157600080fd5b6000613b5f85828601613898565b925050602083013567ffffffffffffffff811115613b7c57600080fd5b613b888582860161396a565b9150509250929050565b60008060408385031215613ba557600080fd5b6000613bb385828601613898565b9250506020613bc485828601613994565b9150509250929050565b60008060408385031215613be157600080fd5b6000613bef85828601613898565b9250506020613c00858286016139be565b9150509250929050565b600060208284031215613c1c57600080fd5b600082013567ffffffffffffffff811115613c3657600080fd5b613c42848285016138ad565b91505092915050565b600060208284031215613c5d57600080fd5b6000613c6b848285016138d7565b91505092915050565b600060208284031215613c8657600080fd5b6000613c94848285016138ec565b91505092915050565b60008060408385031215613cb057600080fd5b6000613cbe85828601613901565b9250506020613ccf85828601613994565b9150509250929050565b600060208284031215613ceb57600080fd5b6000613cf984828501613916565b91505092915050565b600060208284031215613d1457600080fd5b6000613d228482850161392b565b91505092915050565b600060208284031215613d3d57600080fd5b600082013567ffffffffffffffff811115613d5757600080fd5b613d638482850161396a565b91505092915050565b600060208284031215613d7e57600080fd5b6000613d8c84828501613994565b91505092915050565b600060208284031215613da757600080fd5b6000613db5848285016139a9565b91505092915050565b6000613dca83836147c9565b60208301905092915050565b613ddf81614fd7565b82525050565b6000613df082614e14565b613dfa8185614e42565b9350613e0583614e04565b8060005b83811015613e36578151613e1d8882613dbe565b9750613e2883614e35565b925050600181019050613e09565b5085935050505092915050565b613e4c81614fe9565b82525050565b613e5b81614ff5565b82525050565b613e72613e6d82614ff5565b61511f565b82525050565b6000613e8382614e1f565b613e8d8185614e53565b9350613e9d818560208601615071565b613ea681615220565b840191505092915050565b6000613ebc82614e2a565b613ec68185614e6f565b9350613ed6818560208601615071565b613edf81615220565b840191505092915050565b6000613ef582614e2a565b613eff8185614e80565b9350613f0f818560208601615071565b80840191505092915050565b6000613f28603283614e6f565b91507f4552433732313a207472616e7366657220746f206e6f6e20455243373231526560008301527f63656976657220696d706c656d656e74657200000000000000000000000000006020830152604082019050919050565b6000613f8e602683614e6f565b91507f4f776e61626c653a206e6577206f776e657220697320746865207a65726f206160008301527f64647265737300000000000000000000000000000000000000000000000000006020830152604082019050919050565b6000613ff4601c83614e6f565b91507f4552433732313a20746f6b656e20616c7265616479206d696e746564000000006000830152602082019050919050565b6000614034602483614e6f565b91507f4552433732313a207472616e7366657220746f20746865207a65726f2061646460008301527f72657373000000000000000000000000000000000000000000000000000000006020830152604082019050919050565b600061409a601983614e6f565b91507f4552433732313a20617070726f766520746f2063616c6c6572000000000000006000830152602082019050919050565b60006140da602b83614e6f565b91507f4e6f7420656e6f756768204c494e4b202d2066696c6c20636f6e74726163742060008301527f77697468206661756365740000000000000000000000000000000000000000006020830152604082019050919050565b6000614140600983614e6f565b91507f4d6178206c696d697400000000000000000000000000000000000000000000006000830152602082019050919050565b6000614180602c83614e6f565b91507f4552433732313a206f70657261746f7220717565727920666f72206e6f6e657860008301527f697374656e7420746f6b656e00000000000000000000000000000000000000006020830152604082019050919050565b60006141e6603883614e6f565b91507f4552433732313a20617070726f76652063616c6c6572206973206e6f74206f7760008301527f6e6572206e6f7220617070726f76656420666f7220616c6c00000000000000006020830152604082019050919050565b600061424c602a83614e6f565b91507f4552433732313a2062616c616e636520717565727920666f7220746865207a6560008301527f726f2061646472657373000000000000000000000000000000000000000000006020830152604082019050919050565b60006142b2602983614e6f565b91507f4552433732313a206f776e657220717565727920666f72206e6f6e657869737460008301527f656e7420746f6b656e00000000000000000000000000000000000000000000006020830152604082019050919050565b6000614318602083614e6f565b91507f4552433732313a206d696e7420746f20746865207a65726f20616464726573736000830152602082019050919050565b6000614358602c83614e6f565b91507f4552433732313a20617070726f76656420717565727920666f72206e6f6e657860008301527f697374656e7420746f6b656e00000000000000000000000000000000000000006020830152604082019050919050565b60006143be602083614e6f565b91507f4f776e61626c653a2063616c6c6572206973206e6f7420746865206f776e65726000830152602082019050919050565b60006143fe602983614e6f565b91507f4552433732313a207472616e73666572206f6620746f6b656e2074686174206960008301527f73206e6f74206f776e00000000000000000000000000000000000000000000006020830152604082019050919050565b6000614464602f83614e6f565b91507f4552433732314d657461646174613a2055524920717565727920666f72206e6f60008301527f6e6578697374656e7420746f6b656e00000000000000000000000000000000006020830152604082019050919050565b60006144ca601f83614e6f565b91507f4f6e6c7920565246436f6f7264696e61746f722063616e2066756c66696c6c006000830152602082019050919050565b600061450a601183614e6f565b91507f56616c75652062656c6f772070726963650000000000000000000000000000006000830152602082019050919050565b600061454a601083614e6f565b91507f50617573652069732064697361626c65000000000000000000000000000000006000830152602082019050919050565b600061458a600f83614e6f565b91507f416c72656164792072656d6f76656400000000000000000000000000000000006000830152602082019050919050565b60006145ca602183614e6f565b91507f4552433732313a20617070726f76616c20746f2063757272656e74206f776e6560008301527f72000000000000000000000000000000000000000000000000000000000000006020830152604082019050919050565b6000614630602483614e6f565b91507f41646472657373206973206e6f7420696e636c7564656420696e20776869746560008301527f4c697374000000000000000000000000000000000000000000000000000000006020830152604082019050919050565b6000614696600e83614e6f565b91507f53616c6573206e6f74206f70656e0000000000000000000000000000000000006000830152602082019050919050565b60006146d6600083614e64565b9150600082019050919050565b60006146f0601083614e6f565b91507f5472616e73666572206661696c65642e000000000000000000000000000000006000830152602082019050919050565b6000614730603183614e6f565b91507f4552433732313a207472616e736665722063616c6c6572206973206e6f74206f60008301527f776e6572206e6f7220617070726f7665640000000000000000000000000000006020830152604082019050919050565b6000614796600883614e6f565b91507f536f6c646f7574210000000000000000000000000000000000000000000000006000830152602082019050919050565b6147d28161504b565b82525050565b6147e18161504b565b82525050565b6147f86147f38261504b565b615129565b82525050565b600061480a8285613e61565b60208201915061481a82846147e7565b6020820191508190509392505050565b60006148368284613eea565b915081905092915050565b600061484d8285613eea565b91506148598284613eea565b91508190509392505050565b6000614870826146c9565b9150819050919050565b600060208201905061488f6000830184613dd6565b92915050565b60006080820190506148aa6000830187613dd6565b6148b76020830186613dd6565b6148c460408301856147d8565b81810360608301526148d68184613e78565b905095945050505050565b60006060820190506148f66000830186613dd6565b61490360208301856147d8565b81810360408301526149158184613e78565b9050949350505050565b600060208201905081810360008301526149398184613de5565b905092915050565b60006020820190506149566000830184613e43565b92915050565b60006040820190506149716000830185613e52565b61497e60208301846147d8565b9392505050565b600060808201905061499a6000830187613e52565b6149a760208301866147d8565b6149b46040830185613dd6565b6149c160608301846147d8565b95945050505050565b600060208201905081810360008301526149e48184613eb1565b905092915050565b60006020820190508181036000830152614a0581613f1b565b9050919050565b60006020820190508181036000830152614a2581613f81565b9050919050565b60006020820190508181036000830152614a4581613fe7565b9050919050565b60006020820190508181036000830152614a6581614027565b9050919050565b60006020820190508181036000830152614a858161408d565b9050919050565b60006020820190508181036000830152614aa5816140cd565b9050919050565b60006020820190508181036000830152614ac581614133565b9050919050565b60006020820190508181036000830152614ae581614173565b9050919050565b60006020820190508181036000830152614b05816141d9565b9050919050565b60006020820190508181036000830152614b258161423f565b9050919050565b60006020820190508181036000830152614b45816142a5565b9050919050565b60006020820190508181036000830152614b658161430b565b9050919050565b60006020820190508181036000830152614b858161434b565b9050919050565b60006020820190508181036000830152614ba5816143b1565b9050919050565b60006020820190508181036000830152614bc5816143f1565b9050919050565b60006020820190508181036000830152614be581614457565b9050919050565b60006020820190508181036000830152614c05816144bd565b9050919050565b60006020820190508181036000830152614c25816144fd565b9050919050565b60006020820190508181036000830152614c458161453d565b9050919050565b60006020820190508181036000830152614c658161457d565b9050919050565b60006020820190508181036000830152614c85816145bd565b9050919050565b60006020820190508181036000830152614ca581614623565b9050919050565b60006020820190508181036000830152614cc581614689565b9050919050565b60006020820190508181036000830152614ce5816146e3565b9050919050565b60006020820190508181036000830152614d0581614723565b9050919050565b60006020820190508181036000830152614d2581614789565b9050919050565b6000602082019050614d4160008301846147d8565b92915050565b6000604051905081810181811067ffffffffffffffff82111715614d6e57614d6d6151f1565b5b8060405250919050565b600067ffffffffffffffff821115614d9357614d926151f1565b5b602082029050602081019050919050565b600067ffffffffffffffff821115614dbf57614dbe6151f1565b5b601f19601f8301169050602081019050919050565b600067ffffffffffffffff821115614def57614dee6151f1565b5b601f19601f8301169050602081019050919050565b6000819050602082019050919050565b600081519050919050565b600081519050919050565b600081519050919050565b6000602082019050919050565b600082825260208201905092915050565b600082825260208201905092915050565b600081905092915050565b600082825260208201905092915050565b600081905092915050565b6000614e968261504b565b9150614ea18361504b565b9250827fffffffffffffffffffffffffffffffffffffffffffffffffffffffffffffffff03821115614ed657614ed5615164565b5b828201905092915050565b6000614eec82615055565b9150614ef783615055565b92508260ff03821115614f0d57614f0c615164565b5b828201905092915050565b6000614f238261504b565b9150614f2e8361504b565b925082614f3e57614f3d615193565b5b828204905092915050565b6000614f548261504b565b9150614f5f8361504b565b9250817fffffffffffffffffffffffffffffffffffffffffffffffffffffffffffffffff0483118215151615614f9857614f97615164565b5b828202905092915050565b6000614fae8261504b565b9150614fb98361504b565b925082821015614fcc57614fcb615164565b5b828203905092915050565b6000614fe28261502b565b9050919050565b60008115159050919050565b6000819050919050565b60007fffffffff0000000000000000000000000000000000000000000000000000000082169050919050565b600073ffffffffffffffffffffffffffffffffffffffff82169050919050565b6000819050919050565b600060ff82169050919050565b82818337600083830152505050565b60005b8381101561508f578082015181840152602081019050615074565b8381111561509e576000848401525b50505050565b600060028204905060018216806150bc57607f821691505b602082108114156150d0576150cf6151c2565b5b50919050565b60006150e18261504b565b91507fffffffffffffffffffffffffffffffffffffffffffffffffffffffffffffffff82141561511457615113615164565b5b600182019050919050565b6000819050919050565b6000819050919050565b600061513e8261504b565b91506151498361504b565b92508261515957615158615193565b5b828206905092915050565b7f4e487b7100000000000000000000000000000000000000000000000000000000600052601160045260246000fd5b7f4e487b7100000000000000000000000000000000000000000000000000000000600052601260045260246000fd5b7f4e487b7100000000000000000000000000000000000000000000000000000000600052602260045260246000fd5b7f4e487b7100000000000000000000000000000000000000000000000000000000600052604160045260246000fd5b6000601f19601f8301169050919050565b61523a81614fd7565b811461524557600080fd5b50565b61525181614fe9565b811461525c57600080fd5b50565b61526881614ff5565b811461527357600080fd5b50565b61527f81614fff565b811461528a57600080fd5b50565b6152968161504b565b81146152a157600080fd5b50565b6152ad81615055565b81146152b857600080fd5b5056fea264697066735822122010a6f1066cbb1df9f8f011f568d2a913b2265e9322c9c520b75f9fdcb25cb2e964736f6c63430008000033",
  "linkReferences": {},
  "deployedLinkReferences": {}
}