{
  "_format": "hh-sol-artifact-1",
  "contractName": "StarNft",
  "sourceName": "contracts/StarNft.sol",
  "abi": [
    {
      "inputs": [
        {
          "internalType": "string",
          "name": "baseURI",
          "type": "string"
        },
        {
          "internalType": "uint256",
          "name": "maxAmount",
          "type": "uint256"
        },
        {
          "internalType": "address",
          "name": "_VRFCoordinator",
          "type": "address"
        },
        {
          "internalType": "address",
          "name": "_LinkToken",
          "type": "address"
        },
        {
          "internalType": "bytes32",
          "name": "_keyhash",
          "type": "bytes32"
        }
      ],
      "stateMutability": "nonpayable",
      "type": "constructor"
    },
    {
      "anonymous": false,
      "inputs": [
        {
          "indexed": true,
          "internalType": "address",
          "name": "owner",
          "type": "address"
        },
        {
          "indexed": true,
          "internalType": "address",
          "name": "approved",
          "type": "address"
        },
        {
          "indexed": true,
          "internalType": "uint256",
          "name": "tokenId",
          "type": "uint256"
        }
      ],
      "name": "Approval",
      "type": "event"
    },
    {
      "anonymous": false,
      "inputs": [
        {
          "indexed": true,
          "internalType": "address",
          "name": "owner",
          "type": "address"
        },
        {
          "indexed": true,
          "internalType": "address",
          "name": "operator",
          "type": "address"
        },
        {
          "indexed": false,
          "internalType": "bool",
          "name": "approved",
          "type": "bool"
        }
      ],
      "name": "ApprovalForAll",
      "type": "event"
    },
    {
      "anonymous": false,
      "inputs": [
        {
          "indexed": true,
          "internalType": "address",
          "name": "previousOwner",
          "type": "address"
        },
        {
          "indexed": true,
          "internalType": "address",
          "name": "newOwner",
          "type": "address"
        }
      ],
      "name": "OwnershipTransferred",
      "type": "event"
    },
    {
      "anonymous": false,
      "inputs": [
        {
          "indexed": false,
          "internalType": "bool",
          "name": "pause",
          "type": "bool"
        }
      ],
      "name": "PauseEvent",
      "type": "event"
    },
    {
      "anonymous": false,
      "inputs": [
        {
          "indexed": true,
          "internalType": "address",
          "name": "from",
          "type": "address"
        },
        {
          "indexed": true,
          "internalType": "address",
          "name": "to",
          "type": "address"
        },
        {
          "indexed": true,
          "internalType": "uint256",
          "name": "tokenId",
          "type": "uint256"
        }
      ],
      "name": "Transfer",
      "type": "event"
    },
    {
      "anonymous": false,
      "inputs": [
        {
          "indexed": true,
          "internalType": "uint256",
          "name": "id",
          "type": "uint256"
        }
      ],
      "name": "welcomeToNFT",
      "type": "event"
    },
    {
      "inputs": [],
      "name": "LinkToken",
      "outputs": [
        {
          "internalType": "address",
          "name": "",
          "type": "address"
        }
      ],
      "stateMutability": "view",
      "type": "function"
    },
    {
      "inputs": [],
      "name": "MAX_ELEMENTS",
      "outputs": [
        {
          "internalType": "uint256",
          "name": "",
          "type": "uint256"
        }
      ],
      "stateMutability": "view",
      "type": "function"
    },
    {
      "inputs": [],
      "name": "PRICE",
      "outputs": [
        {
          "internalType": "uint256",
          "name": "",
          "type": "uint256"
        }
      ],
      "stateMutability": "view",
      "type": "function"
    },
    {
      "inputs": [],
      "name": "START_AT",
      "outputs": [
        {
          "internalType": "uint256",
          "name": "",
          "type": "uint256"
        }
      ],
      "stateMutability": "view",
      "type": "function"
    },
    {
      "inputs": [],
      "name": "VRFCoordinator",
      "outputs": [
        {
          "internalType": "address",
          "name": "",
          "type": "address"
        }
      ],
      "stateMutability": "view",
      "type": "function"
    },
    {
      "inputs": [
        {
          "internalType": "address",
          "name": "_address",
          "type": "address"
        }
      ],
      "name": "addWhiteList",
      "outputs": [],
      "stateMutability": "nonpayable",
      "type": "function"
    },
    {
      "inputs": [
        {
          "internalType": "address",
          "name": "to",
          "type": "address"
        },
        {
          "internalType": "uint256",
          "name": "tokenId",
          "type": "uint256"
        }
      ],
      "name": "approve",
      "outputs": [],
      "stateMutability": "nonpayable",
      "type": "function"
    },
    {
      "inputs": [
        {
          "internalType": "address",
          "name": "owner",
          "type": "address"
        }
      ],
      "name": "balanceOf",
      "outputs": [
        {
          "internalType": "uint256",
          "name": "",
          "type": "uint256"
        }
      ],
      "stateMutability": "view",
      "type": "function"
    },
    {
      "inputs": [],
      "name": "baseTokenURI",
      "outputs": [
        {
          "internalType": "string",
          "name": "",
          "type": "string"
        }
      ],
      "stateMutability": "view",
      "type": "function"
    },
    {
      "inputs": [],
      "name": "creator1Address",
      "outputs": [
        {
          "internalType": "address",
          "name": "",
          "type": "address"
        }
      ],
      "stateMutability": "view",
      "type": "function"
    },
    {
      "inputs": [],
      "name": "creator2Address",
      "outputs": [
        {
          "internalType": "address",
          "name": "",
          "type": "address"
        }
      ],
      "stateMutability": "view",
      "type": "function"
    },
    {
      "inputs": [],
      "name": "devAddress",
      "outputs": [
        {
          "internalType": "address",
          "name": "",
          "type": "address"
        }
      ],
      "stateMutability": "view",
      "type": "function"
    },
    {
      "inputs": [
        {
          "internalType": "uint256",
          "name": "tokenId",
          "type": "uint256"
        }
      ],
      "name": "getApproved",
      "outputs": [
        {
          "internalType": "address",
          "name": "",
          "type": "address"
        }
      ],
      "stateMutability": "view",
      "type": "function"
    },
    {
      "inputs": [],
      "name": "getPause",
      "outputs": [
        {
          "internalType": "bool",
          "name": "",
          "type": "bool"
        }
      ],
      "stateMutability": "view",
      "type": "function"
    },
    {
      "inputs": [
        {
          "internalType": "uint256",
          "name": "offset",
          "type": "uint256"
        },
        {
          "internalType": "uint256",
          "name": "limit",
          "type": "uint256"
        }
      ],
      "name": "getUnsoldTokens",
      "outputs": [
        {
          "internalType": "uint256[]",
          "name": "",
          "type": "uint256[]"
        }
      ],
      "stateMutability": "view",
      "type": "function"
    },
    {
      "inputs": [
        {
          "internalType": "address",
          "name": "owner",
          "type": "address"
        },
        {
          "internalType": "address",
          "name": "operator",
          "type": "address"
        }
      ],
      "name": "isApprovedForAll",
      "outputs": [
        {
          "internalType": "bool",
          "name": "",
          "type": "bool"
        }
      ],
      "stateMutability": "view",
      "type": "function"
    },
    {
      "inputs": [
        {
          "internalType": "address",
          "name": "_address",
          "type": "address"
        }
      ],
      "name": "isWhiteList",
      "outputs": [
        {
          "internalType": "bool",
          "name": "",
          "type": "bool"
        }
      ],
      "stateMutability": "view",
      "type": "function"
    },
    {
      "inputs": [
        {
          "internalType": "uint256[]",
          "name": "_tokensId",
          "type": "uint256[]"
        }
      ],
      "name": "mintUnsoldTokens",
      "outputs": [],
      "stateMutability": "nonpayable",
      "type": "function"
    },
    {
      "inputs": [],
      "name": "mintedTokenCount",
      "outputs": [
        {
          "internalType": "uint256",
          "name": "",
          "type": "uint256"
        }
      ],
      "stateMutability": "view",
      "type": "function"
    },
    {
      "inputs": [],
      "name": "name",
      "outputs": [
        {
          "internalType": "string",
          "name": "",
          "type": "string"
        }
      ],
      "stateMutability": "view",
      "type": "function"
    },
    {
      "inputs": [],
      "name": "owner",
      "outputs": [
        {
          "internalType": "address",
          "name": "",
          "type": "address"
        }
      ],
      "stateMutability": "view",
      "type": "function"
    },
    {
      "inputs": [
        {
          "internalType": "uint256",
          "name": "tokenId",
          "type": "uint256"
        }
      ],
      "name": "ownerOf",
      "outputs": [
        {
          "internalType": "address",
          "name": "",
          "type": "address"
        }
      ],
      "stateMutability": "view",
      "type": "function"
    },
    {
      "inputs": [
        {
          "internalType": "uint256",
          "name": "_count",
          "type": "uint256"
        }
      ],
      "name": "price",
      "outputs": [
        {
          "internalType": "uint256",
          "name": "",
          "type": "uint256"
        }
      ],
      "stateMutability": "pure",
      "type": "function"
    },
    {
      "inputs": [
        {
          "internalType": "bytes32",
          "name": "requestId",
          "type": "bytes32"
        },
        {
          "internalType": "uint256",
          "name": "randomness",
          "type": "uint256"
        }
      ],
      "name": "rawFulfillRandomness",
      "outputs": [],
      "stateMutability": "nonpayable",
      "type": "function"
    },
    {
      "inputs": [
        {
          "internalType": "uint256",
          "name": "tokenId",
          "type": "uint256"
        }
      ],
      "name": "rawOwnerOf",
      "outputs": [
        {
          "internalType": "address",
          "name": "",
          "type": "address"
        }
      ],
      "stateMutability": "view",
      "type": "function"
    },
    {
      "inputs": [],
      "name": "remainTokenCount",
      "outputs": [
        {
          "internalType": "uint256",
          "name": "",
          "type": "uint256"
        }
      ],
      "stateMutability": "view",
      "type": "function"
    },
    {
      "inputs": [
        {
          "internalType": "address",
          "name": "_address",
          "type": "address"
        }
      ],
      "name": "removeWhiteList",
      "outputs": [],
      "stateMutability": "nonpayable",
      "type": "function"
    },
    {
      "inputs": [],
      "name": "renounceOwnership",
      "outputs": [],
      "stateMutability": "nonpayable",
      "type": "function"
    },
    {
      "inputs": [
        {
          "internalType": "address",
          "name": "_to",
          "type": "address"
        },
        {
          "internalType": "uint8",
          "name": "amount",
          "type": "uint8"
        }
      ],
      "name": "requestRandomNFT",
      "outputs": [],
      "stateMutability": "payable",
      "type": "function"
    },
    {
      "inputs": [
        {
          "internalType": "address",
          "name": "from",
          "type": "address"
        },
        {
          "internalType": "address",
          "name": "to",
          "type": "address"
        },
        {
          "internalType": "uint256",
          "name": "tokenId",
          "type": "uint256"
        }
      ],
      "name": "safeTransferFrom",
      "outputs": [],
      "stateMutability": "nonpayable",
      "type": "function"
    },
    {
      "inputs": [
        {
          "internalType": "address",
          "name": "from",
          "type": "address"
        },
        {
          "internalType": "address",
          "name": "to",
          "type": "address"
        },
        {
          "internalType": "uint256",
          "name": "tokenId",
          "type": "uint256"
        },
        {
          "internalType": "bytes",
          "name": "_data",
          "type": "bytes"
        }
      ],
      "name": "safeTransferFrom",
      "outputs": [],
      "stateMutability": "nonpayable",
      "type": "function"
    },
    {
      "inputs": [
        {
          "internalType": "address",
          "name": "operator",
          "type": "address"
        },
        {
          "internalType": "bool",
          "name": "approved",
          "type": "bool"
        }
      ],
      "name": "setApprovalForAll",
      "outputs": [],
      "stateMutability": "nonpayable",
      "type": "function"
    },
    {
      "inputs": [
        {
          "internalType": "string",
          "name": "baseURI",
          "type": "string"
        }
      ],
      "name": "setBaseURI",
      "outputs": [],
      "stateMutability": "nonpayable",
      "type": "function"
    },
    {
      "inputs": [
        {
          "internalType": "uint256",
          "name": "_maxElements",
          "type": "uint256"
        }
      ],
      "name": "setMaxElementCount",
      "outputs": [],
      "stateMutability": "nonpayable",
      "type": "function"
    },
    {
      "inputs": [
        {
          "internalType": "bool",
          "name": "_pause",
          "type": "bool"
        }
      ],
      "name": "setPause",
      "outputs": [],
      "stateMutability": "nonpayable",
      "type": "function"
    },
    {
      "inputs": [
        {
          "internalType": "bytes4",
          "name": "interfaceId",
          "type": "bytes4"
        }
      ],
      "name": "supportsInterface",
      "outputs": [
        {
          "internalType": "bool",
          "name": "",
          "type": "bool"
        }
      ],
      "stateMutability": "view",
      "type": "function"
    },
    {
      "inputs": [],
      "name": "symbol",
      "outputs": [
        {
          "internalType": "string",
          "name": "",
          "type": "string"
        }
      ],
      "stateMutability": "view",
      "type": "function"
    },
    {
      "inputs": [
        {
          "internalType": "uint256",
          "name": "index",
          "type": "uint256"
        }
      ],
      "name": "tokenByIndex",
      "outputs": [
        {
          "internalType": "uint256",
          "name": "",
          "type": "uint256"
        }
      ],
      "stateMutability": "view",
      "type": "function"
    },
    {
      "inputs": [
        {
          "internalType": "address",
          "name": "owner",
          "type": "address"
        },
        {
          "internalType": "uint256",
          "name": "index",
          "type": "uint256"
        }
      ],
      "name": "tokenOfOwnerByIndex",
      "outputs": [
        {
          "internalType": "uint256",
          "name": "",
          "type": "uint256"
        }
      ],
      "stateMutability": "view",
      "type": "function"
    },
    {
      "inputs": [
        {
          "internalType": "uint256",
          "name": "tokenId",
          "type": "uint256"
        }
      ],
      "name": "tokenURI",
      "outputs": [
        {
          "internalType": "string",
          "name": "",
          "type": "string"
        }
      ],
      "stateMutability": "view",
      "type": "function"
    },
    {
      "inputs": [],
      "name": "totalSupply",
      "outputs": [
        {
          "internalType": "uint256",
          "name": "",
          "type": "uint256"
        }
      ],
      "stateMutability": "view",
      "type": "function"
    },
    {
      "inputs": [
        {
          "internalType": "address",
          "name": "from",
          "type": "address"
        },
        {
          "internalType": "address",
          "name": "to",
          "type": "address"
        },
        {
          "internalType": "uint256",
          "name": "tokenId",
          "type": "uint256"
        }
      ],
      "name": "transferFrom",
      "outputs": [],
      "stateMutability": "nonpayable",
      "type": "function"
    },
    {
      "inputs": [
        {
          "internalType": "address",
          "name": "newOwner",
          "type": "address"
        }
      ],
      "name": "transferOwnership",
      "outputs": [],
      "stateMutability": "nonpayable",
      "type": "function"
    },
    {
      "inputs": [
        {
          "internalType": "address",
          "name": "_owner",
          "type": "address"
        }
      ],
      "name": "walletOfOwner",
      "outputs": [
        {
          "internalType": "uint256[]",
          "name": "",
          "type": "uint256[]"
        }
      ],
      "stateMutability": "view",
      "type": "function"
    },
    {
      "inputs": [],
      "name": "withdrawAll",
      "outputs": [],
      "stateMutability": "nonpayable",
      "type": "function"
    }
  ],
  "bytecode": "0x60c0604052612775600c5567016345785d8a0000600e556000601460006101000a81548160ff0219169083151502179055503480156200003e57600080fd5b506040516200653238038062006532833981810160405281019062000064919062000650565b82826040518060400160405280600781526020017f537461724e6674000000000000000000000000000000000000000000000000008152506040518060400160405280600481526020017f53746172000000000000000000000000000000000000000000000000000000008152508160009080519060200190620000ea929190620004e9565b50806001908051906020019062000103929190620004e9565b5050508173ffffffffffffffffffffffffffffffffffffffff1660a08173ffffffffffffffffffffffffffffffffffffffff1660601b815250508073ffffffffffffffffffffffffffffffffffffffff1660808173ffffffffffffffffffffffffffffffffffffffff1660601b815250505050620001966200018a6200024c60201b60201c565b6200025460201b60201c565b620001a7856200031a60201b60201c565b620001b884620003c560201b60201c565b82601060006101000a81548173ffffffffffffffffffffffffffffffffffffffff021916908373ffffffffffffffffffffffffffffffffffffffff16021790555081600f60006101000a81548173ffffffffffffffffffffffffffffffffffffffff021916908373ffffffffffffffffffffffffffffffffffffffff16021790555080600d819055505050505050620009b3565b600033905090565b6000600b60009054906101000a900473ffffffffffffffffffffffffffffffffffffffff16905081600b60006101000a81548173ffffffffffffffffffffffffffffffffffffffff021916908373ffffffffffffffffffffffffffffffffffffffff1602179055508173ffffffffffffffffffffffffffffffffffffffff168173ffffffffffffffffffffffffffffffffffffffff167f8be0079c531659141344cd1fd0a4f28419497f9722a3daafe3b4186f6b6457e060405160405180910390a35050565b6200032a6200024c60201b60201c565b73ffffffffffffffffffffffffffffffffffffffff16620003506200046e60201b60201c565b73ffffffffffffffffffffffffffffffffffffffff1614620003a9576040517f08c379a0000000000000000000000000000000000000000000000000000000008152600401620003a0906200072d565b60405180910390fd5b8060159080519060200190620003c1929190620004e9565b5050565b620003d56200024c60201b60201c565b73ffffffffffffffffffffffffffffffffffffffff16620003fb6200046e60201b60201c565b73ffffffffffffffffffffffffffffffffffffffff161462000454576040517f08c379a00000000000000000000000000000000000000000000000000000000081526004016200044b906200072d565b60405180910390fd5b80600c819055506200046b6200049860201b60201c565b50565b6000600b60009054906101000a900473ffffffffffffffffffffffffffffffffffffffff16905090565b60005b600c54811015620004e6576011819080600181540180825580915050600190039060005260206000200160009091909190915055600181620004de9190620007c7565b90506200049b565b50565b828054620004f790620008a2565b90600052602060002090601f0160209004810192826200051b576000855562000567565b82601f106200053657805160ff191683800117855562000567565b8280016001018555821562000567579182015b828111156200056657825182559160200191906001019062000549565b5b5090506200057691906200057a565b5090565b5b80821115620005955760008160009055506001016200057b565b5090565b6000620005b0620005aa8462000783565b6200074f565b905082815260208101848484011115620005c957600080fd5b620005d68482856200086c565b509392505050565b600081519050620005ef8162000965565b92915050565b60008151905062000606816200097f565b92915050565b600082601f8301126200061e57600080fd5b81516200063084826020860162000599565b91505092915050565b6000815190506200064a8162000999565b92915050565b600080600080600060a086880312156200066957600080fd5b600086015167ffffffffffffffff8111156200068457600080fd5b62000692888289016200060c565b9550506020620006a58882890162000639565b9450506040620006b888828901620005de565b9350506060620006cb88828901620005de565b9250506080620006de88828901620005f5565b9150509295509295909350565b6000620006fa602083620007b6565b91507f4f776e61626c653a2063616c6c6572206973206e6f7420746865206f776e65726000830152602082019050919050565b600060208201905081810360008301526200074881620006eb565b9050919050565b6000604051905081810181811067ffffffffffffffff8211171562000779576200077862000936565b5b8060405250919050565b600067ffffffffffffffff821115620007a157620007a062000936565b5b601f19601f8301169050602081019050919050565b600082825260208201905092915050565b6000620007d48262000862565b9150620007e18362000862565b9250827fffffffffffffffffffffffffffffffffffffffffffffffffffffffffffffffff03821115620008195762000818620008d8565b5b828201905092915050565b6000620008318262000842565b9050919050565b6000819050919050565b600073ffffffffffffffffffffffffffffffffffffffff82169050919050565b6000819050919050565b60005b838110156200088c5780820151818401526020810190506200086f565b838111156200089c576000848401525b50505050565b60006002820490506001821680620008bb57607f821691505b60208210811415620008d257620008d162000907565b5b50919050565b7f4e487b7100000000000000000000000000000000000000000000000000000000600052601160045260246000fd5b7f4e487b7100000000000000000000000000000000000000000000000000000000600052602260045260246000fd5b7f4e487b7100000000000000000000000000000000000000000000000000000000600052604160045260246000fd5b620009708162000824565b81146200097c57600080fd5b50565b6200098a8162000838565b81146200099657600080fd5b50565b620009a48162000862565b8114620009b057600080fd5b50565b60805160601c60a05160601c615b45620009ed600039600081816119ee0152612cc60152600081816117200152612c8a0152615b456000f3fe6080604052600436106102725760003560e01c8063721c492c1161014f578063b2992bb0116100c1578063d547cfb71161007a578063d547cfb71461097d578063e7cd4a04146109a8578063e985e9c5146109d1578063f2fde38b14610a0e578063f99031a714610a37578063fdf5a49f14610a7457610272565b8063b2992bb01461086f578063b88d4fde14610898578063bedb86fb146108c1578063bf7b766d146108ea578063c87b56dd14610915578063d09135051461095257610272565b80638da5cb5b116101135780638da5cb5b1461075f57806394985ddd1461078a57806395d89b41146107b3578063967d61d9146107de578063a22cb4651461081b578063aa3d92fb1461084457610272565b8063721c492c146106995780637f81be69146106b5578063853828b6146106f25780638d041988146107095780638d859f3e1461073457610272565b80633502a716116101e85780634f6ccce7116101ac5780634f6ccce7146105775780634f8e2fdf146105b457806355f804b3146105df5780636352211e1461060857806370a0823114610645578063715018a61461068257610272565b80633502a716146104905780633ad10ef6146104bb5780633e3ca9d3146104e657806342842e0e14610511578063438b63001461053a57610272565b80632042e5c21161023a5780632042e5c21461037057806323b872dd1461039957806326a49e37146103c25780632b799146146103ff5780632f745c591461042857806333b608631461046557610272565b806301ffc9a71461027757806306fdde03146102b4578063081812fc146102df578063095ea7b31461031c57806318160ddd14610345575b600080fd5b34801561028357600080fd5b5061029e6004803603810190610299919061433c565b610a9f565b6040516102ab9190615115565b60405180910390f35b3480156102c057600080fd5b506102c9610b19565b6040516102d6919061519e565b60405180910390f35b3480156102eb57600080fd5b50610306600480360381019061030191906143cf565b610bab565b604051610313919061504e565b60405180910390f35b34801561032857600080fd5b50610343600480360381019061033e91906141f5565b610c30565b005b34801561035157600080fd5b5061035a610d48565b6040516103679190615580565b60405180910390f35b34801561037c57600080fd5b506103976004803603810190610392919061408a565b610d55565b005b3480156103a557600080fd5b506103c060048036038101906103bb91906140ef565b610eb8565b005b3480156103ce57600080fd5b506103e960048036038101906103e491906143cf565b610f18565b6040516103f69190615580565b60405180910390f35b34801561040b57600080fd5b50610426600480360381019061042191906143cf565b610f3b565b005b34801561043457600080fd5b5061044f600480360381019061044a91906141f5565b610fc9565b60405161045c9190615580565b60405180910390f35b34801561047157600080fd5b5061047a61106e565b604051610487919061504e565b60405180910390f35b34801561049c57600080fd5b506104a5611094565b6040516104b29190615580565b60405180910390f35b3480156104c757600080fd5b506104d061109a565b6040516104dd919061504e565b60405180910390f35b3480156104f257600080fd5b506104fb6110b2565b6040516105089190615115565b60405180910390f35b34801561051d57600080fd5b50610538600480360381019061053391906140ef565b6110c9565b005b34801561054657600080fd5b50610561600480360381019061055c919061408a565b6110e9565b60405161056e91906150f3565b60405180910390f35b34801561058357600080fd5b5061059e600480360381019061059991906143cf565b6111e3565b6040516105ab9190615580565b60405180910390f35b3480156105c057600080fd5b506105c961127a565b6040516105d6919061504e565b60405180910390f35b3480156105eb57600080fd5b506106066004803603810190610601919061438e565b6112a0565b005b34801561061457600080fd5b5061062f600480360381019061062a91906143cf565b611336565b60405161063c919061504e565b60405180910390f35b34801561065157600080fd5b5061066c6004803603810190610667919061408a565b6113e8565b6040516106799190615580565b60405180910390f35b34801561068e57600080fd5b506106976114a0565b005b6106b360048036038101906106ae9190614231565b611528565b005b3480156106c157600080fd5b506106dc60048036038101906106d791906143cf565b611898565b6040516106e9919061504e565b60405180910390f35b3480156106fe57600080fd5b506107076118d5565b005b34801561071557600080fd5b5061071e6119aa565b60405161072b9190615580565b60405180910390f35b34801561074057600080fd5b506107496119b7565b6040516107569190615580565b60405180910390f35b34801561076b57600080fd5b506107746119c2565b604051610781919061504e565b60405180910390f35b34801561079657600080fd5b506107b160048036038101906107ac9190614300565b6119ec565b005b3480156107bf57600080fd5b506107c8611a88565b6040516107d5919061519e565b60405180910390f35b3480156107ea57600080fd5b5061080560048036038101906108009190614421565b611b1a565b60405161081291906150f3565b60405180910390f35b34801561082757600080fd5b50610842600480360381019061083d91906141b9565b611c4d565b005b34801561085057600080fd5b50610859611dce565b604051610866919061504e565b60405180910390f35b34801561087b57600080fd5b506108966004803603810190610891919061426d565b611de6565b005b3480156108a457600080fd5b506108bf60048036038101906108ba919061413e565b611fa3565b005b3480156108cd57600080fd5b506108e860048036038101906108e391906142ae565b612005565b005b3480156108f657600080fd5b506108ff6120e4565b60405161090c9190615580565b60405180910390f35b34801561092157600080fd5b5061093c600480360381019061093791906143cf565b6120e9565b604051610949919061519e565b60405180910390f35b34801561095e57600080fd5b50610967612190565b604051610974919061504e565b60405180910390f35b34801561098957600080fd5b506109926121a8565b60405161099f919061519e565b60405180910390f35b3480156109b457600080fd5b506109cf60048036038101906109ca919061408a565b612236565b005b3480156109dd57600080fd5b506109f860048036038101906109f391906140b3565b61239a565b604051610a059190615115565b60405180910390f35b348015610a1a57600080fd5b50610a356004803603810190610a30919061408a565b61242e565b005b348015610a4357600080fd5b50610a5e6004803603810190610a59919061408a565b612526565b604051610a6b9190615115565b60405180910390f35b348015610a8057600080fd5b50610a896125f8565b604051610a969190615580565b60405180910390f35b60007f780e9d63000000000000000000000000000000000000000000000000000000007bffffffffffffffffffffffffffffffffffffffffffffffffffffffff1916827bffffffffffffffffffffffffffffffffffffffffffffffffffffffff19161480610b125750610b1182612614565b5b9050919050565b606060008054610b28906158f8565b80601f0160208091040260200160405190810160405280929190818152602001828054610b54906158f8565b8015610ba15780601f10610b7657610100808354040283529160200191610ba1565b820191906000526020600020905b815481529060010190602001808311610b8457829003601f168201915b5050505050905090565b6000610bb6826126f6565b610bf5576040517f08c379a0000000000000000000000000000000000000000000000000000000008152600401610bec90615380565b60405180910390fd5b6004600083815260200190815260200160002060009054906101000a900473ffffffffffffffffffffffffffffffffffffffff169050919050565b6000610c3b82611336565b90508073ffffffffffffffffffffffffffffffffffffffff168373ffffffffffffffffffffffffffffffffffffffff161415610cac576040517f08c379a0000000000000000000000000000000000000000000000000000000008152600401610ca390615480565b60405180910390fd5b8073ffffffffffffffffffffffffffffffffffffffff16610ccb612762565b73ffffffffffffffffffffffffffffffffffffffff161480610cfa5750610cf981610cf4612762565b61239a565b5b610d39576040517f08c379a0000000000000000000000000000000000000000000000000000000008152600401610d30906152e0565b60405180910390fd5b610d43838361276a565b505050565b6000600880549050905090565b610d5d612762565b73ffffffffffffffffffffffffffffffffffffffff16610d7b6119c2565b73ffffffffffffffffffffffffffffffffffffffff1614610dd1576040517f08c379a0000000000000000000000000000000000000000000000000000000008152600401610dc8906153a0565b60405180910390fd5b601360008273ffffffffffffffffffffffffffffffffffffffff1673ffffffffffffffffffffffffffffffffffffffff16815260200190815260200160002060009054906101000a900460ff16610e5d576040517f08c379a0000000000000000000000000000000000000000000000000000000008152600401610e5490615460565b60405180910390fd5b6000601360008373ffffffffffffffffffffffffffffffffffffffff1673ffffffffffffffffffffffffffffffffffffffff16815260200190815260200160002060006101000a81548160ff02191690831515021790555050565b610ec9610ec3612762565b82612823565b610f08576040517f08c379a0000000000000000000000000000000000000000000000000000000008152600401610eff90615500565b60405180910390fd5b610f13838383612901565b505050565b6000610f348266038d7ea4c68000612b5d90919063ffffffff16565b9050919050565b610f43612762565b73ffffffffffffffffffffffffffffffffffffffff16610f616119c2565b73ffffffffffffffffffffffffffffffffffffffff1614610fb7576040517f08c379a0000000000000000000000000000000000000000000000000000000008152600401610fae906153a0565b60405180910390fd5b80600c81905550610fc6612b73565b50565b6000610fd4836113e8565b8210611015576040517f08c379a000000000000000000000000000000000000000000000000000000000815260040161100c906151c0565b60405180910390fd5b600660008473ffffffffffffffffffffffffffffffffffffffff1673ffffffffffffffffffffffffffffffffffffffff168152602001908152602001600020600083815260200190815260200160002054905092915050565b601060009054906101000a900473ffffffffffffffffffffffffffffffffffffffff1681565b600c5481565b73a5dbc34d69b745d5ee9494e6960a811613b9ae3281565b6000601460009054906101000a900460ff16905090565b6110e483838360405180602001604052806000815250611fa3565b505050565b606060006110f6836113e8565b905060008167ffffffffffffffff81111561113a577f4e487b7100000000000000000000000000000000000000000000000000000000600052604160045260246000fd5b6040519080825280602002602001820160405280156111685781602001602082028036833780820191505090505b50905060005b828110156111d8576111808582610fc9565b8282815181106111b9577f4e487b7100000000000000000000000000000000000000000000000000000000600052603260045260246000fd5b60200260200101818152505080806111d09061592a565b91505061116e565b508092505050919050565b60006111ed610d48565b821061122e576040517f08c379a000000000000000000000000000000000000000000000000000000000815260040161122590615540565b60405180910390fd5b60088281548110611268577f4e487b7100000000000000000000000000000000000000000000000000000000600052603260045260246000fd5b90600052602060002001549050919050565b600f60009054906101000a900473ffffffffffffffffffffffffffffffffffffffff1681565b6112a8612762565b73ffffffffffffffffffffffffffffffffffffffff166112c66119c2565b73ffffffffffffffffffffffffffffffffffffffff161461131c576040517f08c379a0000000000000000000000000000000000000000000000000000000008152600401611313906153a0565b60405180910390fd5b8060159080519060200190611332929190613dc4565b5050565b6000806002600084815260200190815260200160002060009054906101000a900473ffffffffffffffffffffffffffffffffffffffff169050600073ffffffffffffffffffffffffffffffffffffffff168173ffffffffffffffffffffffffffffffffffffffff1614156113df576040517f08c379a00000000000000000000000000000000000000000000000000000000081526004016113d690615320565b60405180910390fd5b80915050919050565b60008073ffffffffffffffffffffffffffffffffffffffff168273ffffffffffffffffffffffffffffffffffffffff161415611459576040517f08c379a000000000000000000000000000000000000000000000000000000000815260040161145090615300565b60405180910390fd5b600360008373ffffffffffffffffffffffffffffffffffffffff1673ffffffffffffffffffffffffffffffffffffffff168152602001908152602001600020549050919050565b6114a8612762565b73ffffffffffffffffffffffffffffffffffffffff166114c66119c2565b73ffffffffffffffffffffffffffffffffffffffff161461151c576040517f08c379a0000000000000000000000000000000000000000000000000000000008152600401611513906153a0565b60405180910390fd5b6115266000612bc0565b565b60006115326119aa565b1015611573576040517f08c379a000000000000000000000000000000000000000000000000000000000815260040161156a90615560565b60405180910390fd5b601460009054906101000a900460ff161580156115da5750601360003373ffffffffffffffffffffffffffffffffffffffff1673ffffffffffffffffffffffffffffffffffffffff16815260200190815260200160002060009054906101000a900460ff16155b611619576040517f08c379a0000000000000000000000000000000000000000000000000000000008152600401611610906154a0565b60405180910390fd5b60006116236125f8565b905060028260ff16111561166c576040517f08c379a0000000000000000000000000000000000000000000000000000000008152600401611663906152a0565b60405180910390fd5b600c548260ff168261167e91906156df565b11156116bf576040517f08c379a00000000000000000000000000000000000000000000000000000000081526004016116b6906152a0565b60405180910390fd5b6116cb8260ff16610f18565b34101561170d576040517f08c379a000000000000000000000000000000000000000000000000000000000815260040161170490615420565b60405180910390fd5b8160ff16600e5461171e919061579d565b7f000000000000000000000000000000000000000000000000000000000000000073ffffffffffffffffffffffffffffffffffffffff166370a08231306040518263ffffffff1660e01b8152600401611777919061504e565b60206040518083038186803b15801561178f57600080fd5b505afa1580156117a3573d6000803e3d6000fd5b505050506040513d601f19601f820116820180604052508101906117c791906143f8565b1015611808576040517f08c379a00000000000000000000000000000000000000000000000000000000081526004016117ff90615280565b60405180910390fd5b60005b8260ff168160ff161015611892576000611829600d54600e54612c86565b9050846012600083815260200190815260200160002060006101000a81548173ffffffffffffffffffffffffffffffffffffffff021916908373ffffffffffffffffffffffffffffffffffffffff1602179055505060018161188b9190615735565b905061180b565b50505050565b60006002600083815260200190815260200160002060009054906101000a900473ffffffffffffffffffffffffffffffffffffffff169050919050565b6118dd612762565b73ffffffffffffffffffffffffffffffffffffffff166118fb6119c2565b73ffffffffffffffffffffffffffffffffffffffff1614611951576040517f08c379a0000000000000000000000000000000000000000000000000000000008152600401611948906153a0565b60405180910390fd5b60004790506000811161196357600080fd5b6119a773c09eac15f9ba6462e8e4612af7c431e1cfe08b876119a26064611994606486612b5d90919063ffffffff16565b612de890919063ffffffff16565b612dfe565b50565b6000601180549050905090565b66038d7ea4c6800081565b6000600b60009054906101000a900473ffffffffffffffffffffffffffffffffffffffff16905090565b7f000000000000000000000000000000000000000000000000000000000000000073ffffffffffffffffffffffffffffffffffffffff163373ffffffffffffffffffffffffffffffffffffffff1614611a7a576040517f08c379a0000000000000000000000000000000000000000000000000000000008152600401611a7190615400565b60405180910390fd5b611a848282612eaf565b5050565b606060018054611a97906158f8565b80601f0160208091040260200160405190810160405280929190818152602001828054611ac3906158f8565b8015611b105780601f10611ae557610100808354040283529160200191611b10565b820191906000526020600020905b815481529060010190602001808311611af357829003601f168201915b5050505050905090565b606060008267ffffffffffffffff811115611b5e577f4e487b7100000000000000000000000000000000000000000000000000000000600052604160045260246000fd5b604051908082528060200260200182016040528015611b8c5781602001602082028036833780820191505090505b50905060005b83811015611c425760008582611ba891906156df565b9050600073ffffffffffffffffffffffffffffffffffffffff16611bcb82611898565b73ffffffffffffffffffffffffffffffffffffffff161415611c2e5780838381518110611c21577f4e487b7100000000000000000000000000000000000000000000000000000000600052603260045260246000fd5b6020026020010181815250505b508080611c3a9061592a565b915050611b92565b508091505092915050565b611c55612762565b73ffffffffffffffffffffffffffffffffffffffff168273ffffffffffffffffffffffffffffffffffffffff161415611cc3576040517f08c379a0000000000000000000000000000000000000000000000000000000008152600401611cba90615260565b60405180910390fd5b8060056000611cd0612762565b73ffffffffffffffffffffffffffffffffffffffff1673ffffffffffffffffffffffffffffffffffffffff16815260200190815260200160002060008473ffffffffffffffffffffffffffffffffffffffff1673ffffffffffffffffffffffffffffffffffffffff16815260200190815260200160002060006101000a81548160ff0219169083151502179055508173ffffffffffffffffffffffffffffffffffffffff16611d7d612762565b73ffffffffffffffffffffffffffffffffffffffff167f17307eab39ab6107e8899845ad3d59bd9653f200f220920489ca2b5937696c3183604051611dc29190615115565b60405180910390a35050565b73c09eac15f9ba6462e8e4612af7c431e1cfe08b8781565b611dee612762565b73ffffffffffffffffffffffffffffffffffffffff16611e0c6119c2565b73ffffffffffffffffffffffffffffffffffffffff1614611e62576040517f08c379a0000000000000000000000000000000000000000000000000000000008152600401611e59906153a0565b60405180910390fd5b601460009054906101000a900460ff16611eb1576040517f08c379a0000000000000000000000000000000000000000000000000000000008152600401611ea890615440565b60405180910390fd5b60005b8151811015611f9f57600073ffffffffffffffffffffffffffffffffffffffff16611f1e838381518110611f11577f4e487b7100000000000000000000000000000000000000000000000000000000600052603260045260246000fd5b6020026020010151611898565b73ffffffffffffffffffffffffffffffffffffffff161415611f8c57611f8b611f456119c2565b838381518110611f7e577f4e487b7100000000000000000000000000000000000000000000000000000000600052603260045260246000fd5b6020026020010151612f50565b5b8080611f979061592a565b915050611eb4565b5050565b611fb4611fae612762565b83612823565b611ff3576040517f08c379a0000000000000000000000000000000000000000000000000000000008152600401611fea90615500565b60405180910390fd5b611fff84848484612f8b565b50505050565b61200d612762565b73ffffffffffffffffffffffffffffffffffffffff1661202b6119c2565b73ffffffffffffffffffffffffffffffffffffffff1614612081576040517f08c379a0000000000000000000000000000000000000000000000000000000008152600401612078906153a0565b60405180910390fd5b80601460006101000a81548160ff0219169083151502179055507f10e1c3fcaff06b68391033547e8f9bb8067d7c4a2e32659b0629153814d242d3601460009054906101000a900460ff166040516120d99190615115565b60405180910390a150565b600181565b60606120f4826126f6565b612133576040517f08c379a000000000000000000000000000000000000000000000000000000000815260040161212a906153e0565b60405180910390fd5b600061213d612fe7565b9050600081511161215d5760405180602001604052806000815250612188565b8061216784613079565b604051602001612178929190615015565b6040516020818303038152906040525b915050919050565b735db342fb039c1c85bec5fe89af6734621f421d8481565b601580546121b5906158f8565b80601f01602080910402602001604051908101604052809291908181526020018280546121e1906158f8565b801561222e5780601f106122035761010080835404028352916020019161222e565b820191906000526020600020905b81548152906001019060200180831161221157829003601f168201915b505050505081565b61223e612762565b73ffffffffffffffffffffffffffffffffffffffff1661225c6119c2565b73ffffffffffffffffffffffffffffffffffffffff16146122b2576040517f08c379a00000000000000000000000000000000000000000000000000000000081526004016122a9906153a0565b60405180910390fd5b601360008273ffffffffffffffffffffffffffffffffffffffff1673ffffffffffffffffffffffffffffffffffffffff16815260200190815260200160002060009054906101000a900460ff161561233f576040517f08c379a0000000000000000000000000000000000000000000000000000000008152600401612336906154c0565b60405180910390fd5b6001601360008373ffffffffffffffffffffffffffffffffffffffff1673ffffffffffffffffffffffffffffffffffffffff16815260200190815260200160002060006101000a81548160ff02191690831515021790555050565b6000600560008473ffffffffffffffffffffffffffffffffffffffff1673ffffffffffffffffffffffffffffffffffffffff16815260200190815260200160002060008373ffffffffffffffffffffffffffffffffffffffff1673ffffffffffffffffffffffffffffffffffffffff16815260200190815260200160002060009054906101000a900460ff16905092915050565b612436612762565b73ffffffffffffffffffffffffffffffffffffffff166124546119c2565b73ffffffffffffffffffffffffffffffffffffffff16146124aa576040517f08c379a00000000000000000000000000000000000000000000000000000000081526004016124a1906153a0565b60405180910390fd5b600073ffffffffffffffffffffffffffffffffffffffff168173ffffffffffffffffffffffffffffffffffffffff16141561251a576040517f08c379a000000000000000000000000000000000000000000000000000000000815260040161251190615200565b60405180910390fd5b61252381612bc0565b50565b6000612530612762565b73ffffffffffffffffffffffffffffffffffffffff1661254e6119c2565b73ffffffffffffffffffffffffffffffffffffffff16146125a4576040517f08c379a000000000000000000000000000000000000000000000000000000000815260040161259b906153a0565b60405180910390fd5b601360008373ffffffffffffffffffffffffffffffffffffffff1673ffffffffffffffffffffffffffffffffffffffff16815260200190815260200160002060009054906101000a900460ff169050919050565b60006126026119aa565b600c5461260f91906157f7565b905090565b60007f80ac58cd000000000000000000000000000000000000000000000000000000007bffffffffffffffffffffffffffffffffffffffffffffffffffffffff1916827bffffffffffffffffffffffffffffffffffffffffffffffffffffffff191614806126df57507f5b5e139f000000000000000000000000000000000000000000000000000000007bffffffffffffffffffffffffffffffffffffffffffffffffffffffff1916827bffffffffffffffffffffffffffffffffffffffffffffffffffffffff1916145b806126ef57506126ee82613226565b5b9050919050565b60008073ffffffffffffffffffffffffffffffffffffffff166002600084815260200190815260200160002060009054906101000a900473ffffffffffffffffffffffffffffffffffffffff1673ffffffffffffffffffffffffffffffffffffffff1614159050919050565b600033905090565b816004600083815260200190815260200160002060006101000a81548173ffffffffffffffffffffffffffffffffffffffff021916908373ffffffffffffffffffffffffffffffffffffffff160217905550808273ffffffffffffffffffffffffffffffffffffffff166127dd83611336565b73ffffffffffffffffffffffffffffffffffffffff167f8c5be1e5ebec7d5bd14f71427d1e84f3dd0314c0f7b2291e5b200ac8c7c3b92560405160405180910390a45050565b600061282e826126f6565b61286d576040517f08c379a0000000000000000000000000000000000000000000000000000000008152600401612864906152c0565b60405180910390fd5b600061287883611336565b90508073ffffffffffffffffffffffffffffffffffffffff168473ffffffffffffffffffffffffffffffffffffffff1614806128e757508373ffffffffffffffffffffffffffffffffffffffff166128cf84610bab565b73ffffffffffffffffffffffffffffffffffffffff16145b806128f857506128f7818561239a565b5b91505092915050565b8273ffffffffffffffffffffffffffffffffffffffff1661292182611336565b73ffffffffffffffffffffffffffffffffffffffff1614612977576040517f08c379a000000000000000000000000000000000000000000000000000000000815260040161296e906153c0565b60405180910390fd5b600073ffffffffffffffffffffffffffffffffffffffff168273ffffffffffffffffffffffffffffffffffffffff1614156129e7576040517f08c379a00000000000000000000000000000000000000000000000000000000081526004016129de90615240565b60405180910390fd5b6129f2838383613290565b6129fd60008261276a565b6001600360008573ffffffffffffffffffffffffffffffffffffffff1673ffffffffffffffffffffffffffffffffffffffff1681526020019081526020016000206000828254612a4d91906157f7565b925050819055506001600360008473ffffffffffffffffffffffffffffffffffffffff1673ffffffffffffffffffffffffffffffffffffffff1681526020019081526020016000206000828254612aa491906156df565b92505081905550816002600083815260200190815260200160002060006101000a81548173ffffffffffffffffffffffffffffffffffffffff021916908373ffffffffffffffffffffffffffffffffffffffff160217905550808273ffffffffffffffffffffffffffffffffffffffff168473ffffffffffffffffffffffffffffffffffffffff167fddf252ad1be2c89b69c2b068fc378daa952ba7f163c4a11628f55a4df523b3ef60405160405180910390a4505050565b60008183612b6b919061579d565b905092915050565b60005b600c54811015612bbd576011819080600181540180825580915050600190039060005260206000200160009091909190915055600181612bb691906156df565b9050612b76565b50565b6000600b60009054906101000a900473ffffffffffffffffffffffffffffffffffffffff16905081600b60006101000a81548173ffffffffffffffffffffffffffffffffffffffff021916908373ffffffffffffffffffffffffffffffffffffffff1602179055508173ffffffffffffffffffffffffffffffffffffffff168173ffffffffffffffffffffffffffffffffffffffff167f8be0079c531659141344cd1fd0a4f28419497f9722a3daafe3b4186f6b6457e060405160405180910390a35050565b60007f000000000000000000000000000000000000000000000000000000000000000073ffffffffffffffffffffffffffffffffffffffff16634000aea07f000000000000000000000000000000000000000000000000000000000000000084866000604051602001612cfa929190615130565b6040516020818303038152906040526040518463ffffffff1660e01b8152600401612d27939291906150b5565b602060405180830381600087803b158015612d4157600080fd5b505af1158015612d55573d6000803e3d6000fd5b505050506040513d601f19601f82011682018060405250810190612d7991906142d7565b506000612d9c84600030600a6000898152602001908152602001600020546133a4565b90506001600a600086815260200190815260200160002054612dbe91906156df565b600a600086815260200190815260200160002081905550612ddf84826133e0565b91505092915050565b60008183612df6919061576c565b905092915050565b60008273ffffffffffffffffffffffffffffffffffffffff1682604051612e2490615039565b60006040518083038185875af1925050503d8060008114612e61576040519150601f19603f3d011682016040523d82523d6000602084013e612e66565b606091505b5050905080612eaa576040517f08c379a0000000000000000000000000000000000000000000000000000000008152600401612ea1906154e0565b60405180910390fd5b505050565b600060118054905082612ec29190615987565b905060006012600085815260200190815260200160002060009054906101000a900473ffffffffffffffffffffffffffffffffffffffff169050612f4a8160118481548110612f3a577f4e487b7100000000000000000000000000000000000000000000000000000000600052603260045260246000fd5b9060005260206000200154613413565b50505050565b612f5a828261342a565b807f5bca338135f114fbfc9ea943cbbd4615fbfb5164248c8ba97773143919daf7c260405160405180910390a25050565b612f96848484612901565b612fa284848484613448565b612fe1576040517f08c379a0000000000000000000000000000000000000000000000000000000008152600401612fd8906151e0565b60405180910390fd5b50505050565b606060158054612ff6906158f8565b80601f0160208091040260200160405190810160405280929190818152602001828054613022906158f8565b801561306f5780601f106130445761010080835404028352916020019161306f565b820191906000526020600020905b81548152906001019060200180831161305257829003601f168201915b5050505050905090565b606060008214156130c1576040518060400160405280600181526020017f30000000000000000000000000000000000000000000000000000000000000008152509050613221565b600082905060005b600082146130f35780806130dc9061592a565b915050600a826130ec919061576c565b91506130c9565b60008167ffffffffffffffff811115613135577f4e487b7100000000000000000000000000000000000000000000000000000000600052604160045260246000fd5b6040519080825280601f01601f1916602001820160405280156131675781602001600182028036833780820191505090505b5090505b6000851461321a5760018261318091906157f7565b9150600a8561318f9190615987565b603061319b91906156df565b60f81b8183815181106131d7577f4e487b7100000000000000000000000000000000000000000000000000000000600052603260045260246000fd5b60200101907effffffffffffffffffffffffffffffffffffffffffffffffffffffffffffff1916908160001a905350600a85613213919061576c565b945061316b565b8093505050505b919050565b60007f01ffc9a7000000000000000000000000000000000000000000000000000000007bffffffffffffffffffffffffffffffffffffffffffffffffffffffff1916827bffffffffffffffffffffffffffffffffffffffffffffffffffffffff1916149050919050565b61329b8383836135df565b600073ffffffffffffffffffffffffffffffffffffffff168373ffffffffffffffffffffffffffffffffffffffff1614156132de576132d9816135e4565b61331d565b8173ffffffffffffffffffffffffffffffffffffffff168373ffffffffffffffffffffffffffffffffffffffff161461331c5761331b838261362d565b5b5b600073ffffffffffffffffffffffffffffffffffffffff168273ffffffffffffffffffffffffffffffffffffffff1614156133605761335b8161379a565b61339f565b8273ffffffffffffffffffffffffffffffffffffffff168273ffffffffffffffffffffffffffffffffffffffff161461339e5761339d82826138dd565b5b5b505050565b6000848484846040516020016133bd9493929190615159565b6040516020818303038152906040528051906020012060001c9050949350505050565b600082826040516020016133f5929190614fe9565b60405160208183030381529060405280519060200120905092915050565b61341d8282612f50565b6134268161395c565b5050565b613444828260405180602001604052806000815250613ae9565b5050565b60006134698473ffffffffffffffffffffffffffffffffffffffff16613b44565b156135d2578373ffffffffffffffffffffffffffffffffffffffff1663150b7a02613492612762565b8786866040518563ffffffff1660e01b81526004016134b49493929190615069565b602060405180830381600087803b1580156134ce57600080fd5b505af19250505080156134ff57506040513d601f19601f820116820180604052508101906134fc9190614365565b60015b613582573d806000811461352f576040519150601f19603f3d011682016040523d82523d6000602084013e613534565b606091505b5060008151141561357a576040517f08c379a0000000000000000000000000000000000000000000000000000000008152600401613571906151e0565b60405180910390fd5b805181602001fd5b63150b7a0260e01b7bffffffffffffffffffffffffffffffffffffffffffffffffffffffff1916817bffffffffffffffffffffffffffffffffffffffffffffffffffffffff1916149150506135d7565b600190505b949350505050565b505050565b6008805490506009600083815260200190815260200160002081905550600881908060018154018082558091505060019003906000526020600020016000909190919091505550565b6000600161363a846113e8565b61364491906157f7565b9050600060076000848152602001908152602001600020549050818114613729576000600660008673ffffffffffffffffffffffffffffffffffffffff1673ffffffffffffffffffffffffffffffffffffffff168152602001908152602001600020600084815260200190815260200160002054905080600660008773ffffffffffffffffffffffffffffffffffffffff1673ffffffffffffffffffffffffffffffffffffffff168152602001908152602001600020600084815260200190815260200160002081905550816007600083815260200190815260200160002081905550505b6007600084815260200190815260200160002060009055600660008573ffffffffffffffffffffffffffffffffffffffff1673ffffffffffffffffffffffffffffffffffffffff16815260200190815260200160002060008381526020019081526020016000206000905550505050565b600060016008805490506137ae91906157f7565b9050600060096000848152602001908152602001600020549050600060088381548110613804577f4e487b7100000000000000000000000000000000000000000000000000000000600052603260045260246000fd5b90600052602060002001549050806008838154811061384c577f4e487b7100000000000000000000000000000000000000000000000000000000600052603260045260246000fd5b9060005260206000200181905550816009600083815260200190815260200160002081905550600960008581526020019081526020016000206000905560088054806138c1577f4e487b7100000000000000000000000000000000000000000000000000000000600052603160045260246000fd5b6001900381819060005260206000200160009055905550505050565b60006138e8836113e8565b905081600660008573ffffffffffffffffffffffffffffffffffffffff1673ffffffffffffffffffffffffffffffffffffffff168152602001908152602001600020600083815260200190815260200160002081905550806007600084815260200190815260200160002081905550505050565b6000601180549050116139a4576040517f08c379a000000000000000000000000000000000000000000000000000000000815260040161399b90615340565b60405180910390fd5b60006139af82613b57565b90506011805490508111156139f9576040517f08c379a00000000000000000000000000000000000000000000000000000000081526004016139f090615520565b60405180910390fd5b60116001601180549050613a0d91906157f7565b81548110613a44577f4e487b7100000000000000000000000000000000000000000000000000000000600052603260045260246000fd5b906000526020600020015460118281548110613a89577f4e487b7100000000000000000000000000000000000000000000000000000000600052603260045260246000fd5b90600052602060002001819055506011805480613acf577f4e487b7100000000000000000000000000000000000000000000000000000000600052603160045260246000fd5b600190038181906000526020600020016000905590555050565b613af38383613bf6565b613b006000848484613448565b613b3f576040517f08c379a0000000000000000000000000000000000000000000000000000000008152600401613b36906151e0565b60405180910390fd5b505050565b600080823b905060008111915050919050565b600080600090505b601180549050811015613bdb57600060118281548110613ba8577f4e487b7100000000000000000000000000000000000000000000000000000000600052603260045260246000fd5b9060005260206000200154905083811415613bc7578192505050613bf1565b508080613bd39061592a565b915050613b5f565b506064601180549050613bee91906156df565b90505b919050565b600073ffffffffffffffffffffffffffffffffffffffff168273ffffffffffffffffffffffffffffffffffffffff161415613c66576040517f08c379a0000000000000000000000000000000000000000000000000000000008152600401613c5d90615360565b60405180910390fd5b613c6f816126f6565b15613caf576040517f08c379a0000000000000000000000000000000000000000000000000000000008152600401613ca690615220565b60405180910390fd5b613cbb60008383613290565b6001600360008473ffffffffffffffffffffffffffffffffffffffff1673ffffffffffffffffffffffffffffffffffffffff1681526020019081526020016000206000828254613d0b91906156df565b92505081905550816002600083815260200190815260200160002060006101000a81548173ffffffffffffffffffffffffffffffffffffffff021916908373ffffffffffffffffffffffffffffffffffffffff160217905550808273ffffffffffffffffffffffffffffffffffffffff16600073ffffffffffffffffffffffffffffffffffffffff167fddf252ad1be2c89b69c2b068fc378daa952ba7f163c4a11628f55a4df523b3ef60405160405180910390a45050565b828054613dd0906158f8565b90600052602060002090601f016020900481019282613df25760008555613e39565b82601f10613e0b57805160ff1916838001178555613e39565b82800160010185558215613e39579182015b82811115613e38578251825591602001919060010190613e1d565b5b509050613e469190613e4a565b5090565b5b80821115613e63576000816000905550600101613e4b565b5090565b6000613e7a613e75846155cc565b61559b565b90508083825260208201905082856020860282011115613e9957600080fd5b60005b85811015613ec95781613eaf888261404b565b845260208401935060208301925050600181019050613e9c565b5050509392505050565b6000613ee6613ee1846155f8565b61559b565b905082815260208101848484011115613efe57600080fd5b613f098482856158b6565b509392505050565b6000613f24613f1f84615628565b61559b565b905082815260208101848484011115613f3c57600080fd5b613f478482856158b6565b509392505050565b600081359050613f5e81615a85565b92915050565b600082601f830112613f7557600080fd5b8135613f85848260208601613e67565b91505092915050565b600081359050613f9d81615a9c565b92915050565b600081519050613fb281615a9c565b92915050565b600081359050613fc781615ab3565b92915050565b600081359050613fdc81615aca565b92915050565b600081519050613ff181615aca565b92915050565b600082601f83011261400857600080fd5b8135614018848260208601613ed3565b91505092915050565b600082601f83011261403257600080fd5b8135614042848260208601613f11565b91505092915050565b60008135905061405a81615ae1565b92915050565b60008151905061406f81615ae1565b92915050565b60008135905061408481615af8565b92915050565b60006020828403121561409c57600080fd5b60006140aa84828501613f4f565b91505092915050565b600080604083850312156140c657600080fd5b60006140d485828601613f4f565b92505060206140e585828601613f4f565b9150509250929050565b60008060006060848603121561410457600080fd5b600061411286828701613f4f565b935050602061412386828701613f4f565b92505060406141348682870161404b565b9150509250925092565b6000806000806080858703121561415457600080fd5b600061416287828801613f4f565b945050602061417387828801613f4f565b93505060406141848782880161404b565b925050606085013567ffffffffffffffff8111156141a157600080fd5b6141ad87828801613ff7565b91505092959194509250565b600080604083850312156141cc57600080fd5b60006141da85828601613f4f565b92505060206141eb85828601613f8e565b9150509250929050565b6000806040838503121561420857600080fd5b600061421685828601613f4f565b92505060206142278582860161404b565b9150509250929050565b6000806040838503121561424457600080fd5b600061425285828601613f4f565b925050602061426385828601614075565b9150509250929050565b60006020828403121561427f57600080fd5b600082013567ffffffffffffffff81111561429957600080fd5b6142a584828501613f64565b91505092915050565b6000602082840312156142c057600080fd5b60006142ce84828501613f8e565b91505092915050565b6000602082840312156142e957600080fd5b60006142f784828501613fa3565b91505092915050565b6000806040838503121561431357600080fd5b600061432185828601613fb8565b92505060206143328582860161404b565b9150509250929050565b60006020828403121561434e57600080fd5b600061435c84828501613fcd565b91505092915050565b60006020828403121561437757600080fd5b600061438584828501613fe2565b91505092915050565b6000602082840312156143a057600080fd5b600082013567ffffffffffffffff8111156143ba57600080fd5b6143c684828501614021565b91505092915050565b6000602082840312156143e157600080fd5b60006143ef8482850161404b565b91505092915050565b60006020828403121561440a57600080fd5b600061441884828501614060565b91505092915050565b6000806040838503121561443457600080fd5b60006144428582860161404b565b92505060206144538582860161404b565b9150509250929050565b60006144698383614fb4565b60208301905092915050565b61447e8161582b565b82525050565b600061448f82615668565b6144998185615696565b93506144a483615658565b8060005b838110156144d55781516144bc888261445d565b97506144c783615689565b9250506001810190506144a8565b5085935050505092915050565b6144eb8161583d565b82525050565b6144fa81615849565b82525050565b61451161450c82615849565b615973565b82525050565b600061452282615673565b61452c81856156a7565b935061453c8185602086016158c5565b61454581615a74565b840191505092915050565b600061455b8261567e565b61456581856156c3565b93506145758185602086016158c5565b61457e81615a74565b840191505092915050565b60006145948261567e565b61459e81856156d4565b93506145ae8185602086016158c5565b80840191505092915050565b60006145c7602b836156c3565b91507f455243373231456e756d657261626c653a206f776e657220696e646578206f7560008301527f74206f6620626f756e64730000000000000000000000000000000000000000006020830152604082019050919050565b600061462d6032836156c3565b91507f4552433732313a207472616e7366657220746f206e6f6e20455243373231526560008301527f63656976657220696d706c656d656e74657200000000000000000000000000006020830152604082019050919050565b60006146936026836156c3565b91507f4f776e61626c653a206e6577206f776e657220697320746865207a65726f206160008301527f64647265737300000000000000000000000000000000000000000000000000006020830152604082019050919050565b60006146f9601c836156c3565b91507f4552433732313a20746f6b656e20616c7265616479206d696e746564000000006000830152602082019050919050565b60006147396024836156c3565b91507f4552433732313a207472616e7366657220746f20746865207a65726f2061646460008301527f72657373000000000000000000000000000000000000000000000000000000006020830152604082019050919050565b600061479f6019836156c3565b91507f4552433732313a20617070726f766520746f2063616c6c6572000000000000006000830152602082019050919050565b60006147df602b836156c3565b91507f4e6f7420656e6f756768204c494e4b202d2066696c6c20636f6e74726163742060008301527f77697468206661756365740000000000000000000000000000000000000000006020830152604082019050919050565b60006148456009836156c3565b91507f4d6178206c696d697400000000000000000000000000000000000000000000006000830152602082019050919050565b6000614885602c836156c3565b91507f4552433732313a206f70657261746f7220717565727920666f72206e6f6e657860008301527f697374656e7420746f6b656e00000000000000000000000000000000000000006020830152604082019050919050565b60006148eb6038836156c3565b91507f4552433732313a20617070726f76652063616c6c6572206973206e6f74206f7760008301527f6e6572206e6f7220617070726f76656420666f7220616c6c00000000000000006020830152604082019050919050565b6000614951602a836156c3565b91507f4552433732313a2062616c616e636520717565727920666f7220746865207a6560008301527f726f2061646472657373000000000000000000000000000000000000000000006020830152604082019050919050565b60006149b76029836156c3565b91507f4552433732313a206f776e657220717565727920666f72206e6f6e657869737460008301527f656e7420746f6b656e00000000000000000000000000000000000000000000006020830152604082019050919050565b6000614a1d6011836156c3565b91507f746f6b656e49647320697320656d7074790000000000000000000000000000006000830152602082019050919050565b6000614a5d6020836156c3565b91507f4552433732313a206d696e7420746f20746865207a65726f20616464726573736000830152602082019050919050565b6000614a9d602c836156c3565b91507f4552433732313a20617070726f76656420717565727920666f72206e6f6e657860008301527f697374656e7420746f6b656e00000000000000000000000000000000000000006020830152604082019050919050565b6000614b036020836156c3565b91507f4f776e61626c653a2063616c6c6572206973206e6f7420746865206f776e65726000830152602082019050919050565b6000614b436029836156c3565b91507f4552433732313a207472616e73666572206f6620746f6b656e2074686174206960008301527f73206e6f74206f776e00000000000000000000000000000000000000000000006020830152604082019050919050565b6000614ba9602f836156c3565b91507f4552433732314d657461646174613a2055524920717565727920666f72206e6f60008301527f6e6578697374656e7420746f6b656e00000000000000000000000000000000006020830152604082019050919050565b6000614c0f601f836156c3565b91507f4f6e6c7920565246436f6f7264696e61746f722063616e2066756c66696c6c006000830152602082019050919050565b6000614c4f6011836156c3565b91507f56616c75652062656c6f772070726963650000000000000000000000000000006000830152602082019050919050565b6000614c8f6010836156c3565b91507f50617573652069732064697361626c65000000000000000000000000000000006000830152602082019050919050565b6000614ccf600f836156c3565b91507f416c72656164792072656d6f76656400000000000000000000000000000000006000830152602082019050919050565b6000614d0f6021836156c3565b91507f4552433732313a20617070726f76616c20746f2063757272656e74206f776e6560008301527f72000000000000000000000000000000000000000000000000000000000000006020830152604082019050919050565b6000614d75600e836156c3565b91507f53616c6573206e6f74206f70656e0000000000000000000000000000000000006000830152602082019050919050565b6000614db56000836156b8565b9150600082019050919050565b6000614dcf600d836156c3565b91507f416c7265616479204164646564000000000000000000000000000000000000006000830152602082019050919050565b6000614e0f6010836156c3565b91507f5472616e73666572206661696c65642e000000000000000000000000000000006000830152602082019050919050565b6000614e4f6031836156c3565b91507f4552433732313a207472616e736665722063616c6c6572206973206e6f74206f60008301527f776e6572206e6f7220617070726f7665640000000000000000000000000000006020830152604082019050919050565b6000614eb5602a836156c3565b91507f43616e6e6f742066696e6420746f6b656e49647320496e646578202d2072656d60008301527f6f7665546f6b656e4964000000000000000000000000000000000000000000006020830152604082019050919050565b6000614f1b602c836156c3565b91507f455243373231456e756d657261626c653a20676c6f62616c20696e646578206f60008301527f7574206f6620626f756e647300000000000000000000000000000000000000006020830152604082019050919050565b6000614f816008836156c3565b91507f536f6c646f7574210000000000000000000000000000000000000000000000006000830152602082019050919050565b614fbd8161589f565b82525050565b614fcc8161589f565b82525050565b614fe3614fde8261589f565b61597d565b82525050565b6000614ff58285614500565b6020820191506150058284614fd2565b6020820191508190509392505050565b60006150218285614589565b915061502d8284614589565b91508190509392505050565b600061504482614da8565b9150819050919050565b60006020820190506150636000830184614475565b92915050565b600060808201905061507e6000830187614475565b61508b6020830186614475565b6150986040830185614fc3565b81810360608301526150aa8184614517565b905095945050505050565b60006060820190506150ca6000830186614475565b6150d76020830185614fc3565b81810360408301526150e98184614517565b9050949350505050565b6000602082019050818103600083015261510d8184614484565b905092915050565b600060208201905061512a60008301846144e2565b92915050565b600060408201905061514560008301856144f1565b6151526020830184614fc3565b9392505050565b600060808201905061516e60008301876144f1565b61517b6020830186614fc3565b6151886040830185614475565b6151956060830184614fc3565b95945050505050565b600060208201905081810360008301526151b88184614550565b905092915050565b600060208201905081810360008301526151d9816145ba565b9050919050565b600060208201905081810360008301526151f981614620565b9050919050565b6000602082019050818103600083015261521981614686565b9050919050565b60006020820190508181036000830152615239816146ec565b9050919050565b600060208201905081810360008301526152598161472c565b9050919050565b6000602082019050818103600083015261527981614792565b9050919050565b60006020820190508181036000830152615299816147d2565b9050919050565b600060208201905081810360008301526152b981614838565b9050919050565b600060208201905081810360008301526152d981614878565b9050919050565b600060208201905081810360008301526152f9816148de565b9050919050565b6000602082019050818103600083015261531981614944565b9050919050565b60006020820190508181036000830152615339816149aa565b9050919050565b6000602082019050818103600083015261535981614a10565b9050919050565b6000602082019050818103600083015261537981614a50565b9050919050565b6000602082019050818103600083015261539981614a90565b9050919050565b600060208201905081810360008301526153b981614af6565b9050919050565b600060208201905081810360008301526153d981614b36565b9050919050565b600060208201905081810360008301526153f981614b9c565b9050919050565b6000602082019050818103600083015261541981614c02565b9050919050565b6000602082019050818103600083015261543981614c42565b9050919050565b6000602082019050818103600083015261545981614c82565b9050919050565b6000602082019050818103600083015261547981614cc2565b9050919050565b6000602082019050818103600083015261549981614d02565b9050919050565b600060208201905081810360008301526154b981614d68565b9050919050565b600060208201905081810360008301526154d981614dc2565b9050919050565b600060208201905081810360008301526154f981614e02565b9050919050565b6000602082019050818103600083015261551981614e42565b9050919050565b6000602082019050818103600083015261553981614ea8565b9050919050565b6000602082019050818103600083015261555981614f0e565b9050919050565b6000602082019050818103600083015261557981614f74565b9050919050565b60006020820190506155956000830184614fc3565b92915050565b6000604051905081810181811067ffffffffffffffff821117156155c2576155c1615a45565b5b8060405250919050565b600067ffffffffffffffff8211156155e7576155e6615a45565b5b602082029050602081019050919050565b600067ffffffffffffffff82111561561357615612615a45565b5b601f19601f8301169050602081019050919050565b600067ffffffffffffffff82111561564357615642615a45565b5b601f19601f8301169050602081019050919050565b6000819050602082019050919050565b600081519050919050565b600081519050919050565b600081519050919050565b6000602082019050919050565b600082825260208201905092915050565b600082825260208201905092915050565b600081905092915050565b600082825260208201905092915050565b600081905092915050565b60006156ea8261589f565b91506156f58361589f565b9250827fffffffffffffffffffffffffffffffffffffffffffffffffffffffffffffffff0382111561572a576157296159b8565b5b828201905092915050565b6000615740826158a9565b915061574b836158a9565b92508260ff03821115615761576157606159b8565b5b828201905092915050565b60006157778261589f565b91506157828361589f565b925082615792576157916159e7565b5b828204905092915050565b60006157a88261589f565b91506157b38361589f565b9250817fffffffffffffffffffffffffffffffffffffffffffffffffffffffffffffffff04831182151516156157ec576157eb6159b8565b5b828202905092915050565b60006158028261589f565b915061580d8361589f565b9250828210156158205761581f6159b8565b5b828203905092915050565b60006158368261587f565b9050919050565b60008115159050919050565b6000819050919050565b60007fffffffff0000000000000000000000000000000000000000000000000000000082169050919050565b600073ffffffffffffffffffffffffffffffffffffffff82169050919050565b6000819050919050565b600060ff82169050919050565b82818337600083830152505050565b60005b838110156158e35780820151818401526020810190506158c8565b838111156158f2576000848401525b50505050565b6000600282049050600182168061591057607f821691505b6020821081141561592457615923615a16565b5b50919050565b60006159358261589f565b91507fffffffffffffffffffffffffffffffffffffffffffffffffffffffffffffffff821415615968576159676159b8565b5b600182019050919050565b6000819050919050565b6000819050919050565b60006159928261589f565b915061599d8361589f565b9250826159ad576159ac6159e7565b5b828206905092915050565b7f4e487b7100000000000000000000000000000000000000000000000000000000600052601160045260246000fd5b7f4e487b7100000000000000000000000000000000000000000000000000000000600052601260045260246000fd5b7f4e487b7100000000000000000000000000000000000000000000000000000000600052602260045260246000fd5b7f4e487b7100000000000000000000000000000000000000000000000000000000600052604160045260246000fd5b6000601f19601f8301169050919050565b615a8e8161582b565b8114615a9957600080fd5b50565b615aa58161583d565b8114615ab057600080fd5b50565b615abc81615849565b8114615ac757600080fd5b50565b615ad381615853565b8114615ade57600080fd5b50565b615aea8161589f565b8114615af557600080fd5b50565b615b01816158a9565b8114615b0c57600080fd5b5056fea26469706673582212203dd7147799ffe8f8bd18443680ef15fb8c0eb8b7d2c122801ef0a669dd57933d64736f6c63430008000033",
  "linkReferences": {},
  "deployedLinkReferences": {}
}