{
  "_format": "hh-sol-artifact-1",
  "contractName": "StarNft",
  "sourceName": "contracts/StarNft.sol",
  "abi": [
    {
      "inputs": [
        {
          "internalType": "string",
          "name": "baseURI",
          "type": "string"
        },
        {
          "internalType": "address",
          "name": "vrfCoordinator",
          "type": "address"
        },
        {
          "internalType": "address",
          "name": "vrfLinkToken",
          "type": "address"
        },
        {
          "internalType": "bytes32",
          "name": "vrfKeyhash",
          "type": "bytes32"
        }
      ],
      "stateMutability": "nonpayable",
      "type": "constructor"
    },
    {
      "anonymous": false,
      "inputs": [
        {
          "indexed": true,
          "internalType": "address",
          "name": "owner",
          "type": "address"
        },
        {
          "indexed": true,
          "internalType": "address",
          "name": "approved",
          "type": "address"
        },
        {
          "indexed": true,
          "internalType": "uint256",
          "name": "tokenId",
          "type": "uint256"
        }
      ],
      "name": "Approval",
      "type": "event"
    },
    {
      "anonymous": false,
      "inputs": [
        {
          "indexed": true,
          "internalType": "address",
          "name": "owner",
          "type": "address"
        },
        {
          "indexed": true,
          "internalType": "address",
          "name": "operator",
          "type": "address"
        },
        {
          "indexed": false,
          "internalType": "bool",
          "name": "approved",
          "type": "bool"
        }
      ],
      "name": "ApprovalForAll",
      "type": "event"
    },
    {
      "anonymous": false,
      "inputs": [
        {
          "indexed": true,
          "internalType": "uint256",
          "name": "tokenId",
          "type": "uint256"
        },
        {
          "indexed": true,
          "internalType": "uint256",
          "name": "remainCount",
          "type": "uint256"
        }
      ],
      "name": "MintedNewNFT",
      "type": "event"
    },
    {
      "anonymous": false,
      "inputs": [],
      "name": "MintedSpecialNFT",
      "type": "event"
    },
    {
      "anonymous": false,
      "inputs": [
        {
          "indexed": true,
          "internalType": "address",
          "name": "previousOwner",
          "type": "address"
        },
        {
          "indexed": true,
          "internalType": "address",
          "name": "newOwner",
          "type": "address"
        }
      ],
      "name": "OwnershipTransferred",
      "type": "event"
    },
    {
      "anonymous": false,
      "inputs": [
        {
          "indexed": false,
          "internalType": "bool",
          "name": "pause",
          "type": "bool"
        }
      ],
      "name": "PauseEvent",
      "type": "event"
    },
    {
      "anonymous": false,
      "inputs": [
        {
          "indexed": true,
          "internalType": "address",
          "name": "from",
          "type": "address"
        },
        {
          "indexed": true,
          "internalType": "address",
          "name": "to",
          "type": "address"
        },
        {
          "indexed": true,
          "internalType": "uint256",
          "name": "tokenId",
          "type": "uint256"
        }
      ],
      "name": "Transfer",
      "type": "event"
    },
    {
      "inputs": [],
      "name": "BREED_PRICE",
      "outputs": [
        {
          "internalType": "uint256",
          "name": "",
          "type": "uint256"
        }
      ],
      "stateMutability": "view",
      "type": "function"
    },
    {
      "inputs": [],
      "name": "DEV_ADDRESS",
      "outputs": [
        {
          "internalType": "address",
          "name": "",
          "type": "address"
        }
      ],
      "stateMutability": "view",
      "type": "function"
    },
    {
      "inputs": [],
      "name": "INITIAL_TOKEN_COUNT",
      "outputs": [
        {
          "internalType": "uint256",
          "name": "",
          "type": "uint256"
        }
      ],
      "stateMutability": "view",
      "type": "function"
    },
    {
      "inputs": [],
      "name": "MINT_PRICE",
      "outputs": [
        {
          "internalType": "uint256",
          "name": "",
          "type": "uint256"
        }
      ],
      "stateMutability": "view",
      "type": "function"
    },
    {
      "inputs": [
        {
          "internalType": "address[]",
          "name": "addrs",
          "type": "address[]"
        }
      ],
      "name": "addWhiteLists",
      "outputs": [],
      "stateMutability": "nonpayable",
      "type": "function"
    },
    {
      "inputs": [
        {
          "internalType": "address",
          "name": "to",
          "type": "address"
        },
        {
          "internalType": "uint256",
          "name": "tokenId",
          "type": "uint256"
        }
      ],
      "name": "approve",
      "outputs": [],
      "stateMutability": "nonpayable",
      "type": "function"
    },
    {
      "inputs": [
        {
          "internalType": "address",
          "name": "owner",
          "type": "address"
        }
      ],
      "name": "balanceOf",
      "outputs": [
        {
          "internalType": "uint256",
          "name": "",
          "type": "uint256"
        }
      ],
      "stateMutability": "view",
      "type": "function"
    },
    {
      "inputs": [
        {
          "internalType": "uint256",
          "name": "tokenId",
          "type": "uint256"
        }
      ],
      "name": "getApproved",
      "outputs": [
        {
          "internalType": "address",
          "name": "",
          "type": "address"
        }
      ],
      "stateMutability": "view",
      "type": "function"
    },
    {
      "inputs": [
        {
          "internalType": "address",
          "name": "owner",
          "type": "address"
        },
        {
          "internalType": "address",
          "name": "operator",
          "type": "address"
        }
      ],
      "name": "isApprovedForAll",
      "outputs": [
        {
          "internalType": "bool",
          "name": "",
          "type": "bool"
        }
      ],
      "stateMutability": "view",
      "type": "function"
    },
    {
      "inputs": [
        {
          "internalType": "address",
          "name": "addr",
          "type": "address"
        }
      ],
      "name": "isWhiteList",
      "outputs": [
        {
          "internalType": "bool",
          "name": "",
          "type": "bool"
        }
      ],
      "stateMutability": "view",
      "type": "function"
    },
    {
      "inputs": [
        {
          "internalType": "address",
          "name": "to_",
          "type": "address"
        },
        {
          "internalType": "string",
          "name": "tokenUri_",
          "type": "string"
        }
      ],
      "name": "mintBreedToken",
      "outputs": [],
      "stateMutability": "payable",
      "type": "function"
    },
    {
      "inputs": [],
      "name": "mintUnsoldTokens",
      "outputs": [],
      "stateMutability": "nonpayable",
      "type": "function"
    },
    {
      "inputs": [],
      "name": "mintedInitialTokenCount",
      "outputs": [
        {
          "internalType": "uint256",
          "name": "",
          "type": "uint256"
        }
      ],
      "stateMutability": "view",
      "type": "function"
    },
    {
      "inputs": [],
      "name": "mintedTokenCount",
      "outputs": [
        {
          "internalType": "uint256",
          "name": "",
          "type": "uint256"
        }
      ],
      "stateMutability": "view",
      "type": "function"
    },
    {
      "inputs": [],
      "name": "name",
      "outputs": [
        {
          "internalType": "string",
          "name": "",
          "type": "string"
        }
      ],
      "stateMutability": "view",
      "type": "function"
    },
    {
      "inputs": [],
      "name": "owner",
      "outputs": [
        {
          "internalType": "address",
          "name": "",
          "type": "address"
        }
      ],
      "stateMutability": "view",
      "type": "function"
    },
    {
      "inputs": [
        {
          "internalType": "uint256",
          "name": "tokenId",
          "type": "uint256"
        }
      ],
      "name": "ownerOf",
      "outputs": [
        {
          "internalType": "address",
          "name": "",
          "type": "address"
        }
      ],
      "stateMutability": "view",
      "type": "function"
    },
    {
      "inputs": [
        {
          "internalType": "bytes32",
          "name": "requestId",
          "type": "bytes32"
        },
        {
          "internalType": "uint256",
          "name": "randomness",
          "type": "uint256"
        }
      ],
      "name": "rawFulfillRandomness",
      "outputs": [],
      "stateMutability": "nonpayable",
      "type": "function"
    },
    {
      "inputs": [],
      "name": "remainTokenCount",
      "outputs": [
        {
          "internalType": "uint256",
          "name": "",
          "type": "uint256"
        }
      ],
      "stateMutability": "view",
      "type": "function"
    },
    {
      "inputs": [
        {
          "internalType": "address",
          "name": "addr",
          "type": "address"
        }
      ],
      "name": "removeWhiteList",
      "outputs": [],
      "stateMutability": "nonpayable",
      "type": "function"
    },
    {
      "inputs": [],
      "name": "renounceOwnership",
      "outputs": [],
      "stateMutability": "nonpayable",
      "type": "function"
    },
    {
      "inputs": [
        {
          "internalType": "address",
          "name": "_to",
          "type": "address"
        },
        {
          "internalType": "uint8",
          "name": "amount",
          "type": "uint8"
        }
      ],
      "name": "requestRandomNFT",
      "outputs": [],
      "stateMutability": "payable",
      "type": "function"
    },
    {
      "inputs": [
        {
          "internalType": "address",
          "name": "from",
          "type": "address"
        },
        {
          "internalType": "address",
          "name": "to",
          "type": "address"
        },
        {
          "internalType": "uint256",
          "name": "tokenId",
          "type": "uint256"
        }
      ],
      "name": "safeTransferFrom",
      "outputs": [],
      "stateMutability": "nonpayable",
      "type": "function"
    },
    {
      "inputs": [
        {
          "internalType": "address",
          "name": "from",
          "type": "address"
        },
        {
          "internalType": "address",
          "name": "to",
          "type": "address"
        },
        {
          "internalType": "uint256",
          "name": "tokenId",
          "type": "uint256"
        },
        {
          "internalType": "bytes",
          "name": "_data",
          "type": "bytes"
        }
      ],
      "name": "safeTransferFrom",
      "outputs": [],
      "stateMutability": "nonpayable",
      "type": "function"
    },
    {
      "inputs": [
        {
          "internalType": "address",
          "name": "operator",
          "type": "address"
        },
        {
          "internalType": "bool",
          "name": "approved",
          "type": "bool"
        }
      ],
      "name": "setApprovalForAll",
      "outputs": [],
      "stateMutability": "nonpayable",
      "type": "function"
    },
    {
      "inputs": [
        {
          "internalType": "string",
          "name": "baseURI",
          "type": "string"
        }
      ],
      "name": "setBaseURI",
      "outputs": [],
      "stateMutability": "nonpayable",
      "type": "function"
    },
    {
      "inputs": [
        {
          "internalType": "bool",
          "name": "pause",
          "type": "bool"
        }
      ],
      "name": "setPause",
      "outputs": [],
      "stateMutability": "nonpayable",
      "type": "function"
    },
    {
      "inputs": [
        {
          "internalType": "bytes4",
          "name": "interfaceId",
          "type": "bytes4"
        }
      ],
      "name": "supportsInterface",
      "outputs": [
        {
          "internalType": "bool",
          "name": "",
          "type": "bool"
        }
      ],
      "stateMutability": "view",
      "type": "function"
    },
    {
      "inputs": [],
      "name": "symbol",
      "outputs": [
        {
          "internalType": "string",
          "name": "",
          "type": "string"
        }
      ],
      "stateMutability": "view",
      "type": "function"
    },
    {
      "inputs": [
        {
          "internalType": "uint256",
          "name": "tokenId",
          "type": "uint256"
        }
      ],
      "name": "tokenURI",
      "outputs": [
        {
          "internalType": "string",
          "name": "",
          "type": "string"
        }
      ],
      "stateMutability": "view",
      "type": "function"
    },
    {
      "inputs": [
        {
          "internalType": "address",
          "name": "from",
          "type": "address"
        },
        {
          "internalType": "address",
          "name": "to",
          "type": "address"
        },
        {
          "internalType": "uint256",
          "name": "tokenId",
          "type": "uint256"
        }
      ],
      "name": "transferFrom",
      "outputs": [],
      "stateMutability": "nonpayable",
      "type": "function"
    },
    {
      "inputs": [
        {
          "internalType": "address",
          "name": "newOwner",
          "type": "address"
        }
      ],
      "name": "transferOwnership",
      "outputs": [],
      "stateMutability": "nonpayable",
      "type": "function"
    },
    {
      "inputs": [
        {
          "internalType": "address",
          "name": "owner",
          "type": "address"
        }
      ],
      "name": "walletOfOwner",
      "outputs": [
        {
          "internalType": "uint256[]",
          "name": "",
          "type": "uint256[]"
        }
      ],
      "stateMutability": "view",
      "type": "function"
    },
    {
      "inputs": [
        {
          "internalType": "address",
          "name": "",
          "type": "address"
        }
      ],
      "name": "whiteList",
      "outputs": [
        {
          "internalType": "bool",
          "name": "",
          "type": "bool"
        }
      ],
      "stateMutability": "view",
      "type": "function"
    },
    {
      "inputs": [],
      "name": "withdrawAll",
      "outputs": [],
      "stateMutability": "nonpayable",
      "type": "function"
    }
  ],
  "bytecode": "0x60c060405267016345785d8a0000600a556000601060006101000a81548160ff0219169083151502179055506000601060016101000a81548160ff02191690831515021790555060006012553480156200005857600080fd5b50604051620058da380380620058da83398181016040528101906200007e91906200054e565b82826040518060400160405280600781526020017f537461724e6674000000000000000000000000000000000000000000000000008152506040518060400160405280600481526020017f5374617200000000000000000000000000000000000000000000000000000000815250816000908051906020019062000104929190620003fe565b5080600190805190602001906200011d929190620003fe565b5050508173ffffffffffffffffffffffffffffffffffffffff1660a08173ffffffffffffffffffffffffffffffffffffffff1660601b815250508073ffffffffffffffffffffffffffffffffffffffff1660808173ffffffffffffffffffffffffffffffffffffffff1660601b815250505050620001b0620001a46200025b60201b60201c565b6200026360201b60201c565b620001c1846200032960201b60201c565b82600c60006101000a81548173ffffffffffffffffffffffffffffffffffffffff021916908373ffffffffffffffffffffffffffffffffffffffff16021790555081600b60006101000a81548173ffffffffffffffffffffffffffffffffffffffff021916908373ffffffffffffffffffffffffffffffffffffffff1602179055508060098190555042600f8190555050505050620007eb565b600033905090565b6000600760009054906101000a900473ffffffffffffffffffffffffffffffffffffffff16905081600760006101000a81548173ffffffffffffffffffffffffffffffffffffffff021916908373ffffffffffffffffffffffffffffffffffffffff1602179055508173ffffffffffffffffffffffffffffffffffffffff168173ffffffffffffffffffffffffffffffffffffffff167f8be0079c531659141344cd1fd0a4f28419497f9722a3daafe3b4186f6b6457e060405160405180910390a35050565b620003396200025b60201b60201c565b73ffffffffffffffffffffffffffffffffffffffff166200035f620003d460201b60201c565b73ffffffffffffffffffffffffffffffffffffffff1614620003b8576040517f08c379a0000000000000000000000000000000000000000000000000000000008152600401620003af9062000615565b60405180910390fd5b8060119080519060200190620003d0929190620003fe565b5050565b6000600760009054906101000a900473ffffffffffffffffffffffffffffffffffffffff16905090565b8280546200040c9062000723565b90600052602060002090601f0160209004810192826200043057600085556200047c565b82601f106200044b57805160ff19168380011785556200047c565b828001600101855582156200047c579182015b828111156200047b5782518255916020019190600101906200045e565b5b5090506200048b91906200048f565b5090565b5b80821115620004aa57600081600090555060010162000490565b5090565b6000620004c5620004bf846200066b565b62000637565b905082815260208101848484011115620004de57600080fd5b620004eb848285620006ed565b509392505050565b6000815190506200050481620007b7565b92915050565b6000815190506200051b81620007d1565b92915050565b600082601f8301126200053357600080fd5b815162000545848260208601620004ae565b91505092915050565b600080600080608085870312156200056557600080fd5b600085015167ffffffffffffffff8111156200058057600080fd5b6200058e8782880162000521565b9450506020620005a187828801620004f3565b9350506040620005b487828801620004f3565b9250506060620005c7878288016200050a565b91505092959194509250565b6000620005e26020836200069e565b91507f4f776e61626c653a2063616c6c6572206973206e6f7420746865206f776e65726000830152602082019050919050565b600060208201905081810360008301526200063081620005d3565b9050919050565b6000604051905081810181811067ffffffffffffffff8211171562000661576200066062000788565b5b8060405250919050565b600067ffffffffffffffff82111562000689576200068862000788565b5b601f19601f8301169050602081019050919050565b600082825260208201905092915050565b6000620006bc82620006cd565b9050919050565b6000819050919050565b600073ffffffffffffffffffffffffffffffffffffffff82169050919050565b60005b838110156200070d578082015181840152602081019050620006f0565b838111156200071d576000848401525b50505050565b600060028204905060018216806200073c57607f821691505b6020821081141562000753576200075262000759565b5b50919050565b7f4e487b7100000000000000000000000000000000000000000000000000000000600052602260045260246000fd5b7f4e487b7100000000000000000000000000000000000000000000000000000000600052604160045260246000fd5b620007c281620006af565b8114620007ce57600080fd5b50565b620007dc81620006c3565b8114620007e857600080fd5b50565b60805160601c60a05160601c6150b5620008256000396000818161170301526125b3015260008181611482015261257701526150b56000f3fe6080604052600436106102045760003560e01c8063755cb23411610118578063bedb86fb116100a0578063c87b56dd1161006f578063c87b56dd14610711578063e985e9c51461074e578063f2fde38b1461078b578063f99031a7146107b4578063fdf5a49f146107f157610204565b8063bedb86fb1461067b578063bede130c146106a4578063bf424e7e146106bb578063c002d23d146106e657610204565b80639363d186116100e75780639363d186146105b957806394985ddd146105d557806395d89b41146105fe578063a22cb46514610629578063b88d4fde1461065257610204565b8063755cb23414610521578063853828b61461054c5780638d041988146105635780638da5cb5b1461058e57610204565b806342842e0e1161019b5780636352211e1161016a5780636352211e146104495780636c26eab91461048657806370a08231146104b1578063715018a6146104ee578063721c492c1461050557610204565b806342842e0e1461038f578063438b6300146103b857806355f804b3146103f55780635639e8cf1461041e57610204565b8063105dacdf116101d7578063105dacdf146102d75780632042e5c21461030057806323b872dd14610329578063372c12b11461035257610204565b806301ffc9a71461020957806306fdde0314610246578063081812fc14610271578063095ea7b3146102ae575b600080fd5b34801561021557600080fd5b50610230600480360381019061022b9190613a9d565b61081c565b60405161023d9190614705565b60405180910390f35b34801561025257600080fd5b5061025b6108fe565b604051610268919061478e565b60405180910390f35b34801561027d57600080fd5b5061029860048036038101906102939190613b30565b610990565b6040516102a5919061463e565b60405180910390f35b3480156102ba57600080fd5b506102d560048036038101906102d09190613956565b610a15565b005b3480156102e357600080fd5b506102fe60048036038101906102f991906139ce565b610b2d565b005b34801561030c57600080fd5b5061032760048036038101906103229190613797565b610c65565b005b34801561033557600080fd5b50610350600480360381019061034b91906137fc565b610dc8565b005b34801561035e57600080fd5b5061037960048036038101906103749190613797565b610e28565b6040516103869190614705565b60405180910390f35b34801561039b57600080fd5b506103b660048036038101906103b191906137fc565b610e48565b005b3480156103c457600080fd5b506103df60048036038101906103da9190613797565b610e68565b6040516103ec91906146e3565b60405180910390f35b34801561040157600080fd5b5061041c60048036038101906104179190613aef565b610fa9565b005b34801561042a57600080fd5b5061043361103f565b604051610440919061463e565b60405180910390f35b34801561045557600080fd5b50610470600480360381019061046b9190613b30565b611057565b60405161047d919061463e565b60405180910390f35b34801561049257600080fd5b5061049b611109565b6040516104a89190614af0565b60405180910390f35b3480156104bd57600080fd5b506104d860048036038101906104d39190613797565b61110f565b6040516104e59190614af0565b60405180910390f35b3480156104fa57600080fd5b506105036111c7565b005b61051f600480360381019061051a9190613992565b61124f565b005b34801561052d57600080fd5b506105366115f9565b6040516105439190614af0565b60405180910390f35b34801561055857600080fd5b506105616115ff565b005b34801561056f57600080fd5b50610578611658565b6040516105859190614af0565b60405180910390f35b34801561059a57600080fd5b506105a361166f565b6040516105b0919061463e565b60405180910390f35b6105d360048036038101906105ce9190613902565b611699565b005b3480156105e157600080fd5b506105fc60048036038101906105f79190613a61565b611701565b005b34801561060a57600080fd5b5061061361179d565b604051610620919061478e565b60405180910390f35b34801561063557600080fd5b50610650600480360381019061064b91906138c6565b61182f565b005b34801561065e57600080fd5b506106796004803603810190610674919061384b565b6119b0565b005b34801561068757600080fd5b506106a2600480360381019061069d9190613a0f565b611a12565b005b3480156106b057600080fd5b506106b9611af1565b005b3480156106c757600080fd5b506106d0611c3d565b6040516106dd9190614af0565b60405180910390f35b3480156106f257600080fd5b506106fb611c48565b6040516107089190614af0565b60405180910390f35b34801561071d57600080fd5b5061073860048036038101906107339190613b30565b611c53565b604051610745919061478e565b60405180910390f35b34801561075a57600080fd5b50610775600480360381019061077091906137c0565b611d5b565b6040516107829190614705565b60405180910390f35b34801561079757600080fd5b506107b260048036038101906107ad9190613797565b611def565b005b3480156107c057600080fd5b506107db60048036038101906107d69190613797565b611ee7565b6040516107e89190614705565b60405180910390f35b3480156107fd57600080fd5b50610806611fb9565b6040516108139190614af0565b60405180910390f35b60007f80ac58cd000000000000000000000000000000000000000000000000000000007bffffffffffffffffffffffffffffffffffffffffffffffffffffffff1916827bffffffffffffffffffffffffffffffffffffffffffffffffffffffff191614806108e757507f5b5e139f000000000000000000000000000000000000000000000000000000007bffffffffffffffffffffffffffffffffffffffffffffffffffffffff1916827bffffffffffffffffffffffffffffffffffffffffffffffffffffffff1916145b806108f757506108f682611fc6565b5b9050919050565b60606000805461090d90614e68565b80601f016020809104026020016040519081016040528092919081815260200182805461093990614e68565b80156109865780601f1061095b57610100808354040283529160200191610986565b820191906000526020600020905b81548152906001019060200180831161096957829003601f168201915b5050505050905090565b600061099b82612030565b6109da576040517f08c379a00000000000000000000000000000000000000000000000000000000081526004016109d190614930565b60405180910390fd5b6004600083815260200190815260200160002060009054906101000a900473ffffffffffffffffffffffffffffffffffffffff169050919050565b6000610a2082611057565b90508073ffffffffffffffffffffffffffffffffffffffff168373ffffffffffffffffffffffffffffffffffffffff161415610a91576040517f08c379a0000000000000000000000000000000000000000000000000000000008152600401610a8890614a30565b60405180910390fd5b8073ffffffffffffffffffffffffffffffffffffffff16610ab061209c565b73ffffffffffffffffffffffffffffffffffffffff161480610adf5750610ade81610ad961209c565b611d5b565b5b610b1e576040517f08c379a0000000000000000000000000000000000000000000000000000000008152600401610b15906148b0565b60405180910390fd5b610b2883836120a4565b505050565b610b3561209c565b73ffffffffffffffffffffffffffffffffffffffff16610b5361166f565b73ffffffffffffffffffffffffffffffffffffffff1614610ba9576040517f08c379a0000000000000000000000000000000000000000000000000000000008152600401610ba090614950565b60405180910390fd5b60005b8151811015610c61576001600e6000848481518110610bf4577f4e487b7100000000000000000000000000000000000000000000000000000000600052603260045260246000fd5b602002602001015173ffffffffffffffffffffffffffffffffffffffff1673ffffffffffffffffffffffffffffffffffffffff16815260200190815260200160002060006101000a81548160ff021916908315150217905550600181610c5a9190614c4f565b9050610bac565b5050565b610c6d61209c565b73ffffffffffffffffffffffffffffffffffffffff16610c8b61166f565b73ffffffffffffffffffffffffffffffffffffffff1614610ce1576040517f08c379a0000000000000000000000000000000000000000000000000000000008152600401610cd890614950565b60405180910390fd5b600e60008273ffffffffffffffffffffffffffffffffffffffff1673ffffffffffffffffffffffffffffffffffffffff16815260200190815260200160002060009054906101000a900460ff16610d6d576040517f08c379a0000000000000000000000000000000000000000000000000000000008152600401610d6490614a10565b60405180910390fd5b6000600e60008373ffffffffffffffffffffffffffffffffffffffff1673ffffffffffffffffffffffffffffffffffffffff16815260200190815260200160002060006101000a81548160ff02191690831515021790555050565b610dd9610dd361209c565b8261215d565b610e18576040517f08c379a0000000000000000000000000000000000000000000000000000000008152600401610e0f90614ab0565b60405180910390fd5b610e2383838361223b565b505050565b600e6020528060005260406000206000915054906101000a900460ff1681565b610e63838383604051806020016040528060008152506119b0565b505050565b60606000610e758361110f565b905060008167ffffffffffffffff811115610eb9577f4e487b7100000000000000000000000000000000000000000000000000000000600052604160045260246000fd5b604051908082528060200260200182016040528015610ee75781602001602082028036833780820191505090505b5090506000805b600880549050811015610f9d578573ffffffffffffffffffffffffffffffffffffffff16610f1b82611057565b73ffffffffffffffffffffffffffffffffffffffff161415610f8a5780838380610f4490614e9a565b945081518110610f7d577f4e487b7100000000000000000000000000000000000000000000000000000000600052603260045260246000fd5b6020026020010181815250505b8080610f9590614e9a565b915050610eee565b50819350505050919050565b610fb161209c565b73ffffffffffffffffffffffffffffffffffffffff16610fcf61166f565b73ffffffffffffffffffffffffffffffffffffffff1614611025576040517f08c379a000000000000000000000000000000000000000000000000000000000815260040161101c90614950565b60405180910390fd5b806011908051906020019061103b9291906133f8565b5050565b73a5dbc34d69b745d5ee9494e6960a811613b9ae3281565b6000806002600084815260200190815260200160002060009054906101000a900473ffffffffffffffffffffffffffffffffffffffff169050600073ffffffffffffffffffffffffffffffffffffffff168173ffffffffffffffffffffffffffffffffffffffff161415611100576040517f08c379a00000000000000000000000000000000000000000000000000000000081526004016110f7906148f0565b60405180910390fd5b80915050919050565b60125481565b60008073ffffffffffffffffffffffffffffffffffffffff168273ffffffffffffffffffffffffffffffffffffffff161415611180576040517f08c379a0000000000000000000000000000000000000000000000000000000008152600401611177906148d0565b60405180910390fd5b600360008373ffffffffffffffffffffffffffffffffffffffff1673ffffffffffffffffffffffffffffffffffffffff168152602001908152602001600020549050919050565b6111cf61209c565b73ffffffffffffffffffffffffffffffffffffffff166111ed61166f565b73ffffffffffffffffffffffffffffffffffffffff1614611243576040517f08c379a000000000000000000000000000000000000000000000000000000000815260040161123a90614950565b60405180910390fd5b61124d6000612497565b565b6000611259611658565b101561129a576040517f08c379a000000000000000000000000000000000000000000000000000000000815260040161129190614ad0565b60405180910390fd5b601060019054906101000a900460ff16156112ea576040517f08c379a00000000000000000000000000000000000000000000000000000000081526004016112e190614a70565b60405180910390fd5b613840600f546112fa9190614c4f565b42116113495761130982611ee7565b611348576040517f08c379a000000000000000000000000000000000000000000000000000000000815260040161133f90614a50565b60405180910390fd5b5b60018160ff161115611390576040517f08c379a000000000000000000000000000000000000000000000000000000000815260040161138790614870565b60405180910390fd5b612775601060009054906101000a900460ff166113ae5760016113b1565b60005b60ff168260ff166012546113c59190614c4f565b6113cf9190614c4f565b1115611410576040517f08c379a000000000000000000000000000000000000000000000000000000000815260040161140790614870565b60405180910390fd5b61142d8160ff1666038d7ea4c6800061255d90919063ffffffff16565b34101561146f576040517f08c379a0000000000000000000000000000000000000000000000000000000008152600401611466906149d0565b60405180910390fd5b8060ff16600a546114809190614d0d565b7f000000000000000000000000000000000000000000000000000000000000000073ffffffffffffffffffffffffffffffffffffffff166370a08231306040518263ffffffff1660e01b81526004016114d9919061463e565b60206040518083038186803b1580156114f157600080fd5b505afa158015611505573d6000803e3d6000fd5b505050506040513d601f19601f820116820180604052508101906115299190613b59565b101561156a576040517f08c379a000000000000000000000000000000000000000000000000000000000815260040161156190614850565b60405180910390fd5b60005b8160ff168160ff1610156115f457600061158b600954600a54612573565b905083600d600083815260200190815260200160002060006101000a81548173ffffffffffffffffffffffffffffffffffffffff021916908373ffffffffffffffffffffffffffffffffffffffff160217905550506001816115ed9190614ca5565b905061156d565b505050565b61277581565b60004790506000811161161157600080fd5b61165573a5dbc34d69b745d5ee9494e6960a811613b9ae32611650606461164260648661255d90919063ffffffff16565b6126d590919063ffffffff16565b6126eb565b50565b600060125461277561166a9190614d67565b905090565b6000600760009054906101000a900473ffffffffffffffffffffffffffffffffffffffff16905090565b6116ac826116a7600261279c565b612a51565b80601360006127756014546116c19190614c4f565b815260200190815260200160002090805190602001906116e29291906133f8565b506001601460008282546116f69190614c4f565b925050819055505050565b7f000000000000000000000000000000000000000000000000000000000000000073ffffffffffffffffffffffffffffffffffffffff163373ffffffffffffffffffffffffffffffffffffffff161461178f576040517f08c379a0000000000000000000000000000000000000000000000000000000008152600401611786906149b0565b60405180910390fd5b6117998282612a6f565b5050565b6060600180546117ac90614e68565b80601f01602080910402602001604051908101604052809291908181526020018280546117d890614e68565b80156118255780601f106117fa57610100808354040283529160200191611825565b820191906000526020600020905b81548152906001019060200180831161180857829003601f168201915b5050505050905090565b61183761209c565b73ffffffffffffffffffffffffffffffffffffffff168273ffffffffffffffffffffffffffffffffffffffff1614156118a5576040517f08c379a000000000000000000000000000000000000000000000000000000000815260040161189c90614830565b60405180910390fd5b80600560006118b261209c565b73ffffffffffffffffffffffffffffffffffffffff1673ffffffffffffffffffffffffffffffffffffffff16815260200190815260200160002060008473ffffffffffffffffffffffffffffffffffffffff1673ffffffffffffffffffffffffffffffffffffffff16815260200190815260200160002060006101000a81548160ff0219169083151502179055508173ffffffffffffffffffffffffffffffffffffffff1661195f61209c565b73ffffffffffffffffffffffffffffffffffffffff167f17307eab39ab6107e8899845ad3d59bd9653f200f220920489ca2b5937696c31836040516119a49190614705565b60405180910390a35050565b6119c16119bb61209c565b8361215d565b611a00576040517f08c379a00000000000000000000000000000000000000000000000000000000081526004016119f790614ab0565b60405180910390fd5b611a0c84848484612ab8565b50505050565b611a1a61209c565b73ffffffffffffffffffffffffffffffffffffffff16611a3861166f565b73ffffffffffffffffffffffffffffffffffffffff1614611a8e576040517f08c379a0000000000000000000000000000000000000000000000000000000008152600401611a8590614950565b60405180910390fd5b80601060016101000a81548160ff0219169083151502179055507f10e1c3fcaff06b68391033547e8f9bb8067d7c4a2e32659b0629153814d242d3601060019054906101000a900460ff16604051611ae69190614705565b60405180910390a150565b611af961209c565b73ffffffffffffffffffffffffffffffffffffffff16611b1761166f565b73ffffffffffffffffffffffffffffffffffffffff1614611b6d576040517f08c379a0000000000000000000000000000000000000000000000000000000008152600401611b6490614950565b60405180910390fd5b601060019054906101000a900460ff16611bbc576040517f08c379a0000000000000000000000000000000000000000000000000000000008152600401611bb3906149f0565b60405180910390fd5b600060125490505b612775811015611c31576000611bd982612b14565b604051602001611be991906145ee565b6040516020818303038152906040528051906020012060001c9050611c1d611c0f61166f565b611c188361279c565b612cc1565b508080611c2990614e9a565b915050611bc4565b50612775601281905550565b66038d7ea4c6800081565b66038d7ea4c6800081565b6060611c5e82612030565b611c9d576040517f08c379a0000000000000000000000000000000000000000000000000000000008152600401611c9490614990565b60405180910390fd5b612775821015611cb757611cb082612d04565b9050611d56565b601360008381526020019081526020016000208054611cd590614e68565b80601f0160208091040260200160405190810160405280929190818152602001828054611d0190614e68565b8015611d4e5780601f10611d2357610100808354040283529160200191611d4e565b820191906000526020600020905b815481529060010190602001808311611d3157829003601f168201915b505050505090505b919050565b6000600560008473ffffffffffffffffffffffffffffffffffffffff1673ffffffffffffffffffffffffffffffffffffffff16815260200190815260200160002060008373ffffffffffffffffffffffffffffffffffffffff1673ffffffffffffffffffffffffffffffffffffffff16815260200190815260200160002060009054906101000a900460ff16905092915050565b611df761209c565b73ffffffffffffffffffffffffffffffffffffffff16611e1561166f565b73ffffffffffffffffffffffffffffffffffffffff1614611e6b576040517f08c379a0000000000000000000000000000000000000000000000000000000008152600401611e6290614950565b60405180910390fd5b600073ffffffffffffffffffffffffffffffffffffffff168173ffffffffffffffffffffffffffffffffffffffff161415611edb576040517f08c379a0000000000000000000000000000000000000000000000000000000008152600401611ed2906147d0565b60405180910390fd5b611ee481612497565b50565b6000611ef161209c565b73ffffffffffffffffffffffffffffffffffffffff16611f0f61166f565b73ffffffffffffffffffffffffffffffffffffffff1614611f65576040517f08c379a0000000000000000000000000000000000000000000000000000000008152600401611f5c90614950565b60405180910390fd5b600e60008373ffffffffffffffffffffffffffffffffffffffff1673ffffffffffffffffffffffffffffffffffffffff16815260200190815260200160002060009054906101000a900460ff169050919050565b6000600880549050905090565b60007f01ffc9a7000000000000000000000000000000000000000000000000000000007bffffffffffffffffffffffffffffffffffffffffffffffffffffffff1916827bffffffffffffffffffffffffffffffffffffffffffffffffffffffff1916149050919050565b60008073ffffffffffffffffffffffffffffffffffffffff166002600084815260200190815260200160002060009054906101000a900473ffffffffffffffffffffffffffffffffffffffff1673ffffffffffffffffffffffffffffffffffffffff1614159050919050565b600033905090565b816004600083815260200190815260200160002060006101000a81548173ffffffffffffffffffffffffffffffffffffffff021916908373ffffffffffffffffffffffffffffffffffffffff160217905550808273ffffffffffffffffffffffffffffffffffffffff1661211783611057565b73ffffffffffffffffffffffffffffffffffffffff167f8c5be1e5ebec7d5bd14f71427d1e84f3dd0314c0f7b2291e5b200ac8c7c3b92560405160405180910390a45050565b600061216882612030565b6121a7576040517f08c379a000000000000000000000000000000000000000000000000000000000815260040161219e90614890565b60405180910390fd5b60006121b283611057565b90508073ffffffffffffffffffffffffffffffffffffffff168473ffffffffffffffffffffffffffffffffffffffff16148061222157508373ffffffffffffffffffffffffffffffffffffffff1661220984610990565b73ffffffffffffffffffffffffffffffffffffffff16145b8061223257506122318185611d5b565b5b91505092915050565b8273ffffffffffffffffffffffffffffffffffffffff1661225b82611057565b73ffffffffffffffffffffffffffffffffffffffff16146122b1576040517f08c379a00000000000000000000000000000000000000000000000000000000081526004016122a890614970565b60405180910390fd5b600073ffffffffffffffffffffffffffffffffffffffff168273ffffffffffffffffffffffffffffffffffffffff161415612321576040517f08c379a000000000000000000000000000000000000000000000000000000000815260040161231890614810565b60405180910390fd5b61232c838383612dab565b6123376000826120a4565b6001600360008573ffffffffffffffffffffffffffffffffffffffff1673ffffffffffffffffffffffffffffffffffffffff16815260200190815260200160002060008282546123879190614d67565b925050819055506001600360008473ffffffffffffffffffffffffffffffffffffffff1673ffffffffffffffffffffffffffffffffffffffff16815260200190815260200160002060008282546123de9190614c4f565b92505081905550816002600083815260200190815260200160002060006101000a81548173ffffffffffffffffffffffffffffffffffffffff021916908373ffffffffffffffffffffffffffffffffffffffff160217905550808273ffffffffffffffffffffffffffffffffffffffff168473ffffffffffffffffffffffffffffffffffffffff167fddf252ad1be2c89b69c2b068fc378daa952ba7f163c4a11628f55a4df523b3ef60405160405180910390a4505050565b6000600760009054906101000a900473ffffffffffffffffffffffffffffffffffffffff16905081600760006101000a81548173ffffffffffffffffffffffffffffffffffffffff021916908373ffffffffffffffffffffffffffffffffffffffff1602179055508173ffffffffffffffffffffffffffffffffffffffff168173ffffffffffffffffffffffffffffffffffffffff167f8be0079c531659141344cd1fd0a4f28419497f9722a3daafe3b4186f6b6457e060405160405180910390a35050565b6000818361256b9190614d0d565b905092915050565b60007f000000000000000000000000000000000000000000000000000000000000000073ffffffffffffffffffffffffffffffffffffffff16634000aea07f0000000000000000000000000000000000000000000000000000000000000000848660006040516020016125e7929190614720565b6040516020818303038152906040526040518463ffffffff1660e01b8152600401612614939291906146a5565b602060405180830381600087803b15801561262e57600080fd5b505af1158015612642573d6000803e3d6000fd5b505050506040513d601f19601f820116820180604052508101906126669190613a38565b506000612689846000306006600089815260200190815260200160002054612db0565b9050600160066000868152602001908152602001600020546126ab9190614c4f565b60066000868152602001908152602001600020819055506126cc8482612dec565b91505092915050565b600081836126e39190614cdc565b905092915050565b60008273ffffffffffffffffffffffffffffffffffffffff168260405161271190614629565b60006040518083038185875af1925050503d806000811461274e576040519150601f19603f3d011682016040523d82523d6000602084013e612753565b606091505b5050905080612797576040517f08c379a000000000000000000000000000000000000000000000000000000000815260040161278e90614a90565b60405180910390fd5b505050565b600060086127a983612e1f565b908060018154018082558091505060019003906000526020600020906005020160009091909190915060008201518160000160006101000a81548160ff021916908360ff16021790555060208201518160000160016101000a81548160ff021916908360ff16021790555060408201518160000160026101000a81548160ff021916908360ff16021790555060608201518160000160036101000a81548160ff021916908360ff16021790555060808201518160000160046101000a81548160ff021916908360ff16021790555060a08201518160000160056101000a81548160ff021916908360ff16021790555060c08201518160000160066101000a81548160ff021916908360ff16021790555060e08201518160000160076101000a81548160ff021916908360ff1602179055506101008201518160000160086101000a81548160ff021916908360ff1602179055506101208201518160000160096101000a81548160ff021916908360ff16021790555061014082015181600001600a6101000a81548160ff021916908360ff16021790555061016082015181600001600b6101000a81548160ff021916908360ff16021790555061018082015181600001600c6101000a81548160ff021916908360ff1602179055506101a082015181600001600d6101000a81548160ff021916908360ff1602179055506101c082015181600001600e6101000a81548161ffff021916908361ffff1602179055506101e08201518160000160106101000a8154816fffffffffffffffffffffffffffffffff02191690836fffffffffffffffffffffffffffffffff160217905550610200820151816001015561022082015181600201556102408201518160030155610260820151816004015550506001600880549050612a4a9190614d67565b9050919050565b612a6b828260405180602001604052806000815250612f93565b5050565b612ab4600d600084815260200190815260200160002060009054906101000a900473ffffffffffffffffffffffffffffffffffffffff16612aaf8361279c565b612cc1565b5050565b612ac384848461223b565b612acf84848484612fee565b612b0e576040517f08c379a0000000000000000000000000000000000000000000000000000000008152600401612b05906147b0565b60405180910390fd5b50505050565b60606000821415612b5c576040518060400160405280600181526020017f30000000000000000000000000000000000000000000000000000000000000008152509050612cbc565b600082905060005b60008214612b8e578080612b7790614e9a565b915050600a82612b879190614cdc565b9150612b64565b60008167ffffffffffffffff811115612bd0577f4e487b7100000000000000000000000000000000000000000000000000000000600052604160045260246000fd5b6040519080825280601f01601f191660200182016040528015612c025781602001600182028036833780820191505090505b5090505b60008514612cb557600182612c1b9190614d67565b9150600a85612c2a9190614ef7565b6030612c369190614c4f565b60f81b818381518110612c72577f4e487b7100000000000000000000000000000000000000000000000000000000600052603260045260246000fd5b60200101907effffffffffffffffffffffffffffffffffffffffffffffffffffffffffffff1916908160001a905350600a85612cae9190614cdc565b9450612c06565b8093505050505b919050565b612ccb8282612a51565b612cd3611658565b817f9b369bc1256598a3468a2b3197437ae78f2f8bddee1c9ea6e45d2cb25673ec8360405160405180910390a35050565b6060612d0f82612030565b612d4e576040517f08c379a0000000000000000000000000000000000000000000000000000000008152600401612d4590614990565b60405180910390fd5b6000612d58613185565b90506000815111612d785760405180602001604052806000815250612da3565b80612d8284612b14565b604051602001612d93929190614605565b6040516020818303038152906040525b915050919050565b505050565b600084848484604051602001612dc99493929190614749565b6040516020818303038152906040528051906020012060001c9050949350505050565b60008282604051602001612e019291906145c2565b60405160208183030381529060405280519060200120905092915050565b612e2761347e565b604051806102800160405280602084612e409190614ef7565b60ff168152602001600884612e559190614ef7565b60ff168152602001600a84612e6a9190614ef7565b60ff168152602001600a84612e7f9190614ef7565b60ff168152602001600a84612e949190614ef7565b60ff168152602001600a84612ea99190614ef7565b60ff168152602001600a84612ebe9190614ef7565b60ff168152602001600a84612ed39190614ef7565b60ff168152602001600a84612ee89190614ef7565b60ff168152602001600a84612efd9190614ef7565b60ff168152602001600a84612f129190614ef7565b60ff168152602001600a84612f279190614ef7565b60ff168152602001600284612f3c9190614ef7565b60ff168152602001600060ff168152602001600061ffff16815260200160006fffffffffffffffffffffffffffffffff16815260200160008152602001600081526020016000815260200160008152509050919050565b612f9d8383613217565b612faa6000848484612fee565b612fe9576040517f08c379a0000000000000000000000000000000000000000000000000000000008152600401612fe0906147b0565b60405180910390fd5b505050565b600061300f8473ffffffffffffffffffffffffffffffffffffffff166133e5565b15613178578373ffffffffffffffffffffffffffffffffffffffff1663150b7a0261303861209c565b8786866040518563ffffffff1660e01b815260040161305a9493929190614659565b602060405180830381600087803b15801561307457600080fd5b505af19250505080156130a557506040513d601f19601f820116820180604052508101906130a29190613ac6565b60015b613128573d80600081146130d5576040519150601f19603f3d011682016040523d82523d6000602084013e6130da565b606091505b50600081511415613120576040517f08c379a0000000000000000000000000000000000000000000000000000000008152600401613117906147b0565b60405180910390fd5b805181602001fd5b63150b7a0260e01b7bffffffffffffffffffffffffffffffffffffffffffffffffffffffff1916817bffffffffffffffffffffffffffffffffffffffffffffffffffffffff19161491505061317d565b600190505b949350505050565b60606011805461319490614e68565b80601f01602080910402602001604051908101604052809291908181526020018280546131c090614e68565b801561320d5780601f106131e25761010080835404028352916020019161320d565b820191906000526020600020905b8154815290600101906020018083116131f057829003601f168201915b5050505050905090565b600073ffffffffffffffffffffffffffffffffffffffff168273ffffffffffffffffffffffffffffffffffffffff161415613287576040517f08c379a000000000000000000000000000000000000000000000000000000000815260040161327e90614910565b60405180910390fd5b61329081612030565b156132d0576040517f08c379a00000000000000000000000000000000000000000000000000000000081526004016132c7906147f0565b60405180910390fd5b6132dc60008383612dab565b6001600360008473ffffffffffffffffffffffffffffffffffffffff1673ffffffffffffffffffffffffffffffffffffffff168152602001908152602001600020600082825461332c9190614c4f565b92505081905550816002600083815260200190815260200160002060006101000a81548173ffffffffffffffffffffffffffffffffffffffff021916908373ffffffffffffffffffffffffffffffffffffffff160217905550808273ffffffffffffffffffffffffffffffffffffffff16600073ffffffffffffffffffffffffffffffffffffffff167fddf252ad1be2c89b69c2b068fc378daa952ba7f163c4a11628f55a4df523b3ef60405160405180910390a45050565b600080823b905060008111915050919050565b82805461340490614e68565b90600052602060002090601f016020900481019282613426576000855561346d565b82601f1061343f57805160ff191683800117855561346d565b8280016001018555821561346d579182015b8281111561346c578251825591602001919060010190613451565b5b50905061347a9190613557565b5090565b604051806102800160405280600060ff168152602001600060ff168152602001600060ff168152602001600060ff168152602001600060ff168152602001600060ff168152602001600060ff168152602001600060ff168152602001600060ff168152602001600060ff168152602001600060ff168152602001600060ff168152602001600060ff168152602001600060ff168152602001600061ffff16815260200160006fffffffffffffffffffffffffffffffff168152602001600081526020016000815260200160008152602001600081525090565b5b80821115613570576000816000905550600101613558565b5090565b600061358761358284614b3c565b614b0b565b905080838252602082019050828560208602820111156135a657600080fd5b60005b858110156135d657816135bc888261365c565b8452602084019350602083019250506001810190506135a9565b5050509392505050565b60006135f36135ee84614b68565b614b0b565b90508281526020810184848401111561360b57600080fd5b613616848285614e26565b509392505050565b600061363161362c84614b98565b614b0b565b90508281526020810184848401111561364957600080fd5b613654848285614e26565b509392505050565b60008135905061366b81614ff5565b92915050565b600082601f83011261368257600080fd5b8135613692848260208601613574565b91505092915050565b6000813590506136aa8161500c565b92915050565b6000815190506136bf8161500c565b92915050565b6000813590506136d481615023565b92915050565b6000813590506136e98161503a565b92915050565b6000815190506136fe8161503a565b92915050565b600082601f83011261371557600080fd5b81356137258482602086016135e0565b91505092915050565b600082601f83011261373f57600080fd5b813561374f84826020860161361e565b91505092915050565b60008135905061376781615051565b92915050565b60008151905061377c81615051565b92915050565b60008135905061379181615068565b92915050565b6000602082840312156137a957600080fd5b60006137b78482850161365c565b91505092915050565b600080604083850312156137d357600080fd5b60006137e18582860161365c565b92505060206137f28582860161365c565b9150509250929050565b60008060006060848603121561381157600080fd5b600061381f8682870161365c565b93505060206138308682870161365c565b925050604061384186828701613758565b9150509250925092565b6000806000806080858703121561386157600080fd5b600061386f8782880161365c565b94505060206138808782880161365c565b935050604061389187828801613758565b925050606085013567ffffffffffffffff8111156138ae57600080fd5b6138ba87828801613704565b91505092959194509250565b600080604083850312156138d957600080fd5b60006138e78582860161365c565b92505060206138f88582860161369b565b9150509250929050565b6000806040838503121561391557600080fd5b60006139238582860161365c565b925050602083013567ffffffffffffffff81111561394057600080fd5b61394c8582860161372e565b9150509250929050565b6000806040838503121561396957600080fd5b60006139778582860161365c565b925050602061398885828601613758565b9150509250929050565b600080604083850312156139a557600080fd5b60006139b38582860161365c565b92505060206139c485828601613782565b9150509250929050565b6000602082840312156139e057600080fd5b600082013567ffffffffffffffff8111156139fa57600080fd5b613a0684828501613671565b91505092915050565b600060208284031215613a2157600080fd5b6000613a2f8482850161369b565b91505092915050565b600060208284031215613a4a57600080fd5b6000613a58848285016136b0565b91505092915050565b60008060408385031215613a7457600080fd5b6000613a82858286016136c5565b9250506020613a9385828601613758565b9150509250929050565b600060208284031215613aaf57600080fd5b6000613abd848285016136da565b91505092915050565b600060208284031215613ad857600080fd5b6000613ae6848285016136ef565b91505092915050565b600060208284031215613b0157600080fd5b600082013567ffffffffffffffff811115613b1b57600080fd5b613b278482850161372e565b91505092915050565b600060208284031215613b4257600080fd5b6000613b5084828501613758565b91505092915050565b600060208284031215613b6b57600080fd5b6000613b798482850161376d565b91505092915050565b6000613b8e838361458d565b60208301905092915050565b613ba381614d9b565b82525050565b6000613bb482614bd8565b613bbe8185614c06565b9350613bc983614bc8565b8060005b83811015613bfa578151613be18882613b82565b9750613bec83614bf9565b925050600181019050613bcd565b5085935050505092915050565b613c1081614dad565b82525050565b613c1f81614db9565b82525050565b613c36613c3182614db9565b614ee3565b82525050565b6000613c4782614be3565b613c518185614c17565b9350613c61818560208601614e35565b613c6a81614fe4565b840191505092915050565b6000613c8082614bee565b613c8a8185614c33565b9350613c9a818560208601614e35565b613ca381614fe4565b840191505092915050565b6000613cb982614bee565b613cc38185614c44565b9350613cd3818560208601614e35565b80840191505092915050565b6000613cec603283614c33565b91507f4552433732313a207472616e7366657220746f206e6f6e20455243373231526560008301527f63656976657220696d706c656d656e74657200000000000000000000000000006020830152604082019050919050565b6000613d52602683614c33565b91507f4f776e61626c653a206e6577206f776e657220697320746865207a65726f206160008301527f64647265737300000000000000000000000000000000000000000000000000006020830152604082019050919050565b6000613db8601c83614c33565b91507f4552433732313a20746f6b656e20616c7265616479206d696e746564000000006000830152602082019050919050565b6000613df8602483614c33565b91507f4552433732313a207472616e7366657220746f20746865207a65726f2061646460008301527f72657373000000000000000000000000000000000000000000000000000000006020830152604082019050919050565b6000613e5e601983614c33565b91507f4552433732313a20617070726f766520746f2063616c6c6572000000000000006000830152602082019050919050565b6000613e9e602b83614c33565b91507f4e6f7420656e6f756768204c494e4b202d2066696c6c20636f6e74726163742060008301527f77697468206661756365740000000000000000000000000000000000000000006020830152604082019050919050565b6000613f04600983614c33565b91507f4d6178206c696d697400000000000000000000000000000000000000000000006000830152602082019050919050565b6000613f44602c83614c33565b91507f4552433732313a206f70657261746f7220717565727920666f72206e6f6e657860008301527f697374656e7420746f6b656e00000000000000000000000000000000000000006020830152604082019050919050565b6000613faa603883614c33565b91507f4552433732313a20617070726f76652063616c6c6572206973206e6f74206f7760008301527f6e6572206e6f7220617070726f76656420666f7220616c6c00000000000000006020830152604082019050919050565b6000614010602a83614c33565b91507f4552433732313a2062616c616e636520717565727920666f7220746865207a6560008301527f726f2061646472657373000000000000000000000000000000000000000000006020830152604082019050919050565b6000614076602983614c33565b91507f4552433732313a206f776e657220717565727920666f72206e6f6e657869737460008301527f656e7420746f6b656e00000000000000000000000000000000000000000000006020830152604082019050919050565b60006140dc602083614c33565b91507f4552433732313a206d696e7420746f20746865207a65726f20616464726573736000830152602082019050919050565b600061411c602c83614c33565b91507f4552433732313a20617070726f76656420717565727920666f72206e6f6e657860008301527f697374656e7420746f6b656e00000000000000000000000000000000000000006020830152604082019050919050565b6000614182602083614c33565b91507f4f776e61626c653a2063616c6c6572206973206e6f7420746865206f776e65726000830152602082019050919050565b60006141c2602983614c33565b91507f4552433732313a207472616e73666572206f6620746f6b656e2074686174206960008301527f73206e6f74206f776e00000000000000000000000000000000000000000000006020830152604082019050919050565b6000614228602f83614c33565b91507f4552433732314d657461646174613a2055524920717565727920666f72206e6f60008301527f6e6578697374656e7420746f6b656e00000000000000000000000000000000006020830152604082019050919050565b600061428e601f83614c33565b91507f4f6e6c7920565246436f6f7264696e61746f722063616e2066756c66696c6c006000830152602082019050919050565b60006142ce601183614c33565b91507f56616c75652062656c6f772070726963650000000000000000000000000000006000830152602082019050919050565b600061430e601083614c33565b91507f50617573652069732064697361626c65000000000000000000000000000000006000830152602082019050919050565b600061434e600f83614c33565b91507f416c72656164792072656d6f76656400000000000000000000000000000000006000830152602082019050919050565b600061438e602183614c33565b91507f4552433732313a20617070726f76616c20746f2063757272656e74206f776e6560008301527f72000000000000000000000000000000000000000000000000000000000000006020830152604082019050919050565b60006143f4602483614c33565b91507f41646472657373206973206e6f7420696e636c7564656420696e20776869746560008301527f4c697374000000000000000000000000000000000000000000000000000000006020830152604082019050919050565b600061445a600e83614c33565b91507f53616c6573206e6f74206f70656e0000000000000000000000000000000000006000830152602082019050919050565b600061449a600083614c28565b9150600082019050919050565b60006144b4601083614c33565b91507f5472616e73666572206661696c65642e000000000000000000000000000000006000830152602082019050919050565b60006144f4603183614c33565b91507f4552433732313a207472616e736665722063616c6c6572206973206e6f74206f60008301527f776e6572206e6f7220617070726f7665640000000000000000000000000000006020830152604082019050919050565b600061455a600883614c33565b91507f536f6c646f7574210000000000000000000000000000000000000000000000006000830152602082019050919050565b61459681614e0f565b82525050565b6145a581614e0f565b82525050565b6145bc6145b782614e0f565b614eed565b82525050565b60006145ce8285613c25565b6020820191506145de82846145ab565b6020820191508190509392505050565b60006145fa8284613cae565b915081905092915050565b60006146118285613cae565b915061461d8284613cae565b91508190509392505050565b60006146348261448d565b9150819050919050565b60006020820190506146536000830184613b9a565b92915050565b600060808201905061466e6000830187613b9a565b61467b6020830186613b9a565b614688604083018561459c565b818103606083015261469a8184613c3c565b905095945050505050565b60006060820190506146ba6000830186613b9a565b6146c7602083018561459c565b81810360408301526146d98184613c3c565b9050949350505050565b600060208201905081810360008301526146fd8184613ba9565b905092915050565b600060208201905061471a6000830184613c07565b92915050565b60006040820190506147356000830185613c16565b614742602083018461459c565b9392505050565b600060808201905061475e6000830187613c16565b61476b602083018661459c565b6147786040830185613b9a565b614785606083018461459c565b95945050505050565b600060208201905081810360008301526147a88184613c75565b905092915050565b600060208201905081810360008301526147c981613cdf565b9050919050565b600060208201905081810360008301526147e981613d45565b9050919050565b6000602082019050818103600083015261480981613dab565b9050919050565b6000602082019050818103600083015261482981613deb565b9050919050565b6000602082019050818103600083015261484981613e51565b9050919050565b6000602082019050818103600083015261486981613e91565b9050919050565b6000602082019050818103600083015261488981613ef7565b9050919050565b600060208201905081810360008301526148a981613f37565b9050919050565b600060208201905081810360008301526148c981613f9d565b9050919050565b600060208201905081810360008301526148e981614003565b9050919050565b6000602082019050818103600083015261490981614069565b9050919050565b60006020820190508181036000830152614929816140cf565b9050919050565b600060208201905081810360008301526149498161410f565b9050919050565b6000602082019050818103600083015261496981614175565b9050919050565b60006020820190508181036000830152614989816141b5565b9050919050565b600060208201905081810360008301526149a98161421b565b9050919050565b600060208201905081810360008301526149c981614281565b9050919050565b600060208201905081810360008301526149e9816142c1565b9050919050565b60006020820190508181036000830152614a0981614301565b9050919050565b60006020820190508181036000830152614a2981614341565b9050919050565b60006020820190508181036000830152614a4981614381565b9050919050565b60006020820190508181036000830152614a69816143e7565b9050919050565b60006020820190508181036000830152614a898161444d565b9050919050565b60006020820190508181036000830152614aa9816144a7565b9050919050565b60006020820190508181036000830152614ac9816144e7565b9050919050565b60006020820190508181036000830152614ae98161454d565b9050919050565b6000602082019050614b05600083018461459c565b92915050565b6000604051905081810181811067ffffffffffffffff82111715614b3257614b31614fb5565b5b8060405250919050565b600067ffffffffffffffff821115614b5757614b56614fb5565b5b602082029050602081019050919050565b600067ffffffffffffffff821115614b8357614b82614fb5565b5b601f19601f8301169050602081019050919050565b600067ffffffffffffffff821115614bb357614bb2614fb5565b5b601f19601f8301169050602081019050919050565b6000819050602082019050919050565b600081519050919050565b600081519050919050565b600081519050919050565b6000602082019050919050565b600082825260208201905092915050565b600082825260208201905092915050565b600081905092915050565b600082825260208201905092915050565b600081905092915050565b6000614c5a82614e0f565b9150614c6583614e0f565b9250827fffffffffffffffffffffffffffffffffffffffffffffffffffffffffffffffff03821115614c9a57614c99614f28565b5b828201905092915050565b6000614cb082614e19565b9150614cbb83614e19565b92508260ff03821115614cd157614cd0614f28565b5b828201905092915050565b6000614ce782614e0f565b9150614cf283614e0f565b925082614d0257614d01614f57565b5b828204905092915050565b6000614d1882614e0f565b9150614d2383614e0f565b9250817fffffffffffffffffffffffffffffffffffffffffffffffffffffffffffffffff0483118215151615614d5c57614d5b614f28565b5b828202905092915050565b6000614d7282614e0f565b9150614d7d83614e0f565b925082821015614d9057614d8f614f28565b5b828203905092915050565b6000614da682614def565b9050919050565b60008115159050919050565b6000819050919050565b60007fffffffff0000000000000000000000000000000000000000000000000000000082169050919050565b600073ffffffffffffffffffffffffffffffffffffffff82169050919050565b6000819050919050565b600060ff82169050919050565b82818337600083830152505050565b60005b83811015614e53578082015181840152602081019050614e38565b83811115614e62576000848401525b50505050565b60006002820490506001821680614e8057607f821691505b60208210811415614e9457614e93614f86565b5b50919050565b6000614ea582614e0f565b91507fffffffffffffffffffffffffffffffffffffffffffffffffffffffffffffffff821415614ed857614ed7614f28565b5b600182019050919050565b6000819050919050565b6000819050919050565b6000614f0282614e0f565b9150614f0d83614e0f565b925082614f1d57614f1c614f57565b5b828206905092915050565b7f4e487b7100000000000000000000000000000000000000000000000000000000600052601160045260246000fd5b7f4e487b7100000000000000000000000000000000000000000000000000000000600052601260045260246000fd5b7f4e487b7100000000000000000000000000000000000000000000000000000000600052602260045260246000fd5b7f4e487b7100000000000000000000000000000000000000000000000000000000600052604160045260246000fd5b6000601f19601f8301169050919050565b614ffe81614d9b565b811461500957600080fd5b50565b61501581614dad565b811461502057600080fd5b50565b61502c81614db9565b811461503757600080fd5b50565b61504381614dc3565b811461504e57600080fd5b50565b61505a81614e0f565b811461506557600080fd5b50565b61507181614e19565b811461507c57600080fd5b5056fea2646970667358221220220c1b25651594dbae33f3a136da0637d0125e5bf7dadee86130ea8d4435ba3064736f6c63430008000033",
  "linkReferences": {},
  "deployedLinkReferences": {}
}