{
  "address": "0x80464344E60121b7327Ae43F61a37CEB0A756A2A",
  "abi": [
    {
      "inputs": [
        {
          "internalType": "string",
          "name": "name_",
          "type": "string"
        },
        {
          "internalType": "string",
          "name": "symbol_",
          "type": "string"
        },
        {
          "internalType": "string",
          "name": "baseURI_",
          "type": "string"
        }
      ],
      "stateMutability": "nonpayable",
      "type": "constructor"
    },
    {
      "anonymous": false,
      "inputs": [
        {
          "indexed": true,
          "internalType": "address",
          "name": "owner",
          "type": "address"
        },
        {
          "indexed": true,
          "internalType": "address",
          "name": "approved",
          "type": "address"
        },
        {
          "indexed": true,
          "internalType": "uint256",
          "name": "tokenId",
          "type": "uint256"
        }
      ],
      "name": "Approval",
      "type": "event"
    },
    {
      "anonymous": false,
      "inputs": [
        {
          "indexed": true,
          "internalType": "address",
          "name": "owner",
          "type": "address"
        },
        {
          "indexed": true,
          "internalType": "address",
          "name": "operator",
          "type": "address"
        },
        {
          "indexed": false,
          "internalType": "bool",
          "name": "approved",
          "type": "bool"
        }
      ],
      "name": "ApprovalForAll",
      "type": "event"
    },
    {
      "anonymous": false,
      "inputs": [
        {
          "indexed": true,
          "internalType": "uint256",
          "name": "tokenId",
          "type": "uint256"
        }
      ],
      "name": "BreededNewNFT",
      "type": "event"
    },
    {
      "anonymous": false,
      "inputs": [
        {
          "indexed": true,
          "internalType": "uint256",
          "name": "tokenId",
          "type": "uint256"
        }
      ],
      "name": "MintedNewNFT",
      "type": "event"
    },
    {
      "anonymous": false,
      "inputs": [
        {
          "indexed": true,
          "internalType": "address",
          "name": "previousOwner",
          "type": "address"
        },
        {
          "indexed": true,
          "internalType": "address",
          "name": "newOwner",
          "type": "address"
        }
      ],
      "name": "OwnershipTransferred",
      "type": "event"
    },
    {
      "anonymous": false,
      "inputs": [
        {
          "indexed": false,
          "internalType": "bool",
          "name": "pause",
          "type": "bool"
        }
      ],
      "name": "PauseEvent",
      "type": "event"
    },
    {
      "anonymous": false,
      "inputs": [
        {
          "indexed": true,
          "internalType": "address",
          "name": "from",
          "type": "address"
        },
        {
          "indexed": true,
          "internalType": "address",
          "name": "to",
          "type": "address"
        },
        {
          "indexed": true,
          "internalType": "uint256",
          "name": "tokenId",
          "type": "uint256"
        }
      ],
      "name": "Transfer",
      "type": "event"
    },
    {
      "inputs": [],
      "name": "ABC_ADDRESS",
      "outputs": [
        {
          "internalType": "address",
          "name": "",
          "type": "address"
        }
      ],
      "stateMutability": "view",
      "type": "function"
    },
    {
      "inputs": [],
      "name": "ARTIST_ADDRESS",
      "outputs": [
        {
          "internalType": "address",
          "name": "",
          "type": "address"
        }
      ],
      "stateMutability": "view",
      "type": "function"
    },
    {
      "inputs": [],
      "name": "INITIAL_TOKEN_COUNT",
      "outputs": [
        {
          "internalType": "uint256",
          "name": "",
          "type": "uint256"
        }
      ],
      "stateMutability": "view",
      "type": "function"
    },
    {
      "inputs": [],
      "name": "OWNER_ADDRESS",
      "outputs": [
        {
          "internalType": "address",
          "name": "",
          "type": "address"
        }
      ],
      "stateMutability": "view",
      "type": "function"
    },
    {
      "inputs": [
        {
          "internalType": "address",
          "name": "to",
          "type": "address"
        },
        {
          "internalType": "uint256",
          "name": "tokenId",
          "type": "uint256"
        }
      ],
      "name": "approve",
      "outputs": [],
      "stateMutability": "nonpayable",
      "type": "function"
    },
    {
      "inputs": [],
      "name": "bPaused",
      "outputs": [
        {
          "internalType": "bool",
          "name": "",
          "type": "bool"
        }
      ],
      "stateMutability": "view",
      "type": "function"
    },
    {
      "inputs": [
        {
          "internalType": "address",
          "name": "owner",
          "type": "address"
        }
      ],
      "name": "balanceOf",
      "outputs": [
        {
          "internalType": "uint256",
          "name": "",
          "type": "uint256"
        }
      ],
      "stateMutability": "view",
      "type": "function"
    },
    {
      "inputs": [],
      "name": "baseURI",
      "outputs": [
        {
          "internalType": "string",
          "name": "",
          "type": "string"
        }
      ],
      "stateMutability": "view",
      "type": "function"
    },
    {
      "inputs": [],
      "name": "breedPrice",
      "outputs": [
        {
          "internalType": "uint256",
          "name": "",
          "type": "uint256"
        }
      ],
      "stateMutability": "view",
      "type": "function"
    },
    {
      "inputs": [
        {
          "internalType": "uint256[]",
          "name": "array",
          "type": "uint256[]"
        },
        {
          "internalType": "uint256",
          "name": "val",
          "type": "uint256"
        }
      ],
      "name": "findIndex",
      "outputs": [
        {
          "internalType": "uint256",
          "name": "",
          "type": "uint256"
        }
      ],
      "stateMutability": "pure",
      "type": "function"
    },
    {
      "inputs": [
        {
          "internalType": "uint256",
          "name": "tokenId",
          "type": "uint256"
        }
      ],
      "name": "getApproved",
      "outputs": [
        {
          "internalType": "address",
          "name": "",
          "type": "address"
        }
      ],
      "stateMutability": "view",
      "type": "function"
    },
    {
      "inputs": [
        {
          "internalType": "uint256",
          "name": "tokenId_",
          "type": "uint256"
        }
      ],
      "name": "getChildren",
      "outputs": [
        {
          "components": [
            {
              "internalType": "uint256",
              "name": "traits",
              "type": "uint256"
            },
            {
              "internalType": "uint256",
              "name": "fatherId",
              "type": "uint256"
            },
            {
              "internalType": "uint256",
              "name": "motherId",
              "type": "uint256"
            },
            {
              "internalType": "uint256[]",
              "name": "childrenIds",
              "type": "uint256[]"
            }
          ],
          "internalType": "struct HeroFactory.Hero[]",
          "name": "",
          "type": "tuple[]"
        }
      ],
      "stateMutability": "view",
      "type": "function"
    },
    {
      "inputs": [
        {
          "internalType": "uint256",
          "name": "heroId1_",
          "type": "uint256"
        },
        {
          "internalType": "uint256",
          "name": "heroId2_",
          "type": "uint256"
        }
      ],
      "name": "getChildrenIdsWithParent",
      "outputs": [
        {
          "internalType": "uint256[]",
          "name": "",
          "type": "uint256[]"
        }
      ],
      "stateMutability": "view",
      "type": "function"
    },
    {
      "inputs": [
        {
          "internalType": "uint256",
          "name": "heroId1_",
          "type": "uint256"
        },
        {
          "internalType": "uint256",
          "name": "heroId2_",
          "type": "uint256"
        }
      ],
      "name": "getChildrenWithParent",
      "outputs": [
        {
          "components": [
            {
              "internalType": "uint256",
              "name": "traits",
              "type": "uint256"
            },
            {
              "internalType": "uint256",
              "name": "fatherId",
              "type": "uint256"
            },
            {
              "internalType": "uint256",
              "name": "motherId",
              "type": "uint256"
            },
            {
              "internalType": "uint256[]",
              "name": "childrenIds",
              "type": "uint256[]"
            }
          ],
          "internalType": "struct HeroFactory.Hero[]",
          "name": "",
          "type": "tuple[]"
        }
      ],
      "stateMutability": "view",
      "type": "function"
    },
    {
      "inputs": [
        {
          "internalType": "uint256",
          "name": "tokenId_",
          "type": "uint256"
        }
      ],
      "name": "getHero",
      "outputs": [
        {
          "components": [
            {
              "internalType": "uint256",
              "name": "traits",
              "type": "uint256"
            },
            {
              "internalType": "uint256",
              "name": "fatherId",
              "type": "uint256"
            },
            {
              "internalType": "uint256",
              "name": "motherId",
              "type": "uint256"
            },
            {
              "internalType": "uint256[]",
              "name": "childrenIds",
              "type": "uint256[]"
            }
          ],
          "internalType": "struct HeroFactory.Hero",
          "name": "",
          "type": "tuple"
        }
      ],
      "stateMutability": "view",
      "type": "function"
    },
    {
      "inputs": [
        {
          "internalType": "uint256",
          "name": "tokenId_",
          "type": "uint256"
        }
      ],
      "name": "getParent",
      "outputs": [
        {
          "components": [
            {
              "internalType": "uint256",
              "name": "traits",
              "type": "uint256"
            },
            {
              "internalType": "uint256",
              "name": "fatherId",
              "type": "uint256"
            },
            {
              "internalType": "uint256",
              "name": "motherId",
              "type": "uint256"
            },
            {
              "internalType": "uint256[]",
              "name": "childrenIds",
              "type": "uint256[]"
            }
          ],
          "internalType": "struct HeroFactory.Hero[]",
          "name": "",
          "type": "tuple[]"
        }
      ],
      "stateMutability": "view",
      "type": "function"
    },
    {
      "inputs": [
        {
          "internalType": "address",
          "name": "owner",
          "type": "address"
        },
        {
          "internalType": "address",
          "name": "operator",
          "type": "address"
        }
      ],
      "name": "isApprovedForAll",
      "outputs": [
        {
          "internalType": "bool",
          "name": "",
          "type": "bool"
        }
      ],
      "stateMutability": "view",
      "type": "function"
    },
    {
      "inputs": [],
      "name": "isPresale",
      "outputs": [
        {
          "internalType": "bool",
          "name": "",
          "type": "bool"
        }
      ],
      "stateMutability": "view",
      "type": "function"
    },
    {
      "inputs": [
        {
          "internalType": "bytes32[]",
          "name": "proof",
          "type": "bytes32[]"
        },
        {
          "internalType": "string",
          "name": "leaf",
          "type": "string"
        }
      ],
      "name": "mint",
      "outputs": [],
      "stateMutability": "payable",
      "type": "function"
    },
    {
      "inputs": [
        {
          "internalType": "uint256",
          "name": "signature",
          "type": "uint256"
        },
        {
          "internalType": "string",
          "name": "tokenUri_",
          "type": "string"
        },
        {
          "internalType": "uint256",
          "name": "heroId1_",
          "type": "uint256"
        },
        {
          "internalType": "uint256",
          "name": "heroId2_",
          "type": "uint256"
        }
      ],
      "name": "mintBreedToken",
      "outputs": [],
      "stateMutability": "payable",
      "type": "function"
    },
    {
      "inputs": [],
      "name": "mintPrice",
      "outputs": [
        {
          "internalType": "uint256",
          "name": "",
          "type": "uint256"
        }
      ],
      "stateMutability": "view",
      "type": "function"
    },
    {
      "inputs": [
        {
          "internalType": "address",
          "name": "to_",
          "type": "address"
        },
        {
          "internalType": "uint256",
          "name": "count_",
          "type": "uint256"
        }
      ],
      "name": "mintUnsoldTokens",
      "outputs": [],
      "stateMutability": "nonpayable",
      "type": "function"
    },
    {
      "inputs": [],
      "name": "mintedInitialTokenCount",
      "outputs": [
        {
          "internalType": "uint256",
          "name": "",
          "type": "uint256"
        }
      ],
      "stateMutability": "view",
      "type": "function"
    },
    {
      "inputs": [],
      "name": "name",
      "outputs": [
        {
          "internalType": "string",
          "name": "",
          "type": "string"
        }
      ],
      "stateMutability": "view",
      "type": "function"
    },
    {
      "inputs": [],
      "name": "owner",
      "outputs": [
        {
          "internalType": "address",
          "name": "",
          "type": "address"
        }
      ],
      "stateMutability": "view",
      "type": "function"
    },
    {
      "inputs": [
        {
          "internalType": "uint256",
          "name": "tokenId",
          "type": "uint256"
        }
      ],
      "name": "ownerOf",
      "outputs": [
        {
          "internalType": "address",
          "name": "",
          "type": "address"
        }
      ],
      "stateMutability": "view",
      "type": "function"
    },
    {
      "inputs": [],
      "name": "remainTokenCount",
      "outputs": [
        {
          "internalType": "uint256",
          "name": "",
          "type": "uint256"
        }
      ],
      "stateMutability": "view",
      "type": "function"
    },
    {
      "inputs": [],
      "name": "renounceOwnership",
      "outputs": [],
      "stateMutability": "nonpayable",
      "type": "function"
    },
    {
      "inputs": [
        {
          "internalType": "address",
          "name": "from",
          "type": "address"
        },
        {
          "internalType": "address",
          "name": "to",
          "type": "address"
        },
        {
          "internalType": "uint256",
          "name": "tokenId",
          "type": "uint256"
        }
      ],
      "name": "safeTransferFrom",
      "outputs": [],
      "stateMutability": "nonpayable",
      "type": "function"
    },
    {
      "inputs": [
        {
          "internalType": "address",
          "name": "from",
          "type": "address"
        },
        {
          "internalType": "address",
          "name": "to",
          "type": "address"
        },
        {
          "internalType": "uint256",
          "name": "tokenId",
          "type": "uint256"
        },
        {
          "internalType": "bytes",
          "name": "_data",
          "type": "bytes"
        }
      ],
      "name": "safeTransferFrom",
      "outputs": [],
      "stateMutability": "nonpayable",
      "type": "function"
    },
    {
      "inputs": [
        {
          "internalType": "address",
          "name": "operator",
          "type": "address"
        },
        {
          "internalType": "bool",
          "name": "approved",
          "type": "bool"
        }
      ],
      "name": "setApprovalForAll",
      "outputs": [],
      "stateMutability": "nonpayable",
      "type": "function"
    },
    {
      "inputs": [
        {
          "internalType": "string",
          "name": "uri_",
          "type": "string"
        }
      ],
      "name": "setBaseUri",
      "outputs": [],
      "stateMutability": "nonpayable",
      "type": "function"
    },
    {
      "inputs": [
        {
          "internalType": "uint256",
          "name": "price",
          "type": "uint256"
        }
      ],
      "name": "setBreedPrice",
      "outputs": [],
      "stateMutability": "nonpayable",
      "type": "function"
    },
    {
      "inputs": [
        {
          "internalType": "uint256",
          "name": "price",
          "type": "uint256"
        }
      ],
      "name": "setMintPrice",
      "outputs": [],
      "stateMutability": "nonpayable",
      "type": "function"
    },
    {
      "inputs": [
        {
          "internalType": "bool",
          "name": "pause",
          "type": "bool"
        }
      ],
      "name": "setPause",
      "outputs": [],
      "stateMutability": "nonpayable",
      "type": "function"
    },
    {
      "inputs": [
        {
          "internalType": "bytes32",
          "name": "root_",
          "type": "bytes32"
        }
      ],
      "name": "setRootAuth",
      "outputs": [],
      "stateMutability": "nonpayable",
      "type": "function"
    },
    {
      "inputs": [
        {
          "internalType": "bytes32",
          "name": "root_",
          "type": "bytes32"
        }
      ],
      "name": "setRootWhitelist",
      "outputs": [],
      "stateMutability": "nonpayable",
      "type": "function"
    },
    {
      "inputs": [
        {
          "internalType": "uint256",
          "name": "token",
          "type": "uint256"
        }
      ],
      "name": "setSignatureToken",
      "outputs": [],
      "stateMutability": "nonpayable",
      "type": "function"
    },
    {
      "inputs": [],
      "name": "setStarttime",
      "outputs": [],
      "stateMutability": "nonpayable",
      "type": "function"
    },
    {
      "inputs": [
        {
          "internalType": "uint256",
          "name": "signature",
          "type": "uint256"
        },
        {
          "internalType": "uint256",
          "name": "tokenId_",
          "type": "uint256"
        },
        {
          "internalType": "string",
          "name": "uri_",
          "type": "string"
        },
        {
          "internalType": "uint256",
          "name": "heroTraits_",
          "type": "uint256"
        },
        {
          "internalType": "uint256",
          "name": "fId_",
          "type": "uint256"
        },
        {
          "internalType": "uint256",
          "name": "mId_",
          "type": "uint256"
        },
        {
          "internalType": "uint256[]",
          "name": "cIds_",
          "type": "uint256[]"
        },
        {
          "internalType": "bool",
          "name": "reset_",
          "type": "bool"
        }
      ],
      "name": "setToken",
      "outputs": [],
      "stateMutability": "payable",
      "type": "function"
    },
    {
      "inputs": [
        {
          "internalType": "uint256",
          "name": "tokenId_",
          "type": "uint256"
        },
        {
          "internalType": "string",
          "name": "tokenUri_",
          "type": "string"
        }
      ],
      "name": "setTokenURI",
      "outputs": [],
      "stateMutability": "nonpayable",
      "type": "function"
    },
    {
      "inputs": [
        {
          "internalType": "uint256",
          "name": "price",
          "type": "uint256"
        }
      ],
      "name": "setUpgradePrice",
      "outputs": [],
      "stateMutability": "nonpayable",
      "type": "function"
    },
    {
      "inputs": [],
      "name": "startTime",
      "outputs": [
        {
          "internalType": "uint256",
          "name": "",
          "type": "uint256"
        }
      ],
      "stateMutability": "view",
      "type": "function"
    },
    {
      "inputs": [
        {
          "internalType": "bytes4",
          "name": "interfaceId",
          "type": "bytes4"
        }
      ],
      "name": "supportsInterface",
      "outputs": [
        {
          "internalType": "bool",
          "name": "",
          "type": "bool"
        }
      ],
      "stateMutability": "view",
      "type": "function"
    },
    {
      "inputs": [],
      "name": "symbol",
      "outputs": [
        {
          "internalType": "string",
          "name": "",
          "type": "string"
        }
      ],
      "stateMutability": "view",
      "type": "function"
    },
    {
      "inputs": [
        {
          "internalType": "uint256",
          "name": "index",
          "type": "uint256"
        }
      ],
      "name": "tokenByIndex",
      "outputs": [
        {
          "internalType": "uint256",
          "name": "",
          "type": "uint256"
        }
      ],
      "stateMutability": "view",
      "type": "function"
    },
    {
      "inputs": [
        {
          "internalType": "address",
          "name": "owner",
          "type": "address"
        },
        {
          "internalType": "uint256",
          "name": "index",
          "type": "uint256"
        }
      ],
      "name": "tokenOfOwnerByIndex",
      "outputs": [
        {
          "internalType": "uint256",
          "name": "",
          "type": "uint256"
        }
      ],
      "stateMutability": "view",
      "type": "function"
    },
    {
      "inputs": [
        {
          "internalType": "uint256",
          "name": "tokenId",
          "type": "uint256"
        }
      ],
      "name": "tokenURI",
      "outputs": [
        {
          "internalType": "string",
          "name": "",
          "type": "string"
        }
      ],
      "stateMutability": "view",
      "type": "function"
    },
    {
      "inputs": [],
      "name": "totalSupply",
      "outputs": [
        {
          "internalType": "uint256",
          "name": "",
          "type": "uint256"
        }
      ],
      "stateMutability": "view",
      "type": "function"
    },
    {
      "inputs": [
        {
          "internalType": "address",
          "name": "from",
          "type": "address"
        },
        {
          "internalType": "address",
          "name": "to",
          "type": "address"
        },
        {
          "internalType": "uint256",
          "name": "tokenId",
          "type": "uint256"
        }
      ],
      "name": "transferFrom",
      "outputs": [],
      "stateMutability": "nonpayable",
      "type": "function"
    },
    {
      "inputs": [
        {
          "internalType": "address",
          "name": "newOwner",
          "type": "address"
        }
      ],
      "name": "transferOwnership",
      "outputs": [],
      "stateMutability": "nonpayable",
      "type": "function"
    },
    {
      "inputs": [],
      "name": "upgradePrice",
      "outputs": [
        {
          "internalType": "uint256",
          "name": "",
          "type": "uint256"
        }
      ],
      "stateMutability": "view",
      "type": "function"
    },
    {
      "inputs": [
        {
          "internalType": "address",
          "name": "owner",
          "type": "address"
        }
      ],
      "name": "walletOfOwner",
      "outputs": [
        {
          "internalType": "uint256[]",
          "name": "",
          "type": "uint256[]"
        }
      ],
      "stateMutability": "view",
      "type": "function"
    },
    {
      "inputs": [],
      "name": "withdrawAll",
      "outputs": [],
      "stateMutability": "nonpayable",
      "type": "function"
    }
  ],
  "transactionHash": "0x9301fd6c7241092219d6c22f5f04d05385e4c10b4270720078d64ddc5a5bc043",
  "args": [
    "BD 121601",
    "BD121601",
    "https://gateway.pinata.cloud/ipfs/QmSeY3cFvdjHp2fKYwFSvMJpaSzdjZVotbnYmMyifLNCTp/"
  ],
  "solcInputHash": "97f8b44176a811e643281b00268f241a",
  "bytecode": "0x608060405266f8b0a10e470000600c556000600d819055600e8190556010805460ff1916600117905560138190556014819055601581905560168190556017553480156200004c57600080fd5b5060405162005a4d38038062005a4d8339810160408190526200006f9162000b16565b8251839083906200008890600090602085019062000979565b5080516200009e90600190602084019062000979565b505050620000bb620000b5620002a560201b60201c565b620002a9565b42600f558051620000d490601290602084019062000979565b506012604051602001620000e9919062000c45565b60408051601f198184030181529190526000805260116020908152815162000135927f4ad3b33220dddc71b994a52d72c06b10862965f7d926534c05c00fb7e819e7b792019062000979565b50620001426000620002fb565b6200016373396823f49aa9f0e3fac4b939bc27ad5cd88264db6000620003b9565b601260405160200162000177919062000c83565b60408051601f198184030181529190526001600052601160209081528151620001c4927f17bc176d2408558f6e4111feebc3cab4e16b63e967be91cde721f4c8a488b55292019062000979565b50620001d16001620002fb565b620001f273516dbdc188213e01f625bc3d8ef87df48eb68c536001620003b9565b601260405160200162000206919062000c64565b60408051601f19818403018152919052600260005260116020908152815162000253927f08037d7b151cc412d25674a4e66b334d9ae9d2e5517a7feaae5cdb828bf1c62892019062000979565b50620002606002620002fb565b6200028173892e10cb1299c16e469cf0f79f18cca639d00f5b6002620003b9565b60036013600082825462000296919062000e0c565b9091555062000ed99350505050565b3390565b600a80546001600160a01b038381166001600160a01b0319831681179093556040519116919082907f8be0079c531659141344cd1fd0a4f28419497f9722a3daafe3b4186f6b6457e090600090a35050565b6040518060800160405280600081526020016000198152602001600019815260200160006001600160401b038111156200034557634e487b7160e01b600052604160045260246000fd5b6040519080825280602002602001820160405280156200036f578160200160208202803683370190505b5090526000828152600b60209081526040918290208351815583820151600182015591830151600283015560608301518051620003b3926003850192019062000a08565b50505050565b620003db828260405180602001604052806000815250620003df60201b60201c565b5050565b620003eb838362000427565b620003fa600084848462000512565b620004225760405162461bcd60e51b8152600401620004199062000cf8565b60405180910390fd5b505050565b6001600160a01b038216620004505760405162461bcd60e51b8152600401620004199062000dcb565b6200045b816200064b565b156200047b5760405162461bcd60e51b8152600401620004199062000d4a565b620004896000838362000668565b6001600160a01b0382166000908152600360205260408120805460019290620004b490849062000e0c565b909155505060008181526002602052604080822080546001600160a01b0319166001600160a01b03861690811790915590518392907fddf252ad1be2c89b69c2b068fc378daa952ba7f163c4a11628f55a4df523b3ef908290a45050565b600062000533846001600160a01b03166200070c60201b620026c61760201c565b156200063f576001600160a01b03841663150b7a0262000552620002a5565b8786866040518563ffffffff1660e01b815260040162000576949392919062000ca2565b602060405180830381600087803b1580156200059157600080fd5b505af1925050508015620005c4575060408051601f3d908101601f19168201909252620005c19181019062000ae5565b60015b62000624573d808015620005f5576040519150601f19603f3d011682016040523d82523d6000602084013e620005fa565b606091505b5080516200061c5760405162461bcd60e51b8152600401620004199062000cf8565b805181602001fd5b6001600160e01b031916630a85bd0160e11b14905062000643565b5060015b949350505050565b6000908152600260205260409020546001600160a01b0316151590565b620006808383836200042260201b62000dda1760201c565b6001600160a01b038316620006a0576200069a8162000712565b620006c6565b816001600160a01b0316836001600160a01b031614620006c657620006c6838262000756565b6001600160a01b038216620006e657620006e08162000803565b62000422565b826001600160a01b0316826001600160a01b0316146200042257620004228282620008e1565b3b151590565b600880546000838152600960205260408120829055600182018355919091527ff3f7a9fe364faab93b216da50a3214154f22a0a2b415b23a84c8169e8b636ee30155565b6000600162000770846200093260201b62001abf1760201c565b6200077c919062000e27565b600083815260076020526040902054909150808214620007d0576001600160a01b03841660009081526006602090815260408083208584528252808320548484528184208190558352600790915290208190555b5060009182526007602090815260408084208490556001600160a01b039094168352600681528383209183525290812055565b600854600090620008179060019062000e27565b600083815260096020526040812054600880549394509092849081106200084e57634e487b7160e01b600052603260045260246000fd5b9060005260206000200154905080600883815481106200087e57634e487b7160e01b600052603260045260246000fd5b6000918252602080832090910192909255828152600990915260408082208490558582528120556008805480620008c557634e487b7160e01b600052603160045260246000fd5b6001900381819060005260206000200160009055905550505050565b6000620008f9836200093260201b62001abf1760201c565b6001600160a01b039093166000908152600660209081526040808320868452825280832085905593825260079052919091209190915550565b60006001600160a01b0382166200095d5760405162461bcd60e51b8152600401620004199062000d81565b506001600160a01b031660009081526003602052604090205490565b828054620009879062000e70565b90600052602060002090601f016020900481019282620009ab5760008555620009f6565b82601f10620009c657805160ff1916838001178555620009f6565b82800160010185558215620009f6579182015b82811115620009f6578251825591602001919060010190620009d9565b5062000a0492915062000a45565b5090565b828054828255906000526020600020908101928215620009f65791602002820182811115620009f6578251825591602001919060010190620009d9565b5b8082111562000a04576000815560010162000a46565b600082601f83011262000a6d578081fd5b81516001600160401b038082111562000a8a5762000a8a62000ec3565b604051601f8301601f19168101602001828111828210171562000ab15762000ab162000ec3565b60405282815284830160200186101562000ac9578384fd5b62000adc83602083016020880162000e41565b95945050505050565b60006020828403121562000af7578081fd5b81516001600160e01b03198116811462000b0f578182fd5b9392505050565b60008060006060848603121562000b2b578182fd5b83516001600160401b038082111562000b42578384fd5b62000b508783880162000a5c565b9450602086015191508082111562000b66578384fd5b62000b748783880162000a5c565b9350604086015191508082111562000b8a578283fd5b5062000b998682870162000a5c565b9150509250925092565b80546000906002810460018083168062000bbe57607f831692505b602080841082141562000bdf57634e487b7160e01b86526022600452602486fd5b81801562000bf6576001811462000c085762000c39565b60ff1986168952848901965062000c39565b62000c138862000e00565b60005b8681101562000c315781548b82015290850190830162000c16565b505084890196505b50505050505092915050565b600062000c53828462000ba3565b600360fc1b81526001019392505050565b600062000c72828462000ba3565b601960f91b81526001019392505050565b600062000c91828462000ba3565b603160f81b81526001019392505050565b600060018060a01b03808716835280861660208401525083604083015260806060830152825180608084015262000ce18160a085016020870162000e41565b601f01601f19169190910160a00195945050505050565b60208082526032908201527f4552433732313a207472616e7366657220746f206e6f6e20455243373231526560408201527131b2b4bb32b91034b6b83632b6b2b73a32b960711b606082015260800190565b6020808252601c908201527f4552433732313a20746f6b656e20616c7265616479206d696e74656400000000604082015260600190565b6020808252602a908201527f4552433732313a2062616c616e636520717565727920666f7220746865207a65604082015269726f206164647265737360b01b606082015260800190565b6020808252818101527f4552433732313a206d696e7420746f20746865207a65726f2061646472657373604082015260600190565b60009081526020902090565b6000821982111562000e225762000e2262000ead565b500190565b60008282101562000e3c5762000e3c62000ead565b500390565b60005b8381101562000e5e57818101518382015260200162000e44565b83811115620003b35750506000910152565b60028104600182168062000e8557607f821691505b6020821081141562000ea757634e487b7160e01b600052602260045260246000fd5b50919050565b634e487b7160e01b600052601160045260246000fd5b634e487b7160e01b600052604160045260246000fd5b614b648062000ee96000396000f3fe6080604052600436106103555760003560e01c80636817c76c116101bb57806395d89b41116100f7578063d440b4c211610095578063f0a65d1a1161006f578063f0a65d1a14610908578063f2fde38b1461091d578063f4a0a5281461093d578063fc805d941461095d57610355565b8063d440b4c2146108a8578063e985e9c5146108c8578063eda9d474146108e857610355565b8063b88d4fde116100d1578063b88d4fde14610835578063bedb86fb14610855578063c4b5aa9614610875578063c87b56dd1461088857610355565b806395d89b41146107e0578063a0bcfc7f146107f5578063a22cb4651461081557610355565b806371beeba111610164578063853828b61161013e578063853828b61461078c5780638d041988146107a15780638da5cb5b146107b657806395364a84146107cb57610355565b806371beeba114610742578063755cb2341461076257806378e979251461077757610355565b80636d099e0d116101955780636d099e0d146106fa57806370a082311461070d578063715018a61461072d57610355565b80636817c76c146106bb5780636c0360eb146106d05780636c26eab9146106e557610355565b806323b872dd11610295578063438b6300116102335780634f6ccce71161020d5780634f6ccce71461064657806355834ab114610666578063594ebab7146106865780636352211e1461069b57610355565b8063438b6300146105e657806349ae8dc3146106065780634b951cef1461062657610355565b80632f745c591161026f5780632f745c59146105595780633d99de8514610579578063414533de1461059957806342842e0e146105c657610355565b806323b872dd1461050f578063287ad39f1461052f5780632a5f510e1461054457610355565b8063095ea7b311610302578063162094c4116102dc578063162094c41461048b57806318160ddd146104ab5780632099eaa7146104cd57806321d80111146104e257610355565b8063095ea7b3146104295780630970eaa31461044957806311319b1e1461047657610355565b806306c18a311161033357806306c18a31146103c557806306fdde03146103e7578063081812fc1461040957610355565b806301ffc9a71461035a578063026376031461039057806304c88161146103b2575b600080fd5b34801561036657600080fd5b5061037a610375366004613b44565b61097d565b6040516103879190613ff1565b60405180910390f35b34801561039c57600080fd5b506103b06103ab3660046139ef565b6109db565b005b6103b06103c0366004613c60565b610ad1565b3480156103d157600080fd5b506103da610c19565b6040516103879190613ef6565b3480156103f357600080fd5b506103fc610c31565b6040516103879190613ffc565b34801561041557600080fd5b506103da610424366004613b2c565b610cc3565b34801561043557600080fd5b506103b06104443660046139ef565b610d13565b34801561045557600080fd5b50610469610464366004613c3f565b610ddf565b6040516103879190613fde565b34801561048257600080fd5b5061037a61104b565b34801561049757600080fd5b506103b06104a6366004613baf565b611054565b3480156104b757600080fd5b506104c06110cc565b6040516103879190614927565b3480156104d957600080fd5b506103da6110d2565b3480156104ee57600080fd5b506105026104fd366004613b2c565b6110ea565b6040516103879190614914565b34801561051b57600080fd5b506103b061052a366004613912565b611181565b34801561053b57600080fd5b506104c06111b9565b34801561055057600080fd5b506104c06111bf565b34801561056557600080fd5b506104c06105743660046139ef565b6111c5565b34801561058557600080fd5b506104c0610594366004613acf565b611224565b3480156105a557600080fd5b506105b96105b4366004613b2c565b611282565b6040516103879190613f60565b3480156105d257600080fd5b506103b06105e1366004613912565b611483565b3480156105f257600080fd5b506104696106013660046138c6565b61149e565b34801561061257600080fd5b506105b9610621366004613b2c565b6115b7565b34801561063257600080fd5b506103b0610641366004613b2c565b611745565b34801561065257600080fd5b506104c0610661366004613b2c565b6117a3565b34801561067257600080fd5b506103b0610681366004613b2c565b6117fe565b34801561069257600080fd5b506103da61185c565b3480156106a757600080fd5b506103da6106b6366004613b2c565b611874565b3480156106c757600080fd5b506104c06118b6565b3480156106dc57600080fd5b506103fc6118bc565b3480156106f157600080fd5b506104c061194a565b6103b0610708366004613bea565b611950565b34801561071957600080fd5b506104c06107283660046138c6565b611abf565b34801561073957600080fd5b506103b0611b1d565b34801561074e57600080fd5b506103b061075d366004613b2c565b611b82565b34801561076e57600080fd5b506104c0611be0565b34801561078357600080fd5b506104c0611be6565b34801561079857600080fd5b506103b0611bec565b3480156107ad57600080fd5b506104c0611d10565b3480156107c257600080fd5b506103da611d27565b3480156107d757600080fd5b5061037a611d43565b3480156107ec57600080fd5b506103fc611d5e565b34801561080157600080fd5b506103b0610810366004613b7c565b611d6d565b34801561082157600080fd5b506103b06108303660046139c6565b611dd9565b34801561084157600080fd5b506103b061085036600461394d565b611ef9565b34801561086157600080fd5b506103b0610870366004613b12565b611f38565b6103b0610883366004613a18565b611ffe565b34801561089457600080fd5b506103fc6108a3366004613b2c565b61215b565b3480156108b457600080fd5b506103b06108c3366004613b2c565b6122f7565b3480156108d457600080fd5b5061037a6108e33660046138e0565b612355565b3480156108f457600080fd5b506105b9610903366004613c3f565b612390565b34801561091457600080fd5b506103b0612513565b34801561092957600080fd5b506103b06109383660046138c6565b612572565b34801561094957600080fd5b506103b0610958366004613b2c565b61260a565b34801561096957600080fd5b506103b0610978366004613b2c565b612668565b60007fffffffff0000000000000000000000000000000000000000000000000000000082167f780e9d630000000000000000000000000000000000000000000000000000000014806109d357506109d3826126cc565b90505b919050565b3373516dbdc188213e01f625bc3d8ef87df48eb68c531480610a2f5750610a00611d27565b73ffffffffffffffffffffffffffffffffffffffff163373ffffffffffffffffffffffffffffffffffffffff16145b610a545760405162461bcd60e51b8152600401610a4b906148b7565b60405180910390fd5b61277560135410610a775760405162461bcd60e51b8152600401610a4b90614541565b600081601354610a87919061498a565b9050612775811115610a9857506127755b6013545b81811015610ac957610aad8161276e565b610ab7848261285f565b80610ac181614a71565b915050610a9c565b506013555050565b60003373516dbdc188213e01f625bc3d8ef87df48eb68c531480610b275750610af8611d27565b73ffffffffffffffffffffffffffffffffffffffff163373ffffffffffffffffffffffffffffffffffffffff16145b9050610b3288612879565b610b4e5760405162461bcd60e51b8152600401610a4b90614667565b8080610b86575033610b5f89611874565b73ffffffffffffffffffffffffffffffffffffffff16148015610b865750610b86896128a3565b610ba25760405162461bcd60e51b8152600401610a4b90614296565b8080610bb05750600d543410155b610bcc5760405162461bcd60e51b8152600401610a4b9061469e565b8651879015610bf65760008981526011602090815260409091208951610bf4928b0190613696565b505b610c0d8988888888888015610c085750875b6128f1565b50505050505050505050565b73396823f49aa9f0e3fac4b939bc27ad5cd88264db81565b606060008054610c4090614a36565b80601f0160208091040260200160405190810160405280929190818152602001828054610c6c90614a36565b8015610cb95780601f10610c8e57610100808354040283529160200191610cb9565b820191906000526020600020905b815481529060010190602001808311610c9c57829003601f168201915b5050505050905090565b6000610cce82612879565b610cea5760405162461bcd60e51b8152600401610a4b906144e4565b5060009081526004602052604090205473ffffffffffffffffffffffffffffffffffffffff1690565b6000610d1e82611874565b90508073ffffffffffffffffffffffffffffffffffffffff168373ffffffffffffffffffffffffffffffffffffffff161415610d6c5760405162461bcd60e51b8152600401610a4b906146d5565b8073ffffffffffffffffffffffffffffffffffffffff16610d8b612945565b73ffffffffffffffffffffffffffffffffffffffff161480610db45750610db4816108e3612945565b610dd05760405162461bcd60e51b8152600401610a4b9061432a565b610dda8383612949565b505050565b6000828152600b60205260408120600381015460609290819067ffffffffffffffff811115610e1e57634e487b7160e01b600052604160045260246000fd5b604051908082528060200260200182016040528015610e47578160200160208202803683370190505b5090506000915060005b6003840154811015610f73576000868152600b6020908152604091829020600301805483518184028101840190945280845292610ef4929091908490830182828015610ebc57602002820191906000526020600020905b815481526020019060010190808311610ea8575b5050505050866003018481548110610ee457634e487b7160e01b600052603260045260246000fd5b9060005260206000200154611224565b1015610f6157836003018181548110610f1d57634e487b7160e01b600052603260045260246000fd5b9060005260206000200154828480610f3490614a71565b955081518110610f5457634e487b7160e01b600052603260045260246000fd5b6020026020010181815250505b610f6c60018261498a565b9050610e51565b5060008267ffffffffffffffff811115610f9d57634e487b7160e01b600052604160045260246000fd5b604051908082528060200260200182016040528015610fc6578160200160208202803683370190505b5090506000925060005b825181101561103e57828181518110610ff957634e487b7160e01b600052603260045260246000fd5b602002602001015182828151811061102157634e487b7160e01b600052603260045260246000fd5b602090810291909101015261103760018261498a565b9050610fd0565b5093505050505b92915050565b60105460ff1681565b61105c612945565b73ffffffffffffffffffffffffffffffffffffffff1661107a611d27565b73ffffffffffffffffffffffffffffffffffffffff16146110ad5760405162461bcd60e51b8152600401610a4b90614578565b60008281526011602090815260409091208251610dda92840190613696565b60085490565b73892e10cb1299c16e469cf0f79f18cca639d00f5b81565b6110f261371a565b6000828152600b6020908152604091829020825160808101845281548152600182015481840152600282015481850152600382018054855181860281018601909652808652919492936060860193929083018282801561117157602002820191906000526020600020905b81548152602001906001019080831161115d575b5050505050815250509050919050565b61119261118c612945565b826129e9565b6111ae5760405162461bcd60e51b8152600401610a4b906147fd565b610dda838383612aa2565b600e5481565b600d5481565b60006111d083611abf565b82106111ee5760405162461bcd60e51b8152600401610a4b90614046565b5073ffffffffffffffffffffffffffffffffffffffff919091166000908152600660209081526040808320938352929052205490565b6000805b8351811015611279578284828151811061125257634e487b7160e01b600052603260045260246000fd5b60200260200101511415611267579050611045565b61127260018261498a565b9050611228565b50509051919050565b6000818152600b60205260409020600181015460609182917fffffffffffffffffffffffffffffffffffffffffffffffffffffffffffffffff1461147c576040805160028082526060820190925290816020015b6112de61371a565b8152602001906001900390816112d6579050509150600b6000826001015481526020019081526020016000206040518060800160405290816000820154815260200160018201548152602001600282015481526020016003820180548060200260200160405190810160405280929190818152602001828054801561138257602002820191906000526020600020905b81548152602001906001019080831161136e575b505050505081525050826000815181106113ac57634e487b7160e01b600052603260045260246000fd5b6020026020010181905250600b6000826002015481526020019081526020016000206040518060800160405290816000820154815260200160018201548152602001600282015481526020016003820180548060200260200160405190810160405280929190818152602001828054801561144657602002820191906000526020600020905b815481526020019060010190808311611432575b5050505050815250508260018151811061147057634e487b7160e01b600052603260045260246000fd5b60200260200101819052505b5092915050565b610dda83838360405180602001604052806000815250611ef9565b606060006114ab83611abf565b905060008167ffffffffffffffff8111156114d657634e487b7160e01b600052604160045260246000fd5b6040519080825280602002602001820160405280156114ff578160200160208202803683370190505b50905060008061150d6110cc565b905060005b818110156115ac578673ffffffffffffffffffffffffffffffffffffffff1661153d6106b6836117a3565b73ffffffffffffffffffffffffffffffffffffffff16141561159a57611562816117a3565b848461156d81614a71565b95508151811061158d57634e487b7160e01b600052603260045260246000fd5b6020026020010181815250505b806115a481614a71565b915050611512565b509195945050505050565b6000818152600b6020526040812060038101546060929067ffffffffffffffff8111156115f457634e487b7160e01b600052604160045260246000fd5b60405190808252806020026020018201604052801561162d57816020015b61161a61371a565b8152602001906001900390816116125790505b50905060005b600383015481101561173d57600b600084600301838154811061166657634e487b7160e01b600052603260045260246000fd5b90600052602060002001548152602001908152602001600020604051806080016040529081600082015481526020016001820154815260200160028201548152602001600382018054806020026020016040519081016040528092919081815260200182805480156116f757602002820191906000526020600020905b8154815260200190600101908083116116e3575b50505050508152505082828151811061172057634e487b7160e01b600052603260045260246000fd5b602090810291909101015261173660018261498a565b9050611633565b509392505050565b61174d612945565b73ffffffffffffffffffffffffffffffffffffffff1661176b611d27565b73ffffffffffffffffffffffffffffffffffffffff161461179e5760405162461bcd60e51b8152600401610a4b90614578565b601555565b60006117ad6110cc565b82106117cb5760405162461bcd60e51b8152600401610a4b9061485a565b600882815481106117ec57634e487b7160e01b600052603260045260246000fd5b90600052602060002001549050919050565b611806612945565b73ffffffffffffffffffffffffffffffffffffffff16611824611d27565b73ffffffffffffffffffffffffffffffffffffffff16146118575760405162461bcd60e51b8152600401610a4b90614578565b601755565b73516dbdc188213e01f625bc3d8ef87df48eb68c5381565b60008181526002602052604081205473ffffffffffffffffffffffffffffffffffffffff16806109d35760405162461bcd60e51b8152600401610a4b906143e4565b600c5481565b601280546118c990614a36565b80601f01602080910402602001604051908101604052809291908181526020018280546118f590614a36565b80156119425780601f1061191757610100808354040283529160200191611942565b820191906000526020600020905b81548152906001019060200180831161192557829003601f168201915b505050505081565b60135481565b60105460ff16156119735760405162461bcd60e51b8152600401610a4b90614732565b61197c846128a3565b6119985760405162461bcd60e51b8152600401610a4b90614296565b8082141580156119c55750336119ad83611874565b73ffffffffffffffffffffffffffffffffffffffff16145b80156119ee5750336119d682611874565b73ffffffffffffffffffffffffffffffffffffffff16145b611a0a5760405162461bcd60e51b8152600401610a4b90614441565b600d54341015611a2c5760405162461bcd60e51b8152600401610a4b9061469e565b6000612775601454611a3e919061498a565b9050611a4b838383612c35565b611a55338261285f565b60008181526011602090815260409091208551611a7492870190613696565b50600160146000828254611a88919061498a565b909155505060405181907f8ef1ea5ce94d405f55ffed5be4e495bdf6a9363d5b7af4fe3f4d66678d4ac84f90600090a25050505050565b600073ffffffffffffffffffffffffffffffffffffffff8216611af45760405162461bcd60e51b8152600401610a4b90614387565b5073ffffffffffffffffffffffffffffffffffffffff1660009081526003602052604090205490565b611b25612945565b73ffffffffffffffffffffffffffffffffffffffff16611b43611d27565b73ffffffffffffffffffffffffffffffffffffffff1614611b765760405162461bcd60e51b8152600401610a4b90614578565b611b806000612d29565b565b611b8a612945565b73ffffffffffffffffffffffffffffffffffffffff16611ba8611d27565b73ffffffffffffffffffffffffffffffffffffffff1614611bdb5760405162461bcd60e51b8152600401610a4b90614578565b600d55565b61277581565b600f5481565b3373516dbdc188213e01f625bc3d8ef87df48eb68c531480611c2157503373396823f49aa9f0e3fac4b939bc27ad5cd88264db145b80611c5e5750611c2f611d27565b73ffffffffffffffffffffffffffffffffffffffff163373ffffffffffffffffffffffffffffffffffffffff16145b611c7a5760405162461bcd60e51b8152600401610a4b906148b7565b476402540be400811015611ca05760405162461bcd60e51b8152600401610a4b9061400f565b6000611cb86064611cb2846005612da0565b90612db3565b9050611cd873516dbdc188213e01f625bc3d8ef87df48eb68c5382612dbf565b611d0c73396823f49aa9f0e3fac4b939bc27ad5cd88264db6103e8611cfd84866149f3565b611d0791906149f3565b612dbf565b5050565b6000601354612775611d2291906149f3565b905090565b600a5473ffffffffffffffffffffffffffffffffffffffff1690565b6000600f5462015180611d56919061498a565b421115905090565b606060018054610c4090614a36565b611d75612945565b73ffffffffffffffffffffffffffffffffffffffff16611d93611d27565b73ffffffffffffffffffffffffffffffffffffffff1614611dc65760405162461bcd60e51b8152600401610a4b90614578565b8051611d0c906012906020840190613696565b611de1612945565b73ffffffffffffffffffffffffffffffffffffffff168273ffffffffffffffffffffffffffffffffffffffff161415611e2c5760405162461bcd60e51b8152600401610a4b906141f1565b8060056000611e39612945565b73ffffffffffffffffffffffffffffffffffffffff90811682526020808301939093526040918201600090812091871680825291909352912080547fffffffffffffffffffffffffffffffffffffffffffffffffffffffffffffff001692151592909217909155611ea8612945565b73ffffffffffffffffffffffffffffffffffffffff167f17307eab39ab6107e8899845ad3d59bd9653f200f220920489ca2b5937696c3183604051611eed9190613ff1565b60405180910390a35050565b611f0a611f04612945565b836129e9565b611f265760405162461bcd60e51b8152600401610a4b906147fd565b611f3284848484612e48565b50505050565b611f40612945565b73ffffffffffffffffffffffffffffffffffffffff16611f5e611d27565b73ffffffffffffffffffffffffffffffffffffffff1614611f915760405162461bcd60e51b8152600401610a4b90614578565b601080547fffffffffffffffffffffffffffffffffffffffffffffffffffffffffffffff001682151517908190556040517f10e1c3fcaff06b68391033547e8f9bb8067d7c4a2e32659b0629153814d242d391611ff39160ff90911690613ff1565b60405180910390a150565b60105460ff16156120215760405162461bcd60e51b8152600401610a4b906144ad565b612029611d43565b1561208357601554612061336040516020016120459190613dd5565b6040516020818303038152906040528051906020012084612e7b565b1461207e5760405162461bcd60e51b8152600401610a4b90614769565b6120b7565b60165461209a826040516020016120459190613e13565b146120b75760405162461bcd60e51b8152600401610a4b90614228565b612775601354106120da5760405162461bcd60e51b8152600401610a4b9061425f565b600c543410156120fc5760405162461bcd60e51b8152600401610a4b9061469e565b61210760135461276e565b6121133360135461285f565b6013546040517fe022f58b17edead5c8a541758e9b66796ebfbf27d6fd8044500f2468ac6e39fc90600090a2600160136000828254612152919061498a565b90915550505050565b606061216682612879565b6121825760405162461bcd60e51b8152600401610a4b9061460a565b6000828152601160205260408120805461219b90614a36565b80601f01602080910402602001604051908101604052809291908181526020018280546121c790614a36565b80156122145780601f106121e957610100808354040283529160200191612214565b820191906000526020600020905b8154815290600101906020018083116121f757829003601f168201915b5050505050905080516000141561225857601261223084612f2c565b604051602001612241929190613e2f565b6040516020818303038152906040529150506109d6565b6000838152601160205260409020805461227190614a36565b80601f016020809104026020016040519081016040528092919081815260200182805461229d90614a36565b80156122ea5780601f106122bf576101008083540402835291602001916122ea565b820191906000526020600020905b8154815290600101906020018083116122cd57829003601f168201915b5050505050915050919050565b6122ff612945565b73ffffffffffffffffffffffffffffffffffffffff1661231d611d27565b73ffffffffffffffffffffffffffffffffffffffff16146123505760405162461bcd60e51b8152600401610a4b90614578565b601655565b73ffffffffffffffffffffffffffffffffffffffff918216600090815260056020908152604080832093909416825291909152205460ff1690565b6060600061239e8484610ddf565b90506000815167ffffffffffffffff8111156123ca57634e487b7160e01b600052604160045260246000fd5b60405190808252806020026020018201604052801561240357816020015b6123f061371a565b8152602001906001900390816123e85790505b50905060005b825181101561250a57600b600084838151811061243657634e487b7160e01b600052603260045260246000fd5b60200260200101518152602001908152602001600020604051806080016040529081600082015481526020016001820154815260200160028201548152602001600382018054806020026020016040519081016040528092919081815260200182805480156124c457602002820191906000526020600020905b8154815260200190600101908083116124b0575b5050505050815250508282815181106124ed57634e487b7160e01b600052603260045260246000fd5b602090810291909101015261250360018261498a565b9050612409565b50949350505050565b61251b612945565b73ffffffffffffffffffffffffffffffffffffffff16612539611d27565b73ffffffffffffffffffffffffffffffffffffffff161461256c5760405162461bcd60e51b8152600401610a4b90614578565b42600f55565b61257a612945565b73ffffffffffffffffffffffffffffffffffffffff16612598611d27565b73ffffffffffffffffffffffffffffffffffffffff16146125cb5760405162461bcd60e51b8152600401610a4b90614578565b73ffffffffffffffffffffffffffffffffffffffff81166125fe5760405162461bcd60e51b8152600401610a4b90614100565b61260781612d29565b50565b612612612945565b73ffffffffffffffffffffffffffffffffffffffff16612630611d27565b73ffffffffffffffffffffffffffffffffffffffff16146126635760405162461bcd60e51b8152600401610a4b90614578565b600c55565b612670612945565b73ffffffffffffffffffffffffffffffffffffffff1661268e611d27565b73ffffffffffffffffffffffffffffffffffffffff16146126c15760405162461bcd60e51b8152600401610a4b90614578565b600e55565b3b151590565b60007fffffffff0000000000000000000000000000000000000000000000000000000082167f80ac58cd00000000000000000000000000000000000000000000000000000000148061275f57507fffffffff0000000000000000000000000000000000000000000000000000000082167f5b5e139f00000000000000000000000000000000000000000000000000000000145b806109d357506109d38261307b565b6040518060800160405280600081526020017fffffffffffffffffffffffffffffffffffffffffffffffffffffffffffffffff81526020017fffffffffffffffffffffffffffffffffffffffffffffffffffffffffffffffff8152602001600067ffffffffffffffff8111156127f457634e487b7160e01b600052604160045260246000fd5b60405190808252806020026020018201604052801561281d578160200160208202803683370190505b5090526000828152600b60209081526040918290208351815583820151600182015591830151600283015560608301518051611f329260038501920190613742565b611d0c8282604051806020016040528060008152506130c5565b60009081526002602052604090205473ffffffffffffffffffffffffffffffffffffffff16151590565b60008060175483846128b591906149b6565b6128bf9190614aaa565b9050600060175484836128d291906149b6565b6128dc9190614aaa565b6128e690426149f3565b607811949350505050565b6000868152600b60205260409020859055801561293d576000868152600b602090815260409091206001810186905560028101859055835161293b92600390920191850190613742565b505b505050505050565b3390565b600081815260046020526040902080547fffffffffffffffffffffffff00000000000000000000000000000000000000001673ffffffffffffffffffffffffffffffffffffffff841690811790915581906129a382611874565b73ffffffffffffffffffffffffffffffffffffffff167f8c5be1e5ebec7d5bd14f71427d1e84f3dd0314c0f7b2291e5b200ac8c7c3b92560405160405180910390a45050565b60006129f482612879565b612a105760405162461bcd60e51b8152600401610a4b906142cd565b6000612a1b83611874565b90508073ffffffffffffffffffffffffffffffffffffffff168473ffffffffffffffffffffffffffffffffffffffff161480612a8a57508373ffffffffffffffffffffffffffffffffffffffff16612a7284610cc3565b73ffffffffffffffffffffffffffffffffffffffff16145b80612a9a5750612a9a8185612355565b949350505050565b8273ffffffffffffffffffffffffffffffffffffffff16612ac282611874565b73ffffffffffffffffffffffffffffffffffffffff1614612af55760405162461bcd60e51b8152600401610a4b906145ad565b73ffffffffffffffffffffffffffffffffffffffff8216612b285760405162461bcd60e51b8152600401610a4b90614194565b612b338383836130f8565b612b3e600082612949565b73ffffffffffffffffffffffffffffffffffffffff83166000908152600360205260408120805460019290612b749084906149f3565b909155505073ffffffffffffffffffffffffffffffffffffffff82166000908152600360205260408120805460019290612baf90849061498a565b909155505060008181526002602052604080822080547fffffffffffffffffffffffff00000000000000000000000000000000000000001673ffffffffffffffffffffffffffffffffffffffff86811691821790925591518493918716917fddf252ad1be2c89b69c2b068fc378daa952ba7f163c4a11628f55a4df523b3ef91a4505050565b604051806080016040528060008152602001848152602001838152602001600067ffffffffffffffff811115612c7b57634e487b7160e01b600052604160045260246000fd5b604051908082528060200260200182016040528015612ca4578160200160208202803683370190505b5090526000828152600b60209081526040918290208351815583820151600182015591830151600283015560608301518051612ce69260038501920190613742565b5050506000928352600b60209081526040808520600390810180546001818101835591885284882001859055948652908520018054938401815584529092200155565b600a805473ffffffffffffffffffffffffffffffffffffffff8381167fffffffffffffffffffffffff0000000000000000000000000000000000000000831681179093556040519116919082907f8be0079c531659141344cd1fd0a4f28419497f9722a3daafe3b4186f6b6457e090600090a35050565b6000612dac82846149b6565b9392505050565b6000612dac82846149a2565b60008273ffffffffffffffffffffffffffffffffffffffff1682604051612de590613ef3565b60006040518083038185875af1925050503d8060008114612e22576040519150601f19603f3d011682016040523d82523d6000602084013e612e27565b606091505b5050905080610dda5760405162461bcd60e51b8152600401610a4b906147c6565b612e53848484612aa2565b612e5f848484846131cf565b611f325760405162461bcd60e51b8152600401610a4b906140a3565b600082815b835181101561173d576000848281518110612eab57634e487b7160e01b600052603260045260246000fd5b6020026020010151905080831015612eed578281604051602001612ed0929190613e05565b604051602081830303815290604052805190602001209250612f19565b8083604051602001612f00929190613e05565b6040516020818303038152906040528051906020012092505b5080612f2481614a71565b915050612e80565b606081612f6d575060408051808201909152600181527f300000000000000000000000000000000000000000000000000000000000000060208201526109d6565b8160005b8115612f975780612f8181614a71565b9150612f909050600a836149a2565b9150612f71565b60008167ffffffffffffffff811115612fc057634e487b7160e01b600052604160045260246000fd5b6040519080825280601f01601f191660200182016040528015612fea576020820181803683370190505b5090505b8415612a9a57612fff6001836149f3565b915061300c600a86614aaa565b61301790603061498a565b60f81b81838151811061303a57634e487b7160e01b600052603260045260246000fd5b60200101907effffffffffffffffffffffffffffffffffffffffffffffffffffffffffffff1916908160001a905350613074600a866149a2565b9450612fee565b7fffffffff0000000000000000000000000000000000000000000000000000000081167f01ffc9a70000000000000000000000000000000000000000000000000000000014919050565b6130cf8383613353565b6130dc60008484846131cf565b610dda5760405162461bcd60e51b8152600401610a4b906140a3565b613103838383610dda565b73ffffffffffffffffffffffffffffffffffffffff831661312c5761312781613471565b613169565b8173ffffffffffffffffffffffffffffffffffffffff168373ffffffffffffffffffffffffffffffffffffffff16146131695761316983826134b5565b73ffffffffffffffffffffffffffffffffffffffff82166131925761318d8161356c565b610dda565b8273ffffffffffffffffffffffffffffffffffffffff168273ffffffffffffffffffffffffffffffffffffffff1614610dda57610dda8282613645565b60006131f08473ffffffffffffffffffffffffffffffffffffffff166126c6565b15613348578373ffffffffffffffffffffffffffffffffffffffff1663150b7a02613219612945565b8786866040518563ffffffff1660e01b815260040161323b9493929190613f17565b602060405180830381600087803b15801561325557600080fd5b505af19250505080156132a3575060408051601f3d9081017fffffffffffffffffffffffffffffffffffffffffffffffffffffffffffffffe01682019092526132a091810190613b60565b60015b6132fd573d8080156132d1576040519150601f19603f3d011682016040523d82523d6000602084013e6132d6565b606091505b5080516132f55760405162461bcd60e51b8152600401610a4b906140a3565b805181602001fd5b7fffffffff00000000000000000000000000000000000000000000000000000000167f150b7a0200000000000000000000000000000000000000000000000000000000149050612a9a565b506001949350505050565b73ffffffffffffffffffffffffffffffffffffffff82166133865760405162461bcd60e51b8152600401610a4b90614478565b61338f81612879565b156133ac5760405162461bcd60e51b8152600401610a4b9061415d565b6133b8600083836130f8565b73ffffffffffffffffffffffffffffffffffffffff821660009081526003602052604081208054600192906133ee90849061498a565b909155505060008181526002602052604080822080547fffffffffffffffffffffffff00000000000000000000000000000000000000001673ffffffffffffffffffffffffffffffffffffffff861690811790915590518392907fddf252ad1be2c89b69c2b068fc378daa952ba7f163c4a11628f55a4df523b3ef908290a45050565b600880546000838152600960205260408120829055600182018355919091527ff3f7a9fe364faab93b216da50a3214154f22a0a2b415b23a84c8169e8b636ee30155565b600060016134c284611abf565b6134cc91906149f3565b60008381526007602052604090205490915080821461352c5773ffffffffffffffffffffffffffffffffffffffff841660009081526006602090815260408083208584528252808320548484528184208190558352600790915290208190555b50600091825260076020908152604080842084905573ffffffffffffffffffffffffffffffffffffffff9094168352600681528383209183525290812055565b60085460009061357e906001906149f3565b600083815260096020526040812054600880549394509092849081106135b457634e487b7160e01b600052603260045260246000fd5b9060005260206000200154905080600883815481106135e357634e487b7160e01b600052603260045260246000fd5b600091825260208083209091019290925582815260099091526040808220849055858252812055600880548061362957634e487b7160e01b600052603160045260246000fd5b6001900381819060005260206000200160009055905550505050565b600061365083611abf565b73ffffffffffffffffffffffffffffffffffffffff9093166000908152600660209081526040808320868452825280832085905593825260079052919091209190915550565b8280546136a290614a36565b90600052602060002090601f0160209004810192826136c4576000855561370a565b82601f106136dd57805160ff191683800117855561370a565b8280016001018555821561370a579182015b8281111561370a5782518255916020019190600101906136ef565b5061371692915061377c565b5090565b6040518060800160405280600081526020016000815260200160008152602001606081525090565b82805482825590600052602060002090810192821561370a579160200282018281111561370a5782518255916020019190600101906136ef565b5b80821115613716576000815560010161377d565b600067ffffffffffffffff8311156137ab576137ab614aea565b6137dc60207fffffffffffffffffffffffffffffffffffffffffffffffffffffffffffffffe0601f86011601614930565b90508281528383830111156137f057600080fd5b828260208301376000602084830101529392505050565b803573ffffffffffffffffffffffffffffffffffffffff811681146109d657600080fd5b600082601f83011261383b578081fd5b8135602061385061384b8361495a565b614930565b828152818101908583018385028701840188101561386c578586fd5b855b8581101561388a5781358452928401929084019060010161386e565b5090979650505050505050565b803580151581146109d657600080fd5b600082601f8301126138b7578081fd5b612dac83833560208501613791565b6000602082840312156138d7578081fd5b612dac82613807565b600080604083850312156138f2578081fd5b6138fb83613807565b915061390960208401613807565b90509250929050565b600080600060608486031215613926578081fd5b61392f84613807565b925061393d60208501613807565b9150604084013590509250925092565b60008060008060808587031215613962578081fd5b61396b85613807565b935061397960208601613807565b925060408501359150606085013567ffffffffffffffff81111561399b578182fd5b8501601f810187136139ab578182fd5b6139ba87823560208401613791565b91505092959194509250565b600080604083850312156139d8578182fd5b6139e183613807565b915061390960208401613897565b60008060408385031215613a01578182fd5b613a0a83613807565b946020939093013593505050565b60008060408385031215613a2a578182fd5b823567ffffffffffffffff80821115613a41578384fd5b818501915085601f830112613a54578384fd5b81356020613a6461384b8361495a565b82815281810190858301838502870184018b1015613a80578889fd5b8896505b84871015613aa2578035835260019690960195918301918301613a84565b5096505086013592505080821115613ab8578283fd5b50613ac5858286016138a7565b9150509250929050565b60008060408385031215613ae1578182fd5b823567ffffffffffffffff811115613af7578283fd5b613b038582860161382b565b95602094909401359450505050565b600060208284031215613b23578081fd5b612dac82613897565b600060208284031215613b3d578081fd5b5035919050565b600060208284031215613b55578081fd5b8135612dac81614b00565b600060208284031215613b71578081fd5b8151612dac81614b00565b600060208284031215613b8d578081fd5b813567ffffffffffffffff811115613ba3578182fd5b612a9a848285016138a7565b60008060408385031215613bc1578182fd5b82359150602083013567ffffffffffffffff811115613bde578182fd5b613ac5858286016138a7565b60008060008060808587031215613bff578182fd5b84359350602085013567ffffffffffffffff811115613c1c578283fd5b613c28878288016138a7565b949794965050505060408301359260600135919050565b60008060408385031215613c51578182fd5b50508035926020909101359150565b600080600080600080600080610100898b031215613c7c578586fd5b8835975060208901359650604089013567ffffffffffffffff80821115613ca1578788fd5b613cad8c838d016138a7565b975060608b0135965060808b0135955060a08b0135945060c08b0135915080821115613cd7578384fd5b50613ce48b828c0161382b565b925050613cf360e08a01613897565b90509295985092959890939650565b6000815180845260208085019450808401835b83811015613d3157815187529582019590820190600101613d15565b509495945050505050565b60008151808452613d54816020860160208601614a0a565b601f017fffffffffffffffffffffffffffffffffffffffffffffffffffffffffffffffe0169290920160200192915050565b60008151613d98818560208601614a0a565b9290920192915050565b6000815183526020820151602084015260408201516040840152606082015160806060850152612a9a6080850182613d02565b60609190911b7fffffffffffffffffffffffffffffffffffffffff00000000000000000000000016815260140190565b918252602082015260400190565b60008251613e25818460208701614a0a565b9190910192915050565b8254600090819060028104600180831680613e4b57607f831692505b6020808410821415613e6b57634e487b7160e01b87526022600452602487fd5b818015613e7f5760018114613eae57613eda565b7fffffffffffffffffffffffffffffffffffffffffffffffffffffffffffffff00861689528489019650613eda565b613eb78b61497e565b885b86811015613ed25781548b820152908501908301613eb9565b505084890196505b505050505050613eea8185613d86565b95945050505050565b90565b73ffffffffffffffffffffffffffffffffffffffff91909116815260200190565b600073ffffffffffffffffffffffffffffffffffffffff808716835280861660208401525083604083015260806060830152613f566080830184613d3c565b9695505050505050565b6000602080830181845280855180835260408601915060408482028701019250838701855b82811015613fd1577fffffffffffffffffffffffffffffffffffffffffffffffffffffffffffffffc0888603018452613fbf858351613da2565b94509285019290850190600101613f85565b5092979650505050505050565b600060208252612dac6020830184613d02565b901515815260200190565b600060208252612dac6020830184613d3c565b60208082526014908201527f42616c616e636520697320746f6f20736d616c6c000000000000000000000000604082015260600190565b6020808252602b908201527f455243373231456e756d657261626c653a206f776e657220696e646578206f7560408201527f74206f6620626f756e6473000000000000000000000000000000000000000000606082015260800190565b60208082526032908201527f4552433732313a207472616e7366657220746f206e6f6e20455243373231526560408201527f63656976657220696d706c656d656e7465720000000000000000000000000000606082015260800190565b60208082526026908201527f4f776e61626c653a206e6577206f776e657220697320746865207a65726f206160408201527f6464726573730000000000000000000000000000000000000000000000000000606082015260800190565b6020808252601c908201527f4552433732313a20746f6b656e20616c7265616479206d696e74656400000000604082015260600190565b60208082526024908201527f4552433732313a207472616e7366657220746f20746865207a65726f2061646460408201527f7265737300000000000000000000000000000000000000000000000000000000606082015260800190565b60208082526019908201527f4552433732313a20617070726f766520746f2063616c6c657200000000000000604082015260600190565b60208082526011908201527f4e6f742061757468656e74696361746564000000000000000000000000000000604082015260600190565b60208082526009908201527f4d6178206c696d69740000000000000000000000000000000000000000000000604082015260600190565b60208082526010908201527f7065726d697373696f6e206572726f7200000000000000000000000000000000604082015260600190565b6020808252602c908201527f4552433732313a206f70657261746f7220717565727920666f72206e6f6e657860408201527f697374656e7420746f6b656e0000000000000000000000000000000000000000606082015260800190565b60208082526038908201527f4552433732313a20617070726f76652063616c6c6572206973206e6f74206f7760408201527f6e6572206e6f7220617070726f76656420666f7220616c6c0000000000000000606082015260800190565b6020808252602a908201527f4552433732313a2062616c616e636520717565727920666f7220746865207a6560408201527f726f206164647265737300000000000000000000000000000000000000000000606082015260800190565b60208082526029908201527f4552433732313a206f776e657220717565727920666f72206e6f6e657869737460408201527f656e7420746f6b656e0000000000000000000000000000000000000000000000606082015260800190565b6020808252600d908201527f506172656e7473206572726f7200000000000000000000000000000000000000604082015260600190565b6020808252818101527f4552433732313a206d696e7420746f20746865207a65726f2061646472657373604082015260600190565b6020808252600b908201527f53616c6520506175736564000000000000000000000000000000000000000000604082015260600190565b6020808252602c908201527f4552433732313a20617070726f76656420717565727920666f72206e6f6e657860408201527f697374656e7420746f6b656e0000000000000000000000000000000000000000606082015260800190565b60208082526010908201527f4e6f20756e736f6c6420746f6b656e7300000000000000000000000000000000604082015260600190565b6020808252818101527f4f776e61626c653a2063616c6c6572206973206e6f7420746865206f776e6572604082015260600190565b60208082526029908201527f4552433732313a207472616e73666572206f6620746f6b656e2074686174206960408201527f73206e6f74206f776e0000000000000000000000000000000000000000000000606082015260800190565b6020808252602f908201527f4552433732314d657461646174613a2055524920717565727920666f72206e6f60408201527f6e6578697374656e7420746f6b656e0000000000000000000000000000000000606082015260800190565b6020808252600f908201527f746f6b656e206e6f742065786973740000000000000000000000000000000000604082015260600190565b60208082526011908201527f56616c75652062656c6f77207072696365000000000000000000000000000000604082015260600190565b60208082526021908201527f4552433732313a20617070726f76616c20746f2063757272656e74206f776e6560408201527f7200000000000000000000000000000000000000000000000000000000000000606082015260800190565b6020808252600c908201527f4272656564205061757365640000000000000000000000000000000000000000604082015260600190565b60208082526024908201527f41646472657373206973206e6f7420696e636c7564656420696e20776869746560408201527f4c69737400000000000000000000000000000000000000000000000000000000606082015260800190565b60208082526010908201527f5472616e73666572206661696c65642e00000000000000000000000000000000604082015260600190565b60208082526031908201527f4552433732313a207472616e736665722063616c6c6572206973206e6f74206f60408201527f776e6572206e6f7220617070726f766564000000000000000000000000000000606082015260800190565b6020808252602c908201527f455243373231456e756d657261626c653a20676c6f62616c20696e646578206f60408201527f7574206f6620626f756e64730000000000000000000000000000000000000000606082015260800190565b60208082526025908201527f596f7520646f6e27742068617665207769746864726177696e6720707269766960408201527f6c65646765000000000000000000000000000000000000000000000000000000606082015260800190565b600060208252612dac6020830184613da2565b90815260200190565b60405181810167ffffffffffffffff8111828210171561495257614952614aea565b604052919050565b600067ffffffffffffffff82111561497457614974614aea565b5060209081020190565b60009081526020902090565b6000821982111561499d5761499d614abe565b500190565b6000826149b1576149b1614ad4565b500490565b6000817fffffffffffffffffffffffffffffffffffffffffffffffffffffffffffffffff04831182151516156149ee576149ee614abe565b500290565b600082821015614a0557614a05614abe565b500390565b60005b83811015614a25578181015183820152602001614a0d565b83811115611f325750506000910152565b600281046001821680614a4a57607f821691505b60208210811415614a6b57634e487b7160e01b600052602260045260246000fd5b50919050565b60007fffffffffffffffffffffffffffffffffffffffffffffffffffffffffffffffff821415614aa357614aa3614abe565b5060010190565b600082614ab957614ab9614ad4565b500690565b634e487b7160e01b600052601160045260246000fd5b634e487b7160e01b600052601260045260246000fd5b634e487b7160e01b600052604160045260246000fd5b7fffffffff000000000000000000000000000000000000000000000000000000008116811461260757600080fdfea2646970667358221220d63988b91c3278244f6a4801808b33a4ba1212ed860d32abc66716092b72195664736f6c63430008000033",
  "devdoc": {
    "kind": "dev",
    "methods": {
      "approve(address,uint256)": {
        "details": "See {IERC721-approve}."
      },
      "balanceOf(address)": {
        "details": "See {IERC721-balanceOf}."
      },
      "getApproved(uint256)": {
        "details": "See {IERC721-getApproved}."
      },
      "isApprovedForAll(address,address)": {
        "details": "See {IERC721-isApprovedForAll}."
      },
      "name()": {
        "details": "See {IERC721Metadata-name}."
      },
      "owner()": {
        "details": "Returns the address of the current owner."
      },
      "ownerOf(uint256)": {
        "details": "See {IERC721-ownerOf}."
      },
      "renounceOwnership()": {
        "details": "Leaves the contract without owner. It will not be possible to call `onlyOwner` functions anymore. Can only be called by the current owner. NOTE: Renouncing ownership will leave the contract without an owner, thereby removing any functionality that is only available to the owner."
      },
      "safeTransferFrom(address,address,uint256)": {
        "details": "See {IERC721-safeTransferFrom}."
      },
      "safeTransferFrom(address,address,uint256,bytes)": {
        "details": "See {IERC721-safeTransferFrom}."
      },
      "setApprovalForAll(address,bool)": {
        "details": "See {IERC721-setApprovalForAll}."
      },
      "supportsInterface(bytes4)": {
        "details": "See {IERC165-supportsInterface}."
      },
      "symbol()": {
        "details": "See {IERC721Metadata-symbol}."
      },
      "tokenByIndex(uint256)": {
        "details": "See {IERC721Enumerable-tokenByIndex}."
      },
      "tokenOfOwnerByIndex(address,uint256)": {
        "details": "See {IERC721Enumerable-tokenOfOwnerByIndex}."
      },
      "tokenURI(uint256)": {
        "details": "See {IERC721Metadata-tokenURI}."
      },
      "totalSupply()": {
        "details": "See {IERC721Enumerable-totalSupply}."
      },
      "transferFrom(address,address,uint256)": {
        "details": "See {IERC721-transferFrom}."
      },
      "transferOwnership(address)": {
        "details": "Transfers ownership of the contract to a new account (`newOwner`). Can only be called by the current owner."
      }
    },
    "version": 1
  },
  "userdoc": {
    "kind": "user",
    "methods": {},
    "version": 1
  },
  "storageLayout": {
    "storage": [
      {
        "astId": 129,
        "contract": "contracts/BrainDanceNft.sol:BrainDanceNft",
        "label": "_name",
        "offset": 0,
        "slot": "0",
        "type": "t_string_storage"
      },
      {
        "astId": 131,
        "contract": "contracts/BrainDanceNft.sol:BrainDanceNft",
        "label": "_symbol",
        "offset": 0,
        "slot": "1",
        "type": "t_string_storage"
      },
      {
        "astId": 135,
        "contract": "contracts/BrainDanceNft.sol:BrainDanceNft",
        "label": "_owners",
        "offset": 0,
        "slot": "2",
        "type": "t_mapping(t_uint256,t_address)"
      },
      {
        "astId": 139,
        "contract": "contracts/BrainDanceNft.sol:BrainDanceNft",
        "label": "_balances",
        "offset": 0,
        "slot": "3",
        "type": "t_mapping(t_address,t_uint256)"
      },
      {
        "astId": 143,
        "contract": "contracts/BrainDanceNft.sol:BrainDanceNft",
        "label": "_tokenApprovals",
        "offset": 0,
        "slot": "4",
        "type": "t_mapping(t_uint256,t_address)"
      },
      {
        "astId": 149,
        "contract": "contracts/BrainDanceNft.sol:BrainDanceNft",
        "label": "_operatorApprovals",
        "offset": 0,
        "slot": "5",
        "type": "t_mapping(t_address,t_mapping(t_address,t_bool))"
      },
      {
        "astId": 1068,
        "contract": "contracts/BrainDanceNft.sol:BrainDanceNft",
        "label": "_ownedTokens",
        "offset": 0,
        "slot": "6",
        "type": "t_mapping(t_address,t_mapping(t_uint256,t_uint256))"
      },
      {
        "astId": 1072,
        "contract": "contracts/BrainDanceNft.sol:BrainDanceNft",
        "label": "_ownedTokensIndex",
        "offset": 0,
        "slot": "7",
        "type": "t_mapping(t_uint256,t_uint256)"
      },
      {
        "astId": 1075,
        "contract": "contracts/BrainDanceNft.sol:BrainDanceNft",
        "label": "_allTokens",
        "offset": 0,
        "slot": "8",
        "type": "t_array(t_uint256)dyn_storage"
      },
      {
        "astId": 1079,
        "contract": "contracts/BrainDanceNft.sol:BrainDanceNft",
        "label": "_allTokensIndex",
        "offset": 0,
        "slot": "9",
        "type": "t_mapping(t_uint256,t_uint256)"
      },
      {
        "astId": 7,
        "contract": "contracts/BrainDanceNft.sol:BrainDanceNft",
        "label": "_owner",
        "offset": 0,
        "slot": "10",
        "type": "t_address"
      },
      {
        "astId": 3292,
        "contract": "contracts/BrainDanceNft.sol:BrainDanceNft",
        "label": "_heros",
        "offset": 0,
        "slot": "11",
        "type": "t_mapping(t_uint256,t_struct(Hero)3287_storage)"
      },
      {
        "astId": 2344,
        "contract": "contracts/BrainDanceNft.sol:BrainDanceNft",
        "label": "mintPrice",
        "offset": 0,
        "slot": "12",
        "type": "t_uint256"
      },
      {
        "astId": 2347,
        "contract": "contracts/BrainDanceNft.sol:BrainDanceNft",
        "label": "breedPrice",
        "offset": 0,
        "slot": "13",
        "type": "t_uint256"
      },
      {
        "astId": 2350,
        "contract": "contracts/BrainDanceNft.sol:BrainDanceNft",
        "label": "upgradePrice",
        "offset": 0,
        "slot": "14",
        "type": "t_uint256"
      },
      {
        "astId": 2361,
        "contract": "contracts/BrainDanceNft.sol:BrainDanceNft",
        "label": "startTime",
        "offset": 0,
        "slot": "15",
        "type": "t_uint256"
      },
      {
        "astId": 2364,
        "contract": "contracts/BrainDanceNft.sol:BrainDanceNft",
        "label": "bPaused",
        "offset": 0,
        "slot": "16",
        "type": "t_bool"
      },
      {
        "astId": 2368,
        "contract": "contracts/BrainDanceNft.sol:BrainDanceNft",
        "label": "_tokenUris",
        "offset": 0,
        "slot": "17",
        "type": "t_mapping(t_uint256,t_string_storage)"
      },
      {
        "astId": 2370,
        "contract": "contracts/BrainDanceNft.sol:BrainDanceNft",
        "label": "baseURI",
        "offset": 0,
        "slot": "18",
        "type": "t_string_storage"
      },
      {
        "astId": 2373,
        "contract": "contracts/BrainDanceNft.sol:BrainDanceNft",
        "label": "mintedInitialTokenCount",
        "offset": 0,
        "slot": "19",
        "type": "t_uint256"
      },
      {
        "astId": 2376,
        "contract": "contracts/BrainDanceNft.sol:BrainDanceNft",
        "label": "breedTokenCount",
        "offset": 0,
        "slot": "20",
        "type": "t_uint256"
      },
      {
        "astId": 2379,
        "contract": "contracts/BrainDanceNft.sol:BrainDanceNft",
        "label": "_rootWhitelist",
        "offset": 0,
        "slot": "21",
        "type": "t_bytes32"
      },
      {
        "astId": 2382,
        "contract": "contracts/BrainDanceNft.sol:BrainDanceNft",
        "label": "_rootAuth",
        "offset": 0,
        "slot": "22",
        "type": "t_bytes32"
      },
      {
        "astId": 2385,
        "contract": "contracts/BrainDanceNft.sol:BrainDanceNft",
        "label": "_signatureToken",
        "offset": 0,
        "slot": "23",
        "type": "t_uint256"
      }
    ],
    "types": {
      "t_address": {
        "encoding": "inplace",
        "label": "address",
        "numberOfBytes": "20"
      },
      "t_array(t_uint256)dyn_storage": {
        "base": "t_uint256",
        "encoding": "dynamic_array",
        "label": "uint256[]",
        "numberOfBytes": "32"
      },
      "t_bool": {
        "encoding": "inplace",
        "label": "bool",
        "numberOfBytes": "1"
      },
      "t_bytes32": {
        "encoding": "inplace",
        "label": "bytes32",
        "numberOfBytes": "32"
      },
      "t_mapping(t_address,t_bool)": {
        "encoding": "mapping",
        "key": "t_address",
        "label": "mapping(address => bool)",
        "numberOfBytes": "32",
        "value": "t_bool"
      },
      "t_mapping(t_address,t_mapping(t_address,t_bool))": {
        "encoding": "mapping",
        "key": "t_address",
        "label": "mapping(address => mapping(address => bool))",
        "numberOfBytes": "32",
        "value": "t_mapping(t_address,t_bool)"
      },
      "t_mapping(t_address,t_mapping(t_uint256,t_uint256))": {
        "encoding": "mapping",
        "key": "t_address",
        "label": "mapping(address => mapping(uint256 => uint256))",
        "numberOfBytes": "32",
        "value": "t_mapping(t_uint256,t_uint256)"
      },
      "t_mapping(t_address,t_uint256)": {
        "encoding": "mapping",
        "key": "t_address",
        "label": "mapping(address => uint256)",
        "numberOfBytes": "32",
        "value": "t_uint256"
      },
      "t_mapping(t_uint256,t_address)": {
        "encoding": "mapping",
        "key": "t_uint256",
        "label": "mapping(uint256 => address)",
        "numberOfBytes": "32",
        "value": "t_address"
      },
      "t_mapping(t_uint256,t_string_storage)": {
        "encoding": "mapping",
        "key": "t_uint256",
        "label": "mapping(uint256 => string)",
        "numberOfBytes": "32",
        "value": "t_string_storage"
      },
      "t_mapping(t_uint256,t_struct(Hero)3287_storage)": {
        "encoding": "mapping",
        "key": "t_uint256",
        "label": "mapping(uint256 => struct HeroFactory.Hero)",
        "numberOfBytes": "32",
        "value": "t_struct(Hero)3287_storage"
      },
      "t_mapping(t_uint256,t_uint256)": {
        "encoding": "mapping",
        "key": "t_uint256",
        "label": "mapping(uint256 => uint256)",
        "numberOfBytes": "32",
        "value": "t_uint256"
      },
      "t_string_storage": {
        "encoding": "bytes",
        "label": "string",
        "numberOfBytes": "32"
      },
      "t_struct(Hero)3287_storage": {
        "encoding": "inplace",
        "label": "struct HeroFactory.Hero",
        "members": [
          {
            "astId": 3279,
            "contract": "contracts/BrainDanceNft.sol:BrainDanceNft",
            "label": "traits",
            "offset": 0,
            "slot": "0",
            "type": "t_uint256"
          },
          {
            "astId": 3281,
            "contract": "contracts/BrainDanceNft.sol:BrainDanceNft",
            "label": "fatherId",
            "offset": 0,
            "slot": "1",
            "type": "t_uint256"
          },
          {
            "astId": 3283,
            "contract": "contracts/BrainDanceNft.sol:BrainDanceNft",
            "label": "motherId",
            "offset": 0,
            "slot": "2",
            "type": "t_uint256"
          },
          {
            "astId": 3286,
            "contract": "contracts/BrainDanceNft.sol:BrainDanceNft",
            "label": "childrenIds",
            "offset": 0,
            "slot": "3",
            "type": "t_array(t_uint256)dyn_storage"
          }
        ],
        "numberOfBytes": "128"
      },
      "t_uint256": {
        "encoding": "inplace",
        "label": "uint256",
        "numberOfBytes": "32"
      }
    }
  }
}