{
  "address": "0x89d36fa6BD0DE2BFB42E917f6CC8729d17803318",
  "abi": [
    {
      "inputs": [
        {
          "internalType": "string",
          "name": "name_",
          "type": "string"
        },
        {
          "internalType": "string",
          "name": "symbol_",
          "type": "string"
        },
        {
          "internalType": "string",
          "name": "baseURI_",
          "type": "string"
        }
      ],
      "stateMutability": "nonpayable",
      "type": "constructor"
    },
    {
      "anonymous": false,
      "inputs": [
        {
          "indexed": true,
          "internalType": "address",
          "name": "owner",
          "type": "address"
        },
        {
          "indexed": true,
          "internalType": "address",
          "name": "approved",
          "type": "address"
        },
        {
          "indexed": true,
          "internalType": "uint256",
          "name": "tokenId",
          "type": "uint256"
        }
      ],
      "name": "Approval",
      "type": "event"
    },
    {
      "anonymous": false,
      "inputs": [
        {
          "indexed": true,
          "internalType": "address",
          "name": "owner",
          "type": "address"
        },
        {
          "indexed": true,
          "internalType": "address",
          "name": "operator",
          "type": "address"
        },
        {
          "indexed": false,
          "internalType": "bool",
          "name": "approved",
          "type": "bool"
        }
      ],
      "name": "ApprovalForAll",
      "type": "event"
    },
    {
      "anonymous": false,
      "inputs": [
        {
          "indexed": true,
          "internalType": "uint256",
          "name": "tokenId",
          "type": "uint256"
        }
      ],
      "name": "BreededNewNFT",
      "type": "event"
    },
    {
      "anonymous": false,
      "inputs": [
        {
          "indexed": true,
          "internalType": "uint256",
          "name": "tokenId",
          "type": "uint256"
        }
      ],
      "name": "MintedNewNFT",
      "type": "event"
    },
    {
      "anonymous": false,
      "inputs": [
        {
          "indexed": true,
          "internalType": "address",
          "name": "previousOwner",
          "type": "address"
        },
        {
          "indexed": true,
          "internalType": "address",
          "name": "newOwner",
          "type": "address"
        }
      ],
      "name": "OwnershipTransferred",
      "type": "event"
    },
    {
      "anonymous": false,
      "inputs": [
        {
          "indexed": false,
          "internalType": "bool",
          "name": "pause",
          "type": "bool"
        }
      ],
      "name": "PauseEvent",
      "type": "event"
    },
    {
      "anonymous": false,
      "inputs": [
        {
          "indexed": true,
          "internalType": "address",
          "name": "from",
          "type": "address"
        },
        {
          "indexed": true,
          "internalType": "address",
          "name": "to",
          "type": "address"
        },
        {
          "indexed": true,
          "internalType": "uint256",
          "name": "tokenId",
          "type": "uint256"
        }
      ],
      "name": "Transfer",
      "type": "event"
    },
    {
      "inputs": [],
      "name": "ABC_ADDRESS",
      "outputs": [
        {
          "internalType": "address",
          "name": "",
          "type": "address"
        }
      ],
      "stateMutability": "view",
      "type": "function"
    },
    {
      "inputs": [],
      "name": "ARTIST_ADDRESS",
      "outputs": [
        {
          "internalType": "address",
          "name": "",
          "type": "address"
        }
      ],
      "stateMutability": "view",
      "type": "function"
    },
    {
      "inputs": [],
      "name": "INITIAL_TOKEN_COUNT",
      "outputs": [
        {
          "internalType": "uint256",
          "name": "",
          "type": "uint256"
        }
      ],
      "stateMutability": "view",
      "type": "function"
    },
    {
      "inputs": [],
      "name": "MINT_PRICE",
      "outputs": [
        {
          "internalType": "uint256",
          "name": "",
          "type": "uint256"
        }
      ],
      "stateMutability": "view",
      "type": "function"
    },
    {
      "inputs": [],
      "name": "OWNER_ADDRESS",
      "outputs": [
        {
          "internalType": "address",
          "name": "",
          "type": "address"
        }
      ],
      "stateMutability": "view",
      "type": "function"
    },
    {
      "inputs": [
        {
          "internalType": "address",
          "name": "to",
          "type": "address"
        },
        {
          "internalType": "uint256",
          "name": "tokenId",
          "type": "uint256"
        }
      ],
      "name": "approve",
      "outputs": [],
      "stateMutability": "nonpayable",
      "type": "function"
    },
    {
      "inputs": [],
      "name": "bPaused",
      "outputs": [
        {
          "internalType": "bool",
          "name": "",
          "type": "bool"
        }
      ],
      "stateMutability": "view",
      "type": "function"
    },
    {
      "inputs": [
        {
          "internalType": "address",
          "name": "owner",
          "type": "address"
        }
      ],
      "name": "balanceOf",
      "outputs": [
        {
          "internalType": "uint256",
          "name": "",
          "type": "uint256"
        }
      ],
      "stateMutability": "view",
      "type": "function"
    },
    {
      "inputs": [],
      "name": "baseURI",
      "outputs": [
        {
          "internalType": "string",
          "name": "",
          "type": "string"
        }
      ],
      "stateMutability": "view",
      "type": "function"
    },
    {
      "inputs": [
        {
          "internalType": "uint256[]",
          "name": "array",
          "type": "uint256[]"
        },
        {
          "internalType": "uint256",
          "name": "val",
          "type": "uint256"
        }
      ],
      "name": "findIndex",
      "outputs": [
        {
          "internalType": "uint256",
          "name": "",
          "type": "uint256"
        }
      ],
      "stateMutability": "pure",
      "type": "function"
    },
    {
      "inputs": [
        {
          "internalType": "uint256",
          "name": "tokenId",
          "type": "uint256"
        }
      ],
      "name": "getApproved",
      "outputs": [
        {
          "internalType": "address",
          "name": "",
          "type": "address"
        }
      ],
      "stateMutability": "view",
      "type": "function"
    },
    {
      "inputs": [
        {
          "internalType": "uint256",
          "name": "tokenId_",
          "type": "uint256"
        }
      ],
      "name": "getChildren",
      "outputs": [
        {
          "components": [
            {
              "internalType": "uint256",
              "name": "traits",
              "type": "uint256"
            },
            {
              "internalType": "uint256",
              "name": "fatherId",
              "type": "uint256"
            },
            {
              "internalType": "uint256",
              "name": "motherId",
              "type": "uint256"
            },
            {
              "internalType": "uint256[]",
              "name": "childrenIds",
              "type": "uint256[]"
            }
          ],
          "internalType": "struct HeroFactory.Hero[]",
          "name": "",
          "type": "tuple[]"
        }
      ],
      "stateMutability": "view",
      "type": "function"
    },
    {
      "inputs": [
        {
          "internalType": "uint256",
          "name": "heroId1_",
          "type": "uint256"
        },
        {
          "internalType": "uint256",
          "name": "heroId2_",
          "type": "uint256"
        }
      ],
      "name": "getChildrenIdsWithParent",
      "outputs": [
        {
          "internalType": "uint256[]",
          "name": "",
          "type": "uint256[]"
        }
      ],
      "stateMutability": "view",
      "type": "function"
    },
    {
      "inputs": [
        {
          "internalType": "uint256",
          "name": "heroId1_",
          "type": "uint256"
        },
        {
          "internalType": "uint256",
          "name": "heroId2_",
          "type": "uint256"
        }
      ],
      "name": "getChildrenWithParent",
      "outputs": [
        {
          "components": [
            {
              "internalType": "uint256",
              "name": "traits",
              "type": "uint256"
            },
            {
              "internalType": "uint256",
              "name": "fatherId",
              "type": "uint256"
            },
            {
              "internalType": "uint256",
              "name": "motherId",
              "type": "uint256"
            },
            {
              "internalType": "uint256[]",
              "name": "childrenIds",
              "type": "uint256[]"
            }
          ],
          "internalType": "struct HeroFactory.Hero[]",
          "name": "",
          "type": "tuple[]"
        }
      ],
      "stateMutability": "view",
      "type": "function"
    },
    {
      "inputs": [
        {
          "internalType": "uint256",
          "name": "tokenId_",
          "type": "uint256"
        }
      ],
      "name": "getHero",
      "outputs": [
        {
          "components": [
            {
              "internalType": "uint256",
              "name": "traits",
              "type": "uint256"
            },
            {
              "internalType": "uint256",
              "name": "fatherId",
              "type": "uint256"
            },
            {
              "internalType": "uint256",
              "name": "motherId",
              "type": "uint256"
            },
            {
              "internalType": "uint256[]",
              "name": "childrenIds",
              "type": "uint256[]"
            }
          ],
          "internalType": "struct HeroFactory.Hero",
          "name": "",
          "type": "tuple"
        }
      ],
      "stateMutability": "view",
      "type": "function"
    },
    {
      "inputs": [
        {
          "internalType": "uint256",
          "name": "tokenId_",
          "type": "uint256"
        }
      ],
      "name": "getParent",
      "outputs": [
        {
          "components": [
            {
              "internalType": "uint256",
              "name": "traits",
              "type": "uint256"
            },
            {
              "internalType": "uint256",
              "name": "fatherId",
              "type": "uint256"
            },
            {
              "internalType": "uint256",
              "name": "motherId",
              "type": "uint256"
            },
            {
              "internalType": "uint256[]",
              "name": "childrenIds",
              "type": "uint256[]"
            }
          ],
          "internalType": "struct HeroFactory.Hero[]",
          "name": "",
          "type": "tuple[]"
        }
      ],
      "stateMutability": "view",
      "type": "function"
    },
    {
      "inputs": [
        {
          "internalType": "address",
          "name": "owner",
          "type": "address"
        },
        {
          "internalType": "address",
          "name": "operator",
          "type": "address"
        }
      ],
      "name": "isApprovedForAll",
      "outputs": [
        {
          "internalType": "bool",
          "name": "",
          "type": "bool"
        }
      ],
      "stateMutability": "view",
      "type": "function"
    },
    {
      "inputs": [],
      "name": "isPresale",
      "outputs": [
        {
          "internalType": "bool",
          "name": "",
          "type": "bool"
        }
      ],
      "stateMutability": "view",
      "type": "function"
    },
    {
      "inputs": [
        {
          "internalType": "bytes32[]",
          "name": "proof",
          "type": "bytes32[]"
        },
        {
          "internalType": "string",
          "name": "leaf",
          "type": "string"
        }
      ],
      "name": "mint",
      "outputs": [],
      "stateMutability": "payable",
      "type": "function"
    },
    {
      "inputs": [
        {
          "internalType": "string",
          "name": "tokenUri_",
          "type": "string"
        },
        {
          "internalType": "uint256",
          "name": "heroId1_",
          "type": "uint256"
        },
        {
          "internalType": "uint256",
          "name": "heroId2_",
          "type": "uint256"
        }
      ],
      "name": "mintBreedToken",
      "outputs": [],
      "stateMutability": "nonpayable",
      "type": "function"
    },
    {
      "inputs": [
        {
          "internalType": "address",
          "name": "to_",
          "type": "address"
        },
        {
          "internalType": "string[]",
          "name": "tokenUris_",
          "type": "string[]"
        }
      ],
      "name": "mintUnsoldTokens",
      "outputs": [],
      "stateMutability": "nonpayable",
      "type": "function"
    },
    {
      "inputs": [],
      "name": "mintedInitialTokenCount",
      "outputs": [
        {
          "internalType": "uint256",
          "name": "",
          "type": "uint256"
        }
      ],
      "stateMutability": "view",
      "type": "function"
    },
    {
      "inputs": [],
      "name": "name",
      "outputs": [
        {
          "internalType": "string",
          "name": "",
          "type": "string"
        }
      ],
      "stateMutability": "view",
      "type": "function"
    },
    {
      "inputs": [],
      "name": "owner",
      "outputs": [
        {
          "internalType": "address",
          "name": "",
          "type": "address"
        }
      ],
      "stateMutability": "view",
      "type": "function"
    },
    {
      "inputs": [
        {
          "internalType": "uint256",
          "name": "tokenId",
          "type": "uint256"
        }
      ],
      "name": "ownerOf",
      "outputs": [
        {
          "internalType": "address",
          "name": "",
          "type": "address"
        }
      ],
      "stateMutability": "view",
      "type": "function"
    },
    {
      "inputs": [],
      "name": "remainTokenCount",
      "outputs": [
        {
          "internalType": "uint256",
          "name": "",
          "type": "uint256"
        }
      ],
      "stateMutability": "view",
      "type": "function"
    },
    {
      "inputs": [],
      "name": "renounceOwnership",
      "outputs": [],
      "stateMutability": "nonpayable",
      "type": "function"
    },
    {
      "inputs": [
        {
          "internalType": "address",
          "name": "from",
          "type": "address"
        },
        {
          "internalType": "address",
          "name": "to",
          "type": "address"
        },
        {
          "internalType": "uint256",
          "name": "tokenId",
          "type": "uint256"
        }
      ],
      "name": "safeTransferFrom",
      "outputs": [],
      "stateMutability": "nonpayable",
      "type": "function"
    },
    {
      "inputs": [
        {
          "internalType": "address",
          "name": "from",
          "type": "address"
        },
        {
          "internalType": "address",
          "name": "to",
          "type": "address"
        },
        {
          "internalType": "uint256",
          "name": "tokenId",
          "type": "uint256"
        },
        {
          "internalType": "bytes",
          "name": "_data",
          "type": "bytes"
        }
      ],
      "name": "safeTransferFrom",
      "outputs": [],
      "stateMutability": "nonpayable",
      "type": "function"
    },
    {
      "inputs": [
        {
          "internalType": "address",
          "name": "operator",
          "type": "address"
        },
        {
          "internalType": "bool",
          "name": "approved",
          "type": "bool"
        }
      ],
      "name": "setApprovalForAll",
      "outputs": [],
      "stateMutability": "nonpayable",
      "type": "function"
    },
    {
      "inputs": [
        {
          "internalType": "bool",
          "name": "pause",
          "type": "bool"
        }
      ],
      "name": "setPause",
      "outputs": [],
      "stateMutability": "nonpayable",
      "type": "function"
    },
    {
      "inputs": [
        {
          "internalType": "bytes32",
          "name": "root_",
          "type": "bytes32"
        }
      ],
      "name": "setRootAuth",
      "outputs": [],
      "stateMutability": "nonpayable",
      "type": "function"
    },
    {
      "inputs": [
        {
          "internalType": "bytes32",
          "name": "root_",
          "type": "bytes32"
        }
      ],
      "name": "setRootWhitelist",
      "outputs": [],
      "stateMutability": "nonpayable",
      "type": "function"
    },
    {
      "inputs": [],
      "name": "setStarttime",
      "outputs": [],
      "stateMutability": "nonpayable",
      "type": "function"
    },
    {
      "inputs": [
        {
          "internalType": "uint256",
          "name": "tokenId_",
          "type": "uint256"
        },
        {
          "internalType": "string",
          "name": "tokenUri_",
          "type": "string"
        }
      ],
      "name": "setTokenURI",
      "outputs": [],
      "stateMutability": "nonpayable",
      "type": "function"
    },
    {
      "inputs": [],
      "name": "startTime",
      "outputs": [
        {
          "internalType": "uint256",
          "name": "",
          "type": "uint256"
        }
      ],
      "stateMutability": "view",
      "type": "function"
    },
    {
      "inputs": [
        {
          "internalType": "bytes4",
          "name": "interfaceId",
          "type": "bytes4"
        }
      ],
      "name": "supportsInterface",
      "outputs": [
        {
          "internalType": "bool",
          "name": "",
          "type": "bool"
        }
      ],
      "stateMutability": "view",
      "type": "function"
    },
    {
      "inputs": [],
      "name": "symbol",
      "outputs": [
        {
          "internalType": "string",
          "name": "",
          "type": "string"
        }
      ],
      "stateMutability": "view",
      "type": "function"
    },
    {
      "inputs": [
        {
          "internalType": "uint256",
          "name": "index",
          "type": "uint256"
        }
      ],
      "name": "tokenByIndex",
      "outputs": [
        {
          "internalType": "uint256",
          "name": "",
          "type": "uint256"
        }
      ],
      "stateMutability": "view",
      "type": "function"
    },
    {
      "inputs": [
        {
          "internalType": "address",
          "name": "owner",
          "type": "address"
        },
        {
          "internalType": "uint256",
          "name": "index",
          "type": "uint256"
        }
      ],
      "name": "tokenOfOwnerByIndex",
      "outputs": [
        {
          "internalType": "uint256",
          "name": "",
          "type": "uint256"
        }
      ],
      "stateMutability": "view",
      "type": "function"
    },
    {
      "inputs": [
        {
          "internalType": "uint256",
          "name": "tokenId",
          "type": "uint256"
        }
      ],
      "name": "tokenURI",
      "outputs": [
        {
          "internalType": "string",
          "name": "",
          "type": "string"
        }
      ],
      "stateMutability": "view",
      "type": "function"
    },
    {
      "inputs": [],
      "name": "totalSupply",
      "outputs": [
        {
          "internalType": "uint256",
          "name": "",
          "type": "uint256"
        }
      ],
      "stateMutability": "view",
      "type": "function"
    },
    {
      "inputs": [
        {
          "internalType": "address",
          "name": "from",
          "type": "address"
        },
        {
          "internalType": "address",
          "name": "to",
          "type": "address"
        },
        {
          "internalType": "uint256",
          "name": "tokenId",
          "type": "uint256"
        }
      ],
      "name": "transferFrom",
      "outputs": [],
      "stateMutability": "nonpayable",
      "type": "function"
    },
    {
      "inputs": [
        {
          "internalType": "address",
          "name": "newOwner",
          "type": "address"
        }
      ],
      "name": "transferOwnership",
      "outputs": [],
      "stateMutability": "nonpayable",
      "type": "function"
    },
    {
      "inputs": [
        {
          "internalType": "address",
          "name": "owner",
          "type": "address"
        }
      ],
      "name": "walletOfOwner",
      "outputs": [
        {
          "internalType": "uint256[]",
          "name": "",
          "type": "uint256[]"
        }
      ],
      "stateMutability": "view",
      "type": "function"
    },
    {
      "inputs": [],
      "name": "withdrawAll",
      "outputs": [],
      "stateMutability": "nonpayable",
      "type": "function"
    }
  ],
  "transactionHash": "0x28465f4b3e1566ce68cee6b6e9fd085209771a3d5573c9685a716a8f9c3d5f8b",
  "args": [
    "Brain Dance",
    "BrainDance",
    "https://gateway.pinata.cloud/ipfs/Qmc2eWRG4Pv6N4rrDwYABF4YJhNsQCYLn4WV8HcPpLxYNp/"
  ],
  "solcInputHash": "d619e3ddf174ce319b2f0c81c339b700",
  "bytecode": "0x6080604052600d805460ff19169055600060108190556011557fa2fc709bf2f4b9cb44b8a9114485d12d4877bb1beedd81f62f4f85a8056480ee60128190556013553480156200004e57600080fd5b5060405162004b5438038062004b54833981016040819052620000719162000b18565b8251839083906200008a9060009060208501906200097b565b508051620000a09060019060208401906200097b565b505050620000bd620000b7620002a760201b60201c565b620002ab565b42600c558051620000d690600f9060208401906200097b565b50600f604051602001620000eb919062000c47565b60408051601f1981840301815291905260008052600e6020908152815162000137927fe710864318d4a32f37d6ce54cb3fadbef648dd12d8dbdf53973564d56b7f881c9201906200097b565b50620001446000620002fd565b62000165733de2f28435f5e1110f7c2a4a0fb963b7509d2c856000620003bb565b600f60405160200162000179919062000c85565b60408051601f198184030181529190526001600052600e60209081528151620001c6927fa7c5ba7114a813b50159add3a36832908dc83db71d0b9a24c2ad0f83be9582079201906200097b565b50620001d36001620002fd565b620001f473396823f49aa9f0e3fac4b939bc27ad5cd88264db6001620003bb565b600f60405160200162000208919062000c66565b60408051601f198184030181529190526002600052600e6020908152815162000255927f9adb202b1492743bc00c81d33cdc6423fa8c79109027eb6a845391e8fc1f04819201906200097b565b50620002626002620002fd565b6200028373892e10cb1299c16e469cf0f79f18cca639d00f5b6002620003bb565b60036010600082825462000298919062000e0e565b9091555062000edb9350505050565b3390565b600a80546001600160a01b038381166001600160a01b0319831681179093556040519116919082907f8be0079c531659141344cd1fd0a4f28419497f9722a3daafe3b4186f6b6457e090600090a35050565b6040518060800160405280600081526020016000198152602001600019815260200160006001600160401b038111156200034757634e487b7160e01b600052604160045260246000fd5b60405190808252806020026020018201604052801562000371578160200160208202803683370190505b5090526000828152600b60209081526040918290208351815583820151600182015591830151600283015560608301518051620003b5926003850192019062000a0a565b50505050565b620003dd828260405180602001604052806000815250620003e160201b60201c565b5050565b620003ed838362000429565b620003fc600084848462000514565b620004245760405162461bcd60e51b81526004016200041b9062000cfa565b60405180910390fd5b505050565b6001600160a01b038216620004525760405162461bcd60e51b81526004016200041b9062000dcd565b6200045d816200064d565b156200047d5760405162461bcd60e51b81526004016200041b9062000d4c565b6200048b600083836200066a565b6001600160a01b0382166000908152600360205260408120805460019290620004b690849062000e0e565b909155505060008181526002602052604080822080546001600160a01b0319166001600160a01b03861690811790915590518392907fddf252ad1be2c89b69c2b068fc378daa952ba7f163c4a11628f55a4df523b3ef908290a45050565b600062000535846001600160a01b03166200070e60201b62001ece1760201c565b1562000641576001600160a01b03841663150b7a0262000554620002a7565b8786866040518563ffffffff1660e01b815260040162000578949392919062000ca4565b602060405180830381600087803b1580156200059357600080fd5b505af1925050508015620005c6575060408051601f3d908101601f19168201909252620005c39181019062000ae7565b60015b62000626573d808015620005f7576040519150601f19603f3d011682016040523d82523d6000602084013e620005fc565b606091505b5080516200061e5760405162461bcd60e51b81526004016200041b9062000cfa565b805181602001fd5b6001600160e01b031916630a85bd0160e11b14905062000645565b5060015b949350505050565b6000908152600260205260409020546001600160a01b0316151590565b620006828383836200042460201b6200098b1760201c565b6001600160a01b038316620006a2576200069c8162000714565b620006c8565b816001600160a01b0316836001600160a01b031614620006c857620006c8838262000758565b6001600160a01b038216620006e857620006e28162000805565b62000424565b826001600160a01b0316826001600160a01b0316146200042457620004248282620008e3565b3b151590565b600880546000838152600960205260408120829055600182018355919091527ff3f7a9fe364faab93b216da50a3214154f22a0a2b415b23a84c8169e8b636ee30155565b6000600162000772846200093460201b620013ff1760201c565b6200077e919062000e29565b600083815260076020526040902054909150808214620007d2576001600160a01b03841660009081526006602090815260408083208584528252808320548484528184208190558352600790915290208190555b5060009182526007602090815260408084208490556001600160a01b039094168352600681528383209183525290812055565b600854600090620008199060019062000e29565b600083815260096020526040812054600880549394509092849081106200085057634e487b7160e01b600052603260045260246000fd5b9060005260206000200154905080600883815481106200088057634e487b7160e01b600052603260045260246000fd5b6000918252602080832090910192909255828152600990915260408082208490558582528120556008805480620008c757634e487b7160e01b600052603160045260246000fd5b6001900381819060005260206000200160009055905550505050565b6000620008fb836200093460201b620013ff1760201c565b6001600160a01b039093166000908152600660209081526040808320868452825280832085905593825260079052919091209190915550565b60006001600160a01b0382166200095f5760405162461bcd60e51b81526004016200041b9062000d83565b506001600160a01b031660009081526003602052604090205490565b828054620009899062000e72565b90600052602060002090601f016020900481019282620009ad5760008555620009f8565b82601f10620009c857805160ff1916838001178555620009f8565b82800160010185558215620009f8579182015b82811115620009f8578251825591602001919060010190620009db565b5062000a0692915062000a47565b5090565b828054828255906000526020600020908101928215620009f85791602002820182811115620009f8578251825591602001919060010190620009db565b5b8082111562000a06576000815560010162000a48565b600082601f83011262000a6f578081fd5b81516001600160401b038082111562000a8c5762000a8c62000ec5565b604051601f8301601f19168101602001828111828210171562000ab35762000ab362000ec5565b60405282815284830160200186101562000acb578384fd5b62000ade83602083016020880162000e43565b95945050505050565b60006020828403121562000af9578081fd5b81516001600160e01b03198116811462000b11578182fd5b9392505050565b60008060006060848603121562000b2d578182fd5b83516001600160401b038082111562000b44578384fd5b62000b528783880162000a5e565b9450602086015191508082111562000b68578384fd5b62000b768783880162000a5e565b9350604086015191508082111562000b8c578283fd5b5062000b9b8682870162000a5e565b9150509250925092565b80546000906002810460018083168062000bc057607f831692505b602080841082141562000be157634e487b7160e01b86526022600452602486fd5b81801562000bf8576001811462000c0a5762000c3b565b60ff1986168952848901965062000c3b565b62000c158862000e02565b60005b8681101562000c335781548b82015290850190830162000c18565b505084890196505b50505050505092915050565b600062000c55828462000ba5565b600360fc1b81526001019392505050565b600062000c74828462000ba5565b601960f91b81526001019392505050565b600062000c93828462000ba5565b603160f81b81526001019392505050565b600060018060a01b03808716835280861660208401525083604083015260806060830152825180608084015262000ce38160a085016020870162000e43565b601f01601f19169190910160a00195945050505050565b60208082526032908201527f4552433732313a207472616e7366657220746f206e6f6e20455243373231526560408201527131b2b4bb32b91034b6b83632b6b2b73a32b960711b606082015260800190565b6020808252601c908201527f4552433732313a20746f6b656e20616c7265616479206d696e74656400000000604082015260600190565b6020808252602a908201527f4552433732313a2062616c616e636520717565727920666f7220746865207a65604082015269726f206164647265737360b01b606082015260800190565b6020808252818101527f4552433732313a206d696e7420746f20746865207a65726f2061646472657373604082015260600190565b60009081526020902090565b6000821982111562000e245762000e2462000eaf565b500190565b60008282101562000e3e5762000e3e62000eaf565b500390565b60005b8381101562000e6057818101518382015260200162000e46565b83811115620003b55750506000910152565b60028104600182168062000e8757607f821691505b6020821081141562000ea957634e487b7160e01b600052602260045260246000fd5b50919050565b634e487b7160e01b600052601160045260246000fd5b634e487b7160e01b600052604160045260246000fd5b613c698062000eeb6000396000f3fe60806040526004361061027d5760003560e01c80636c26eab91161014f578063aad66516116100c1578063d440b4c21161007a578063d440b4c214610720578063dc31d1d614610740578063e985e9c514610760578063eda9d47414610780578063f0a65d1a146107a0578063f2fde38b146107b55761027d565b8063aad6651614610678578063b88d4fde14610698578063bedb86fb146106b8578063c002d23d146106d8578063c4b5aa96146106ed578063c87b56dd146107005761027d565b8063853828b611610113578063853828b6146105ef5780638d041988146106045780638da5cb5b1461061957806395364a841461062e57806395d89b4114610643578063a22cb465146106585761027d565b80636c26eab91461057b57806370a0823114610590578063715018a6146105b0578063755cb234146105c557806378e97925146105da5761027d565b806323b872dd116101f357806349ae8dc3116101ac57806349ae8dc3146104d15780634b951cef146104f15780634f6ccce714610511578063594ebab7146105315780636352211e146105465780636c0360eb146105665761027d565b806323b872dd146104045780632f745c59146104245780633d99de8514610444578063414533de1461046457806342842e0e14610491578063438b6300146104b15761027d565b80630970eaa3116102455780630970eaa31461033e57806311319b1e1461036b578063162094c41461038057806318160ddd146103a05780632099eaa7146103c257806321d80111146103d75761027d565b806301ffc9a71461028257806306c18a31146102b857806306fdde03146102da578063081812fc146102fc578063095ea7b31461031c575b600080fd5b34801561028e57600080fd5b506102a261029d366004612fd2565b6107d5565b6040516102af9190613319565b60405180910390f35b3480156102c457600080fd5b506102cd610802565b6040516102af9190613255565b3480156102e657600080fd5b506102ef61081a565b6040516102af9190613324565b34801561030857600080fd5b506102cd610317366004612fba565b6108ac565b34801561032857600080fd5b5061033c610337366004612e2c565b6108f8565b005b34801561034a57600080fd5b5061035e61035936600461308f565b610990565b6040516102af9190613306565b34801561037757600080fd5b506102a2610bfa565b34801561038c57600080fd5b5061033c61039b366004613055565b610c03565b3480156103ac57600080fd5b506103b5610c61565b6040516102af9190613a82565b3480156103ce57600080fd5b506102cd610c67565b3480156103e357600080fd5b506103f76103f2366004612fba565b610c7f565b6040516102af9190613a6f565b34801561041057600080fd5b5061033c61041f366004612cb2565b610d16565b34801561043057600080fd5b506103b561043f366004612e2c565b610d4e565b34801561045057600080fd5b506103b561045f366004612f0b565b610da0565b34801561047057600080fd5b5061048461047f366004612fba565b610dfe565b6040516102af91906132a6565b34801561049d57600080fd5b5061033c6104ac366004612cb2565b610fe1565b3480156104bd57600080fd5b5061035e6104cc366004612c66565b610ffc565b3480156104dd57600080fd5b506104846104ec366004612fba565b6110f2565b3480156104fd57600080fd5b5061033c61050c366004612fba565b61127f565b34801561051d57600080fd5b506103b561052c366004612fba565b6112c3565b34801561053d57600080fd5b506102cd61131e565b34801561055257600080fd5b506102cd610561366004612fba565b611336565b34801561057257600080fd5b506102ef61136b565b34801561058757600080fd5b506103b56113f9565b34801561059c57600080fd5b506103b56105ab366004612c66565b6113ff565b3480156105bc57600080fd5b5061033c611443565b3480156105d157600080fd5b506103b561148e565b3480156105e657600080fd5b506103b5611494565b3480156105fb57600080fd5b5061033c61149a565b34801561061057600080fd5b506103b56115a4565b34801561062557600080fd5b506102cd6115bb565b34801561063a57600080fd5b506102a26115ca565b34801561064f57600080fd5b506102ef6115e5565b34801561066457600080fd5b5061033c610673366004612e03565b6115f4565b34801561068457600080fd5b5061033c61069336600461300a565b6116c2565b3480156106a457600080fd5b5061033c6106b3366004612ced565b6117a9565b3480156106c457600080fd5b5061033c6106d3366004612fa0565b6117e8565b3480156106e457600080fd5b506103b5611876565b61033c6106fb366004612e55565b611881565b34801561070c57600080fd5b506102ef61071b366004612fba565b611a35565b34801561072c57600080fd5b5061033c61073b366004612fba565b611afa565b34801561074c57600080fd5b5061033c61075b366004612d65565b611b3e565b34801561076c57600080fd5b506102a261077b366004612c80565b611c68565b34801561078c57600080fd5b5061048461079b36600461308f565b611c96565b3480156107ac57600080fd5b5061033c611e18565b3480156107c157600080fd5b5061033c6107d0366004612c66565b611e5d565b60006001600160e01b0319821663780e9d6360e01b14806107fa57506107fa82611ed4565b90505b919050565b733de2f28435f5e1110f7c2a4a0fb963b7509d2c8581565b60606000805461082990613b71565b80601f016020809104026020016040519081016040528092919081815260200182805461085590613b71565b80156108a25780601f10610877576101008083540402835291602001916108a2565b820191906000526020600020905b81548152906001019060200180831161088557829003601f168201915b5050505050905090565b60006108b782611f14565b6108dc5760405162461bcd60e51b81526004016108d390613745565b60405180910390fd5b506000908152600460205260409020546001600160a01b031690565b600061090382611336565b9050806001600160a01b0316836001600160a01b031614156109375760405162461bcd60e51b81526004016108d3906138b3565b806001600160a01b0316610949611f31565b6001600160a01b0316148061096557506109658161077b611f31565b6109815760405162461bcd60e51b81526004016108d3906135c4565b61098b8383611f35565b505050565b6000828152600b6020526040812060038101546060929081906001600160401b038111156109ce57634e487b7160e01b600052604160045260246000fd5b6040519080825280602002602001820160405280156109f7578160200160208202803683370190505b5090506000915060005b6003840154811015610b23576000868152600b6020908152604091829020600301805483518184028101840190945280845292610aa4929091908490830182828015610a6c57602002820191906000526020600020905b815481526020019060010190808311610a58575b5050505050866003018481548110610a9457634e487b7160e01b600052603260045260246000fd5b9060005260206000200154610da0565b1015610b1157836003018181548110610acd57634e487b7160e01b600052603260045260246000fd5b9060005260206000200154828480610ae490613bac565b955081518110610b0457634e487b7160e01b600052603260045260246000fd5b6020026020010181815250505b610b1c600182613ae3565b9050610a01565b506000826001600160401b03811115610b4c57634e487b7160e01b600052604160045260246000fd5b604051908082528060200260200182016040528015610b75578160200160208202803683370190505b5090506000925060005b8251811015610bed57828181518110610ba857634e487b7160e01b600052603260045260246000fd5b6020026020010151828281518110610bd057634e487b7160e01b600052603260045260246000fd5b6020908102919091010152610be6600182613ae3565b9050610b7f565b5093505050505b92915050565b600d5460ff1681565b610c0b611f31565b6001600160a01b0316610c1c6115bb565b6001600160a01b031614610c425760405162461bcd60e51b81526004016108d3906137bb565b6000828152600e60209081526040909120825161098b92840190612ace565b60085490565b73892e10cb1299c16e469cf0f79f18cca639d00f5b81565b610c87612b52565b6000828152600b60209081526040918290208251608081018452815481526001820154818401526002820154818501526003820180548551818602810186019096528086529194929360608601939290830182828015610d0657602002820191906000526020600020905b815481526020019060010190808311610cf2575b5050505050815250509050919050565b610d27610d21611f31565b82611fa3565b610d435760405162461bcd60e51b81526004016108d390613962565b61098b838383612028565b6000610d59836113ff565b8210610d775760405162461bcd60e51b81526004016108d390613365565b506001600160a01b03919091166000908152600660209081526040808320938352929052205490565b6000805b8351811015610df55782848281518110610dce57634e487b7160e01b600052603260045260246000fd5b60200260200101511415610de3579050610bf4565b610dee600182613ae3565b9050610da4565b50509051919050565b6000818152600b602052604090206001810154606091829160001914610fda576040805160028082526060820190925290816020015b610e3c612b52565b815260200190600190039081610e34579050509150600b60008260010154815260200190815260200160002060405180608001604052908160008201548152602001600182015481526020016002820154815260200160038201805480602002602001604051908101604052809291908181526020018280548015610ee057602002820191906000526020600020905b815481526020019060010190808311610ecc575b50505050508152505082600081518110610f0a57634e487b7160e01b600052603260045260246000fd5b6020026020010181905250600b60008260020154815260200190815260200160002060405180608001604052908160008201548152602001600182015481526020016002820154815260200160038201805480602002602001604051908101604052809291908181526020018280548015610fa457602002820191906000526020600020905b815481526020019060010190808311610f90575b50505050508152505082600181518110610fce57634e487b7160e01b600052603260045260246000fd5b60200260200101819052505b5092915050565b61098b838383604051806020016040528060008152506117a9565b60606000611009836113ff565b90506000816001600160401b0381111561103357634e487b7160e01b600052604160045260246000fd5b60405190808252806020026020018201604052801561105c578160200160208202803683370190505b50905060008061106a610c61565b905060005b818110156110e757866001600160a01b031661108d610561836112c3565b6001600160a01b031614156110d5578084846110a881613bac565b9550815181106110c857634e487b7160e01b600052603260045260246000fd5b6020026020010181815250505b806110df81613bac565b91505061106f565b509195945050505050565b6000818152600b602052604081206003810154606092906001600160401b0381111561112e57634e487b7160e01b600052604160045260246000fd5b60405190808252806020026020018201604052801561116757816020015b611154612b52565b81526020019060019003908161114c5790505b50905060005b600383015481101561127757600b60008460030183815481106111a057634e487b7160e01b600052603260045260246000fd5b906000526020600020015481526020019081526020016000206040518060800160405290816000820154815260200160018201548152602001600282015481526020016003820180548060200260200160405190810160405280929190818152602001828054801561123157602002820191906000526020600020905b81548152602001906001019080831161121d575b50505050508152505082828151811061125a57634e487b7160e01b600052603260045260246000fd5b6020908102919091010152611270600182613ae3565b905061116d565b509392505050565b611287611f31565b6001600160a01b03166112986115bb565b6001600160a01b0316146112be5760405162461bcd60e51b81526004016108d3906137bb565b601255565b60006112cd610c61565b82106112eb5760405162461bcd60e51b81526004016108d3906139de565b6008828154811061130c57634e487b7160e01b600052603260045260246000fd5b90600052602060002001549050919050565b73396823f49aa9f0e3fac4b939bc27ad5cd88264db81565b6000818152600260205260408120546001600160a01b0316806107fa5760405162461bcd60e51b81526004016108d39061366b565b600f805461137890613b71565b80601f01602080910402602001604051908101604052809291908181526020018280546113a490613b71565b80156113f15780601f106113c6576101008083540402835291602001916113f1565b820191906000526020600020905b8154815290600101906020018083116113d457829003601f168201915b505050505081565b60105481565b60006001600160a01b0382166114275760405162461bcd60e51b81526004016108d390613621565b506001600160a01b031660009081526003602052604090205490565b61144b611f31565b6001600160a01b031661145c6115bb565b6001600160a01b0316146114825760405162461bcd60e51b81526004016108d3906137bb565b61148c6000612155565b565b61277581565b600c5481565b3373396823f49aa9f0e3fac4b939bc27ad5cd88264db14806114cf575033733de2f28435f5e1110f7c2a4a0fb963b7509d2c85145b806114f257506114dd6115bb565b6001600160a01b0316336001600160a01b0316145b61150e5760405162461bcd60e51b81526004016108d390613a2a565b476402540be4008110156115345760405162461bcd60e51b81526004016108d390613337565b600061154c60646115468460056121a7565b906121ba565b905061156c73396823f49aa9f0e3fac4b939bc27ad5cd88264db826121c6565b6115a0733de2f28435f5e1110f7c2a4a0fb963b7509d2c856103e86115918486613b2e565b61159b9190613b2e565b6121c6565b5050565b60006010546127756115b69190613b2e565b905090565b600a546001600160a01b031690565b6000600c54620151806115dd9190613ae3565b421115905090565b60606001805461082990613b71565b6115fc611f31565b6001600160a01b0316826001600160a01b0316141561162d5760405162461bcd60e51b81526004016108d3906134c3565b806005600061163a611f31565b6001600160a01b03908116825260208083019390935260409182016000908120918716808252919093529120805460ff19169215159290921790915561167e611f31565b6001600160a01b03167f17307eab39ab6107e8899845ad3d59bd9653f200f220920489ca2b5937696c31836040516116b69190613319565b60405180910390a35050565b6116cb82611f14565b80156116db57506116db81611f14565b6116f75760405162461bcd60e51b81526004016108d3906139b3565b808214156117175760405162461bcd60e51b81526004016108d3906136b4565b60006127756011546117299190613ae3565b9050611736838383612242565b6117403382612335565b6000818152600e60209081526040909120855161175f92870190612ace565b506001601160008282546117739190613ae3565b909155505060405181907f8ef1ea5ce94d405f55ffed5be4e495bdf6a9363d5b7af4fe3f4d66678d4ac84f90600090a250505050565b6117ba6117b4611f31565b83611fa3565b6117d65760405162461bcd60e51b81526004016108d390613962565b6117e28484848461234f565b50505050565b6117f0611f31565b6001600160a01b03166118016115bb565b6001600160a01b0316146118275760405162461bcd60e51b81526004016108d3906137bb565b600d805460ff191682151517908190556040517f10e1c3fcaff06b68391033547e8f9bb8067d7c4a2e32659b0629153814d242d39161186b9160ff90911690613319565b60405180910390a150565b66f8b0a10e47000081565b600d5460ff16156118a45760405162461bcd60e51b81526004016108d390613720565b6118ac6115ca565b15611906576012546118e4336040516020016118c89190613165565b6040516020818303038152906040528051906020012084612382565b146119015760405162461bcd60e51b81526004016108d3906138f4565b61193a565b60135461191d826040516020016118c89190613190565b1461193a5760405162461bcd60e51b81526004016108d3906134fa565b6127756010541061195d5760405162461bcd60e51b81526004016108d390613525565b66f8b0a10e4700003410156119845760405162461bcd60e51b81526004016108d390613888565b600f611991601054612433565b6040516020016119a29291906131ac565b60408051601f198184030181529181526010546000908152600e602090815291902082516119d593919290910190612ace565b506119e160105461254d565b6119ed33601054612335565b6010546040517fe022f58b17edead5c8a541758e9b66796ebfbf27d6fd8044500f2468ac6e39fc90600090a2600160106000828254611a2c9190613ae3565b90915550505050565b6060611a4082611f14565b611a5c5760405162461bcd60e51b81526004016108d390613839565b6000828152600e602052604090208054611a7590613b71565b80601f0160208091040260200160405190810160405280929190818152602001828054611aa190613b71565b8015611aee5780601f10611ac357610100808354040283529160200191611aee565b820191906000526020600020905b815481529060010190602001808311611ad157829003601f168201915b50505050509050919050565b611b02611f31565b6001600160a01b0316611b136115bb565b6001600160a01b031614611b395760405162461bcd60e51b81526004016108d3906137bb565b601355565b611b46611f31565b6001600160a01b0316611b576115bb565b6001600160a01b031614611b7d5760405162461bcd60e51b81526004016108d3906137bb565b61277560105410611ba05760405162461bcd60e51b81526004016108d390613791565b601054611baf90612775613b2e565b815114611bce5760405162461bcd60e51b81526004016108d390613594565b6010545b612775811015611c5d578160105482611beb9190613b2e565b81518110611c0957634e487b7160e01b600052603260045260246000fd5b6020026020010151600e60008381526020019081526020016000209080519060200190611c37929190612ace565b50611c418161254d565b611c4b8382612335565b80611c5581613bac565b915050611bd2565b505061277560105550565b6001600160a01b03918216600090815260056020908152604080832093909416825291909152205460ff1690565b60606000611ca48484610990565b9050600081516001600160401b03811115611ccf57634e487b7160e01b600052604160045260246000fd5b604051908082528060200260200182016040528015611d0857816020015b611cf5612b52565b815260200190600190039081611ced5790505b50905060005b8251811015611e0f57600b6000848381518110611d3b57634e487b7160e01b600052603260045260246000fd5b6020026020010151815260200190815260200160002060405180608001604052908160008201548152602001600182015481526020016002820154815260200160038201805480602002602001604051908101604052809291908181526020018280548015611dc957602002820191906000526020600020905b815481526020019060010190808311611db5575b505050505081525050828281518110611df257634e487b7160e01b600052603260045260246000fd5b6020908102919091010152611e08600182613ae3565b9050611d0e565b50949350505050565b611e20611f31565b6001600160a01b0316611e316115bb565b6001600160a01b031614611e575760405162461bcd60e51b81526004016108d3906137bb565b42600c55565b611e65611f31565b6001600160a01b0316611e766115bb565b6001600160a01b031614611e9c5760405162461bcd60e51b81526004016108d3906137bb565b6001600160a01b038116611ec25760405162461bcd60e51b81526004016108d390613402565b611ecb81612155565b50565b3b151590565b60006001600160e01b031982166380ac58cd60e01b1480611f0557506001600160e01b03198216635b5e139f60e01b145b806107fa57506107fa82612601565b6000908152600260205260409020546001600160a01b0316151590565b3390565b600081815260046020526040902080546001600160a01b0319166001600160a01b0384169081179091558190611f6a82611336565b6001600160a01b03167f8c5be1e5ebec7d5bd14f71427d1e84f3dd0314c0f7b2291e5b200ac8c7c3b92560405160405180910390a45050565b6000611fae82611f14565b611fca5760405162461bcd60e51b81526004016108d390613548565b6000611fd583611336565b9050806001600160a01b0316846001600160a01b031614806120105750836001600160a01b0316612005846108ac565b6001600160a01b0316145b8061202057506120208185611c68565b949350505050565b826001600160a01b031661203b82611336565b6001600160a01b0316146120615760405162461bcd60e51b81526004016108d3906137f0565b6001600160a01b0382166120875760405162461bcd60e51b81526004016108d39061347f565b61209283838361261a565b61209d600082611f35565b6001600160a01b03831660009081526003602052604081208054600192906120c6908490613b2e565b90915550506001600160a01b03821660009081526003602052604081208054600192906120f4908490613ae3565b909155505060008181526002602052604080822080546001600160a01b0319166001600160a01b0386811691821790925591518493918716917fddf252ad1be2c89b69c2b068fc378daa952ba7f163c4a11628f55a4df523b3ef91a4505050565b600a80546001600160a01b038381166001600160a01b0319831681179093556040519116919082907f8be0079c531659141344cd1fd0a4f28419497f9722a3daafe3b4186f6b6457e090600090a35050565b60006121b38284613b0f565b9392505050565b60006121b38284613afb565b6000826001600160a01b0316826040516121df90613252565b60006040518083038185875af1925050503d806000811461221c576040519150601f19603f3d011682016040523d82523d6000602084013e612221565b606091505b505090508061098b5760405162461bcd60e51b81526004016108d390613938565b60405180608001604052806000815260200184815260200183815260200160006001600160401b0381111561228757634e487b7160e01b600052604160045260246000fd5b6040519080825280602002602001820160405280156122b0578160200160208202803683370190505b5090526000828152600b602090815260409182902083518155838201516001820155918301516002830155606083015180516122f29260038501920190612b7a565b5050506000928352600b60209081526040808520600390810180546001818101835591885284882001859055948652908520018054938401815584529092200155565b6115a08282604051806020016040528060008152506126a3565b61235a848484612028565b612366848484846126d6565b6117e25760405162461bcd60e51b81526004016108d3906133b0565b600082815b83518110156112775760008482815181106123b257634e487b7160e01b600052603260045260246000fd5b60200260200101519050808310156123f45782816040516020016123d7929190613182565b604051602081830303815290604052805190602001209250612420565b8083604051602001612407929190613182565b6040516020818303038152906040528051906020012092505b508061242b81613bac565b915050612387565b60608161245857506040805180820190915260018152600360fc1b60208201526107fd565b8160005b8115612482578061246c81613bac565b915061247b9050600a83613afb565b915061245c565b6000816001600160401b038111156124aa57634e487b7160e01b600052604160045260246000fd5b6040519080825280601f01601f1916602001820160405280156124d4576020820181803683370190505b5090505b8415612020576124e9600183613b2e565b91506124f6600a86613bc7565b612501906030613ae3565b60f81b81838151811061252457634e487b7160e01b600052603260045260246000fd5b60200101906001600160f81b031916908160001a905350612546600a86613afb565b94506124d8565b6040518060800160405280600081526020016000198152602001600019815260200160006001600160401b0381111561259657634e487b7160e01b600052604160045260246000fd5b6040519080825280602002602001820160405280156125bf578160200160208202803683370190505b5090526000828152600b602090815260409182902083518155838201516001820155918301516002830155606083015180516117e29260038501920190612b7a565b6001600160e01b031981166301ffc9a760e01b14919050565b61262583838361098b565b6001600160a01b0383166126415761263c816127f1565b612664565b816001600160a01b0316836001600160a01b031614612664576126648382612835565b6001600160a01b0382166126805761267b816128d2565b61098b565b826001600160a01b0316826001600160a01b03161461098b5761098b82826129ab565b6126ad83836129ef565b6126ba60008484846126d6565b61098b5760405162461bcd60e51b81526004016108d3906133b0565b60006126ea846001600160a01b0316611ece565b156127e657836001600160a01b031663150b7a02612706611f31565b8786866040518563ffffffff1660e01b81526004016127289493929190613269565b602060405180830381600087803b15801561274257600080fd5b505af1925050508015612772575060408051601f3d908101601f1916820190925261276f91810190612fee565b60015b6127cc573d8080156127a0576040519150601f19603f3d011682016040523d82523d6000602084013e6127a5565b606091505b5080516127c45760405162461bcd60e51b81526004016108d3906133b0565b805181602001fd5b6001600160e01b031916630a85bd0160e11b149050612020565b506001949350505050565b600880546000838152600960205260408120829055600182018355919091527ff3f7a9fe364faab93b216da50a3214154f22a0a2b415b23a84c8169e8b636ee30155565b60006001612842846113ff565b61284c9190613b2e565b60008381526007602052604090205490915080821461289f576001600160a01b03841660009081526006602090815260408083208584528252808320548484528184208190558352600790915290208190555b5060009182526007602090815260408084208490556001600160a01b039094168352600681528383209183525290812055565b6008546000906128e490600190613b2e565b6000838152600960205260408120546008805493945090928490811061291a57634e487b7160e01b600052603260045260246000fd5b90600052602060002001549050806008838154811061294957634e487b7160e01b600052603260045260246000fd5b600091825260208083209091019290925582815260099091526040808220849055858252812055600880548061298f57634e487b7160e01b600052603160045260246000fd5b6001900381819060005260206000200160009055905550505050565b60006129b6836113ff565b6001600160a01b039093166000908152600660209081526040808320868452825280832085905593825260079052919091209190915550565b6001600160a01b038216612a155760405162461bcd60e51b81526004016108d3906136eb565b612a1e81611f14565b15612a3b5760405162461bcd60e51b81526004016108d390613448565b612a476000838361261a565b6001600160a01b0382166000908152600360205260408120805460019290612a70908490613ae3565b909155505060008181526002602052604080822080546001600160a01b0319166001600160a01b03861690811790915590518392907fddf252ad1be2c89b69c2b068fc378daa952ba7f163c4a11628f55a4df523b3ef908290a45050565b828054612ada90613b71565b90600052602060002090601f016020900481019282612afc5760008555612b42565b82601f10612b1557805160ff1916838001178555612b42565b82800160010185558215612b42579182015b82811115612b42578251825591602001919060010190612b27565b50612b4e929150612bb4565b5090565b6040518060800160405280600081526020016000815260200160008152602001606081525090565b828054828255906000526020600020908101928215612b425791602002820182811115612b42578251825591602001919060010190612b27565b5b80821115612b4e5760008155600101612bb5565b60006001600160401b03831115612be257612be2613c07565b612bf5601f8401601f1916602001613a8b565b9050828152838383011115612c0957600080fd5b828260208301376000602084830101529392505050565b80356001600160a01b03811681146107fd57600080fd5b803580151581146107fd57600080fd5b600082601f830112612c57578081fd5b6121b383833560208501612bc9565b600060208284031215612c77578081fd5b6121b382612c20565b60008060408385031215612c92578081fd5b612c9b83612c20565b9150612ca960208401612c20565b90509250929050565b600080600060608486031215612cc6578081fd5b612ccf84612c20565b9250612cdd60208501612c20565b9150604084013590509250925092565b60008060008060808587031215612d02578081fd5b612d0b85612c20565b9350612d1960208601612c20565b92506040850135915060608501356001600160401b03811115612d3a578182fd5b8501601f81018713612d4a578182fd5b612d5987823560208401612bc9565b91505092959194509250565b60008060408385031215612d77578182fd5b612d8083612c20565b91506020808401356001600160401b03811115612d9b578283fd5b8401601f81018613612dab578283fd5b8035612dbe612db982613ab4565b613a8b565b81815283810190838501865b84811015612df357612de18b888435890101612c47565b84529286019290860190600101612dca565b5096999098509650505050505050565b60008060408385031215612e15578182fd5b612e1e83612c20565b9150612ca960208401612c37565b60008060408385031215612e3e578182fd5b612e4783612c20565b946020939093013593505050565b60008060408385031215612e67578182fd5b82356001600160401b0380821115612e7d578384fd5b818501915085601f830112612e90578384fd5b81356020612ea0612db983613ab4565b82815281810190858301838502870184018b1015612ebc578889fd5b8896505b84871015612ede578035835260019690960195918301918301612ec0565b5096505086013592505080821115612ef4578283fd5b50612f0185828601612c47565b9150509250929050565b60008060408385031215612f1d578182fd5b82356001600160401b03811115612f32578283fd5b8301601f81018513612f42578283fd5b80356020612f52612db983613ab4565b82815281810190848301838502860184018a1015612f6e578788fd5b8795505b84861015612f90578035835260019590950194918301918301612f72565b5098969091013596505050505050565b600060208284031215612fb1578081fd5b6121b382612c37565b600060208284031215612fcb578081fd5b5035919050565b600060208284031215612fe3578081fd5b81356121b381613c1d565b600060208284031215612fff578081fd5b81516121b381613c1d565b60008060006060848603121561301e578081fd5b83356001600160401b03811115613033578182fd5b61303f86828701612c47565b9660208601359650604090950135949350505050565b60008060408385031215613067578182fd5b8235915060208301356001600160401b03811115613083578182fd5b612f0185828601612c47565b600080604083850312156130a1578182fd5b50508035926020909101359150565b6000815180845260208085019450808401835b838110156130df578151875295820195908201906001016130c3565b509495945050505050565b60008151808452613102816020860160208601613b45565b601f01601f19169290920160200192915050565b60008151613128818560208601613b45565b9290920192915050565b600081518352602082015160208401526040820151604084015260608201516080606085015261202060808501826130b0565b60609190911b6bffffffffffffffffffffffff1916815260140190565b918252602082015260400190565b600082516131a2818460208701613b45565b9190910192915050565b82546000908190600281046001808316806131c857607f831692505b60208084108214156131e857634e487b7160e01b87526022600452602487fd5b8180156131fc576001811461320d57613239565b60ff19861689528489019650613239565b6132168b613ad7565b885b868110156132315781548b820152908501908301613218565b505084890196505b5050505050506132498185613116565b95945050505050565b90565b6001600160a01b0391909116815260200190565b6001600160a01b038581168252841660208201526040810183905260806060820181905260009061329c908301846130ea565b9695505050505050565b6000602080830181845280855180835260408601915060408482028701019250838701855b828110156132f957603f198886030184526132e7858351613132565b945092850192908501906001016132cb565b5092979650505050505050565b6000602082526121b360208301846130b0565b901515815260200190565b6000602082526121b360208301846130ea565b60208082526014908201527310985b185b98d9481a5cc81d1bdbc81cdb585b1b60621b604082015260600190565b6020808252602b908201527f455243373231456e756d657261626c653a206f776e657220696e646578206f7560408201526a74206f6620626f756e647360a81b606082015260800190565b60208082526032908201527f4552433732313a207472616e7366657220746f206e6f6e20455243373231526560408201527131b2b4bb32b91034b6b83632b6b2b73a32b960711b606082015260800190565b60208082526026908201527f4f776e61626c653a206e6577206f776e657220697320746865207a65726f206160408201526564647265737360d01b606082015260800190565b6020808252601c908201527f4552433732313a20746f6b656e20616c7265616479206d696e74656400000000604082015260600190565b60208082526024908201527f4552433732313a207472616e7366657220746f20746865207a65726f206164646040820152637265737360e01b606082015260800190565b60208082526019908201527f4552433732313a20617070726f766520746f2063616c6c657200000000000000604082015260600190565b602080825260119082015270139bdd08185d5d1a195b9d1a58d85d1959607a1b604082015260600190565b60208082526009908201526813585e081b1a5b5a5d60ba1b604082015260600190565b6020808252602c908201527f4552433732313a206f70657261746f7220717565727920666f72206e6f6e657860408201526b34b9ba32b73a103a37b5b2b760a11b606082015260800190565b6020808252601690820152750a8ded6cadcaae4d2e640e6d0deead8c840dac2e8c6d60531b604082015260600190565b60208082526038908201527f4552433732313a20617070726f76652063616c6c6572206973206e6f74206f7760408201527f6e6572206e6f7220617070726f76656420666f7220616c6c0000000000000000606082015260800190565b6020808252602a908201527f4552433732313a2062616c616e636520717565727920666f7220746865207a65604082015269726f206164647265737360b01b606082015260800190565b60208082526029908201527f4552433732313a206f776e657220717565727920666f72206e6f6e657869737460408201526832b73a103a37b5b2b760b91b606082015260800190565b6020808252601a908201527f506172656e74732073686f756c64206e6f742062652073616d65000000000000604082015260600190565b6020808252818101527f4552433732313a206d696e7420746f20746865207a65726f2061646472657373604082015260600190565b6020808252600b908201526a14d85b194814185d5cd95960aa1b604082015260600190565b6020808252602c908201527f4552433732313a20617070726f76656420717565727920666f72206e6f6e657860408201526b34b9ba32b73a103a37b5b2b760a11b606082015260800190565b60208082526010908201526f4e6f20756e736f6c6420746f6b656e7360801b604082015260600190565b6020808252818101527f4f776e61626c653a2063616c6c6572206973206e6f7420746865206f776e6572604082015260600190565b60208082526029908201527f4552433732313a207472616e73666572206f6620746f6b656e2074686174206960408201526839903737ba1037bbb760b91b606082015260800190565b6020808252602f908201527f4552433732314d657461646174613a2055524920717565727920666f72206e6f60408201526e3732bc34b9ba32b73a103a37b5b2b760891b606082015260800190565b60208082526011908201527056616c75652062656c6f7720707269636560781b604082015260600190565b60208082526021908201527f4552433732313a20617070726f76616c20746f2063757272656e74206f776e656040820152603960f91b606082015260800190565b60208082526024908201527f41646472657373206973206e6f7420696e636c7564656420696e207768697465604082015263131a5cdd60e21b606082015260800190565b60208082526010908201526f2a3930b739b332b9103330b4b632b21760811b604082015260600190565b60208082526031908201527f4552433732313a207472616e736665722063616c6c6572206973206e6f74206f6040820152701ddb995c881b9bdc88185c1c1c9bdd9959607a1b606082015260800190565b60208082526011908201527014185c995b9d1cc81b9bdd08195e1a5cdd607a1b604082015260600190565b6020808252602c908201527f455243373231456e756d657261626c653a20676c6f62616c20696e646578206f60408201526b7574206f6620626f756e647360a01b606082015260800190565b60208082526025908201527f596f7520646f6e27742068617665207769746864726177696e672070726976696040820152646c6564676560d81b606082015260800190565b6000602082526121b36020830184613132565b90815260200190565b6040518181016001600160401b0381118282101715613aac57613aac613c07565b604052919050565b60006001600160401b03821115613acd57613acd613c07565b5060209081020190565b60009081526020902090565b60008219821115613af657613af6613bdb565b500190565b600082613b0a57613b0a613bf1565b500490565b6000816000190483118215151615613b2957613b29613bdb565b500290565b600082821015613b4057613b40613bdb565b500390565b60005b83811015613b60578181015183820152602001613b48565b838111156117e25750506000910152565b600281046001821680613b8557607f821691505b60208210811415613ba657634e487b7160e01b600052602260045260246000fd5b50919050565b6000600019821415613bc057613bc0613bdb565b5060010190565b600082613bd657613bd6613bf1565b500690565b634e487b7160e01b600052601160045260246000fd5b634e487b7160e01b600052601260045260246000fd5b634e487b7160e01b600052604160045260246000fd5b6001600160e01b031981168114611ecb57600080fdfea264697066735822122093c146bc2c5b782bed0323f88f8d52066770cbf2c11be12e69520fd16ef8c8ed64736f6c63430008000033",
  "devdoc": {
    "kind": "dev",
    "methods": {
      "approve(address,uint256)": {
        "details": "See {IERC721-approve}."
      },
      "balanceOf(address)": {
        "details": "See {IERC721-balanceOf}."
      },
      "getApproved(uint256)": {
        "details": "See {IERC721-getApproved}."
      },
      "isApprovedForAll(address,address)": {
        "details": "See {IERC721-isApprovedForAll}."
      },
      "name()": {
        "details": "See {IERC721Metadata-name}."
      },
      "owner()": {
        "details": "Returns the address of the current owner."
      },
      "ownerOf(uint256)": {
        "details": "See {IERC721-ownerOf}."
      },
      "renounceOwnership()": {
        "details": "Leaves the contract without owner. It will not be possible to call `onlyOwner` functions anymore. Can only be called by the current owner. NOTE: Renouncing ownership will leave the contract without an owner, thereby removing any functionality that is only available to the owner."
      },
      "safeTransferFrom(address,address,uint256)": {
        "details": "See {IERC721-safeTransferFrom}."
      },
      "safeTransferFrom(address,address,uint256,bytes)": {
        "details": "See {IERC721-safeTransferFrom}."
      },
      "setApprovalForAll(address,bool)": {
        "details": "See {IERC721-setApprovalForAll}."
      },
      "supportsInterface(bytes4)": {
        "details": "See {IERC165-supportsInterface}."
      },
      "symbol()": {
        "details": "See {IERC721Metadata-symbol}."
      },
      "tokenByIndex(uint256)": {
        "details": "See {IERC721Enumerable-tokenByIndex}."
      },
      "tokenOfOwnerByIndex(address,uint256)": {
        "details": "See {IERC721Enumerable-tokenOfOwnerByIndex}."
      },
      "tokenURI(uint256)": {
        "details": "See {IERC721Metadata-tokenURI}."
      },
      "totalSupply()": {
        "details": "See {IERC721Enumerable-totalSupply}."
      },
      "transferFrom(address,address,uint256)": {
        "details": "See {IERC721-transferFrom}."
      },
      "transferOwnership(address)": {
        "details": "Transfers ownership of the contract to a new account (`newOwner`). Can only be called by the current owner."
      }
    },
    "version": 1
  },
  "userdoc": {
    "kind": "user",
    "methods": {},
    "version": 1
  },
  "storageLayout": {
    "storage": [
      {
        "astId": 129,
        "contract": "contracts/BrainDanceNft.sol:BrainDanceNft",
        "label": "_name",
        "offset": 0,
        "slot": "0",
        "type": "t_string_storage"
      },
      {
        "astId": 131,
        "contract": "contracts/BrainDanceNft.sol:BrainDanceNft",
        "label": "_symbol",
        "offset": 0,
        "slot": "1",
        "type": "t_string_storage"
      },
      {
        "astId": 135,
        "contract": "contracts/BrainDanceNft.sol:BrainDanceNft",
        "label": "_owners",
        "offset": 0,
        "slot": "2",
        "type": "t_mapping(t_uint256,t_address)"
      },
      {
        "astId": 139,
        "contract": "contracts/BrainDanceNft.sol:BrainDanceNft",
        "label": "_balances",
        "offset": 0,
        "slot": "3",
        "type": "t_mapping(t_address,t_uint256)"
      },
      {
        "astId": 143,
        "contract": "contracts/BrainDanceNft.sol:BrainDanceNft",
        "label": "_tokenApprovals",
        "offset": 0,
        "slot": "4",
        "type": "t_mapping(t_uint256,t_address)"
      },
      {
        "astId": 149,
        "contract": "contracts/BrainDanceNft.sol:BrainDanceNft",
        "label": "_operatorApprovals",
        "offset": 0,
        "slot": "5",
        "type": "t_mapping(t_address,t_mapping(t_address,t_bool))"
      },
      {
        "astId": 1068,
        "contract": "contracts/BrainDanceNft.sol:BrainDanceNft",
        "label": "_ownedTokens",
        "offset": 0,
        "slot": "6",
        "type": "t_mapping(t_address,t_mapping(t_uint256,t_uint256))"
      },
      {
        "astId": 1072,
        "contract": "contracts/BrainDanceNft.sol:BrainDanceNft",
        "label": "_ownedTokensIndex",
        "offset": 0,
        "slot": "7",
        "type": "t_mapping(t_uint256,t_uint256)"
      },
      {
        "astId": 1075,
        "contract": "contracts/BrainDanceNft.sol:BrainDanceNft",
        "label": "_allTokens",
        "offset": 0,
        "slot": "8",
        "type": "t_array(t_uint256)dyn_storage"
      },
      {
        "astId": 1079,
        "contract": "contracts/BrainDanceNft.sol:BrainDanceNft",
        "label": "_allTokensIndex",
        "offset": 0,
        "slot": "9",
        "type": "t_mapping(t_uint256,t_uint256)"
      },
      {
        "astId": 7,
        "contract": "contracts/BrainDanceNft.sol:BrainDanceNft",
        "label": "_owner",
        "offset": 0,
        "slot": "10",
        "type": "t_address"
      },
      {
        "astId": 3047,
        "contract": "contracts/BrainDanceNft.sol:BrainDanceNft",
        "label": "_heros",
        "offset": 0,
        "slot": "11",
        "type": "t_mapping(t_uint256,t_struct(Hero)3042_storage)"
      },
      {
        "astId": 2355,
        "contract": "contracts/BrainDanceNft.sol:BrainDanceNft",
        "label": "startTime",
        "offset": 0,
        "slot": "12",
        "type": "t_uint256"
      },
      {
        "astId": 2358,
        "contract": "contracts/BrainDanceNft.sol:BrainDanceNft",
        "label": "bPaused",
        "offset": 0,
        "slot": "13",
        "type": "t_bool"
      },
      {
        "astId": 2362,
        "contract": "contracts/BrainDanceNft.sol:BrainDanceNft",
        "label": "_tokenUris",
        "offset": 0,
        "slot": "14",
        "type": "t_mapping(t_uint256,t_string_storage)"
      },
      {
        "astId": 2364,
        "contract": "contracts/BrainDanceNft.sol:BrainDanceNft",
        "label": "baseURI",
        "offset": 0,
        "slot": "15",
        "type": "t_string_storage"
      },
      {
        "astId": 2367,
        "contract": "contracts/BrainDanceNft.sol:BrainDanceNft",
        "label": "mintedInitialTokenCount",
        "offset": 0,
        "slot": "16",
        "type": "t_uint256"
      },
      {
        "astId": 2370,
        "contract": "contracts/BrainDanceNft.sol:BrainDanceNft",
        "label": "breedTokenCount",
        "offset": 0,
        "slot": "17",
        "type": "t_uint256"
      },
      {
        "astId": 2373,
        "contract": "contracts/BrainDanceNft.sol:BrainDanceNft",
        "label": "_rootWhitelist",
        "offset": 0,
        "slot": "18",
        "type": "t_bytes32"
      },
      {
        "astId": 2376,
        "contract": "contracts/BrainDanceNft.sol:BrainDanceNft",
        "label": "_rootAuth",
        "offset": 0,
        "slot": "19",
        "type": "t_bytes32"
      }
    ],
    "types": {
      "t_address": {
        "encoding": "inplace",
        "label": "address",
        "numberOfBytes": "20"
      },
      "t_array(t_uint256)dyn_storage": {
        "base": "t_uint256",
        "encoding": "dynamic_array",
        "label": "uint256[]",
        "numberOfBytes": "32"
      },
      "t_bool": {
        "encoding": "inplace",
        "label": "bool",
        "numberOfBytes": "1"
      },
      "t_bytes32": {
        "encoding": "inplace",
        "label": "bytes32",
        "numberOfBytes": "32"
      },
      "t_mapping(t_address,t_bool)": {
        "encoding": "mapping",
        "key": "t_address",
        "label": "mapping(address => bool)",
        "numberOfBytes": "32",
        "value": "t_bool"
      },
      "t_mapping(t_address,t_mapping(t_address,t_bool))": {
        "encoding": "mapping",
        "key": "t_address",
        "label": "mapping(address => mapping(address => bool))",
        "numberOfBytes": "32",
        "value": "t_mapping(t_address,t_bool)"
      },
      "t_mapping(t_address,t_mapping(t_uint256,t_uint256))": {
        "encoding": "mapping",
        "key": "t_address",
        "label": "mapping(address => mapping(uint256 => uint256))",
        "numberOfBytes": "32",
        "value": "t_mapping(t_uint256,t_uint256)"
      },
      "t_mapping(t_address,t_uint256)": {
        "encoding": "mapping",
        "key": "t_address",
        "label": "mapping(address => uint256)",
        "numberOfBytes": "32",
        "value": "t_uint256"
      },
      "t_mapping(t_uint256,t_address)": {
        "encoding": "mapping",
        "key": "t_uint256",
        "label": "mapping(uint256 => address)",
        "numberOfBytes": "32",
        "value": "t_address"
      },
      "t_mapping(t_uint256,t_string_storage)": {
        "encoding": "mapping",
        "key": "t_uint256",
        "label": "mapping(uint256 => string)",
        "numberOfBytes": "32",
        "value": "t_string_storage"
      },
      "t_mapping(t_uint256,t_struct(Hero)3042_storage)": {
        "encoding": "mapping",
        "key": "t_uint256",
        "label": "mapping(uint256 => struct HeroFactory.Hero)",
        "numberOfBytes": "32",
        "value": "t_struct(Hero)3042_storage"
      },
      "t_mapping(t_uint256,t_uint256)": {
        "encoding": "mapping",
        "key": "t_uint256",
        "label": "mapping(uint256 => uint256)",
        "numberOfBytes": "32",
        "value": "t_uint256"
      },
      "t_string_storage": {
        "encoding": "bytes",
        "label": "string",
        "numberOfBytes": "32"
      },
      "t_struct(Hero)3042_storage": {
        "encoding": "inplace",
        "label": "struct HeroFactory.Hero",
        "members": [
          {
            "astId": 3034,
            "contract": "contracts/BrainDanceNft.sol:BrainDanceNft",
            "label": "traits",
            "offset": 0,
            "slot": "0",
            "type": "t_uint256"
          },
          {
            "astId": 3036,
            "contract": "contracts/BrainDanceNft.sol:BrainDanceNft",
            "label": "fatherId",
            "offset": 0,
            "slot": "1",
            "type": "t_uint256"
          },
          {
            "astId": 3038,
            "contract": "contracts/BrainDanceNft.sol:BrainDanceNft",
            "label": "motherId",
            "offset": 0,
            "slot": "2",
            "type": "t_uint256"
          },
          {
            "astId": 3041,
            "contract": "contracts/BrainDanceNft.sol:BrainDanceNft",
            "label": "childrenIds",
            "offset": 0,
            "slot": "3",
            "type": "t_array(t_uint256)dyn_storage"
          }
        ],
        "numberOfBytes": "128"
      },
      "t_uint256": {
        "encoding": "inplace",
        "label": "uint256",
        "numberOfBytes": "32"
      }
    }
  }
}