{
  "address": "0x590968697C8b92672F9e8d6e7F86DC71892B7cFF",
  "abi": [
    {
      "inputs": [
        {
          "internalType": "string",
          "name": "name_",
          "type": "string"
        },
        {
          "internalType": "string",
          "name": "symbol_",
          "type": "string"
        },
        {
          "internalType": "string",
          "name": "baseURI_",
          "type": "string"
        }
      ],
      "stateMutability": "nonpayable",
      "type": "constructor"
    },
    {
      "anonymous": false,
      "inputs": [
        {
          "indexed": true,
          "internalType": "address",
          "name": "owner",
          "type": "address"
        },
        {
          "indexed": true,
          "internalType": "address",
          "name": "approved",
          "type": "address"
        },
        {
          "indexed": true,
          "internalType": "uint256",
          "name": "tokenId",
          "type": "uint256"
        }
      ],
      "name": "Approval",
      "type": "event"
    },
    {
      "anonymous": false,
      "inputs": [
        {
          "indexed": true,
          "internalType": "address",
          "name": "owner",
          "type": "address"
        },
        {
          "indexed": true,
          "internalType": "address",
          "name": "operator",
          "type": "address"
        },
        {
          "indexed": false,
          "internalType": "bool",
          "name": "approved",
          "type": "bool"
        }
      ],
      "name": "ApprovalForAll",
      "type": "event"
    },
    {
      "anonymous": false,
      "inputs": [
        {
          "indexed": true,
          "internalType": "uint256",
          "name": "tokenId",
          "type": "uint256"
        }
      ],
      "name": "MintedNewNFT",
      "type": "event"
    },
    {
      "anonymous": false,
      "inputs": [
        {
          "indexed": true,
          "internalType": "address",
          "name": "previousOwner",
          "type": "address"
        },
        {
          "indexed": true,
          "internalType": "address",
          "name": "newOwner",
          "type": "address"
        }
      ],
      "name": "OwnershipTransferred",
      "type": "event"
    },
    {
      "anonymous": false,
      "inputs": [
        {
          "indexed": false,
          "internalType": "bool",
          "name": "pause",
          "type": "bool"
        }
      ],
      "name": "PauseEvent",
      "type": "event"
    },
    {
      "anonymous": false,
      "inputs": [
        {
          "indexed": true,
          "internalType": "address",
          "name": "from",
          "type": "address"
        },
        {
          "indexed": true,
          "internalType": "address",
          "name": "to",
          "type": "address"
        },
        {
          "indexed": true,
          "internalType": "uint256",
          "name": "tokenId",
          "type": "uint256"
        }
      ],
      "name": "Transfer",
      "type": "event"
    },
    {
      "inputs": [],
      "name": "ABC_ADDRESS",
      "outputs": [
        {
          "internalType": "address",
          "name": "",
          "type": "address"
        }
      ],
      "stateMutability": "view",
      "type": "function"
    },
    {
      "inputs": [],
      "name": "BREED_PRICE",
      "outputs": [
        {
          "internalType": "uint256",
          "name": "",
          "type": "uint256"
        }
      ],
      "stateMutability": "view",
      "type": "function"
    },
    {
      "inputs": [],
      "name": "INITIAL_TOKEN_COUNT",
      "outputs": [
        {
          "internalType": "uint256",
          "name": "",
          "type": "uint256"
        }
      ],
      "stateMutability": "view",
      "type": "function"
    },
    {
      "inputs": [],
      "name": "MINT_PRICE",
      "outputs": [
        {
          "internalType": "uint256",
          "name": "",
          "type": "uint256"
        }
      ],
      "stateMutability": "view",
      "type": "function"
    },
    {
      "inputs": [],
      "name": "TEST_ADDRESS",
      "outputs": [
        {
          "internalType": "address",
          "name": "",
          "type": "address"
        }
      ],
      "stateMutability": "view",
      "type": "function"
    },
    {
      "inputs": [
        {
          "internalType": "address[]",
          "name": "addrs",
          "type": "address[]"
        }
      ],
      "name": "addWhiteLists",
      "outputs": [],
      "stateMutability": "nonpayable",
      "type": "function"
    },
    {
      "inputs": [
        {
          "internalType": "address",
          "name": "to",
          "type": "address"
        },
        {
          "internalType": "uint256",
          "name": "tokenId",
          "type": "uint256"
        }
      ],
      "name": "approve",
      "outputs": [],
      "stateMutability": "nonpayable",
      "type": "function"
    },
    {
      "inputs": [
        {
          "internalType": "address",
          "name": "owner",
          "type": "address"
        }
      ],
      "name": "balanceOf",
      "outputs": [
        {
          "internalType": "uint256",
          "name": "",
          "type": "uint256"
        }
      ],
      "stateMutability": "view",
      "type": "function"
    },
    {
      "inputs": [],
      "name": "baseURI",
      "outputs": [
        {
          "internalType": "string",
          "name": "",
          "type": "string"
        }
      ],
      "stateMutability": "view",
      "type": "function"
    },
    {
      "inputs": [
        {
          "internalType": "uint256[]",
          "name": "array",
          "type": "uint256[]"
        },
        {
          "internalType": "uint256",
          "name": "val",
          "type": "uint256"
        }
      ],
      "name": "findIndex",
      "outputs": [
        {
          "internalType": "uint256",
          "name": "",
          "type": "uint256"
        }
      ],
      "stateMutability": "pure",
      "type": "function"
    },
    {
      "inputs": [
        {
          "internalType": "uint256",
          "name": "tokenId",
          "type": "uint256"
        }
      ],
      "name": "getApproved",
      "outputs": [
        {
          "internalType": "address",
          "name": "",
          "type": "address"
        }
      ],
      "stateMutability": "view",
      "type": "function"
    },
    {
      "inputs": [
        {
          "internalType": "uint256",
          "name": "tokenId_",
          "type": "uint256"
        }
      ],
      "name": "getChildren",
      "outputs": [
        {
          "components": [
            {
              "internalType": "uint256",
              "name": "traits",
              "type": "uint256"
            },
            {
              "internalType": "uint256",
              "name": "fatherId",
              "type": "uint256"
            },
            {
              "internalType": "uint256",
              "name": "motherId",
              "type": "uint256"
            },
            {
              "internalType": "uint256[]",
              "name": "childrenIds",
              "type": "uint256[]"
            }
          ],
          "internalType": "struct HeroFactory.Hero[]",
          "name": "",
          "type": "tuple[]"
        }
      ],
      "stateMutability": "view",
      "type": "function"
    },
    {
      "inputs": [
        {
          "internalType": "uint256",
          "name": "heroId1_",
          "type": "uint256"
        },
        {
          "internalType": "uint256",
          "name": "heroId2_",
          "type": "uint256"
        }
      ],
      "name": "getChildrenIdsWithParent",
      "outputs": [
        {
          "internalType": "uint256[]",
          "name": "",
          "type": "uint256[]"
        }
      ],
      "stateMutability": "view",
      "type": "function"
    },
    {
      "inputs": [
        {
          "internalType": "uint256",
          "name": "heroId1_",
          "type": "uint256"
        },
        {
          "internalType": "uint256",
          "name": "heroId2_",
          "type": "uint256"
        }
      ],
      "name": "getChildrenWithParent",
      "outputs": [
        {
          "components": [
            {
              "internalType": "uint256",
              "name": "traits",
              "type": "uint256"
            },
            {
              "internalType": "uint256",
              "name": "fatherId",
              "type": "uint256"
            },
            {
              "internalType": "uint256",
              "name": "motherId",
              "type": "uint256"
            },
            {
              "internalType": "uint256[]",
              "name": "childrenIds",
              "type": "uint256[]"
            }
          ],
          "internalType": "struct HeroFactory.Hero[]",
          "name": "",
          "type": "tuple[]"
        }
      ],
      "stateMutability": "view",
      "type": "function"
    },
    {
      "inputs": [
        {
          "internalType": "uint256",
          "name": "tokenId_",
          "type": "uint256"
        }
      ],
      "name": "getHero",
      "outputs": [
        {
          "components": [
            {
              "internalType": "uint256",
              "name": "traits",
              "type": "uint256"
            },
            {
              "internalType": "uint256",
              "name": "fatherId",
              "type": "uint256"
            },
            {
              "internalType": "uint256",
              "name": "motherId",
              "type": "uint256"
            },
            {
              "internalType": "uint256[]",
              "name": "childrenIds",
              "type": "uint256[]"
            }
          ],
          "internalType": "struct HeroFactory.Hero",
          "name": "",
          "type": "tuple"
        }
      ],
      "stateMutability": "view",
      "type": "function"
    },
    {
      "inputs": [
        {
          "internalType": "uint256",
          "name": "tokenId_",
          "type": "uint256"
        }
      ],
      "name": "getParent",
      "outputs": [
        {
          "components": [
            {
              "internalType": "uint256",
              "name": "traits",
              "type": "uint256"
            },
            {
              "internalType": "uint256",
              "name": "fatherId",
              "type": "uint256"
            },
            {
              "internalType": "uint256",
              "name": "motherId",
              "type": "uint256"
            },
            {
              "internalType": "uint256[]",
              "name": "childrenIds",
              "type": "uint256[]"
            }
          ],
          "internalType": "struct HeroFactory.Hero[]",
          "name": "",
          "type": "tuple[]"
        }
      ],
      "stateMutability": "view",
      "type": "function"
    },
    {
      "inputs": [
        {
          "internalType": "address",
          "name": "owner",
          "type": "address"
        },
        {
          "internalType": "address",
          "name": "operator",
          "type": "address"
        }
      ],
      "name": "isApprovedForAll",
      "outputs": [
        {
          "internalType": "bool",
          "name": "",
          "type": "bool"
        }
      ],
      "stateMutability": "view",
      "type": "function"
    },
    {
      "inputs": [
        {
          "internalType": "address",
          "name": "addr",
          "type": "address"
        }
      ],
      "name": "isWhiteList",
      "outputs": [
        {
          "internalType": "bool",
          "name": "",
          "type": "bool"
        }
      ],
      "stateMutability": "view",
      "type": "function"
    },
    {
      "inputs": [],
      "name": "mint",
      "outputs": [],
      "stateMutability": "payable",
      "type": "function"
    },
    {
      "inputs": [
        {
          "internalType": "string",
          "name": "tokenUri_",
          "type": "string"
        },
        {
          "internalType": "uint256",
          "name": "heroId1_",
          "type": "uint256"
        },
        {
          "internalType": "uint256",
          "name": "heroId2_",
          "type": "uint256"
        }
      ],
      "name": "mintBreedToken",
      "outputs": [],
      "stateMutability": "payable",
      "type": "function"
    },
    {
      "inputs": [
        {
          "internalType": "address",
          "name": "to_",
          "type": "address"
        },
        {
          "internalType": "string[]",
          "name": "tokenUris_",
          "type": "string[]"
        }
      ],
      "name": "mintUnsoldTokens",
      "outputs": [],
      "stateMutability": "nonpayable",
      "type": "function"
    },
    {
      "inputs": [],
      "name": "mintedInitialTokenCount",
      "outputs": [
        {
          "internalType": "uint256",
          "name": "",
          "type": "uint256"
        }
      ],
      "stateMutability": "view",
      "type": "function"
    },
    {
      "inputs": [],
      "name": "name",
      "outputs": [
        {
          "internalType": "string",
          "name": "",
          "type": "string"
        }
      ],
      "stateMutability": "view",
      "type": "function"
    },
    {
      "inputs": [],
      "name": "owner",
      "outputs": [
        {
          "internalType": "address",
          "name": "",
          "type": "address"
        }
      ],
      "stateMutability": "view",
      "type": "function"
    },
    {
      "inputs": [
        {
          "internalType": "uint256",
          "name": "tokenId",
          "type": "uint256"
        }
      ],
      "name": "ownerOf",
      "outputs": [
        {
          "internalType": "address",
          "name": "",
          "type": "address"
        }
      ],
      "stateMutability": "view",
      "type": "function"
    },
    {
      "inputs": [],
      "name": "remainTokenCount",
      "outputs": [
        {
          "internalType": "uint256",
          "name": "",
          "type": "uint256"
        }
      ],
      "stateMutability": "view",
      "type": "function"
    },
    {
      "inputs": [
        {
          "internalType": "address",
          "name": "addr",
          "type": "address"
        }
      ],
      "name": "removeWhiteList",
      "outputs": [],
      "stateMutability": "nonpayable",
      "type": "function"
    },
    {
      "inputs": [],
      "name": "renounceOwnership",
      "outputs": [],
      "stateMutability": "nonpayable",
      "type": "function"
    },
    {
      "inputs": [
        {
          "internalType": "address",
          "name": "from",
          "type": "address"
        },
        {
          "internalType": "address",
          "name": "to",
          "type": "address"
        },
        {
          "internalType": "uint256",
          "name": "tokenId",
          "type": "uint256"
        }
      ],
      "name": "safeTransferFrom",
      "outputs": [],
      "stateMutability": "nonpayable",
      "type": "function"
    },
    {
      "inputs": [
        {
          "internalType": "address",
          "name": "from",
          "type": "address"
        },
        {
          "internalType": "address",
          "name": "to",
          "type": "address"
        },
        {
          "internalType": "uint256",
          "name": "tokenId",
          "type": "uint256"
        },
        {
          "internalType": "bytes",
          "name": "_data",
          "type": "bytes"
        }
      ],
      "name": "safeTransferFrom",
      "outputs": [],
      "stateMutability": "nonpayable",
      "type": "function"
    },
    {
      "inputs": [
        {
          "internalType": "address",
          "name": "operator",
          "type": "address"
        },
        {
          "internalType": "bool",
          "name": "approved",
          "type": "bool"
        }
      ],
      "name": "setApprovalForAll",
      "outputs": [],
      "stateMutability": "nonpayable",
      "type": "function"
    },
    {
      "inputs": [
        {
          "internalType": "bool",
          "name": "pause",
          "type": "bool"
        }
      ],
      "name": "setPause",
      "outputs": [],
      "stateMutability": "nonpayable",
      "type": "function"
    },
    {
      "inputs": [],
      "name": "setStarttime",
      "outputs": [],
      "stateMutability": "nonpayable",
      "type": "function"
    },
    {
      "inputs": [
        {
          "internalType": "uint256",
          "name": "tokenId_",
          "type": "uint256"
        },
        {
          "internalType": "string",
          "name": "tokenUri_",
          "type": "string"
        }
      ],
      "name": "setTokenURI",
      "outputs": [],
      "stateMutability": "nonpayable",
      "type": "function"
    },
    {
      "inputs": [],
      "name": "startTime",
      "outputs": [
        {
          "internalType": "uint256",
          "name": "",
          "type": "uint256"
        }
      ],
      "stateMutability": "view",
      "type": "function"
    },
    {
      "inputs": [
        {
          "internalType": "bytes4",
          "name": "interfaceId",
          "type": "bytes4"
        }
      ],
      "name": "supportsInterface",
      "outputs": [
        {
          "internalType": "bool",
          "name": "",
          "type": "bool"
        }
      ],
      "stateMutability": "view",
      "type": "function"
    },
    {
      "inputs": [],
      "name": "symbol",
      "outputs": [
        {
          "internalType": "string",
          "name": "",
          "type": "string"
        }
      ],
      "stateMutability": "view",
      "type": "function"
    },
    {
      "inputs": [
        {
          "internalType": "uint256",
          "name": "index",
          "type": "uint256"
        }
      ],
      "name": "tokenByIndex",
      "outputs": [
        {
          "internalType": "uint256",
          "name": "",
          "type": "uint256"
        }
      ],
      "stateMutability": "view",
      "type": "function"
    },
    {
      "inputs": [
        {
          "internalType": "address",
          "name": "owner",
          "type": "address"
        },
        {
          "internalType": "uint256",
          "name": "index",
          "type": "uint256"
        }
      ],
      "name": "tokenOfOwnerByIndex",
      "outputs": [
        {
          "internalType": "uint256",
          "name": "",
          "type": "uint256"
        }
      ],
      "stateMutability": "view",
      "type": "function"
    },
    {
      "inputs": [
        {
          "internalType": "uint256",
          "name": "tokenId",
          "type": "uint256"
        }
      ],
      "name": "tokenURI",
      "outputs": [
        {
          "internalType": "string",
          "name": "",
          "type": "string"
        }
      ],
      "stateMutability": "view",
      "type": "function"
    },
    {
      "inputs": [],
      "name": "totalSupply",
      "outputs": [
        {
          "internalType": "uint256",
          "name": "",
          "type": "uint256"
        }
      ],
      "stateMutability": "view",
      "type": "function"
    },
    {
      "inputs": [
        {
          "internalType": "address",
          "name": "from",
          "type": "address"
        },
        {
          "internalType": "address",
          "name": "to",
          "type": "address"
        },
        {
          "internalType": "uint256",
          "name": "tokenId",
          "type": "uint256"
        }
      ],
      "name": "transferFrom",
      "outputs": [],
      "stateMutability": "nonpayable",
      "type": "function"
    },
    {
      "inputs": [
        {
          "internalType": "address",
          "name": "newOwner",
          "type": "address"
        }
      ],
      "name": "transferOwnership",
      "outputs": [],
      "stateMutability": "nonpayable",
      "type": "function"
    },
    {
      "inputs": [
        {
          "internalType": "address",
          "name": "owner",
          "type": "address"
        }
      ],
      "name": "walletOfOwner",
      "outputs": [
        {
          "internalType": "uint256[]",
          "name": "",
          "type": "uint256[]"
        }
      ],
      "stateMutability": "view",
      "type": "function"
    },
    {
      "inputs": [
        {
          "internalType": "address",
          "name": "",
          "type": "address"
        }
      ],
      "name": "whiteList",
      "outputs": [
        {
          "internalType": "bool",
          "name": "",
          "type": "bool"
        }
      ],
      "stateMutability": "view",
      "type": "function"
    },
    {
      "inputs": [],
      "name": "withdrawAll",
      "outputs": [],
      "stateMutability": "nonpayable",
      "type": "function"
    }
  ],
  "transactionHash": "0x2ea49d51587a351b67c562fe8df42fa7456f2b1b7c66ebf889a2a6eca85fa501",
  "args": [
    "BrainDanceNft",
    "BrainDance",
    "https://gateway.pinata.cloud/ipfs/Qmc2eWRG4Pv6N4rrDwYABF4YJhNsQCYLn4WV8HcPpLxYNp/"
  ],
  "solcInputHash": "33dd363e23cc67c6d5306bd8c83c4b76",
  "bytecode": "0x6080604052600e805460ff19169055600060118190556012553480156200002557600080fd5b5060405162003fe538038062003fe583398101604081905262000048916200040e565b82518390839062000061906000906020850190620002bd565b50805162000077906001906020840190620002bd565b505050620000946200008e6200018a60201b60201c565b6200018e565b42600d558051620000ad906010906020840190620002bd565b5060408051600280825260608201835260009260208301908036833701905050905073396823f49aa9f0e3fac4b939bc27ad5cd88264db816000815181106200010657634e487b7160e01b600052603260045260246000fd5b60200260200101906001600160a01b031690816001600160a01b03168152505073a5dbc34d69b745d5ee9494e6960a811613b9ae32816001815181106200015d57634e487b7160e01b600052603260045260246000fd5b6001600160a01b03909216602092830291909101909101526200018081620001e0565b5050505062000548565b3390565b600a80546001600160a01b038381166001600160a01b0319831681179093556040519116919082907f8be0079c531659141344cd1fd0a4f28419497f9722a3daafe3b4186f6b6457e090600090a35050565b620001ea6200018a565b6001600160a01b0316620001fd620002ae565b6001600160a01b0316146200022f5760405162461bcd60e51b815260040162000226906200049b565b60405180910390fd5b60005b8151811015620002aa576001600c60008484815181106200026357634e487b7160e01b600052603260045260246000fd5b6020908102919091018101516001600160a01b03168252810191909152604001600020805460ff1916911515919091179055620002a2600182620004d0565b905062000232565b5050565b600a546001600160a01b031690565b828054620002cb90620004f5565b90600052602060002090601f016020900481019282620002ef57600085556200033a565b82601f106200030a57805160ff19168380011785556200033a565b828001600101855582156200033a579182015b828111156200033a5782518255916020019190600101906200031d565b50620003489291506200034c565b5090565b5b808211156200034857600081556001016200034d565b600082601f83011262000374578081fd5b81516001600160401b038082111562000391576200039162000532565b6040516020601f8401601f1916820181018381118382101715620003b957620003b962000532565b6040528382528584018101871015620003d0578485fd5b8492505b83831015620003f35785830181015182840182015291820191620003d4565b838311156200040457848185840101525b5095945050505050565b60008060006060848603121562000423578283fd5b83516001600160401b03808211156200043a578485fd5b620004488783880162000363565b945060208601519150808211156200045e578384fd5b6200046c8783880162000363565b9350604086015191508082111562000482578283fd5b50620004918682870162000363565b9150509250925092565b6020808252818101527f4f776e61626c653a2063616c6c6572206973206e6f7420746865206f776e6572604082015260600190565b60008219821115620004f057634e487b7160e01b81526011600452602481fd5b500190565b6002810460018216806200050a57607f821691505b602082108114156200052c57634e487b7160e01b600052602260045260246000fd5b50919050565b634e487b7160e01b600052604160045260246000fd5b613a8d80620005586000396000f3fe60806040526004361061027d5760003560e01c80636c26eab91161014f578063b88d4fde116100c1578063dc31d1d61161007a578063dc31d1d61461071e578063e985e9c51461073e578063eda9d4741461075e578063f0a65d1a1461077e578063f2fde38b14610793578063f99031a7146107b35761027d565b8063b88d4fde1461067f578063bedb86fb1461069f578063bf424e7e146106bf578063c002d23d146106d4578063c87b56dd146106e9578063d1d6222a146107095761027d565b8063853828b611610113578063853828b6146105f85780638d0419881461060d5780638da5cb5b1461062257806395d89b4114610637578063a22cb4651461064c578063aad665161461066c5761027d565b80636c26eab91461058457806370a0823114610599578063715018a6146105b9578063755cb234146105ce57806378e97925146105e35761027d565b806323b872dd116101f3578063438b6300116101ac578063438b6300146104da57806349ae8dc3146104fa5780634f6ccce71461051a578063594ebab71461053a5780636352211e1461054f5780636c0360eb1461056f5761027d565b806323b872dd1461040d5780632f745c591461042d578063372c12b11461044d5780633d99de851461046d578063414533de1461048d57806342842e0e146104ba5761027d565b8063105dacdf11610245578063105dacdf146103565780631249c58b14610376578063162094c41461037e57806318160ddd1461039e5780632042e5c2146103c057806321d80111146103e05761027d565b806301ffc9a71461028257806306fdde03146102b8578063081812fc146102da578063095ea7b3146103075780630970eaa314610329575b600080fd5b34801561028e57600080fd5b506102a261029d366004612ed7565b6107d3565b6040516102af91906131f9565b60405180910390f35b3480156102c457600080fd5b506102cd610800565b6040516102af9190613204565b3480156102e657600080fd5b506102fa6102f5366004612f5a565b610892565b6040516102af9190613135565b34801561031357600080fd5b50610327610322366004612d69565b6108de565b005b34801561033557600080fd5b50610349610344366004612fb6565b610976565b6040516102af91906131e6565b34801561036257600080fd5b50610327610371366004612d92565b610be0565b610327610c99565b34801561038a57600080fd5b50610327610399366004612f72565b610def565b3480156103aa57600080fd5b506103b3610e4d565b6040516102af91906138a6565b3480156103cc57600080fd5b506103276103db366004612ba3565b610e53565b3480156103ec57600080fd5b506104006103fb366004612f5a565b610eeb565b6040516102af9190613893565b34801561041957600080fd5b50610327610428366004612bef565b610f82565b34801561043957600080fd5b506103b3610448366004612d69565b610fba565b34801561045957600080fd5b506102a2610468366004612ba3565b61100c565b34801561047957600080fd5b506103b3610488366004612e28565b611021565b34801561049957600080fd5b506104ad6104a8366004612f5a565b61107f565b6040516102af9190613186565b3480156104c657600080fd5b506103276104d5366004612bef565b611262565b3480156104e657600080fd5b506103496104f5366004612ba3565b61127d565b34801561050657600080fd5b506104ad610515366004612f5a565b611373565b34801561052657600080fd5b506103b3610535366004612f5a565b611500565b34801561054657600080fd5b506102fa61155b565b34801561055b57600080fd5b506102fa61056a366004612f5a565b611573565b34801561057b57600080fd5b506102cd6115a8565b34801561059057600080fd5b506103b3611636565b3480156105a557600080fd5b506103b36105b4366004612ba3565b61163c565b3480156105c557600080fd5b50610327611680565b3480156105da57600080fd5b506103b36116cb565b3480156105ef57600080fd5b506103b36116d1565b34801561060457600080fd5b506103276116d7565b34801561061957600080fd5b506103b3611791565b34801561062e57600080fd5b506102fa6117a8565b34801561064357600080fd5b506102cd6117b7565b34801561065857600080fd5b50610327610667366004612d40565b6117c6565b61032761067a366004612f0f565b611894565b34801561068b57600080fd5b5061032761069a366004612c2a565b61194d565b3480156106ab57600080fd5b506103276106ba366004612ebd565b61198c565b3480156106cb57600080fd5b506103b3611a1a565b3480156106e057600080fd5b506103b3611a25565b3480156106f557600080fd5b506102cd610704366004612f5a565b611a30565b34801561071557600080fd5b506102fa611af5565b34801561072a57600080fd5b50610327610739366004612ca2565b611b0d565b34801561074a57600080fd5b506102a2610759366004612bbd565b611c3b565b34801561076a57600080fd5b506104ad610779366004612fb6565b611c69565b34801561078a57600080fd5b50610327611deb565b34801561079f57600080fd5b506103276107ae366004612ba3565b611e30565b3480156107bf57600080fd5b506102a26107ce366004612ba3565b611e9e565b60006001600160e01b0319821663780e9d6360e01b14806107f857506107f882611ebc565b90505b919050565b60606000805461080f90613995565b80601f016020809104026020016040519081016040528092919081815260200182805461083b90613995565b80156108885780601f1061085d57610100808354040283529160200191610888565b820191906000526020600020905b81548152906001019060200180831161086b57829003601f168201915b5050505050905090565b600061089d82611efc565b6108c25760405162461bcd60e51b81526004016108b990613595565b60405180910390fd5b506000908152600460205260409020546001600160a01b031690565b60006108e982611573565b9050806001600160a01b0316836001600160a01b0316141561091d5760405162461bcd60e51b81526004016108b990613702565b806001600160a01b031661092f611f19565b6001600160a01b0316148061094b575061094b81610759611f19565b6109675760405162461bcd60e51b81526004016108b99061344b565b6109718383611f1d565b505050565b6000828152600b6020526040812060038101546060929081906001600160401b038111156109b457634e487b7160e01b600052604160045260246000fd5b6040519080825280602002602001820160405280156109dd578160200160208202803683370190505b5090506000915060005b6003840154811015610b09576000868152600b6020908152604091829020600301805483518184028101840190945280845292610a8a929091908490830182828015610a5257602002820191906000526020600020905b815481526020019060010190808311610a3e575b5050505050866003018481548110610a7a57634e487b7160e01b600052603260045260246000fd5b9060005260206000200154611021565b1015610af757836003018181548110610ab357634e487b7160e01b600052603260045260246000fd5b9060005260206000200154828480610aca906139d0565b955081518110610aea57634e487b7160e01b600052603260045260246000fd5b6020026020010181815250505b610b02600182613907565b90506109e7565b506000826001600160401b03811115610b3257634e487b7160e01b600052604160045260246000fd5b604051908082528060200260200182016040528015610b5b578160200160208202803683370190505b5090506000925060005b8251811015610bd357828181518110610b8e57634e487b7160e01b600052603260045260246000fd5b6020026020010151828281518110610bb657634e487b7160e01b600052603260045260246000fd5b6020908102919091010152610bcc600182613907565b9050610b65565b5093505050505b92915050565b610be8611f19565b6001600160a01b0316610bf96117a8565b6001600160a01b031614610c1f5760405162461bcd60e51b81526004016108b9906135e1565b60005b8151811015610c95576001600c6000848481518110610c5157634e487b7160e01b600052603260045260246000fd5b6020908102919091018101516001600160a01b03168252810191909152604001600020805460ff1916911515919091179055610c8e600182613907565b9050610c22565b5050565b600e5460ff1615610cbc5760405162461bcd60e51b81526004016108b990613570565b600d54610ccb90613840613907565b4211610cf657610cda33611e9e565b610cf65760405162461bcd60e51b81526004016108b990613743565b61277560115410610d195760405162461bcd60e51b81526004016108b9906133ac565b66f8b0a10e470000341015610d405760405162461bcd60e51b81526004016108b9906136ae565b6010610d4d601154611f8b565b604051602001610d5e92919061308c565b60408051601f198184030181529181526011546000908152600f60209081529190208251610d9193919290910190612a0b565b50610d9d6011546120ad565b610da933601154612161565b6011546040517fe022f58b17edead5c8a541758e9b66796ebfbf27d6fd8044500f2468ac6e39fc90600090a2600160116000828254610de89190613907565b9091555050565b610df7611f19565b6001600160a01b0316610e086117a8565b6001600160a01b031614610e2e5760405162461bcd60e51b81526004016108b9906135e1565b6000828152600f60209081526040909120825161097192840190612a0b565b60085490565b610e5b611f19565b6001600160a01b0316610e6c6117a8565b6001600160a01b031614610e925760405162461bcd60e51b81526004016108b9906135e1565b6001600160a01b0381166000908152600c602052604090205460ff16610eca5760405162461bcd60e51b81526004016108b9906136d9565b6001600160a01b03166000908152600c60205260409020805460ff19169055565b610ef3612a8f565b6000828152600b60209081526040918290208251608081018452815481526001820154818401526002820154818501526003820180548551818602810186019096528086529194929360608601939290830182828015610f7257602002820191906000526020600020905b815481526020019060010190808311610f5e575b5050505050815250509050919050565b610f93610f8d611f19565b8261217b565b610faf5760405162461bcd60e51b81526004016108b9906137b1565b6109718383836121f8565b6000610fc58361163c565b8210610fe35760405162461bcd60e51b81526004016108b990613217565b506001600160a01b03919091166000908152600660209081526040808320938352929052205490565b600c6020526000908152604090205460ff1681565b6000805b8351811015611076578284828151811061104f57634e487b7160e01b600052603260045260246000fd5b60200260200101511415611064579050610bda565b61106f600182613907565b9050611025565b50509051919050565b6000818152600b60205260409020600181015460609182916000191461125b576040805160028082526060820190925290816020015b6110bd612a8f565b8152602001906001900390816110b5579050509150600b6000826001015481526020019081526020016000206040518060800160405290816000820154815260200160018201548152602001600282015481526020016003820180548060200260200160405190810160405280929190818152602001828054801561116157602002820191906000526020600020905b81548152602001906001019080831161114d575b5050505050815250508260008151811061118b57634e487b7160e01b600052603260045260246000fd5b6020026020010181905250600b6000826002015481526020019081526020016000206040518060800160405290816000820154815260200160018201548152602001600282015481526020016003820180548060200260200160405190810160405280929190818152602001828054801561122557602002820191906000526020600020905b815481526020019060010190808311611211575b5050505050815250508260018151811061124f57634e487b7160e01b600052603260045260246000fd5b60200260200101819052505b5092915050565b6109718383836040518060200160405280600081525061194d565b6060600061128a8361163c565b90506000816001600160401b038111156112b457634e487b7160e01b600052604160045260246000fd5b6040519080825280602002602001820160405280156112dd578160200160208202803683370190505b5090506000806112eb610e4d565b905060005b8181101561136857866001600160a01b031661130e61056a83611500565b6001600160a01b0316141561135657808484611329816139d0565b95508151811061134957634e487b7160e01b600052603260045260246000fd5b6020026020010181815250505b80611360816139d0565b9150506112f0565b509195945050505050565b6000818152600b602052604081206003810154606092906001600160401b038111156113af57634e487b7160e01b600052604160045260246000fd5b6040519080825280602002602001820160405280156113e857816020015b6113d5612a8f565b8152602001906001900390816113cd5790505b50905060005b60038301548110156114f857600b600084600301838154811061142157634e487b7160e01b600052603260045260246000fd5b90600052602060002001548152602001908152602001600020604051806080016040529081600082015481526020016001820154815260200160028201548152602001600382018054806020026020016040519081016040528092919081815260200182805480156114b257602002820191906000526020600020905b81548152602001906001019080831161149e575b5050505050815250508282815181106114db57634e487b7160e01b600052603260045260246000fd5b60209081029190910101526114f1600182613907565b90506113ee565b509392505050565b600061150a610e4d565b82106115285760405162461bcd60e51b81526004016108b990613802565b6008828154811061154957634e487b7160e01b600052603260045260246000fd5b90600052602060002001549050919050565b73396823f49aa9f0e3fac4b939bc27ad5cd88264db81565b6000818152600260205260408120546001600160a01b0316806107f85760405162461bcd60e51b81526004016108b9906134f2565b601080546115b590613995565b80601f01602080910402602001604051908101604052809291908181526020018280546115e190613995565b801561162e5780601f106116035761010080835404028352916020019161162e565b820191906000526020600020905b81548152906001019060200180831161161157829003601f168201915b505050505081565b60115481565b60006001600160a01b0382166116645760405162461bcd60e51b81526004016108b9906134a8565b506001600160a01b031660009081526003602052604090205490565b611688611f19565b6001600160a01b03166116996117a8565b6001600160a01b0316146116bf5760405162461bcd60e51b81526004016108b9906135e1565b6116c96000612325565b565b61277581565b600d5481565b3373396823f49aa9f0e3fac4b939bc27ad5cd88264db148061170c57503373a5dbc34d69b745d5ee9494e6960a811613b9ae32145b6117285760405162461bcd60e51b81526004016108b99061384e565b478061173357600080fd5b61176673396823f49aa9f0e3fac4b939bc27ad5cd88264db611761606461175b856005612377565b9061238a565b612396565b61178e73a5dbc34d69b745d5ee9494e6960a811613b9ae32611761606461175b85605a612377565b50565b60006011546127756117a39190613952565b905090565b600a546001600160a01b031690565b60606001805461080f90613995565b6117ce611f19565b6001600160a01b0316826001600160a01b031614156117ff5760405162461bcd60e51b81526004016108b990613375565b806005600061180c611f19565b6001600160a01b03908116825260208083019390935260409182016000908120918716808252919093529120805460ff191692151592909217909155611850611f19565b6001600160a01b03167f17307eab39ab6107e8899845ad3d59bd9653f200f220920489ca2b5937696c318360405161188891906131f9565b60405180910390a35050565b665c5edcbc2900003410156118bb5760405162461bcd60e51b81526004016108b9906136ae565b60006127756012546118cd9190613907565b90506118da838383612412565b6118e43382612161565b6000818152600f60209081526040909120855161190392870190612a0b565b506001601260008282546119179190613907565b909155505060405181907fe022f58b17edead5c8a541758e9b66796ebfbf27d6fd8044500f2468ac6e39fc90600090a250505050565b61195e611958611f19565b8361217b565b61197a5760405162461bcd60e51b81526004016108b9906137b1565b61198684848484612505565b50505050565b611994611f19565b6001600160a01b03166119a56117a8565b6001600160a01b0316146119cb5760405162461bcd60e51b81526004016108b9906135e1565b600e805460ff191682151517908190556040517f10e1c3fcaff06b68391033547e8f9bb8067d7c4a2e32659b0629153814d242d391611a0f9160ff909116906131f9565b60405180910390a150565b665c5edcbc29000081565b66f8b0a10e47000081565b6060611a3b82611efc565b611a575760405162461bcd60e51b81526004016108b99061365f565b6000828152600f602052604090208054611a7090613995565b80601f0160208091040260200160405190810160405280929190818152602001828054611a9c90613995565b8015611ae95780601f10611abe57610100808354040283529160200191611ae9565b820191906000526020600020905b815481529060010190602001808311611acc57829003601f168201915b50505050509050919050565b73a5dbc34d69b745d5ee9494e6960a811613b9ae3281565b611b15611f19565b6001600160a01b0316611b266117a8565b6001600160a01b031614611b4c5760405162461bcd60e51b81526004016108b9906135e1565b601154611b5b90612775613952565b611b66906001613907565b815114611b855760405162461bcd60e51b81526004016108b99061341b565b6011545b612775811015610971578160115482611ba29190613952565b81518110611bc057634e487b7160e01b600052603260045260246000fd5b6020026020010151600f600083601154611bda9190613907565b81526020019081526020016000209080519060200190611bfb929190612a0b565b50611c1281601154611c0d9190613907565b6120ad565b611c298382601154611c249190613907565b612161565b80611c33816139d0565b915050611b89565b6001600160a01b03918216600090815260056020908152604080832093909416825291909152205460ff1690565b60606000611c778484610976565b9050600081516001600160401b03811115611ca257634e487b7160e01b600052604160045260246000fd5b604051908082528060200260200182016040528015611cdb57816020015b611cc8612a8f565b815260200190600190039081611cc05790505b50905060005b8251811015611de257600b6000848381518110611d0e57634e487b7160e01b600052603260045260246000fd5b6020026020010151815260200190815260200160002060405180608001604052908160008201548152602001600182015481526020016002820154815260200160038201805480602002602001604051908101604052809291908181526020018280548015611d9c57602002820191906000526020600020905b815481526020019060010190808311611d88575b505050505081525050828281518110611dc557634e487b7160e01b600052603260045260246000fd5b6020908102919091010152611ddb600182613907565b9050611ce1565b50949350505050565b611df3611f19565b6001600160a01b0316611e046117a8565b6001600160a01b031614611e2a5760405162461bcd60e51b81526004016108b9906135e1565b42600d55565b611e38611f19565b6001600160a01b0316611e496117a8565b6001600160a01b031614611e6f5760405162461bcd60e51b81526004016108b9906135e1565b6001600160a01b038116611e955760405162461bcd60e51b81526004016108b9906132b4565b61178e81612325565b6001600160a01b03166000908152600c602052604090205460ff1690565b60006001600160e01b031982166380ac58cd60e01b1480611eed57506001600160e01b03198216635b5e139f60e01b145b806107f857506107f882612538565b6000908152600260205260409020546001600160a01b0316151590565b3390565b600081815260046020526040902080546001600160a01b0319166001600160a01b0384169081179091558190611f5282611573565b6001600160a01b03167f8c5be1e5ebec7d5bd14f71427d1e84f3dd0314c0f7b2291e5b200ac8c7c3b92560405160405180910390a45050565b606081611fb057506040805180820190915260018152600360fc1b60208201526107fb565b8160005b8115611fda5780611fc4816139d0565b9150611fd39050600a8361391f565b9150611fb4565b6000816001600160401b0381111561200257634e487b7160e01b600052604160045260246000fd5b6040519080825280601f01601f19166020018201604052801561202c576020820181803683370190505b5090505b84156120a557612041600183613952565b915061204e600a866139eb565b612059906030613907565b60f81b81838151811061207c57634e487b7160e01b600052603260045260246000fd5b60200101906001600160f81b031916908160001a90535061209e600a8661391f565b9450612030565b949350505050565b6040518060800160405280600081526020016000198152602001600019815260200160006001600160401b038111156120f657634e487b7160e01b600052604160045260246000fd5b60405190808252806020026020018201604052801561211f578160200160208202803683370190505b5090526000828152600b602090815260409182902083518155838201516001820155918301516002830155606083015180516119869260038501920190612ab7565b610c95828260405180602001604052806000815250612551565b600061218682611efc565b6121a25760405162461bcd60e51b81526004016108b9906133cf565b60006121ad83611573565b9050806001600160a01b0316846001600160a01b031614806121e85750836001600160a01b03166121dd84610892565b6001600160a01b0316145b806120a557506120a58185611c3b565b826001600160a01b031661220b82611573565b6001600160a01b0316146122315760405162461bcd60e51b81526004016108b990613616565b6001600160a01b0382166122575760405162461bcd60e51b81526004016108b990613331565b612262838383612584565b61226d600082611f1d565b6001600160a01b0383166000908152600360205260408120805460019290612296908490613952565b90915550506001600160a01b03821660009081526003602052604081208054600192906122c4908490613907565b909155505060008181526002602052604080822080546001600160a01b0319166001600160a01b0386811691821790925591518493918716917fddf252ad1be2c89b69c2b068fc378daa952ba7f163c4a11628f55a4df523b3ef91a4505050565b600a80546001600160a01b038381166001600160a01b0319831681179093556040519116919082907f8be0079c531659141344cd1fd0a4f28419497f9722a3daafe3b4186f6b6457e090600090a35050565b60006123838284613933565b9392505050565b6000612383828461391f565b6000826001600160a01b0316826040516123af90613132565b60006040518083038185875af1925050503d80600081146123ec576040519150601f19603f3d011682016040523d82523d6000602084013e6123f1565b606091505b50509050806109715760405162461bcd60e51b81526004016108b990613787565b60405180608001604052806000815260200184815260200183815260200160006001600160401b0381111561245757634e487b7160e01b600052604160045260246000fd5b604051908082528060200260200182016040528015612480578160200160208202803683370190505b5090526000828152600b602090815260409182902083518155838201516001820155918301516002830155606083015180516124c29260038501920190612ab7565b5050506000928352600b60209081526040808520600390810180546001818101835591885284882001859055948652908520018054938401815584529092200155565b6125108484846121f8565b61251c8484848461260d565b6119865760405162461bcd60e51b81526004016108b990613262565b6001600160e01b031981166301ffc9a760e01b14919050565b61255b8383612728565b612568600084848461260d565b6109715760405162461bcd60e51b81526004016108b990613262565b61258f838383610971565b6001600160a01b0383166125ab576125a681612807565b6125ce565b816001600160a01b0316836001600160a01b0316146125ce576125ce838261284b565b6001600160a01b0382166125ea576125e5816128e8565b610971565b826001600160a01b0316826001600160a01b0316146109715761097182826129c1565b6000612621846001600160a01b0316612a05565b1561271d57836001600160a01b031663150b7a0261263d611f19565b8786866040518563ffffffff1660e01b815260040161265f9493929190613149565b602060405180830381600087803b15801561267957600080fd5b505af19250505080156126a9575060408051601f3d908101601f191682019092526126a691810190612ef3565b60015b612703573d8080156126d7576040519150601f19603f3d011682016040523d82523d6000602084013e6126dc565b606091505b5080516126fb5760405162461bcd60e51b81526004016108b990613262565b805181602001fd5b6001600160e01b031916630a85bd0160e11b1490506120a5565b506001949350505050565b6001600160a01b03821661274e5760405162461bcd60e51b81526004016108b99061353b565b61275781611efc565b156127745760405162461bcd60e51b81526004016108b9906132fa565b61278060008383612584565b6001600160a01b03821660009081526003602052604081208054600192906127a9908490613907565b909155505060008181526002602052604080822080546001600160a01b0319166001600160a01b03861690811790915590518392907fddf252ad1be2c89b69c2b068fc378daa952ba7f163c4a11628f55a4df523b3ef908290a45050565b600880546000838152600960205260408120829055600182018355919091527ff3f7a9fe364faab93b216da50a3214154f22a0a2b415b23a84c8169e8b636ee30155565b600060016128588461163c565b6128629190613952565b6000838152600760205260409020549091508082146128b5576001600160a01b03841660009081526006602090815260408083208584528252808320548484528184208190558352600790915290208190555b5060009182526007602090815260408084208490556001600160a01b039094168352600681528383209183525290812055565b6008546000906128fa90600190613952565b6000838152600960205260408120546008805493945090928490811061293057634e487b7160e01b600052603260045260246000fd5b90600052602060002001549050806008838154811061295f57634e487b7160e01b600052603260045260246000fd5b60009182526020808320909101929092558281526009909152604080822084905585825281205560088054806129a557634e487b7160e01b600052603160045260246000fd5b6001900381819060005260206000200160009055905550505050565b60006129cc8361163c565b6001600160a01b039093166000908152600660209081526040808320868452825280832085905593825260079052919091209190915550565b3b151590565b828054612a1790613995565b90600052602060002090601f016020900481019282612a395760008555612a7f565b82601f10612a5257805160ff1916838001178555612a7f565b82800160010185558215612a7f579182015b82811115612a7f578251825591602001919060010190612a64565b50612a8b929150612af1565b5090565b6040518060800160405280600081526020016000815260200160008152602001606081525090565b828054828255906000526020600020908101928215612a7f5791602002820182811115612a7f578251825591602001919060010190612a64565b5b80821115612a8b5760008155600101612af2565b60006001600160401b03831115612b1f57612b1f613a2b565b612b32601f8401601f19166020016138af565b9050828152838383011115612b4657600080fd5b828260208301376000602084830101529392505050565b80356001600160a01b03811681146107fb57600080fd5b803580151581146107fb57600080fd5b600082601f830112612b94578081fd5b61238383833560208501612b06565b600060208284031215612bb4578081fd5b61238382612b5d565b60008060408385031215612bcf578081fd5b612bd883612b5d565b9150612be660208401612b5d565b90509250929050565b600080600060608486031215612c03578081fd5b612c0c84612b5d565b9250612c1a60208501612b5d565b9150604084013590509250925092565b60008060008060808587031215612c3f578081fd5b612c4885612b5d565b9350612c5660208601612b5d565b92506040850135915060608501356001600160401b03811115612c77578182fd5b8501601f81018713612c87578182fd5b612c9687823560208401612b06565b91505092959194509250565b60008060408385031215612cb4578182fd5b612cbd83612b5d565b91506020808401356001600160401b03811115612cd8578283fd5b8401601f81018613612ce8578283fd5b8035612cfb612cf6826138d8565b6138af565b81815283810190838501865b84811015612d3057612d1e8b888435890101612b84565b84529286019290860190600101612d07565b5096999098509650505050505050565b60008060408385031215612d52578182fd5b612d5b83612b5d565b9150612be660208401612b74565b60008060408385031215612d7b578182fd5b612d8483612b5d565b946020939093013593505050565b60006020808385031215612da4578182fd5b82356001600160401b03811115612db9578283fd5b8301601f81018513612dc9578283fd5b8035612dd7612cf6826138d8565b8181528381019083850185840285018601891015612df3578687fd5b8694505b83851015612e1c57612e0881612b5d565b835260019490940193918501918501612df7565b50979650505050505050565b60008060408385031215612e3a578182fd5b82356001600160401b03811115612e4f578283fd5b8301601f81018513612e5f578283fd5b80356020612e6f612cf6836138d8565b82815281810190848301838502860184018a1015612e8b578788fd5b8795505b84861015612ead578035835260019590950194918301918301612e8f565b5098969091013596505050505050565b600060208284031215612ece578081fd5b61238382612b74565b600060208284031215612ee8578081fd5b813561238381613a41565b600060208284031215612f04578081fd5b815161238381613a41565b600080600060608486031215612f23578081fd5b83356001600160401b03811115612f38578182fd5b612f4486828701612b84565b9660208601359650604090950135949350505050565b600060208284031215612f6b578081fd5b5035919050565b60008060408385031215612f84578182fd5b8235915060208301356001600160401b03811115612fa0578182fd5b612fac85828601612b84565b9150509250929050565b60008060408385031215612fc8578182fd5b50508035926020909101359150565b6000815180845260208085019450808401835b8381101561300657815187529582019590820190600101612fea565b509495945050505050565b60008151808452613029816020860160208601613969565b601f01601f19169290920160200192915050565b6000815161304f818560208601613969565b9290920192915050565b60008151835260208201516020840152604082015160408401526060820151608060608501526120a56080850182612fd7565b82546000908190600281046001808316806130a857607f831692505b60208084108214156130c857634e487b7160e01b87526022600452602487fd5b8180156130dc57600181146130ed57613119565b60ff19861689528489019650613119565b6130f68b6138fb565b885b868110156131115781548b8201529085019083016130f8565b505084890196505b505050505050613129818561303d565b95945050505050565b90565b6001600160a01b0391909116815260200190565b6001600160a01b038581168252841660208201526040810183905260806060820181905260009061317c90830184613011565b9695505050505050565b6000602080830181845280855180835260408601915060408482028701019250838701855b828110156131d957603f198886030184526131c7858351613059565b945092850192908501906001016131ab565b5092979650505050505050565b6000602082526123836020830184612fd7565b901515815260200190565b6000602082526123836020830184613011565b6020808252602b908201527f455243373231456e756d657261626c653a206f776e657220696e646578206f7560408201526a74206f6620626f756e647360a81b606082015260800190565b60208082526032908201527f4552433732313a207472616e7366657220746f206e6f6e20455243373231526560408201527131b2b4bb32b91034b6b83632b6b2b73a32b960711b606082015260800190565b60208082526026908201527f4f776e61626c653a206e6577206f776e657220697320746865207a65726f206160408201526564647265737360d01b606082015260800190565b6020808252601c908201527f4552433732313a20746f6b656e20616c7265616479206d696e74656400000000604082015260600190565b60208082526024908201527f4552433732313a207472616e7366657220746f20746865207a65726f206164646040820152637265737360e01b606082015260800190565b60208082526019908201527f4552433732313a20617070726f766520746f2063616c6c657200000000000000604082015260600190565b60208082526009908201526813585e081b1a5b5a5d60ba1b604082015260600190565b6020808252602c908201527f4552433732313a206f70657261746f7220717565727920666f72206e6f6e657860408201526b34b9ba32b73a103a37b5b2b760a11b606082015260800190565b6020808252601690820152750a8ded6cadcaae4d2e640e6d0deead8c840dac2e8c6d60531b604082015260600190565b60208082526038908201527f4552433732313a20617070726f76652063616c6c6572206973206e6f74206f7760408201527f6e6572206e6f7220617070726f76656420666f7220616c6c0000000000000000606082015260800190565b6020808252602a908201527f4552433732313a2062616c616e636520717565727920666f7220746865207a65604082015269726f206164647265737360b01b606082015260800190565b60208082526029908201527f4552433732313a206f776e657220717565727920666f72206e6f6e657869737460408201526832b73a103a37b5b2b760b91b606082015260800190565b6020808252818101527f4552433732313a206d696e7420746f20746865207a65726f2061646472657373604082015260600190565b6020808252600b908201526a14d85b194814185d5cd95960aa1b604082015260600190565b6020808252602c908201527f4552433732313a20617070726f76656420717565727920666f72206e6f6e657860408201526b34b9ba32b73a103a37b5b2b760a11b606082015260800190565b6020808252818101527f4f776e61626c653a2063616c6c6572206973206e6f7420746865206f776e6572604082015260600190565b60208082526029908201527f4552433732313a207472616e73666572206f6620746f6b656e2074686174206960408201526839903737ba1037bbb760b91b606082015260800190565b6020808252602f908201527f4552433732314d657461646174613a2055524920717565727920666f72206e6f60408201526e3732bc34b9ba32b73a103a37b5b2b760891b606082015260800190565b60208082526011908201527056616c75652062656c6f7720707269636560781b604082015260600190565b6020808252600f908201526e105b1c9958591e481c995b5bdd9959608a1b604082015260600190565b60208082526021908201527f4552433732313a20617070726f76616c20746f2063757272656e74206f776e656040820152603960f91b606082015260800190565b60208082526024908201527f41646472657373206973206e6f7420696e636c7564656420696e207768697465604082015263131a5cdd60e21b606082015260800190565b60208082526010908201526f2a3930b739b332b9103330b4b632b21760811b604082015260600190565b60208082526031908201527f4552433732313a207472616e736665722063616c6c6572206973206e6f74206f6040820152701ddb995c881b9bdc88185c1c1c9bdd9959607a1b606082015260800190565b6020808252602c908201527f455243373231456e756d657261626c653a20676c6f62616c20696e646578206f60408201526b7574206f6620626f756e647360a01b606082015260800190565b60208082526025908201527f596f7520646f6e27742068617665207769746864726177696e672070726976696040820152646c6564676560d81b606082015260800190565b6000602082526123836020830184613059565b90815260200190565b6040518181016001600160401b03811182821017156138d0576138d0613a2b565b604052919050565b60006001600160401b038211156138f1576138f1613a2b565b5060209081020190565b60009081526020902090565b6000821982111561391a5761391a6139ff565b500190565b60008261392e5761392e613a15565b500490565b600081600019048311821515161561394d5761394d6139ff565b500290565b600082821015613964576139646139ff565b500390565b60005b8381101561398457818101518382015260200161396c565b838111156119865750506000910152565b6002810460018216806139a957607f821691505b602082108114156139ca57634e487b7160e01b600052602260045260246000fd5b50919050565b60006000198214156139e4576139e46139ff565b5060010190565b6000826139fa576139fa613a15565b500690565b634e487b7160e01b600052601160045260246000fd5b634e487b7160e01b600052601260045260246000fd5b634e487b7160e01b600052604160045260246000fd5b6001600160e01b03198116811461178e57600080fdfea2646970667358221220dea4df40d1f99a3952a0a5d58a6629a49022bbae5975cb3a3dc3b8fb49b28a4964736f6c63430008000033",
  "devdoc": {
    "kind": "dev",
    "methods": {
      "approve(address,uint256)": {
        "details": "See {IERC721-approve}."
      },
      "balanceOf(address)": {
        "details": "See {IERC721-balanceOf}."
      },
      "getApproved(uint256)": {
        "details": "See {IERC721-getApproved}."
      },
      "isApprovedForAll(address,address)": {
        "details": "See {IERC721-isApprovedForAll}."
      },
      "name()": {
        "details": "See {IERC721Metadata-name}."
      },
      "owner()": {
        "details": "Returns the address of the current owner."
      },
      "ownerOf(uint256)": {
        "details": "See {IERC721-ownerOf}."
      },
      "renounceOwnership()": {
        "details": "Leaves the contract without owner. It will not be possible to call `onlyOwner` functions anymore. Can only be called by the current owner. NOTE: Renouncing ownership will leave the contract without an owner, thereby removing any functionality that is only available to the owner."
      },
      "safeTransferFrom(address,address,uint256)": {
        "details": "See {IERC721-safeTransferFrom}."
      },
      "safeTransferFrom(address,address,uint256,bytes)": {
        "details": "See {IERC721-safeTransferFrom}."
      },
      "setApprovalForAll(address,bool)": {
        "details": "See {IERC721-setApprovalForAll}."
      },
      "supportsInterface(bytes4)": {
        "details": "See {IERC165-supportsInterface}."
      },
      "symbol()": {
        "details": "See {IERC721Metadata-symbol}."
      },
      "tokenByIndex(uint256)": {
        "details": "See {IERC721Enumerable-tokenByIndex}."
      },
      "tokenOfOwnerByIndex(address,uint256)": {
        "details": "See {IERC721Enumerable-tokenOfOwnerByIndex}."
      },
      "tokenURI(uint256)": {
        "details": "See {IERC721Metadata-tokenURI}."
      },
      "totalSupply()": {
        "details": "See {IERC721Enumerable-totalSupply}."
      },
      "transferFrom(address,address,uint256)": {
        "details": "See {IERC721-transferFrom}."
      },
      "transferOwnership(address)": {
        "details": "Transfers ownership of the contract to a new account (`newOwner`). Can only be called by the current owner."
      }
    },
    "version": 1
  },
  "userdoc": {
    "kind": "user",
    "methods": {},
    "version": 1
  },
  "storageLayout": {
    "storage": [
      {
        "astId": 129,
        "contract": "contracts/BrainDanceNft.sol:BrainDanceNft",
        "label": "_name",
        "offset": 0,
        "slot": "0",
        "type": "t_string_storage"
      },
      {
        "astId": 131,
        "contract": "contracts/BrainDanceNft.sol:BrainDanceNft",
        "label": "_symbol",
        "offset": 0,
        "slot": "1",
        "type": "t_string_storage"
      },
      {
        "astId": 135,
        "contract": "contracts/BrainDanceNft.sol:BrainDanceNft",
        "label": "_owners",
        "offset": 0,
        "slot": "2",
        "type": "t_mapping(t_uint256,t_address)"
      },
      {
        "astId": 139,
        "contract": "contracts/BrainDanceNft.sol:BrainDanceNft",
        "label": "_balances",
        "offset": 0,
        "slot": "3",
        "type": "t_mapping(t_address,t_uint256)"
      },
      {
        "astId": 143,
        "contract": "contracts/BrainDanceNft.sol:BrainDanceNft",
        "label": "_tokenApprovals",
        "offset": 0,
        "slot": "4",
        "type": "t_mapping(t_uint256,t_address)"
      },
      {
        "astId": 149,
        "contract": "contracts/BrainDanceNft.sol:BrainDanceNft",
        "label": "_operatorApprovals",
        "offset": 0,
        "slot": "5",
        "type": "t_mapping(t_address,t_mapping(t_address,t_bool))"
      },
      {
        "astId": 1068,
        "contract": "contracts/BrainDanceNft.sol:BrainDanceNft",
        "label": "_ownedTokens",
        "offset": 0,
        "slot": "6",
        "type": "t_mapping(t_address,t_mapping(t_uint256,t_uint256))"
      },
      {
        "astId": 1072,
        "contract": "contracts/BrainDanceNft.sol:BrainDanceNft",
        "label": "_ownedTokensIndex",
        "offset": 0,
        "slot": "7",
        "type": "t_mapping(t_uint256,t_uint256)"
      },
      {
        "astId": 1075,
        "contract": "contracts/BrainDanceNft.sol:BrainDanceNft",
        "label": "_allTokens",
        "offset": 0,
        "slot": "8",
        "type": "t_array(t_uint256)dyn_storage"
      },
      {
        "astId": 1079,
        "contract": "contracts/BrainDanceNft.sol:BrainDanceNft",
        "label": "_allTokensIndex",
        "offset": 0,
        "slot": "9",
        "type": "t_mapping(t_uint256,t_uint256)"
      },
      {
        "astId": 7,
        "contract": "contracts/BrainDanceNft.sol:BrainDanceNft",
        "label": "_owner",
        "offset": 0,
        "slot": "10",
        "type": "t_address"
      },
      {
        "astId": 2915,
        "contract": "contracts/BrainDanceNft.sol:BrainDanceNft",
        "label": "_heros",
        "offset": 0,
        "slot": "11",
        "type": "t_mapping(t_uint256,t_struct(Hero)2910_storage)"
      },
      {
        "astId": 2357,
        "contract": "contracts/BrainDanceNft.sol:BrainDanceNft",
        "label": "whiteList",
        "offset": 0,
        "slot": "12",
        "type": "t_mapping(t_address,t_bool)"
      },
      {
        "astId": 2359,
        "contract": "contracts/BrainDanceNft.sol:BrainDanceNft",
        "label": "startTime",
        "offset": 0,
        "slot": "13",
        "type": "t_uint256"
      },
      {
        "astId": 2362,
        "contract": "contracts/BrainDanceNft.sol:BrainDanceNft",
        "label": "bPaused",
        "offset": 0,
        "slot": "14",
        "type": "t_bool"
      },
      {
        "astId": 2366,
        "contract": "contracts/BrainDanceNft.sol:BrainDanceNft",
        "label": "_tokenUris",
        "offset": 0,
        "slot": "15",
        "type": "t_mapping(t_uint256,t_string_storage)"
      },
      {
        "astId": 2368,
        "contract": "contracts/BrainDanceNft.sol:BrainDanceNft",
        "label": "baseURI",
        "offset": 0,
        "slot": "16",
        "type": "t_string_storage"
      },
      {
        "astId": 2371,
        "contract": "contracts/BrainDanceNft.sol:BrainDanceNft",
        "label": "mintedInitialTokenCount",
        "offset": 0,
        "slot": "17",
        "type": "t_uint256"
      },
      {
        "astId": 2374,
        "contract": "contracts/BrainDanceNft.sol:BrainDanceNft",
        "label": "breedTokenCount",
        "offset": 0,
        "slot": "18",
        "type": "t_uint256"
      }
    ],
    "types": {
      "t_address": {
        "encoding": "inplace",
        "label": "address",
        "numberOfBytes": "20"
      },
      "t_array(t_uint256)dyn_storage": {
        "base": "t_uint256",
        "encoding": "dynamic_array",
        "label": "uint256[]",
        "numberOfBytes": "32"
      },
      "t_bool": {
        "encoding": "inplace",
        "label": "bool",
        "numberOfBytes": "1"
      },
      "t_mapping(t_address,t_bool)": {
        "encoding": "mapping",
        "key": "t_address",
        "label": "mapping(address => bool)",
        "numberOfBytes": "32",
        "value": "t_bool"
      },
      "t_mapping(t_address,t_mapping(t_address,t_bool))": {
        "encoding": "mapping",
        "key": "t_address",
        "label": "mapping(address => mapping(address => bool))",
        "numberOfBytes": "32",
        "value": "t_mapping(t_address,t_bool)"
      },
      "t_mapping(t_address,t_mapping(t_uint256,t_uint256))": {
        "encoding": "mapping",
        "key": "t_address",
        "label": "mapping(address => mapping(uint256 => uint256))",
        "numberOfBytes": "32",
        "value": "t_mapping(t_uint256,t_uint256)"
      },
      "t_mapping(t_address,t_uint256)": {
        "encoding": "mapping",
        "key": "t_address",
        "label": "mapping(address => uint256)",
        "numberOfBytes": "32",
        "value": "t_uint256"
      },
      "t_mapping(t_uint256,t_address)": {
        "encoding": "mapping",
        "key": "t_uint256",
        "label": "mapping(uint256 => address)",
        "numberOfBytes": "32",
        "value": "t_address"
      },
      "t_mapping(t_uint256,t_string_storage)": {
        "encoding": "mapping",
        "key": "t_uint256",
        "label": "mapping(uint256 => string)",
        "numberOfBytes": "32",
        "value": "t_string_storage"
      },
      "t_mapping(t_uint256,t_struct(Hero)2910_storage)": {
        "encoding": "mapping",
        "key": "t_uint256",
        "label": "mapping(uint256 => struct HeroFactory.Hero)",
        "numberOfBytes": "32",
        "value": "t_struct(Hero)2910_storage"
      },
      "t_mapping(t_uint256,t_uint256)": {
        "encoding": "mapping",
        "key": "t_uint256",
        "label": "mapping(uint256 => uint256)",
        "numberOfBytes": "32",
        "value": "t_uint256"
      },
      "t_string_storage": {
        "encoding": "bytes",
        "label": "string",
        "numberOfBytes": "32"
      },
      "t_struct(Hero)2910_storage": {
        "encoding": "inplace",
        "label": "struct HeroFactory.Hero",
        "members": [
          {
            "astId": 2902,
            "contract": "contracts/BrainDanceNft.sol:BrainDanceNft",
            "label": "traits",
            "offset": 0,
            "slot": "0",
            "type": "t_uint256"
          },
          {
            "astId": 2904,
            "contract": "contracts/BrainDanceNft.sol:BrainDanceNft",
            "label": "fatherId",
            "offset": 0,
            "slot": "1",
            "type": "t_uint256"
          },
          {
            "astId": 2906,
            "contract": "contracts/BrainDanceNft.sol:BrainDanceNft",
            "label": "motherId",
            "offset": 0,
            "slot": "2",
            "type": "t_uint256"
          },
          {
            "astId": 2909,
            "contract": "contracts/BrainDanceNft.sol:BrainDanceNft",
            "label": "childrenIds",
            "offset": 0,
            "slot": "3",
            "type": "t_array(t_uint256)dyn_storage"
          }
        ],
        "numberOfBytes": "128"
      },
      "t_uint256": {
        "encoding": "inplace",
        "label": "uint256",
        "numberOfBytes": "32"
      }
    }
  }
}