{
  "address": "0xD2aa5dbEE4964b78C0f5d104e885001E9D676436",
  "abi": [
    {
      "inputs": [
        {
          "internalType": "string",
          "name": "name_",
          "type": "string"
        },
        {
          "internalType": "string",
          "name": "symbol_",
          "type": "string"
        },
        {
          "internalType": "string",
          "name": "baseURI_",
          "type": "string"
        }
      ],
      "stateMutability": "nonpayable",
      "type": "constructor"
    },
    {
      "anonymous": false,
      "inputs": [
        {
          "indexed": true,
          "internalType": "address",
          "name": "owner",
          "type": "address"
        },
        {
          "indexed": true,
          "internalType": "address",
          "name": "approved",
          "type": "address"
        },
        {
          "indexed": true,
          "internalType": "uint256",
          "name": "tokenId",
          "type": "uint256"
        }
      ],
      "name": "Approval",
      "type": "event"
    },
    {
      "anonymous": false,
      "inputs": [
        {
          "indexed": true,
          "internalType": "address",
          "name": "owner",
          "type": "address"
        },
        {
          "indexed": true,
          "internalType": "address",
          "name": "operator",
          "type": "address"
        },
        {
          "indexed": false,
          "internalType": "bool",
          "name": "approved",
          "type": "bool"
        }
      ],
      "name": "ApprovalForAll",
      "type": "event"
    },
    {
      "anonymous": false,
      "inputs": [
        {
          "indexed": true,
          "internalType": "uint256",
          "name": "tokenId",
          "type": "uint256"
        }
      ],
      "name": "BreededNewNFT",
      "type": "event"
    },
    {
      "anonymous": false,
      "inputs": [
        {
          "indexed": true,
          "internalType": "uint256",
          "name": "tokenId",
          "type": "uint256"
        }
      ],
      "name": "MintedNewNFT",
      "type": "event"
    },
    {
      "anonymous": false,
      "inputs": [
        {
          "indexed": true,
          "internalType": "address",
          "name": "previousOwner",
          "type": "address"
        },
        {
          "indexed": true,
          "internalType": "address",
          "name": "newOwner",
          "type": "address"
        }
      ],
      "name": "OwnershipTransferred",
      "type": "event"
    },
    {
      "anonymous": false,
      "inputs": [
        {
          "indexed": false,
          "internalType": "bool",
          "name": "pause",
          "type": "bool"
        }
      ],
      "name": "PauseEvent",
      "type": "event"
    },
    {
      "anonymous": false,
      "inputs": [
        {
          "indexed": true,
          "internalType": "address",
          "name": "from",
          "type": "address"
        },
        {
          "indexed": true,
          "internalType": "address",
          "name": "to",
          "type": "address"
        },
        {
          "indexed": true,
          "internalType": "uint256",
          "name": "tokenId",
          "type": "uint256"
        }
      ],
      "name": "Transfer",
      "type": "event"
    },
    {
      "inputs": [],
      "name": "ABC_ADDRESS",
      "outputs": [
        {
          "internalType": "address",
          "name": "",
          "type": "address"
        }
      ],
      "stateMutability": "view",
      "type": "function"
    },
    {
      "inputs": [],
      "name": "ARTIST_ADDRESS",
      "outputs": [
        {
          "internalType": "address",
          "name": "",
          "type": "address"
        }
      ],
      "stateMutability": "view",
      "type": "function"
    },
    {
      "inputs": [],
      "name": "INITIAL_TOKEN_COUNT",
      "outputs": [
        {
          "internalType": "uint256",
          "name": "",
          "type": "uint256"
        }
      ],
      "stateMutability": "view",
      "type": "function"
    },
    {
      "inputs": [],
      "name": "MINT_PRICE",
      "outputs": [
        {
          "internalType": "uint256",
          "name": "",
          "type": "uint256"
        }
      ],
      "stateMutability": "view",
      "type": "function"
    },
    {
      "inputs": [],
      "name": "OWNER_ADDRESS",
      "outputs": [
        {
          "internalType": "address",
          "name": "",
          "type": "address"
        }
      ],
      "stateMutability": "view",
      "type": "function"
    },
    {
      "inputs": [
        {
          "internalType": "address[]",
          "name": "addrs",
          "type": "address[]"
        }
      ],
      "name": "addWhiteLists",
      "outputs": [],
      "stateMutability": "nonpayable",
      "type": "function"
    },
    {
      "inputs": [
        {
          "internalType": "address",
          "name": "to",
          "type": "address"
        },
        {
          "internalType": "uint256",
          "name": "tokenId",
          "type": "uint256"
        }
      ],
      "name": "approve",
      "outputs": [],
      "stateMutability": "nonpayable",
      "type": "function"
    },
    {
      "inputs": [],
      "name": "bPaused",
      "outputs": [
        {
          "internalType": "bool",
          "name": "",
          "type": "bool"
        }
      ],
      "stateMutability": "view",
      "type": "function"
    },
    {
      "inputs": [
        {
          "internalType": "address",
          "name": "owner",
          "type": "address"
        }
      ],
      "name": "balanceOf",
      "outputs": [
        {
          "internalType": "uint256",
          "name": "",
          "type": "uint256"
        }
      ],
      "stateMutability": "view",
      "type": "function"
    },
    {
      "inputs": [],
      "name": "baseURI",
      "outputs": [
        {
          "internalType": "string",
          "name": "",
          "type": "string"
        }
      ],
      "stateMutability": "view",
      "type": "function"
    },
    {
      "inputs": [
        {
          "internalType": "uint256[]",
          "name": "array",
          "type": "uint256[]"
        },
        {
          "internalType": "uint256",
          "name": "val",
          "type": "uint256"
        }
      ],
      "name": "findIndex",
      "outputs": [
        {
          "internalType": "uint256",
          "name": "",
          "type": "uint256"
        }
      ],
      "stateMutability": "pure",
      "type": "function"
    },
    {
      "inputs": [
        {
          "internalType": "uint256",
          "name": "tokenId",
          "type": "uint256"
        }
      ],
      "name": "getApproved",
      "outputs": [
        {
          "internalType": "address",
          "name": "",
          "type": "address"
        }
      ],
      "stateMutability": "view",
      "type": "function"
    },
    {
      "inputs": [
        {
          "internalType": "uint256",
          "name": "tokenId_",
          "type": "uint256"
        }
      ],
      "name": "getChildren",
      "outputs": [
        {
          "components": [
            {
              "internalType": "uint256",
              "name": "traits",
              "type": "uint256"
            },
            {
              "internalType": "uint256",
              "name": "fatherId",
              "type": "uint256"
            },
            {
              "internalType": "uint256",
              "name": "motherId",
              "type": "uint256"
            },
            {
              "internalType": "uint256[]",
              "name": "childrenIds",
              "type": "uint256[]"
            }
          ],
          "internalType": "struct HeroFactory.Hero[]",
          "name": "",
          "type": "tuple[]"
        }
      ],
      "stateMutability": "view",
      "type": "function"
    },
    {
      "inputs": [
        {
          "internalType": "uint256",
          "name": "heroId1_",
          "type": "uint256"
        },
        {
          "internalType": "uint256",
          "name": "heroId2_",
          "type": "uint256"
        }
      ],
      "name": "getChildrenIdsWithParent",
      "outputs": [
        {
          "internalType": "uint256[]",
          "name": "",
          "type": "uint256[]"
        }
      ],
      "stateMutability": "view",
      "type": "function"
    },
    {
      "inputs": [
        {
          "internalType": "uint256",
          "name": "heroId1_",
          "type": "uint256"
        },
        {
          "internalType": "uint256",
          "name": "heroId2_",
          "type": "uint256"
        }
      ],
      "name": "getChildrenWithParent",
      "outputs": [
        {
          "components": [
            {
              "internalType": "uint256",
              "name": "traits",
              "type": "uint256"
            },
            {
              "internalType": "uint256",
              "name": "fatherId",
              "type": "uint256"
            },
            {
              "internalType": "uint256",
              "name": "motherId",
              "type": "uint256"
            },
            {
              "internalType": "uint256[]",
              "name": "childrenIds",
              "type": "uint256[]"
            }
          ],
          "internalType": "struct HeroFactory.Hero[]",
          "name": "",
          "type": "tuple[]"
        }
      ],
      "stateMutability": "view",
      "type": "function"
    },
    {
      "inputs": [
        {
          "internalType": "uint256",
          "name": "tokenId_",
          "type": "uint256"
        }
      ],
      "name": "getHero",
      "outputs": [
        {
          "components": [
            {
              "internalType": "uint256",
              "name": "traits",
              "type": "uint256"
            },
            {
              "internalType": "uint256",
              "name": "fatherId",
              "type": "uint256"
            },
            {
              "internalType": "uint256",
              "name": "motherId",
              "type": "uint256"
            },
            {
              "internalType": "uint256[]",
              "name": "childrenIds",
              "type": "uint256[]"
            }
          ],
          "internalType": "struct HeroFactory.Hero",
          "name": "",
          "type": "tuple"
        }
      ],
      "stateMutability": "view",
      "type": "function"
    },
    {
      "inputs": [
        {
          "internalType": "uint256",
          "name": "tokenId_",
          "type": "uint256"
        }
      ],
      "name": "getParent",
      "outputs": [
        {
          "components": [
            {
              "internalType": "uint256",
              "name": "traits",
              "type": "uint256"
            },
            {
              "internalType": "uint256",
              "name": "fatherId",
              "type": "uint256"
            },
            {
              "internalType": "uint256",
              "name": "motherId",
              "type": "uint256"
            },
            {
              "internalType": "uint256[]",
              "name": "childrenIds",
              "type": "uint256[]"
            }
          ],
          "internalType": "struct HeroFactory.Hero[]",
          "name": "",
          "type": "tuple[]"
        }
      ],
      "stateMutability": "view",
      "type": "function"
    },
    {
      "inputs": [
        {
          "internalType": "address",
          "name": "owner",
          "type": "address"
        },
        {
          "internalType": "address",
          "name": "operator",
          "type": "address"
        }
      ],
      "name": "isApprovedForAll",
      "outputs": [
        {
          "internalType": "bool",
          "name": "",
          "type": "bool"
        }
      ],
      "stateMutability": "view",
      "type": "function"
    },
    {
      "inputs": [
        {
          "internalType": "address",
          "name": "addr",
          "type": "address"
        }
      ],
      "name": "isWhiteList",
      "outputs": [
        {
          "internalType": "bool",
          "name": "",
          "type": "bool"
        }
      ],
      "stateMutability": "view",
      "type": "function"
    },
    {
      "inputs": [],
      "name": "mint",
      "outputs": [],
      "stateMutability": "payable",
      "type": "function"
    },
    {
      "inputs": [
        {
          "internalType": "string",
          "name": "tokenUri_",
          "type": "string"
        },
        {
          "internalType": "uint256",
          "name": "heroId1_",
          "type": "uint256"
        },
        {
          "internalType": "uint256",
          "name": "heroId2_",
          "type": "uint256"
        }
      ],
      "name": "mintBreedToken",
      "outputs": [],
      "stateMutability": "nonpayable",
      "type": "function"
    },
    {
      "inputs": [
        {
          "internalType": "address",
          "name": "to_",
          "type": "address"
        },
        {
          "internalType": "string[]",
          "name": "tokenUris_",
          "type": "string[]"
        }
      ],
      "name": "mintUnsoldTokens",
      "outputs": [],
      "stateMutability": "nonpayable",
      "type": "function"
    },
    {
      "inputs": [],
      "name": "mintedInitialTokenCount",
      "outputs": [
        {
          "internalType": "uint256",
          "name": "",
          "type": "uint256"
        }
      ],
      "stateMutability": "view",
      "type": "function"
    },
    {
      "inputs": [],
      "name": "name",
      "outputs": [
        {
          "internalType": "string",
          "name": "",
          "type": "string"
        }
      ],
      "stateMutability": "view",
      "type": "function"
    },
    {
      "inputs": [],
      "name": "owner",
      "outputs": [
        {
          "internalType": "address",
          "name": "",
          "type": "address"
        }
      ],
      "stateMutability": "view",
      "type": "function"
    },
    {
      "inputs": [
        {
          "internalType": "uint256",
          "name": "tokenId",
          "type": "uint256"
        }
      ],
      "name": "ownerOf",
      "outputs": [
        {
          "internalType": "address",
          "name": "",
          "type": "address"
        }
      ],
      "stateMutability": "view",
      "type": "function"
    },
    {
      "inputs": [],
      "name": "remainTokenCount",
      "outputs": [
        {
          "internalType": "uint256",
          "name": "",
          "type": "uint256"
        }
      ],
      "stateMutability": "view",
      "type": "function"
    },
    {
      "inputs": [
        {
          "internalType": "address[]",
          "name": "addrs",
          "type": "address[]"
        }
      ],
      "name": "removeWhiteLists",
      "outputs": [],
      "stateMutability": "nonpayable",
      "type": "function"
    },
    {
      "inputs": [],
      "name": "renounceOwnership",
      "outputs": [],
      "stateMutability": "nonpayable",
      "type": "function"
    },
    {
      "inputs": [
        {
          "internalType": "address",
          "name": "from",
          "type": "address"
        },
        {
          "internalType": "address",
          "name": "to",
          "type": "address"
        },
        {
          "internalType": "uint256",
          "name": "tokenId",
          "type": "uint256"
        }
      ],
      "name": "safeTransferFrom",
      "outputs": [],
      "stateMutability": "nonpayable",
      "type": "function"
    },
    {
      "inputs": [
        {
          "internalType": "address",
          "name": "from",
          "type": "address"
        },
        {
          "internalType": "address",
          "name": "to",
          "type": "address"
        },
        {
          "internalType": "uint256",
          "name": "tokenId",
          "type": "uint256"
        },
        {
          "internalType": "bytes",
          "name": "_data",
          "type": "bytes"
        }
      ],
      "name": "safeTransferFrom",
      "outputs": [],
      "stateMutability": "nonpayable",
      "type": "function"
    },
    {
      "inputs": [
        {
          "internalType": "address",
          "name": "operator",
          "type": "address"
        },
        {
          "internalType": "bool",
          "name": "approved",
          "type": "bool"
        }
      ],
      "name": "setApprovalForAll",
      "outputs": [],
      "stateMutability": "nonpayable",
      "type": "function"
    },
    {
      "inputs": [
        {
          "internalType": "bool",
          "name": "pause",
          "type": "bool"
        }
      ],
      "name": "setPause",
      "outputs": [],
      "stateMutability": "nonpayable",
      "type": "function"
    },
    {
      "inputs": [],
      "name": "setStarttime",
      "outputs": [],
      "stateMutability": "nonpayable",
      "type": "function"
    },
    {
      "inputs": [
        {
          "internalType": "uint256",
          "name": "tokenId_",
          "type": "uint256"
        },
        {
          "internalType": "string",
          "name": "tokenUri_",
          "type": "string"
        }
      ],
      "name": "setTokenURI",
      "outputs": [],
      "stateMutability": "nonpayable",
      "type": "function"
    },
    {
      "inputs": [],
      "name": "startTime",
      "outputs": [
        {
          "internalType": "uint256",
          "name": "",
          "type": "uint256"
        }
      ],
      "stateMutability": "view",
      "type": "function"
    },
    {
      "inputs": [
        {
          "internalType": "bytes4",
          "name": "interfaceId",
          "type": "bytes4"
        }
      ],
      "name": "supportsInterface",
      "outputs": [
        {
          "internalType": "bool",
          "name": "",
          "type": "bool"
        }
      ],
      "stateMutability": "view",
      "type": "function"
    },
    {
      "inputs": [],
      "name": "symbol",
      "outputs": [
        {
          "internalType": "string",
          "name": "",
          "type": "string"
        }
      ],
      "stateMutability": "view",
      "type": "function"
    },
    {
      "inputs": [
        {
          "internalType": "uint256",
          "name": "index",
          "type": "uint256"
        }
      ],
      "name": "tokenByIndex",
      "outputs": [
        {
          "internalType": "uint256",
          "name": "",
          "type": "uint256"
        }
      ],
      "stateMutability": "view",
      "type": "function"
    },
    {
      "inputs": [
        {
          "internalType": "address",
          "name": "owner",
          "type": "address"
        },
        {
          "internalType": "uint256",
          "name": "index",
          "type": "uint256"
        }
      ],
      "name": "tokenOfOwnerByIndex",
      "outputs": [
        {
          "internalType": "uint256",
          "name": "",
          "type": "uint256"
        }
      ],
      "stateMutability": "view",
      "type": "function"
    },
    {
      "inputs": [
        {
          "internalType": "uint256",
          "name": "tokenId",
          "type": "uint256"
        }
      ],
      "name": "tokenURI",
      "outputs": [
        {
          "internalType": "string",
          "name": "",
          "type": "string"
        }
      ],
      "stateMutability": "view",
      "type": "function"
    },
    {
      "inputs": [],
      "name": "totalSupply",
      "outputs": [
        {
          "internalType": "uint256",
          "name": "",
          "type": "uint256"
        }
      ],
      "stateMutability": "view",
      "type": "function"
    },
    {
      "inputs": [
        {
          "internalType": "address",
          "name": "from",
          "type": "address"
        },
        {
          "internalType": "address",
          "name": "to",
          "type": "address"
        },
        {
          "internalType": "uint256",
          "name": "tokenId",
          "type": "uint256"
        }
      ],
      "name": "transferFrom",
      "outputs": [],
      "stateMutability": "nonpayable",
      "type": "function"
    },
    {
      "inputs": [
        {
          "internalType": "address",
          "name": "newOwner",
          "type": "address"
        }
      ],
      "name": "transferOwnership",
      "outputs": [],
      "stateMutability": "nonpayable",
      "type": "function"
    },
    {
      "inputs": [
        {
          "internalType": "address",
          "name": "owner",
          "type": "address"
        }
      ],
      "name": "walletOfOwner",
      "outputs": [
        {
          "internalType": "uint256[]",
          "name": "",
          "type": "uint256[]"
        }
      ],
      "stateMutability": "view",
      "type": "function"
    },
    {
      "inputs": [
        {
          "internalType": "address",
          "name": "",
          "type": "address"
        }
      ],
      "name": "whiteList",
      "outputs": [
        {
          "internalType": "bool",
          "name": "",
          "type": "bool"
        }
      ],
      "stateMutability": "view",
      "type": "function"
    },
    {
      "inputs": [],
      "name": "withdrawAll",
      "outputs": [],
      "stateMutability": "nonpayable",
      "type": "function"
    }
  ],
  "transactionHash": "0x3df542e78f33ee30988f0101f8eb449b7f8ae9ede3541fdfd61017bf41ff7a7e",
  "args": [
    "Brain Dance",
    "BrainDance",
    "https://gateway.pinata.cloud/ipfs/Qmc2eWRG4Pv6N4rrDwYABF4YJhNsQCYLn4WV8HcPpLxYNp/"
  ],
  "solcInputHash": "31cdfe7c3600b271585e86c8c319e25b",
  "bytecode": "0x6080604052600e805460ff19169055600060118190556012553480156200002557600080fd5b5060405162004c9238038062004c92833981016040819052620000489162000c92565b8251839083906200006190600090602085019062000af5565b5080516200007790600190602084019062000af5565b505050620000946200008e6200035160201b60201c565b62000355565b42600d558051620000ad90601090602084019062000af5565b5060408051600280825260608201835260009260208301908036833701905050905073396823f49aa9f0e3fac4b939bc27ad5cd88264db816000815181106200010657634e487b7160e01b600052603260045260246000fd5b60200260200101906001600160a01b031690816001600160a01b031681525050733de2f28435f5e1110f7c2a4a0fb963b7509d2c85816001815181106200015d57634e487b7160e01b600052603260045260246000fd5b6001600160a01b03909216602092830291909101909101526200018081620003a7565b601060405160200162000194919062000dc1565b60408051601f1981840301815291905260008052600f60209081528151620001e0927ff4803e074bd026baaf6ed2e288c9515f68c72fb7216eebdd7cae1718a53ec37592019062000af5565b50620001ed600062000475565b6200020e733de2f28435f5e1110f7c2a4a0fb963b7509d2c85600062000533565b601060405160200162000222919062000dff565b60408051601f198184030181529190526001600052600f602090815281516200026f927f169f97de0d9a84d840042b17d3c6b9638b3d6fd9024c9eb0c7a306a17b49f88f92019062000af5565b506200027c600162000475565b6200029d73396823f49aa9f0e3fac4b939bc27ad5cd88264db600162000533565b6010604051602001620002b1919062000de0565b60408051601f198184030181529190526002600052600f60209081528151620002fe927fa74ba3945261e09fde15ba3db55005b205e61eeb4ad811ac0faa2b315bffeead92019062000af5565b506200030b600262000475565b6200032c73892e10cb1299c16e469cf0f79f18cca639d00f5b600262000533565b60036011600082825462000341919062000fbd565b909155506200108a945050505050565b3390565b600a80546001600160a01b038381166001600160a01b0319831681179093556040519116919082907f8be0079c531659141344cd1fd0a4f28419497f9722a3daafe3b4186f6b6457e090600090a35050565b620003b162000351565b6001600160a01b0316620003c462000555565b6001600160a01b031614620003f65760405162461bcd60e51b8152600401620003ed9062000f7c565b60405180910390fd5b60005b815181101562000471576001600c60008484815181106200042a57634e487b7160e01b600052603260045260246000fd5b6020908102919091018101516001600160a01b03168252810191909152604001600020805460ff19169115159190911790556200046960018262000fbd565b9050620003f9565b5050565b6040518060800160405280600081526020016000198152602001600019815260200160006001600160401b03811115620004bf57634e487b7160e01b600052604160045260246000fd5b604051908082528060200260200182016040528015620004e9578160200160208202803683370190505b5090526000828152600b602090815260409182902083518155838201516001820155918301516002830155606083015180516200052d926003850192019062000b84565b50505050565b620004718282604051806020016040528060008152506200056460201b60201c565b600a546001600160a01b031690565b620005708383620005a3565b6200057f60008484846200068e565b6200059e5760405162461bcd60e51b8152600401620003ed9062000e74565b505050565b6001600160a01b038216620005cc5760405162461bcd60e51b8152600401620003ed9062000f47565b620005d781620007c7565b15620005f75760405162461bcd60e51b8152600401620003ed9062000ec6565b6200060560008383620007e4565b6001600160a01b03821660009081526003602052604081208054600192906200063090849062000fbd565b909155505060008181526002602052604080822080546001600160a01b0319166001600160a01b03861690811790915590518392907fddf252ad1be2c89b69c2b068fc378daa952ba7f163c4a11628f55a4df523b3ef908290a45050565b6000620006af846001600160a01b03166200088860201b62001f961760201c565b15620007bb576001600160a01b03841663150b7a02620006ce62000351565b8786866040518563ffffffff1660e01b8152600401620006f2949392919062000e1e565b602060405180830381600087803b1580156200070d57600080fd5b505af192505050801562000740575060408051601f3d908101601f191682019092526200073d9181019062000c61565b60015b620007a0573d80801562000771576040519150601f19603f3d011682016040523d82523d6000602084013e62000776565b606091505b508051620007985760405162461bcd60e51b8152600401620003ed9062000e74565b805181602001fd5b6001600160e01b031916630a85bd0160e11b149050620007bf565b5060015b949350505050565b6000908152600260205260409020546001600160a01b0316151590565b620007fc8383836200059e60201b620009b61760201c565b6001600160a01b0383166200081c5762000816816200088e565b62000842565b816001600160a01b0316836001600160a01b0316146200084257620008428382620008d2565b6001600160a01b03821662000862576200085c816200097f565b6200059e565b826001600160a01b0316826001600160a01b0316146200059e576200059e828262000a5d565b3b151590565b600880546000838152600960205260408120829055600182018355919091527ff3f7a9fe364faab93b216da50a3214154f22a0a2b415b23a84c8169e8b636ee30155565b60006001620008ec8462000aae60201b6200160b1760201c565b620008f8919062000fd8565b6000838152600760205260409020549091508082146200094c576001600160a01b03841660009081526006602090815260408083208584528252808320548484528184208190558352600790915290208190555b5060009182526007602090815260408084208490556001600160a01b039094168352600681528383209183525290812055565b600854600090620009939060019062000fd8565b60008381526009602052604081205460088054939450909284908110620009ca57634e487b7160e01b600052603260045260246000fd5b906000526020600020015490508060088381548110620009fa57634e487b7160e01b600052603260045260246000fd5b600091825260208083209091019290925582815260099091526040808220849055858252812055600880548062000a4157634e487b7160e01b600052603160045260246000fd5b6001900381819060005260206000200160009055905550505050565b600062000a758362000aae60201b6200160b1760201c565b6001600160a01b039093166000908152600660209081526040808320868452825280832085905593825260079052919091209190915550565b60006001600160a01b03821662000ad95760405162461bcd60e51b8152600401620003ed9062000efd565b506001600160a01b031660009081526003602052604090205490565b82805462000b039062001021565b90600052602060002090601f01602090048101928262000b27576000855562000b72565b82601f1062000b4257805160ff191683800117855562000b72565b8280016001018555821562000b72579182015b8281111562000b7257825182559160200191906001019062000b55565b5062000b8092915062000bc1565b5090565b82805482825590600052602060002090810192821562000b72579160200282018281111562000b7257825182559160200191906001019062000b55565b5b8082111562000b80576000815560010162000bc2565b600082601f83011262000be9578081fd5b81516001600160401b038082111562000c065762000c0662001074565b604051601f8301601f19168101602001828111828210171562000c2d5762000c2d62001074565b60405282815284830160200186101562000c45578384fd5b62000c5883602083016020880162000ff2565b95945050505050565b60006020828403121562000c73578081fd5b81516001600160e01b03198116811462000c8b578182fd5b9392505050565b60008060006060848603121562000ca7578182fd5b83516001600160401b038082111562000cbe578384fd5b62000ccc8783880162000bd8565b9450602086015191508082111562000ce2578384fd5b62000cf08783880162000bd8565b9350604086015191508082111562000d06578283fd5b5062000d158682870162000bd8565b9150509250925092565b80546000906002810460018083168062000d3a57607f831692505b602080841082141562000d5b57634e487b7160e01b86526022600452602486fd5b81801562000d72576001811462000d845762000db5565b60ff1986168952848901965062000db5565b62000d8f8862000fb1565b60005b8681101562000dad5781548b82015290850190830162000d92565b505084890196505b50505050505092915050565b600062000dcf828462000d1f565b600360fc1b81526001019392505050565b600062000dee828462000d1f565b601960f91b81526001019392505050565b600062000e0d828462000d1f565b603160f81b81526001019392505050565b600060018060a01b03808716835280861660208401525083604083015260806060830152825180608084015262000e5d8160a085016020870162000ff2565b601f01601f19169190910160a00195945050505050565b60208082526032908201527f4552433732313a207472616e7366657220746f206e6f6e20455243373231526560408201527131b2b4bb32b91034b6b83632b6b2b73a32b960711b606082015260800190565b6020808252601c908201527f4552433732313a20746f6b656e20616c7265616479206d696e74656400000000604082015260600190565b6020808252602a908201527f4552433732313a2062616c616e636520717565727920666f7220746865207a65604082015269726f206164647265737360b01b606082015260800190565b6020808252818101527f4552433732313a206d696e7420746f20746865207a65726f2061646472657373604082015260600190565b6020808252818101527f4f776e61626c653a2063616c6c6572206973206e6f7420746865206f776e6572604082015260600190565b60009081526020902090565b6000821982111562000fd35762000fd36200105e565b500190565b60008282101562000fed5762000fed6200105e565b500390565b60005b838110156200100f57818101518382015260200162000ff5565b838111156200052d5750506000910152565b6002810460018216806200103657607f821691505b602082108114156200105857634e487b7160e01b600052602260045260246000fd5b50919050565b634e487b7160e01b600052601160045260246000fd5b634e487b7160e01b600052604160045260246000fd5b613bf8806200109a6000396000f3fe6080604052600436106102885760003560e01c80636352211e1161015a578063aad66516116100c1578063e14102a91161007a578063e14102a91461074b578063e985e9c51461076b578063eda9d4741461078b578063f0a65d1a146107ab578063f2fde38b146107c0578063f99031a7146107e057610288565b8063aad6651614610696578063b88d4fde146106b6578063bedb86fb146106d6578063c002d23d146106f6578063c87b56dd1461070b578063dc31d1d61461072b57610288565b806378e979251161011357806378e979251461060d578063853828b6146106225780638d041988146106375780638da5cb5b1461064c57806395d89b4114610661578063a22cb4651461067657610288565b80636352211e146105795780636c0360eb146105995780636c26eab9146105ae57806370a08231146105c3578063715018a6146105e3578063755cb234146105f857610288565b80632099eaa7116101fe578063414533de116101b7578063414533de146104b757806342842e0e146104e4578063438b63001461050457806349ae8dc3146105245780634f6ccce714610544578063594ebab71461056457610288565b80632099eaa7146103f557806321d801111461040a57806323b872dd146104375780632f745c5914610457578063372c12b1146104775780633d99de851461049757610288565b80630970eaa3116102505780630970eaa314610349578063105dacdf1461037657806311319b1e146103965780631249c58b146103ab578063162094c4146103b357806318160ddd146103d357610288565b806301ffc9a71461028d57806306c18a31146102c357806306fdde03146102e5578063081812fc14610307578063095ea7b314610327575b600080fd5b34801561029957600080fd5b506102ad6102a8366004612fb1565b610800565b6040516102ba91906132d3565b60405180910390f35b3480156102cf57600080fd5b506102d861082d565b6040516102ba919061320f565b3480156102f157600080fd5b506102fa610845565b6040516102ba91906132de565b34801561031357600080fd5b506102d8610322366004613034565b6108d7565b34801561033357600080fd5b50610347610342366004612e43565b610923565b005b34801561035557600080fd5b50610369610364366004613090565b6109bb565b6040516102ba91906132c0565b34801561038257600080fd5b50610347610391366004612e6c565b610c25565b3480156103a257600080fd5b506102ad610cde565b610347610ce7565b3480156103bf57600080fd5b506103476103ce36600461304c565b610e3e565b3480156103df57600080fd5b506103e8610e9c565b6040516102ba9190613a11565b34801561040157600080fd5b506102d8610ea2565b34801561041657600080fd5b5061042a610425366004613034565b610eba565b6040516102ba91906139fe565b34801561044357600080fd5b50610347610452366004612cc9565b610f51565b34801561046357600080fd5b506103e8610472366004612e43565b610f89565b34801561048357600080fd5b506102ad610492366004612c7d565b610fdb565b3480156104a357600080fd5b506103e86104b2366004612f02565b610ff0565b3480156104c357600080fd5b506104d76104d2366004613034565b61104e565b6040516102ba9190613260565b3480156104f057600080fd5b506103476104ff366004612cc9565b611231565b34801561051057600080fd5b5061036961051f366004612c7d565b61124c565b34801561053057600080fd5b506104d761053f366004613034565b611342565b34801561055057600080fd5b506103e861055f366004613034565b6114cf565b34801561057057600080fd5b506102d861152a565b34801561058557600080fd5b506102d8610594366004613034565b611542565b3480156105a557600080fd5b506102fa611577565b3480156105ba57600080fd5b506103e8611605565b3480156105cf57600080fd5b506103e86105de366004612c7d565b61160b565b3480156105ef57600080fd5b5061034761164f565b34801561060457600080fd5b506103e861169a565b34801561061957600080fd5b506103e86116a0565b34801561062e57600080fd5b506103476116a6565b34801561064357600080fd5b506103e86117ac565b34801561065857600080fd5b506102d86117c3565b34801561066d57600080fd5b506102fa6117d2565b34801561068257600080fd5b50610347610691366004612e1a565b6117e1565b3480156106a257600080fd5b506103476106b1366004612fe9565b6118af565b3480156106c257600080fd5b506103476106d1366004612d04565b611996565b3480156106e257600080fd5b506103476106f1366004612f97565b6119d5565b34801561070257600080fd5b506103e8611a63565b34801561071757600080fd5b506102fa610726366004613034565b611a6e565b34801561073757600080fd5b50610347610746366004612d7c565b611b33565b34801561075757600080fd5b50610347610766366004612e6c565b611c5d565b34801561077757600080fd5b506102ad610786366004612c97565b611d12565b34801561079757600080fd5b506104d76107a6366004613090565b611d40565b3480156107b757600080fd5b50610347611ec2565b3480156107cc57600080fd5b506103476107db366004612c7d565b611f07565b3480156107ec57600080fd5b506102ad6107fb366004612c7d565b611f78565b60006001600160e01b0319821663780e9d6360e01b1480610825575061082582611f9c565b90505b919050565b733de2f28435f5e1110f7c2a4a0fb963b7509d2c8581565b60606000805461085490613b00565b80601f016020809104026020016040519081016040528092919081815260200182805461088090613b00565b80156108cd5780601f106108a2576101008083540402835291602001916108cd565b820191906000526020600020905b8154815290600101906020018083116108b057829003601f168201915b5050505050905090565b60006108e282611fdc565b6109075760405162461bcd60e51b81526004016108fe906136d4565b60405180910390fd5b506000908152600460205260409020546001600160a01b031690565b600061092e82611542565b9050806001600160a01b0316836001600160a01b031614156109625760405162461bcd60e51b81526004016108fe90613842565b806001600160a01b0316610974611ff9565b6001600160a01b03161480610990575061099081610786611ff9565b6109ac5760405162461bcd60e51b81526004016108fe90613553565b6109b68383611ffd565b505050565b6000828152600b6020526040812060038101546060929081906001600160401b038111156109f957634e487b7160e01b600052604160045260246000fd5b604051908082528060200260200182016040528015610a22578160200160208202803683370190505b5090506000915060005b6003840154811015610b4e576000868152600b6020908152604091829020600301805483518184028101840190945280845292610acf929091908490830182828015610a9757602002820191906000526020600020905b815481526020019060010190808311610a83575b5050505050866003018481548110610abf57634e487b7160e01b600052603260045260246000fd5b9060005260206000200154610ff0565b1015610b3c57836003018181548110610af857634e487b7160e01b600052603260045260246000fd5b9060005260206000200154828480610b0f90613b3b565b955081518110610b2f57634e487b7160e01b600052603260045260246000fd5b6020026020010181815250505b610b47600182613a72565b9050610a2c565b506000826001600160401b03811115610b7757634e487b7160e01b600052604160045260246000fd5b604051908082528060200260200182016040528015610ba0578160200160208202803683370190505b5090506000925060005b8251811015610c1857828181518110610bd357634e487b7160e01b600052603260045260246000fd5b6020026020010151828281518110610bfb57634e487b7160e01b600052603260045260246000fd5b6020908102919091010152610c11600182613a72565b9050610baa565b5093505050505b92915050565b610c2d611ff9565b6001600160a01b0316610c3e6117c3565b6001600160a01b031614610c645760405162461bcd60e51b81526004016108fe9061374a565b60005b8151811015610cda576001600c6000848481518110610c9657634e487b7160e01b600052603260045260246000fd5b6020908102919091018101516001600160a01b03168252810191909152604001600020805460ff1916911515919091179055610cd3600182613a72565b9050610c67565b5050565b600e5460ff1681565b600e5460ff1615610d0a5760405162461bcd60e51b81526004016108fe906136af565b600d54610d1a9062015180613a72565b4211610d4557610d2933611f78565b610d455760405162461bcd60e51b81526004016108fe90613883565b61277560115410610d685760405162461bcd60e51b81526004016108fe906134b4565b66f8b0a10e470000341015610d8f5760405162461bcd60e51b81526004016108fe90613817565b6010610d9c60115461206b565b604051602001610dad929190613166565b60408051601f198184030181529181526011546000908152600f60209081529190208251610de093919290910190612ae5565b50610dec60115461218d565b610df833601154612241565b6011546040517fe022f58b17edead5c8a541758e9b66796ebfbf27d6fd8044500f2468ac6e39fc90600090a2600160116000828254610e379190613a72565b9091555050565b610e46611ff9565b6001600160a01b0316610e576117c3565b6001600160a01b031614610e7d5760405162461bcd60e51b81526004016108fe9061374a565b6000828152600f6020908152604090912082516109b692840190612ae5565b60085490565b73892e10cb1299c16e469cf0f79f18cca639d00f5b81565b610ec2612b69565b6000828152600b60209081526040918290208251608081018452815481526001820154818401526002820154818501526003820180548551818602810186019096528086529194929360608601939290830182828015610f4157602002820191906000526020600020905b815481526020019060010190808311610f2d575b5050505050815250509050919050565b610f62610f5c611ff9565b8261225b565b610f7e5760405162461bcd60e51b81526004016108fe906138f1565b6109b68383836122d8565b6000610f948361160b565b8210610fb25760405162461bcd60e51b81526004016108fe9061331f565b506001600160a01b03919091166000908152600660209081526040808320938352929052205490565b600c6020526000908152604090205460ff1681565b6000805b8351811015611045578284828151811061101e57634e487b7160e01b600052603260045260246000fd5b60200260200101511415611033579050610c1f565b61103e600182613a72565b9050610ff4565b50509051919050565b6000818152600b60205260409020600181015460609182916000191461122a576040805160028082526060820190925290816020015b61108c612b69565b815260200190600190039081611084579050509150600b6000826001015481526020019081526020016000206040518060800160405290816000820154815260200160018201548152602001600282015481526020016003820180548060200260200160405190810160405280929190818152602001828054801561113057602002820191906000526020600020905b81548152602001906001019080831161111c575b5050505050815250508260008151811061115a57634e487b7160e01b600052603260045260246000fd5b6020026020010181905250600b600082600201548152602001908152602001600020604051806080016040529081600082015481526020016001820154815260200160028201548152602001600382018054806020026020016040519081016040528092919081815260200182805480156111f457602002820191906000526020600020905b8154815260200190600101908083116111e0575b5050505050815250508260018151811061121e57634e487b7160e01b600052603260045260246000fd5b60200260200101819052505b5092915050565b6109b683838360405180602001604052806000815250611996565b606060006112598361160b565b90506000816001600160401b0381111561128357634e487b7160e01b600052604160045260246000fd5b6040519080825280602002602001820160405280156112ac578160200160208202803683370190505b5090506000806112ba610e9c565b905060005b8181101561133757866001600160a01b03166112dd610594836114cf565b6001600160a01b03161415611325578084846112f881613b3b565b95508151811061131857634e487b7160e01b600052603260045260246000fd5b6020026020010181815250505b8061132f81613b3b565b9150506112bf565b509195945050505050565b6000818152600b602052604081206003810154606092906001600160401b0381111561137e57634e487b7160e01b600052604160045260246000fd5b6040519080825280602002602001820160405280156113b757816020015b6113a4612b69565b81526020019060019003908161139c5790505b50905060005b60038301548110156114c757600b60008460030183815481106113f057634e487b7160e01b600052603260045260246000fd5b906000526020600020015481526020019081526020016000206040518060800160405290816000820154815260200160018201548152602001600282015481526020016003820180548060200260200160405190810160405280929190818152602001828054801561148157602002820191906000526020600020905b81548152602001906001019080831161146d575b5050505050815250508282815181106114aa57634e487b7160e01b600052603260045260246000fd5b60209081029190910101526114c0600182613a72565b90506113bd565b509392505050565b60006114d9610e9c565b82106114f75760405162461bcd60e51b81526004016108fe9061396d565b6008828154811061151857634e487b7160e01b600052603260045260246000fd5b90600052602060002001549050919050565b73396823f49aa9f0e3fac4b939bc27ad5cd88264db81565b6000818152600260205260408120546001600160a01b0316806108255760405162461bcd60e51b81526004016108fe906135fa565b6010805461158490613b00565b80601f01602080910402602001604051908101604052809291908181526020018280546115b090613b00565b80156115fd5780601f106115d2576101008083540402835291602001916115fd565b820191906000526020600020905b8154815290600101906020018083116115e057829003601f168201915b505050505081565b60115481565b60006001600160a01b0382166116335760405162461bcd60e51b81526004016108fe906135b0565b506001600160a01b031660009081526003602052604090205490565b611657611ff9565b6001600160a01b03166116686117c3565b6001600160a01b03161461168e5760405162461bcd60e51b81526004016108fe9061374a565b6116986000612405565b565b61277581565b600d5481565b3373396823f49aa9f0e3fac4b939bc27ad5cd88264db14806116db575033733de2f28435f5e1110f7c2a4a0fb963b7509d2c85145b806116fe57506116e96117c3565b6001600160a01b0316336001600160a01b0316145b61171a5760405162461bcd60e51b81526004016108fe906139b9565b476402540be4008110156117405760405162461bcd60e51b81526004016108fe906132f1565b60006117586064611752846005612457565b9061246a565b905061177873396823f49aa9f0e3fac4b939bc27ad5cd88264db82612476565b610cda733de2f28435f5e1110f7c2a4a0fb963b7509d2c856103e861179d8486613abd565b6117a79190613abd565b612476565b60006011546127756117be9190613abd565b905090565b600a546001600160a01b031690565b60606001805461085490613b00565b6117e9611ff9565b6001600160a01b0316826001600160a01b0316141561181a5760405162461bcd60e51b81526004016108fe9061347d565b8060056000611827611ff9565b6001600160a01b03908116825260208083019390935260409182016000908120918716808252919093529120805460ff19169215159290921790915561186b611ff9565b6001600160a01b03167f17307eab39ab6107e8899845ad3d59bd9653f200f220920489ca2b5937696c31836040516118a391906132d3565b60405180910390a35050565b6118b882611fdc565b80156118c857506118c881611fdc565b6118e45760405162461bcd60e51b81526004016108fe90613942565b808214156119045760405162461bcd60e51b81526004016108fe90613643565b60006127756012546119169190613a72565b90506119238383836124f2565b61192d3382612241565b6000818152600f60209081526040909120855161194c92870190612ae5565b506001601260008282546119609190613a72565b909155505060405181907f8ef1ea5ce94d405f55ffed5be4e495bdf6a9363d5b7af4fe3f4d66678d4ac84f90600090a250505050565b6119a76119a1611ff9565b8361225b565b6119c35760405162461bcd60e51b81526004016108fe906138f1565b6119cf848484846125e5565b50505050565b6119dd611ff9565b6001600160a01b03166119ee6117c3565b6001600160a01b031614611a145760405162461bcd60e51b81526004016108fe9061374a565b600e805460ff191682151517908190556040517f10e1c3fcaff06b68391033547e8f9bb8067d7c4a2e32659b0629153814d242d391611a589160ff909116906132d3565b60405180910390a150565b66f8b0a10e47000081565b6060611a7982611fdc565b611a955760405162461bcd60e51b81526004016108fe906137c8565b6000828152600f602052604090208054611aae90613b00565b80601f0160208091040260200160405190810160405280929190818152602001828054611ada90613b00565b8015611b275780601f10611afc57610100808354040283529160200191611b27565b820191906000526020600020905b815481529060010190602001808311611b0a57829003601f168201915b50505050509050919050565b611b3b611ff9565b6001600160a01b0316611b4c6117c3565b6001600160a01b031614611b725760405162461bcd60e51b81526004016108fe9061374a565b61277560115410611b955760405162461bcd60e51b81526004016108fe90613720565b601154611ba490612775613abd565b815114611bc35760405162461bcd60e51b81526004016108fe90613523565b6011545b612775811015611c52578160115482611be09190613abd565b81518110611bfe57634e487b7160e01b600052603260045260246000fd5b6020026020010151600f60008381526020019081526020016000209080519060200190611c2c929190612ae5565b50611c368161218d565b611c408382612241565b80611c4a81613b3b565b915050611bc7565b505061277560115550565b611c65611ff9565b6001600160a01b0316611c766117c3565b6001600160a01b031614611c9c5760405162461bcd60e51b81526004016108fe9061374a565b60005b8151811015610cda576000600c6000848481518110611cce57634e487b7160e01b600052603260045260246000fd5b6020908102919091018101516001600160a01b03168252810191909152604001600020805460ff1916911515919091179055611d0b600182613a72565b9050611c9f565b6001600160a01b03918216600090815260056020908152604080832093909416825291909152205460ff1690565b60606000611d4e84846109bb565b9050600081516001600160401b03811115611d7957634e487b7160e01b600052604160045260246000fd5b604051908082528060200260200182016040528015611db257816020015b611d9f612b69565b815260200190600190039081611d975790505b50905060005b8251811015611eb957600b6000848381518110611de557634e487b7160e01b600052603260045260246000fd5b6020026020010151815260200190815260200160002060405180608001604052908160008201548152602001600182015481526020016002820154815260200160038201805480602002602001604051908101604052809291908181526020018280548015611e7357602002820191906000526020600020905b815481526020019060010190808311611e5f575b505050505081525050828281518110611e9c57634e487b7160e01b600052603260045260246000fd5b6020908102919091010152611eb2600182613a72565b9050611db8565b50949350505050565b611eca611ff9565b6001600160a01b0316611edb6117c3565b6001600160a01b031614611f015760405162461bcd60e51b81526004016108fe9061374a565b42600d55565b611f0f611ff9565b6001600160a01b0316611f206117c3565b6001600160a01b031614611f465760405162461bcd60e51b81526004016108fe9061374a565b6001600160a01b038116611f6c5760405162461bcd60e51b81526004016108fe906133bc565b611f7581612405565b50565b6001600160a01b03166000908152600c602052604090205460ff1690565b3b151590565b60006001600160e01b031982166380ac58cd60e01b1480611fcd57506001600160e01b03198216635b5e139f60e01b145b80610825575061082582612618565b6000908152600260205260409020546001600160a01b0316151590565b3390565b600081815260046020526040902080546001600160a01b0319166001600160a01b038416908117909155819061203282611542565b6001600160a01b03167f8c5be1e5ebec7d5bd14f71427d1e84f3dd0314c0f7b2291e5b200ac8c7c3b92560405160405180910390a45050565b60608161209057506040805180820190915260018152600360fc1b6020820152610828565b8160005b81156120ba57806120a481613b3b565b91506120b39050600a83613a8a565b9150612094565b6000816001600160401b038111156120e257634e487b7160e01b600052604160045260246000fd5b6040519080825280601f01601f19166020018201604052801561210c576020820181803683370190505b5090505b841561218557612121600183613abd565b915061212e600a86613b56565b612139906030613a72565b60f81b81838151811061215c57634e487b7160e01b600052603260045260246000fd5b60200101906001600160f81b031916908160001a90535061217e600a86613a8a565b9450612110565b949350505050565b6040518060800160405280600081526020016000198152602001600019815260200160006001600160401b038111156121d657634e487b7160e01b600052604160045260246000fd5b6040519080825280602002602001820160405280156121ff578160200160208202803683370190505b5090526000828152600b602090815260409182902083518155838201516001820155918301516002830155606083015180516119cf9260038501920190612b91565b610cda828260405180602001604052806000815250612631565b600061226682611fdc565b6122825760405162461bcd60e51b81526004016108fe906134d7565b600061228d83611542565b9050806001600160a01b0316846001600160a01b031614806122c85750836001600160a01b03166122bd846108d7565b6001600160a01b0316145b8061218557506121858185611d12565b826001600160a01b03166122eb82611542565b6001600160a01b0316146123115760405162461bcd60e51b81526004016108fe9061377f565b6001600160a01b0382166123375760405162461bcd60e51b81526004016108fe90613439565b612342838383612664565b61234d600082611ffd565b6001600160a01b0383166000908152600360205260408120805460019290612376908490613abd565b90915550506001600160a01b03821660009081526003602052604081208054600192906123a4908490613a72565b909155505060008181526002602052604080822080546001600160a01b0319166001600160a01b0386811691821790925591518493918716917fddf252ad1be2c89b69c2b068fc378daa952ba7f163c4a11628f55a4df523b3ef91a4505050565b600a80546001600160a01b038381166001600160a01b0319831681179093556040519116919082907f8be0079c531659141344cd1fd0a4f28419497f9722a3daafe3b4186f6b6457e090600090a35050565b60006124638284613a9e565b9392505050565b60006124638284613a8a565b6000826001600160a01b03168260405161248f9061320c565b60006040518083038185875af1925050503d80600081146124cc576040519150601f19603f3d011682016040523d82523d6000602084013e6124d1565b606091505b50509050806109b65760405162461bcd60e51b81526004016108fe906138c7565b60405180608001604052806000815260200184815260200183815260200160006001600160401b0381111561253757634e487b7160e01b600052604160045260246000fd5b604051908082528060200260200182016040528015612560578160200160208202803683370190505b5090526000828152600b602090815260409182902083518155838201516001820155918301516002830155606083015180516125a29260038501920190612b91565b5050506000928352600b60209081526040808520600390810180546001818101835591885284882001859055948652908520018054938401815584529092200155565b6125f08484846122d8565b6125fc848484846126ed565b6119cf5760405162461bcd60e51b81526004016108fe9061336a565b6001600160e01b031981166301ffc9a760e01b14919050565b61263b8383612808565b61264860008484846126ed565b6109b65760405162461bcd60e51b81526004016108fe9061336a565b61266f8383836109b6565b6001600160a01b03831661268b57612686816128e7565b6126ae565b816001600160a01b0316836001600160a01b0316146126ae576126ae838261292b565b6001600160a01b0382166126ca576126c5816129c8565b6109b6565b826001600160a01b0316826001600160a01b0316146109b6576109b68282612aa1565b6000612701846001600160a01b0316611f96565b156127fd57836001600160a01b031663150b7a0261271d611ff9565b8786866040518563ffffffff1660e01b815260040161273f9493929190613223565b602060405180830381600087803b15801561275957600080fd5b505af1925050508015612789575060408051601f3d908101601f1916820190925261278691810190612fcd565b60015b6127e3573d8080156127b7576040519150601f19603f3d011682016040523d82523d6000602084013e6127bc565b606091505b5080516127db5760405162461bcd60e51b81526004016108fe9061336a565b805181602001fd5b6001600160e01b031916630a85bd0160e11b149050612185565b506001949350505050565b6001600160a01b03821661282e5760405162461bcd60e51b81526004016108fe9061367a565b61283781611fdc565b156128545760405162461bcd60e51b81526004016108fe90613402565b61286060008383612664565b6001600160a01b0382166000908152600360205260408120805460019290612889908490613a72565b909155505060008181526002602052604080822080546001600160a01b0319166001600160a01b03861690811790915590518392907fddf252ad1be2c89b69c2b068fc378daa952ba7f163c4a11628f55a4df523b3ef908290a45050565b600880546000838152600960205260408120829055600182018355919091527ff3f7a9fe364faab93b216da50a3214154f22a0a2b415b23a84c8169e8b636ee30155565b600060016129388461160b565b6129429190613abd565b600083815260076020526040902054909150808214612995576001600160a01b03841660009081526006602090815260408083208584528252808320548484528184208190558352600790915290208190555b5060009182526007602090815260408084208490556001600160a01b039094168352600681528383209183525290812055565b6008546000906129da90600190613abd565b60008381526009602052604081205460088054939450909284908110612a1057634e487b7160e01b600052603260045260246000fd5b906000526020600020015490508060088381548110612a3f57634e487b7160e01b600052603260045260246000fd5b6000918252602080832090910192909255828152600990915260408082208490558582528120556008805480612a8557634e487b7160e01b600052603160045260246000fd5b6001900381819060005260206000200160009055905550505050565b6000612aac8361160b565b6001600160a01b039093166000908152600660209081526040808320868452825280832085905593825260079052919091209190915550565b828054612af190613b00565b90600052602060002090601f016020900481019282612b135760008555612b59565b82601f10612b2c57805160ff1916838001178555612b59565b82800160010185558215612b59579182015b82811115612b59578251825591602001919060010190612b3e565b50612b65929150612bcb565b5090565b6040518060800160405280600081526020016000815260200160008152602001606081525090565b828054828255906000526020600020908101928215612b595791602002820182811115612b59578251825591602001919060010190612b3e565b5b80821115612b655760008155600101612bcc565b60006001600160401b03831115612bf957612bf9613b96565b612c0c601f8401601f1916602001613a1a565b9050828152838383011115612c2057600080fd5b828260208301376000602084830101529392505050565b80356001600160a01b038116811461082857600080fd5b8035801515811461082857600080fd5b600082601f830112612c6e578081fd5b61246383833560208501612be0565b600060208284031215612c8e578081fd5b61246382612c37565b60008060408385031215612ca9578081fd5b612cb283612c37565b9150612cc060208401612c37565b90509250929050565b600080600060608486031215612cdd578081fd5b612ce684612c37565b9250612cf460208501612c37565b9150604084013590509250925092565b60008060008060808587031215612d19578081fd5b612d2285612c37565b9350612d3060208601612c37565b92506040850135915060608501356001600160401b03811115612d51578182fd5b8501601f81018713612d61578182fd5b612d7087823560208401612be0565b91505092959194509250565b60008060408385031215612d8e578182fd5b612d9783612c37565b91506020808401356001600160401b03811115612db2578283fd5b8401601f81018613612dc2578283fd5b8035612dd5612dd082613a43565b613a1a565b81815283810190838501865b84811015612e0a57612df88b888435890101612c5e565b84529286019290860190600101612de1565b5096999098509650505050505050565b60008060408385031215612e2c578182fd5b612e3583612c37565b9150612cc060208401612c4e565b60008060408385031215612e55578182fd5b612e5e83612c37565b946020939093013593505050565b60006020808385031215612e7e578182fd5b82356001600160401b03811115612e93578283fd5b8301601f81018513612ea3578283fd5b8035612eb1612dd082613a43565b8181528381019083850185840285018601891015612ecd578687fd5b8694505b83851015612ef657612ee281612c37565b835260019490940193918501918501612ed1565b50979650505050505050565b60008060408385031215612f14578182fd5b82356001600160401b03811115612f29578283fd5b8301601f81018513612f39578283fd5b80356020612f49612dd083613a43565b82815281810190848301838502860184018a1015612f65578788fd5b8795505b84861015612f87578035835260019590950194918301918301612f69565b5098969091013596505050505050565b600060208284031215612fa8578081fd5b61246382612c4e565b600060208284031215612fc2578081fd5b813561246381613bac565b600060208284031215612fde578081fd5b815161246381613bac565b600080600060608486031215612ffd578081fd5b83356001600160401b03811115613012578182fd5b61301e86828701612c5e565b9660208601359650604090950135949350505050565b600060208284031215613045578081fd5b5035919050565b6000806040838503121561305e578182fd5b8235915060208301356001600160401b0381111561307a578182fd5b61308685828601612c5e565b9150509250929050565b600080604083850312156130a2578182fd5b50508035926020909101359150565b6000815180845260208085019450808401835b838110156130e0578151875295820195908201906001016130c4565b509495945050505050565b60008151808452613103816020860160208601613ad4565b601f01601f19169290920160200192915050565b60008151613129818560208601613ad4565b9290920192915050565b600081518352602082015160208401526040820151604084015260608201516080606085015261218560808501826130b1565b825460009081906002810460018083168061318257607f831692505b60208084108214156131a257634e487b7160e01b87526022600452602487fd5b8180156131b657600181146131c7576131f3565b60ff198616895284890196506131f3565b6131d08b613a66565b885b868110156131eb5781548b8201529085019083016131d2565b505084890196505b5050505050506132038185613117565b95945050505050565b90565b6001600160a01b0391909116815260200190565b6001600160a01b0385811682528416602082015260408101839052608060608201819052600090613256908301846130eb565b9695505050505050565b6000602080830181845280855180835260408601915060408482028701019250838701855b828110156132b357603f198886030184526132a1858351613133565b94509285019290850190600101613285565b5092979650505050505050565b60006020825261246360208301846130b1565b901515815260200190565b60006020825261246360208301846130eb565b60208082526014908201527310985b185b98d9481a5cc81d1bdbc81cdb585b1b60621b604082015260600190565b6020808252602b908201527f455243373231456e756d657261626c653a206f776e657220696e646578206f7560408201526a74206f6620626f756e647360a81b606082015260800190565b60208082526032908201527f4552433732313a207472616e7366657220746f206e6f6e20455243373231526560408201527131b2b4bb32b91034b6b83632b6b2b73a32b960711b606082015260800190565b60208082526026908201527f4f776e61626c653a206e6577206f776e657220697320746865207a65726f206160408201526564647265737360d01b606082015260800190565b6020808252601c908201527f4552433732313a20746f6b656e20616c7265616479206d696e74656400000000604082015260600190565b60208082526024908201527f4552433732313a207472616e7366657220746f20746865207a65726f206164646040820152637265737360e01b606082015260800190565b60208082526019908201527f4552433732313a20617070726f766520746f2063616c6c657200000000000000604082015260600190565b60208082526009908201526813585e081b1a5b5a5d60ba1b604082015260600190565b6020808252602c908201527f4552433732313a206f70657261746f7220717565727920666f72206e6f6e657860408201526b34b9ba32b73a103a37b5b2b760a11b606082015260800190565b6020808252601690820152750a8ded6cadcaae4d2e640e6d0deead8c840dac2e8c6d60531b604082015260600190565b60208082526038908201527f4552433732313a20617070726f76652063616c6c6572206973206e6f74206f7760408201527f6e6572206e6f7220617070726f76656420666f7220616c6c0000000000000000606082015260800190565b6020808252602a908201527f4552433732313a2062616c616e636520717565727920666f7220746865207a65604082015269726f206164647265737360b01b606082015260800190565b60208082526029908201527f4552433732313a206f776e657220717565727920666f72206e6f6e657869737460408201526832b73a103a37b5b2b760b91b606082015260800190565b6020808252601a908201527f506172656e74732073686f756c64206e6f742062652073616d65000000000000604082015260600190565b6020808252818101527f4552433732313a206d696e7420746f20746865207a65726f2061646472657373604082015260600190565b6020808252600b908201526a14d85b194814185d5cd95960aa1b604082015260600190565b6020808252602c908201527f4552433732313a20617070726f76656420717565727920666f72206e6f6e657860408201526b34b9ba32b73a103a37b5b2b760a11b606082015260800190565b60208082526010908201526f4e6f20756e736f6c6420746f6b656e7360801b604082015260600190565b6020808252818101527f4f776e61626c653a2063616c6c6572206973206e6f7420746865206f776e6572604082015260600190565b60208082526029908201527f4552433732313a207472616e73666572206f6620746f6b656e2074686174206960408201526839903737ba1037bbb760b91b606082015260800190565b6020808252602f908201527f4552433732314d657461646174613a2055524920717565727920666f72206e6f60408201526e3732bc34b9ba32b73a103a37b5b2b760891b606082015260800190565b60208082526011908201527056616c75652062656c6f7720707269636560781b604082015260600190565b60208082526021908201527f4552433732313a20617070726f76616c20746f2063757272656e74206f776e656040820152603960f91b606082015260800190565b60208082526024908201527f41646472657373206973206e6f7420696e636c7564656420696e207768697465604082015263131a5cdd60e21b606082015260800190565b60208082526010908201526f2a3930b739b332b9103330b4b632b21760811b604082015260600190565b60208082526031908201527f4552433732313a207472616e736665722063616c6c6572206973206e6f74206f6040820152701ddb995c881b9bdc88185c1c1c9bdd9959607a1b606082015260800190565b60208082526011908201527014185c995b9d1cc81b9bdd08195e1a5cdd607a1b604082015260600190565b6020808252602c908201527f455243373231456e756d657261626c653a20676c6f62616c20696e646578206f60408201526b7574206f6620626f756e647360a01b606082015260800190565b60208082526025908201527f596f7520646f6e27742068617665207769746864726177696e672070726976696040820152646c6564676560d81b606082015260800190565b6000602082526124636020830184613133565b90815260200190565b6040518181016001600160401b0381118282101715613a3b57613a3b613b96565b604052919050565b60006001600160401b03821115613a5c57613a5c613b96565b5060209081020190565b60009081526020902090565b60008219821115613a8557613a85613b6a565b500190565b600082613a9957613a99613b80565b500490565b6000816000190483118215151615613ab857613ab8613b6a565b500290565b600082821015613acf57613acf613b6a565b500390565b60005b83811015613aef578181015183820152602001613ad7565b838111156119cf5750506000910152565b600281046001821680613b1457607f821691505b60208210811415613b3557634e487b7160e01b600052602260045260246000fd5b50919050565b6000600019821415613b4f57613b4f613b6a565b5060010190565b600082613b6557613b65613b80565b500690565b634e487b7160e01b600052601160045260246000fd5b634e487b7160e01b600052601260045260246000fd5b634e487b7160e01b600052604160045260246000fd5b6001600160e01b031981168114611f7557600080fdfea2646970667358221220d19cde88111db33ace699abf40e5a2413cbc43d307adca44fac6df2710feb31564736f6c63430008000033",
  "devdoc": {
    "kind": "dev",
    "methods": {
      "approve(address,uint256)": {
        "details": "See {IERC721-approve}."
      },
      "balanceOf(address)": {
        "details": "See {IERC721-balanceOf}."
      },
      "getApproved(uint256)": {
        "details": "See {IERC721-getApproved}."
      },
      "isApprovedForAll(address,address)": {
        "details": "See {IERC721-isApprovedForAll}."
      },
      "name()": {
        "details": "See {IERC721Metadata-name}."
      },
      "owner()": {
        "details": "Returns the address of the current owner."
      },
      "ownerOf(uint256)": {
        "details": "See {IERC721-ownerOf}."
      },
      "renounceOwnership()": {
        "details": "Leaves the contract without owner. It will not be possible to call `onlyOwner` functions anymore. Can only be called by the current owner. NOTE: Renouncing ownership will leave the contract without an owner, thereby removing any functionality that is only available to the owner."
      },
      "safeTransferFrom(address,address,uint256)": {
        "details": "See {IERC721-safeTransferFrom}."
      },
      "safeTransferFrom(address,address,uint256,bytes)": {
        "details": "See {IERC721-safeTransferFrom}."
      },
      "setApprovalForAll(address,bool)": {
        "details": "See {IERC721-setApprovalForAll}."
      },
      "supportsInterface(bytes4)": {
        "details": "See {IERC165-supportsInterface}."
      },
      "symbol()": {
        "details": "See {IERC721Metadata-symbol}."
      },
      "tokenByIndex(uint256)": {
        "details": "See {IERC721Enumerable-tokenByIndex}."
      },
      "tokenOfOwnerByIndex(address,uint256)": {
        "details": "See {IERC721Enumerable-tokenOfOwnerByIndex}."
      },
      "tokenURI(uint256)": {
        "details": "See {IERC721Metadata-tokenURI}."
      },
      "totalSupply()": {
        "details": "See {IERC721Enumerable-totalSupply}."
      },
      "transferFrom(address,address,uint256)": {
        "details": "See {IERC721-transferFrom}."
      },
      "transferOwnership(address)": {
        "details": "Transfers ownership of the contract to a new account (`newOwner`). Can only be called by the current owner."
      }
    },
    "version": 1
  },
  "userdoc": {
    "kind": "user",
    "methods": {},
    "version": 1
  },
  "storageLayout": {
    "storage": [
      {
        "astId": 129,
        "contract": "contracts/BrainDanceNft.sol:BrainDanceNft",
        "label": "_name",
        "offset": 0,
        "slot": "0",
        "type": "t_string_storage"
      },
      {
        "astId": 131,
        "contract": "contracts/BrainDanceNft.sol:BrainDanceNft",
        "label": "_symbol",
        "offset": 0,
        "slot": "1",
        "type": "t_string_storage"
      },
      {
        "astId": 135,
        "contract": "contracts/BrainDanceNft.sol:BrainDanceNft",
        "label": "_owners",
        "offset": 0,
        "slot": "2",
        "type": "t_mapping(t_uint256,t_address)"
      },
      {
        "astId": 139,
        "contract": "contracts/BrainDanceNft.sol:BrainDanceNft",
        "label": "_balances",
        "offset": 0,
        "slot": "3",
        "type": "t_mapping(t_address,t_uint256)"
      },
      {
        "astId": 143,
        "contract": "contracts/BrainDanceNft.sol:BrainDanceNft",
        "label": "_tokenApprovals",
        "offset": 0,
        "slot": "4",
        "type": "t_mapping(t_uint256,t_address)"
      },
      {
        "astId": 149,
        "contract": "contracts/BrainDanceNft.sol:BrainDanceNft",
        "label": "_operatorApprovals",
        "offset": 0,
        "slot": "5",
        "type": "t_mapping(t_address,t_mapping(t_address,t_bool))"
      },
      {
        "astId": 1068,
        "contract": "contracts/BrainDanceNft.sol:BrainDanceNft",
        "label": "_ownedTokens",
        "offset": 0,
        "slot": "6",
        "type": "t_mapping(t_address,t_mapping(t_uint256,t_uint256))"
      },
      {
        "astId": 1072,
        "contract": "contracts/BrainDanceNft.sol:BrainDanceNft",
        "label": "_ownedTokensIndex",
        "offset": 0,
        "slot": "7",
        "type": "t_mapping(t_uint256,t_uint256)"
      },
      {
        "astId": 1075,
        "contract": "contracts/BrainDanceNft.sol:BrainDanceNft",
        "label": "_allTokens",
        "offset": 0,
        "slot": "8",
        "type": "t_array(t_uint256)dyn_storage"
      },
      {
        "astId": 1079,
        "contract": "contracts/BrainDanceNft.sol:BrainDanceNft",
        "label": "_allTokensIndex",
        "offset": 0,
        "slot": "9",
        "type": "t_mapping(t_uint256,t_uint256)"
      },
      {
        "astId": 7,
        "contract": "contracts/BrainDanceNft.sol:BrainDanceNft",
        "label": "_owner",
        "offset": 0,
        "slot": "10",
        "type": "t_address"
      },
      {
        "astId": 3021,
        "contract": "contracts/BrainDanceNft.sol:BrainDanceNft",
        "label": "_heros",
        "offset": 0,
        "slot": "11",
        "type": "t_mapping(t_uint256,t_struct(Hero)3016_storage)"
      },
      {
        "astId": 2357,
        "contract": "contracts/BrainDanceNft.sol:BrainDanceNft",
        "label": "whiteList",
        "offset": 0,
        "slot": "12",
        "type": "t_mapping(t_address,t_bool)"
      },
      {
        "astId": 2359,
        "contract": "contracts/BrainDanceNft.sol:BrainDanceNft",
        "label": "startTime",
        "offset": 0,
        "slot": "13",
        "type": "t_uint256"
      },
      {
        "astId": 2362,
        "contract": "contracts/BrainDanceNft.sol:BrainDanceNft",
        "label": "bPaused",
        "offset": 0,
        "slot": "14",
        "type": "t_bool"
      },
      {
        "astId": 2366,
        "contract": "contracts/BrainDanceNft.sol:BrainDanceNft",
        "label": "_tokenUris",
        "offset": 0,
        "slot": "15",
        "type": "t_mapping(t_uint256,t_string_storage)"
      },
      {
        "astId": 2368,
        "contract": "contracts/BrainDanceNft.sol:BrainDanceNft",
        "label": "baseURI",
        "offset": 0,
        "slot": "16",
        "type": "t_string_storage"
      },
      {
        "astId": 2371,
        "contract": "contracts/BrainDanceNft.sol:BrainDanceNft",
        "label": "mintedInitialTokenCount",
        "offset": 0,
        "slot": "17",
        "type": "t_uint256"
      },
      {
        "astId": 2374,
        "contract": "contracts/BrainDanceNft.sol:BrainDanceNft",
        "label": "breedTokenCount",
        "offset": 0,
        "slot": "18",
        "type": "t_uint256"
      }
    ],
    "types": {
      "t_address": {
        "encoding": "inplace",
        "label": "address",
        "numberOfBytes": "20"
      },
      "t_array(t_uint256)dyn_storage": {
        "base": "t_uint256",
        "encoding": "dynamic_array",
        "label": "uint256[]",
        "numberOfBytes": "32"
      },
      "t_bool": {
        "encoding": "inplace",
        "label": "bool",
        "numberOfBytes": "1"
      },
      "t_mapping(t_address,t_bool)": {
        "encoding": "mapping",
        "key": "t_address",
        "label": "mapping(address => bool)",
        "numberOfBytes": "32",
        "value": "t_bool"
      },
      "t_mapping(t_address,t_mapping(t_address,t_bool))": {
        "encoding": "mapping",
        "key": "t_address",
        "label": "mapping(address => mapping(address => bool))",
        "numberOfBytes": "32",
        "value": "t_mapping(t_address,t_bool)"
      },
      "t_mapping(t_address,t_mapping(t_uint256,t_uint256))": {
        "encoding": "mapping",
        "key": "t_address",
        "label": "mapping(address => mapping(uint256 => uint256))",
        "numberOfBytes": "32",
        "value": "t_mapping(t_uint256,t_uint256)"
      },
      "t_mapping(t_address,t_uint256)": {
        "encoding": "mapping",
        "key": "t_address",
        "label": "mapping(address => uint256)",
        "numberOfBytes": "32",
        "value": "t_uint256"
      },
      "t_mapping(t_uint256,t_address)": {
        "encoding": "mapping",
        "key": "t_uint256",
        "label": "mapping(uint256 => address)",
        "numberOfBytes": "32",
        "value": "t_address"
      },
      "t_mapping(t_uint256,t_string_storage)": {
        "encoding": "mapping",
        "key": "t_uint256",
        "label": "mapping(uint256 => string)",
        "numberOfBytes": "32",
        "value": "t_string_storage"
      },
      "t_mapping(t_uint256,t_struct(Hero)3016_storage)": {
        "encoding": "mapping",
        "key": "t_uint256",
        "label": "mapping(uint256 => struct HeroFactory.Hero)",
        "numberOfBytes": "32",
        "value": "t_struct(Hero)3016_storage"
      },
      "t_mapping(t_uint256,t_uint256)": {
        "encoding": "mapping",
        "key": "t_uint256",
        "label": "mapping(uint256 => uint256)",
        "numberOfBytes": "32",
        "value": "t_uint256"
      },
      "t_string_storage": {
        "encoding": "bytes",
        "label": "string",
        "numberOfBytes": "32"
      },
      "t_struct(Hero)3016_storage": {
        "encoding": "inplace",
        "label": "struct HeroFactory.Hero",
        "members": [
          {
            "astId": 3008,
            "contract": "contracts/BrainDanceNft.sol:BrainDanceNft",
            "label": "traits",
            "offset": 0,
            "slot": "0",
            "type": "t_uint256"
          },
          {
            "astId": 3010,
            "contract": "contracts/BrainDanceNft.sol:BrainDanceNft",
            "label": "fatherId",
            "offset": 0,
            "slot": "1",
            "type": "t_uint256"
          },
          {
            "astId": 3012,
            "contract": "contracts/BrainDanceNft.sol:BrainDanceNft",
            "label": "motherId",
            "offset": 0,
            "slot": "2",
            "type": "t_uint256"
          },
          {
            "astId": 3015,
            "contract": "contracts/BrainDanceNft.sol:BrainDanceNft",
            "label": "childrenIds",
            "offset": 0,
            "slot": "3",
            "type": "t_array(t_uint256)dyn_storage"
          }
        ],
        "numberOfBytes": "128"
      },
      "t_uint256": {
        "encoding": "inplace",
        "label": "uint256",
        "numberOfBytes": "32"
      }
    }
  }
}