{
  "address": "0xba56DB44c0d85c044BE19f907c31F511473ce1Fc",
  "abi": [
    {
      "inputs": [
        {
          "internalType": "string",
          "name": "name_",
          "type": "string"
        },
        {
          "internalType": "string",
          "name": "symbol_",
          "type": "string"
        },
        {
          "internalType": "string",
          "name": "baseURI_",
          "type": "string"
        }
      ],
      "stateMutability": "nonpayable",
      "type": "constructor"
    },
    {
      "anonymous": false,
      "inputs": [
        {
          "indexed": true,
          "internalType": "address",
          "name": "owner",
          "type": "address"
        },
        {
          "indexed": true,
          "internalType": "address",
          "name": "approved",
          "type": "address"
        },
        {
          "indexed": true,
          "internalType": "uint256",
          "name": "tokenId",
          "type": "uint256"
        }
      ],
      "name": "Approval",
      "type": "event"
    },
    {
      "anonymous": false,
      "inputs": [
        {
          "indexed": true,
          "internalType": "address",
          "name": "owner",
          "type": "address"
        },
        {
          "indexed": true,
          "internalType": "address",
          "name": "operator",
          "type": "address"
        },
        {
          "indexed": false,
          "internalType": "bool",
          "name": "approved",
          "type": "bool"
        }
      ],
      "name": "ApprovalForAll",
      "type": "event"
    },
    {
      "anonymous": false,
      "inputs": [
        {
          "indexed": true,
          "internalType": "uint256",
          "name": "tokenId",
          "type": "uint256"
        }
      ],
      "name": "BreededNewNFT",
      "type": "event"
    },
    {
      "anonymous": false,
      "inputs": [
        {
          "indexed": true,
          "internalType": "uint256",
          "name": "tokenId",
          "type": "uint256"
        }
      ],
      "name": "MintedNewNFT",
      "type": "event"
    },
    {
      "anonymous": false,
      "inputs": [
        {
          "indexed": true,
          "internalType": "address",
          "name": "previousOwner",
          "type": "address"
        },
        {
          "indexed": true,
          "internalType": "address",
          "name": "newOwner",
          "type": "address"
        }
      ],
      "name": "OwnershipTransferred",
      "type": "event"
    },
    {
      "anonymous": false,
      "inputs": [
        {
          "indexed": false,
          "internalType": "bool",
          "name": "pause",
          "type": "bool"
        }
      ],
      "name": "PauseEvent",
      "type": "event"
    },
    {
      "anonymous": false,
      "inputs": [
        {
          "indexed": true,
          "internalType": "address",
          "name": "from",
          "type": "address"
        },
        {
          "indexed": true,
          "internalType": "address",
          "name": "to",
          "type": "address"
        },
        {
          "indexed": true,
          "internalType": "uint256",
          "name": "tokenId",
          "type": "uint256"
        }
      ],
      "name": "Transfer",
      "type": "event"
    },
    {
      "inputs": [],
      "name": "ABC_ADDRESS",
      "outputs": [
        {
          "internalType": "address",
          "name": "",
          "type": "address"
        }
      ],
      "stateMutability": "view",
      "type": "function"
    },
    {
      "inputs": [],
      "name": "ARTIST_ADDRESS",
      "outputs": [
        {
          "internalType": "address",
          "name": "",
          "type": "address"
        }
      ],
      "stateMutability": "view",
      "type": "function"
    },
    {
      "inputs": [],
      "name": "INITIAL_TOKEN_COUNT",
      "outputs": [
        {
          "internalType": "uint256",
          "name": "",
          "type": "uint256"
        }
      ],
      "stateMutability": "view",
      "type": "function"
    },
    {
      "inputs": [],
      "name": "MINT_PRICE",
      "outputs": [
        {
          "internalType": "uint256",
          "name": "",
          "type": "uint256"
        }
      ],
      "stateMutability": "view",
      "type": "function"
    },
    {
      "inputs": [],
      "name": "OWNER_ADDRESS",
      "outputs": [
        {
          "internalType": "address",
          "name": "",
          "type": "address"
        }
      ],
      "stateMutability": "view",
      "type": "function"
    },
    {
      "inputs": [
        {
          "internalType": "address",
          "name": "to",
          "type": "address"
        },
        {
          "internalType": "uint256",
          "name": "tokenId",
          "type": "uint256"
        }
      ],
      "name": "approve",
      "outputs": [],
      "stateMutability": "nonpayable",
      "type": "function"
    },
    {
      "inputs": [],
      "name": "bPaused",
      "outputs": [
        {
          "internalType": "bool",
          "name": "",
          "type": "bool"
        }
      ],
      "stateMutability": "view",
      "type": "function"
    },
    {
      "inputs": [
        {
          "internalType": "address",
          "name": "owner",
          "type": "address"
        }
      ],
      "name": "balanceOf",
      "outputs": [
        {
          "internalType": "uint256",
          "name": "",
          "type": "uint256"
        }
      ],
      "stateMutability": "view",
      "type": "function"
    },
    {
      "inputs": [],
      "name": "baseURI",
      "outputs": [
        {
          "internalType": "string",
          "name": "",
          "type": "string"
        }
      ],
      "stateMutability": "view",
      "type": "function"
    },
    {
      "inputs": [
        {
          "internalType": "uint256[]",
          "name": "array",
          "type": "uint256[]"
        },
        {
          "internalType": "uint256",
          "name": "val",
          "type": "uint256"
        }
      ],
      "name": "findIndex",
      "outputs": [
        {
          "internalType": "uint256",
          "name": "",
          "type": "uint256"
        }
      ],
      "stateMutability": "pure",
      "type": "function"
    },
    {
      "inputs": [
        {
          "internalType": "uint256",
          "name": "tokenId",
          "type": "uint256"
        }
      ],
      "name": "getApproved",
      "outputs": [
        {
          "internalType": "address",
          "name": "",
          "type": "address"
        }
      ],
      "stateMutability": "view",
      "type": "function"
    },
    {
      "inputs": [
        {
          "internalType": "uint256",
          "name": "tokenId_",
          "type": "uint256"
        }
      ],
      "name": "getChildren",
      "outputs": [
        {
          "components": [
            {
              "internalType": "uint256",
              "name": "traits",
              "type": "uint256"
            },
            {
              "internalType": "uint256",
              "name": "fatherId",
              "type": "uint256"
            },
            {
              "internalType": "uint256",
              "name": "motherId",
              "type": "uint256"
            },
            {
              "internalType": "uint256[]",
              "name": "childrenIds",
              "type": "uint256[]"
            }
          ],
          "internalType": "struct HeroFactory.Hero[]",
          "name": "",
          "type": "tuple[]"
        }
      ],
      "stateMutability": "view",
      "type": "function"
    },
    {
      "inputs": [
        {
          "internalType": "uint256",
          "name": "heroId1_",
          "type": "uint256"
        },
        {
          "internalType": "uint256",
          "name": "heroId2_",
          "type": "uint256"
        }
      ],
      "name": "getChildrenIdsWithParent",
      "outputs": [
        {
          "internalType": "uint256[]",
          "name": "",
          "type": "uint256[]"
        }
      ],
      "stateMutability": "view",
      "type": "function"
    },
    {
      "inputs": [
        {
          "internalType": "uint256",
          "name": "heroId1_",
          "type": "uint256"
        },
        {
          "internalType": "uint256",
          "name": "heroId2_",
          "type": "uint256"
        }
      ],
      "name": "getChildrenWithParent",
      "outputs": [
        {
          "components": [
            {
              "internalType": "uint256",
              "name": "traits",
              "type": "uint256"
            },
            {
              "internalType": "uint256",
              "name": "fatherId",
              "type": "uint256"
            },
            {
              "internalType": "uint256",
              "name": "motherId",
              "type": "uint256"
            },
            {
              "internalType": "uint256[]",
              "name": "childrenIds",
              "type": "uint256[]"
            }
          ],
          "internalType": "struct HeroFactory.Hero[]",
          "name": "",
          "type": "tuple[]"
        }
      ],
      "stateMutability": "view",
      "type": "function"
    },
    {
      "inputs": [
        {
          "internalType": "uint256",
          "name": "tokenId_",
          "type": "uint256"
        }
      ],
      "name": "getHero",
      "outputs": [
        {
          "components": [
            {
              "internalType": "uint256",
              "name": "traits",
              "type": "uint256"
            },
            {
              "internalType": "uint256",
              "name": "fatherId",
              "type": "uint256"
            },
            {
              "internalType": "uint256",
              "name": "motherId",
              "type": "uint256"
            },
            {
              "internalType": "uint256[]",
              "name": "childrenIds",
              "type": "uint256[]"
            }
          ],
          "internalType": "struct HeroFactory.Hero",
          "name": "",
          "type": "tuple"
        }
      ],
      "stateMutability": "view",
      "type": "function"
    },
    {
      "inputs": [
        {
          "internalType": "uint256",
          "name": "tokenId_",
          "type": "uint256"
        }
      ],
      "name": "getParent",
      "outputs": [
        {
          "components": [
            {
              "internalType": "uint256",
              "name": "traits",
              "type": "uint256"
            },
            {
              "internalType": "uint256",
              "name": "fatherId",
              "type": "uint256"
            },
            {
              "internalType": "uint256",
              "name": "motherId",
              "type": "uint256"
            },
            {
              "internalType": "uint256[]",
              "name": "childrenIds",
              "type": "uint256[]"
            }
          ],
          "internalType": "struct HeroFactory.Hero[]",
          "name": "",
          "type": "tuple[]"
        }
      ],
      "stateMutability": "view",
      "type": "function"
    },
    {
      "inputs": [
        {
          "internalType": "address",
          "name": "owner",
          "type": "address"
        },
        {
          "internalType": "address",
          "name": "operator",
          "type": "address"
        }
      ],
      "name": "isApprovedForAll",
      "outputs": [
        {
          "internalType": "bool",
          "name": "",
          "type": "bool"
        }
      ],
      "stateMutability": "view",
      "type": "function"
    },
    {
      "inputs": [],
      "name": "isPresale",
      "outputs": [
        {
          "internalType": "bool",
          "name": "",
          "type": "bool"
        }
      ],
      "stateMutability": "view",
      "type": "function"
    },
    {
      "inputs": [
        {
          "internalType": "bytes32[]",
          "name": "proof",
          "type": "bytes32[]"
        },
        {
          "internalType": "string",
          "name": "leaf",
          "type": "string"
        }
      ],
      "name": "mint",
      "outputs": [],
      "stateMutability": "payable",
      "type": "function"
    },
    {
      "inputs": [
        {
          "internalType": "string",
          "name": "tokenUri_",
          "type": "string"
        },
        {
          "internalType": "uint256",
          "name": "heroId1_",
          "type": "uint256"
        },
        {
          "internalType": "uint256",
          "name": "heroId2_",
          "type": "uint256"
        }
      ],
      "name": "mintBreedToken",
      "outputs": [],
      "stateMutability": "nonpayable",
      "type": "function"
    },
    {
      "inputs": [
        {
          "internalType": "address",
          "name": "to_",
          "type": "address"
        },
        {
          "internalType": "string[]",
          "name": "tokenUris_",
          "type": "string[]"
        }
      ],
      "name": "mintUnsoldTokens",
      "outputs": [],
      "stateMutability": "nonpayable",
      "type": "function"
    },
    {
      "inputs": [],
      "name": "mintedInitialTokenCount",
      "outputs": [
        {
          "internalType": "uint256",
          "name": "",
          "type": "uint256"
        }
      ],
      "stateMutability": "view",
      "type": "function"
    },
    {
      "inputs": [],
      "name": "name",
      "outputs": [
        {
          "internalType": "string",
          "name": "",
          "type": "string"
        }
      ],
      "stateMutability": "view",
      "type": "function"
    },
    {
      "inputs": [],
      "name": "owner",
      "outputs": [
        {
          "internalType": "address",
          "name": "",
          "type": "address"
        }
      ],
      "stateMutability": "view",
      "type": "function"
    },
    {
      "inputs": [
        {
          "internalType": "uint256",
          "name": "tokenId",
          "type": "uint256"
        }
      ],
      "name": "ownerOf",
      "outputs": [
        {
          "internalType": "address",
          "name": "",
          "type": "address"
        }
      ],
      "stateMutability": "view",
      "type": "function"
    },
    {
      "inputs": [],
      "name": "remainTokenCount",
      "outputs": [
        {
          "internalType": "uint256",
          "name": "",
          "type": "uint256"
        }
      ],
      "stateMutability": "view",
      "type": "function"
    },
    {
      "inputs": [],
      "name": "renounceOwnership",
      "outputs": [],
      "stateMutability": "nonpayable",
      "type": "function"
    },
    {
      "inputs": [
        {
          "internalType": "address",
          "name": "from",
          "type": "address"
        },
        {
          "internalType": "address",
          "name": "to",
          "type": "address"
        },
        {
          "internalType": "uint256",
          "name": "tokenId",
          "type": "uint256"
        }
      ],
      "name": "safeTransferFrom",
      "outputs": [],
      "stateMutability": "nonpayable",
      "type": "function"
    },
    {
      "inputs": [
        {
          "internalType": "address",
          "name": "from",
          "type": "address"
        },
        {
          "internalType": "address",
          "name": "to",
          "type": "address"
        },
        {
          "internalType": "uint256",
          "name": "tokenId",
          "type": "uint256"
        },
        {
          "internalType": "bytes",
          "name": "_data",
          "type": "bytes"
        }
      ],
      "name": "safeTransferFrom",
      "outputs": [],
      "stateMutability": "nonpayable",
      "type": "function"
    },
    {
      "inputs": [
        {
          "internalType": "address",
          "name": "operator",
          "type": "address"
        },
        {
          "internalType": "bool",
          "name": "approved",
          "type": "bool"
        }
      ],
      "name": "setApprovalForAll",
      "outputs": [],
      "stateMutability": "nonpayable",
      "type": "function"
    },
    {
      "inputs": [
        {
          "internalType": "string",
          "name": "uri_",
          "type": "string"
        }
      ],
      "name": "setBaseUri",
      "outputs": [],
      "stateMutability": "nonpayable",
      "type": "function"
    },
    {
      "inputs": [
        {
          "internalType": "bool",
          "name": "pause",
          "type": "bool"
        }
      ],
      "name": "setPause",
      "outputs": [],
      "stateMutability": "nonpayable",
      "type": "function"
    },
    {
      "inputs": [
        {
          "internalType": "bytes32",
          "name": "root_",
          "type": "bytes32"
        }
      ],
      "name": "setRootAuth",
      "outputs": [],
      "stateMutability": "nonpayable",
      "type": "function"
    },
    {
      "inputs": [
        {
          "internalType": "bytes32",
          "name": "root_",
          "type": "bytes32"
        }
      ],
      "name": "setRootWhitelist",
      "outputs": [],
      "stateMutability": "nonpayable",
      "type": "function"
    },
    {
      "inputs": [],
      "name": "setStarttime",
      "outputs": [],
      "stateMutability": "nonpayable",
      "type": "function"
    },
    {
      "inputs": [
        {
          "internalType": "uint256",
          "name": "tokenId_",
          "type": "uint256"
        },
        {
          "internalType": "string",
          "name": "tokenUri_",
          "type": "string"
        }
      ],
      "name": "setTokenURI",
      "outputs": [],
      "stateMutability": "nonpayable",
      "type": "function"
    },
    {
      "inputs": [],
      "name": "startTime",
      "outputs": [
        {
          "internalType": "uint256",
          "name": "",
          "type": "uint256"
        }
      ],
      "stateMutability": "view",
      "type": "function"
    },
    {
      "inputs": [
        {
          "internalType": "bytes4",
          "name": "interfaceId",
          "type": "bytes4"
        }
      ],
      "name": "supportsInterface",
      "outputs": [
        {
          "internalType": "bool",
          "name": "",
          "type": "bool"
        }
      ],
      "stateMutability": "view",
      "type": "function"
    },
    {
      "inputs": [],
      "name": "symbol",
      "outputs": [
        {
          "internalType": "string",
          "name": "",
          "type": "string"
        }
      ],
      "stateMutability": "view",
      "type": "function"
    },
    {
      "inputs": [
        {
          "internalType": "uint256",
          "name": "index",
          "type": "uint256"
        }
      ],
      "name": "tokenByIndex",
      "outputs": [
        {
          "internalType": "uint256",
          "name": "",
          "type": "uint256"
        }
      ],
      "stateMutability": "view",
      "type": "function"
    },
    {
      "inputs": [
        {
          "internalType": "address",
          "name": "owner",
          "type": "address"
        },
        {
          "internalType": "uint256",
          "name": "index",
          "type": "uint256"
        }
      ],
      "name": "tokenOfOwnerByIndex",
      "outputs": [
        {
          "internalType": "uint256",
          "name": "",
          "type": "uint256"
        }
      ],
      "stateMutability": "view",
      "type": "function"
    },
    {
      "inputs": [
        {
          "internalType": "uint256",
          "name": "tokenId",
          "type": "uint256"
        }
      ],
      "name": "tokenURI",
      "outputs": [
        {
          "internalType": "string",
          "name": "",
          "type": "string"
        }
      ],
      "stateMutability": "view",
      "type": "function"
    },
    {
      "inputs": [],
      "name": "totalSupply",
      "outputs": [
        {
          "internalType": "uint256",
          "name": "",
          "type": "uint256"
        }
      ],
      "stateMutability": "view",
      "type": "function"
    },
    {
      "inputs": [
        {
          "internalType": "address",
          "name": "from",
          "type": "address"
        },
        {
          "internalType": "address",
          "name": "to",
          "type": "address"
        },
        {
          "internalType": "uint256",
          "name": "tokenId",
          "type": "uint256"
        }
      ],
      "name": "transferFrom",
      "outputs": [],
      "stateMutability": "nonpayable",
      "type": "function"
    },
    {
      "inputs": [
        {
          "internalType": "address",
          "name": "newOwner",
          "type": "address"
        }
      ],
      "name": "transferOwnership",
      "outputs": [],
      "stateMutability": "nonpayable",
      "type": "function"
    },
    {
      "inputs": [
        {
          "internalType": "address",
          "name": "owner",
          "type": "address"
        }
      ],
      "name": "walletOfOwner",
      "outputs": [
        {
          "internalType": "uint256[]",
          "name": "",
          "type": "uint256[]"
        }
      ],
      "stateMutability": "view",
      "type": "function"
    },
    {
      "inputs": [],
      "name": "withdrawAll",
      "outputs": [],
      "stateMutability": "nonpayable",
      "type": "function"
    }
  ],
  "transactionHash": "0xd496c74022badb19b4829f7b47ea7f9375ae68f4ad3773a17f2f20eef6c1d1dc",
  "args": [
    "Brain Dance 1128",
    "BrainDance 1128",
    "https://gateway.pinata.cloud/ipfs/QmQDmMXXL3wmnYw4ouSSEmGf9k5c62dET9PEjNTmwgv6ff/"
  ],
  "solcInputHash": "0a8b42e0c3280a05f4e96a1d5df8bffb",
  "bytecode": "0x6080604052600d805460ff19169055600060108190556011557fa2fc709bf2f4b9cb44b8a9114485d12d4877bb1beedd81f62f4f85a8056480ee60128190556013553480156200004e57600080fd5b5060405162004c0638038062004c06833981016040819052620000719162000b18565b8251839083906200008a9060009060208501906200097b565b508051620000a09060019060208401906200097b565b505050620000bd620000b7620002a760201b60201c565b620002ab565b42600c558051620000d690600f9060208401906200097b565b50600f604051602001620000eb919062000c47565b60408051601f1981840301815291905260008052600e6020908152815162000137927fe710864318d4a32f37d6ce54cb3fadbef648dd12d8dbdf53973564d56b7f881c9201906200097b565b50620001446000620002fd565b62000165733de2f28435f5e1110f7c2a4a0fb963b7509d2c856000620003bb565b600f60405160200162000179919062000c85565b60408051601f198184030181529190526001600052600e60209081528151620001c6927fa7c5ba7114a813b50159add3a36832908dc83db71d0b9a24c2ad0f83be9582079201906200097b565b50620001d36001620002fd565b620001f473396823f49aa9f0e3fac4b939bc27ad5cd88264db6001620003bb565b600f60405160200162000208919062000c66565b60408051601f198184030181529190526002600052600e6020908152815162000255927f9adb202b1492743bc00c81d33cdc6423fa8c79109027eb6a845391e8fc1f04819201906200097b565b50620002626002620002fd565b6200028373892e10cb1299c16e469cf0f79f18cca639d00f5b6002620003bb565b60036010600082825462000298919062000e0e565b9091555062000edb9350505050565b3390565b600a80546001600160a01b038381166001600160a01b0319831681179093556040519116919082907f8be0079c531659141344cd1fd0a4f28419497f9722a3daafe3b4186f6b6457e090600090a35050565b6040518060800160405280600081526020016000198152602001600019815260200160006001600160401b038111156200034757634e487b7160e01b600052604160045260246000fd5b60405190808252806020026020018201604052801562000371578160200160208202803683370190505b5090526000828152600b60209081526040918290208351815583820151600182015591830151600283015560608301518051620003b5926003850192019062000a0a565b50505050565b620003dd828260405180602001604052806000815250620003e160201b60201c565b5050565b620003ed838362000429565b620003fc600084848462000514565b620004245760405162461bcd60e51b81526004016200041b9062000cfa565b60405180910390fd5b505050565b6001600160a01b038216620004525760405162461bcd60e51b81526004016200041b9062000dcd565b6200045d816200064d565b156200047d5760405162461bcd60e51b81526004016200041b9062000d4c565b6200048b600083836200066a565b6001600160a01b0382166000908152600360205260408120805460019290620004b690849062000e0e565b909155505060008181526002602052604080822080546001600160a01b0319166001600160a01b03861690811790915590518392907fddf252ad1be2c89b69c2b068fc378daa952ba7f163c4a11628f55a4df523b3ef908290a45050565b600062000535846001600160a01b03166200070e60201b62001f4e1760201c565b1562000641576001600160a01b03841663150b7a0262000554620002a7565b8786866040518563ffffffff1660e01b815260040162000578949392919062000ca4565b602060405180830381600087803b1580156200059357600080fd5b505af1925050508015620005c6575060408051601f3d908101601f19168201909252620005c39181019062000ae7565b60015b62000626573d808015620005f7576040519150601f19603f3d011682016040523d82523d6000602084013e620005fc565b606091505b5080516200061e5760405162461bcd60e51b81526004016200041b9062000cfa565b805181602001fd5b6001600160e01b031916630a85bd0160e11b14905062000645565b5060015b949350505050565b6000908152600260205260409020546001600160a01b0316151590565b620006828383836200042460201b620009b61760201c565b6001600160a01b038316620006a2576200069c8162000714565b620006c8565b816001600160a01b0316836001600160a01b031614620006c857620006c8838262000758565b6001600160a01b038216620006e857620006e28162000805565b62000424565b826001600160a01b0316826001600160a01b0316146200042457620004248282620008e3565b3b151590565b600880546000838152600960205260408120829055600182018355919091527ff3f7a9fe364faab93b216da50a3214154f22a0a2b415b23a84c8169e8b636ee30155565b6000600162000772846200093460201b6200142a1760201c565b6200077e919062000e29565b600083815260076020526040902054909150808214620007d2576001600160a01b03841660009081526006602090815260408083208584528252808320548484528184208190558352600790915290208190555b5060009182526007602090815260408084208490556001600160a01b039094168352600681528383209183525290812055565b600854600090620008199060019062000e29565b600083815260096020526040812054600880549394509092849081106200085057634e487b7160e01b600052603260045260246000fd5b9060005260206000200154905080600883815481106200088057634e487b7160e01b600052603260045260246000fd5b6000918252602080832090910192909255828152600990915260408082208490558582528120556008805480620008c757634e487b7160e01b600052603160045260246000fd5b6001900381819060005260206000200160009055905550505050565b6000620008fb836200093460201b6200142a1760201c565b6001600160a01b039093166000908152600660209081526040808320868452825280832085905593825260079052919091209190915550565b60006001600160a01b0382166200095f5760405162461bcd60e51b81526004016200041b9062000d83565b506001600160a01b031660009081526003602052604090205490565b828054620009899062000e72565b90600052602060002090601f016020900481019282620009ad5760008555620009f8565b82601f10620009c857805160ff1916838001178555620009f8565b82800160010185558215620009f8579182015b82811115620009f8578251825591602001919060010190620009db565b5062000a0692915062000a47565b5090565b828054828255906000526020600020908101928215620009f85791602002820182811115620009f8578251825591602001919060010190620009db565b5b8082111562000a06576000815560010162000a48565b600082601f83011262000a6f578081fd5b81516001600160401b038082111562000a8c5762000a8c62000ec5565b604051601f8301601f19168101602001828111828210171562000ab35762000ab362000ec5565b60405282815284830160200186101562000acb578384fd5b62000ade83602083016020880162000e43565b95945050505050565b60006020828403121562000af9578081fd5b81516001600160e01b03198116811462000b11578182fd5b9392505050565b60008060006060848603121562000b2d578182fd5b83516001600160401b038082111562000b44578384fd5b62000b528783880162000a5e565b9450602086015191508082111562000b68578384fd5b62000b768783880162000a5e565b9350604086015191508082111562000b8c578283fd5b5062000b9b8682870162000a5e565b9150509250925092565b80546000906002810460018083168062000bc057607f831692505b602080841082141562000be157634e487b7160e01b86526022600452602486fd5b81801562000bf8576001811462000c0a5762000c3b565b60ff1986168952848901965062000c3b565b62000c158862000e02565b60005b8681101562000c335781548b82015290850190830162000c18565b505084890196505b50505050505092915050565b600062000c55828462000ba5565b600360fc1b81526001019392505050565b600062000c74828462000ba5565b601960f91b81526001019392505050565b600062000c93828462000ba5565b603160f81b81526001019392505050565b600060018060a01b03808716835280861660208401525083604083015260806060830152825180608084015262000ce38160a085016020870162000e43565b601f01601f19169190910160a00195945050505050565b60208082526032908201527f4552433732313a207472616e7366657220746f206e6f6e20455243373231526560408201527131b2b4bb32b91034b6b83632b6b2b73a32b960711b606082015260800190565b6020808252601c908201527f4552433732313a20746f6b656e20616c7265616479206d696e74656400000000604082015260600190565b6020808252602a908201527f4552433732313a2062616c616e636520717565727920666f7220746865207a65604082015269726f206164647265737360b01b606082015260800190565b6020808252818101527f4552433732313a206d696e7420746f20746865207a65726f2061646472657373604082015260600190565b60009081526020902090565b6000821982111562000e245762000e2462000eaf565b500190565b60008282101562000e3e5762000e3e62000eaf565b500390565b60005b8381101562000e6057818101518382015260200162000e46565b83811115620003b55750506000910152565b60028104600182168062000e8757607f821691505b6020821081141562000ea957634e487b7160e01b600052602260045260246000fd5b50919050565b634e487b7160e01b600052601160045260246000fd5b634e487b7160e01b600052604160045260246000fd5b613d1b8062000eeb6000396000f3fe6080604052600436106102885760003560e01c80636c26eab91161015a578063aad66516116100c1578063d440b4c21161007a578063d440b4c21461074b578063dc31d1d61461076b578063e985e9c51461078b578063eda9d474146107ab578063f0a65d1a146107cb578063f2fde38b146107e057610288565b8063aad66516146106a3578063b88d4fde146106c3578063bedb86fb146106e3578063c002d23d14610703578063c4b5aa9614610718578063c87b56dd1461072b57610288565b80638d041988116101135780638d0419881461060f5780638da5cb5b1461062457806395364a841461063957806395d89b411461064e578063a0bcfc7f14610663578063a22cb4651461068357610288565b80636c26eab91461058657806370a082311461059b578063715018a6146105bb578063755cb234146105d057806378e97925146105e5578063853828b6146105fa57610288565b806323b872dd116101fe57806349ae8dc3116101b757806349ae8dc3146104dc5780634b951cef146104fc5780634f6ccce71461051c578063594ebab71461053c5780636352211e146105515780636c0360eb1461057157610288565b806323b872dd1461040f5780632f745c591461042f5780633d99de851461044f578063414533de1461046f57806342842e0e1461049c578063438b6300146104bc57610288565b80630970eaa3116102505780630970eaa31461034957806311319b1e14610376578063162094c41461038b57806318160ddd146103ab5780632099eaa7146103cd57806321d80111146103e257610288565b806301ffc9a71461028d57806306c18a31146102c357806306fdde03146102e5578063081812fc14610307578063095ea7b314610327575b600080fd5b34801561029957600080fd5b506102ad6102a8366004613052565b610800565b6040516102ba91906133cb565b60405180910390f35b3480156102cf57600080fd5b506102d861082d565b6040516102ba9190613307565b3480156102f157600080fd5b506102fa610845565b6040516102ba91906133d6565b34801561031357600080fd5b506102d861032236600461303a565b6108d7565b34801561033357600080fd5b50610347610342366004612eac565b610923565b005b34801561035557600080fd5b50610369610364366004613141565b6109bb565b6040516102ba91906133b8565b34801561038257600080fd5b506102ad610c25565b34801561039757600080fd5b506103476103a6366004613107565b610c2e565b3480156103b757600080fd5b506103c0610c8c565b6040516102ba9190613b34565b3480156103d957600080fd5b506102d8610c92565b3480156103ee57600080fd5b506104026103fd36600461303a565b610caa565b6040516102ba9190613b21565b34801561041b57600080fd5b5061034761042a366004612d32565b610d41565b34801561043b57600080fd5b506103c061044a366004612eac565b610d79565b34801561045b57600080fd5b506103c061046a366004612f8b565b610dcb565b34801561047b57600080fd5b5061048f61048a36600461303a565b610e29565b6040516102ba9190613358565b3480156104a857600080fd5b506103476104b7366004612d32565b61100c565b3480156104c857600080fd5b506103696104d7366004612ce6565b611027565b3480156104e857600080fd5b5061048f6104f736600461303a565b61111d565b34801561050857600080fd5b5061034761051736600461303a565b6112aa565b34801561052857600080fd5b506103c061053736600461303a565b6112ee565b34801561054857600080fd5b506102d8611349565b34801561055d57600080fd5b506102d861056c36600461303a565b611361565b34801561057d57600080fd5b506102fa611396565b34801561059257600080fd5b506103c0611424565b3480156105a757600080fd5b506103c06105b6366004612ce6565b61142a565b3480156105c757600080fd5b5061034761146e565b3480156105dc57600080fd5b506103c06114b9565b3480156105f157600080fd5b506103c06114bf565b34801561060657600080fd5b506103476114c5565b34801561061b57600080fd5b506103c06115cf565b34801561063057600080fd5b506102d86115e6565b34801561064557600080fd5b506102ad6115f5565b34801561065a57600080fd5b506102fa611610565b34801561066f57600080fd5b5061034761067e36600461308a565b61161f565b34801561068f57600080fd5b5061034761069e366004612e83565b611671565b3480156106af57600080fd5b506103476106be3660046130bc565b61173f565b3480156106cf57600080fd5b506103476106de366004612d6d565b61183d565b3480156106ef57600080fd5b506103476106fe366004613020565b61187c565b34801561070f57600080fd5b506103c061190a565b610347610726366004612ed5565b611915565b34801561073757600080fd5b506102fa61074636600461303a565b611a77565b34801561075757600080fd5b5061034761076636600461303a565b611b7a565b34801561077757600080fd5b50610347610786366004612de5565b611bbe565b34801561079757600080fd5b506102ad6107a6366004612d00565b611ce8565b3480156107b757600080fd5b5061048f6107c6366004613141565b611d16565b3480156107d757600080fd5b50610347611e98565b3480156107ec57600080fd5b506103476107fb366004612ce6565b611edd565b60006001600160e01b0319821663780e9d6360e01b1480610825575061082582611f54565b90505b919050565b733de2f28435f5e1110f7c2a4a0fb963b7509d2c8581565b60606000805461085490613c23565b80601f016020809104026020016040519081016040528092919081815260200182805461088090613c23565b80156108cd5780601f106108a2576101008083540402835291602001916108cd565b820191906000526020600020905b8154815290600101906020018083116108b057829003601f168201915b5050505050905090565b60006108e282611f94565b6109075760405162461bcd60e51b81526004016108fe906137f7565b60405180910390fd5b506000908152600460205260409020546001600160a01b031690565b600061092e82611361565b9050806001600160a01b0316836001600160a01b031614156109625760405162461bcd60e51b81526004016108fe90613965565b806001600160a01b0316610974611fb1565b6001600160a01b031614806109905750610990816107a6611fb1565b6109ac5760405162461bcd60e51b81526004016108fe90613676565b6109b68383611fb5565b505050565b6000828152600b6020526040812060038101546060929081906001600160401b038111156109f957634e487b7160e01b600052604160045260246000fd5b604051908082528060200260200182016040528015610a22578160200160208202803683370190505b5090506000915060005b6003840154811015610b4e576000868152600b6020908152604091829020600301805483518184028101840190945280845292610acf929091908490830182828015610a9757602002820191906000526020600020905b815481526020019060010190808311610a83575b5050505050866003018481548110610abf57634e487b7160e01b600052603260045260246000fd5b9060005260206000200154610dcb565b1015610b3c57836003018181548110610af857634e487b7160e01b600052603260045260246000fd5b9060005260206000200154828480610b0f90613c5e565b955081518110610b2f57634e487b7160e01b600052603260045260246000fd5b6020026020010181815250505b610b47600182613b95565b9050610a2c565b506000826001600160401b03811115610b7757634e487b7160e01b600052604160045260246000fd5b604051908082528060200260200182016040528015610ba0578160200160208202803683370190505b5090506000925060005b8251811015610c1857828181518110610bd357634e487b7160e01b600052603260045260246000fd5b6020026020010151828281518110610bfb57634e487b7160e01b600052603260045260246000fd5b6020908102919091010152610c11600182613b95565b9050610baa565b5093505050505b92915050565b600d5460ff1681565b610c36611fb1565b6001600160a01b0316610c476115e6565b6001600160a01b031614610c6d5760405162461bcd60e51b81526004016108fe9061386d565b6000828152600e6020908152604090912082516109b692840190612b4e565b60085490565b73892e10cb1299c16e469cf0f79f18cca639d00f5b81565b610cb2612bd2565b6000828152600b60209081526040918290208251608081018452815481526001820154818401526002820154818501526003820180548551818602810186019096528086529194929360608601939290830182828015610d3157602002820191906000526020600020905b815481526020019060010190808311610d1d575b5050505050815250509050919050565b610d52610d4c611fb1565b82612023565b610d6e5760405162461bcd60e51b81526004016108fe90613a14565b6109b68383836120a8565b6000610d848361142a565b8210610da25760405162461bcd60e51b81526004016108fe90613417565b506001600160a01b03919091166000908152600660209081526040808320938352929052205490565b6000805b8351811015610e205782848281518110610df957634e487b7160e01b600052603260045260246000fd5b60200260200101511415610e0e579050610c1f565b610e19600182613b95565b9050610dcf565b50509051919050565b6000818152600b602052604090206001810154606091829160001914611005576040805160028082526060820190925290816020015b610e67612bd2565b815260200190600190039081610e5f579050509150600b60008260010154815260200190815260200160002060405180608001604052908160008201548152602001600182015481526020016002820154815260200160038201805480602002602001604051908101604052809291908181526020018280548015610f0b57602002820191906000526020600020905b815481526020019060010190808311610ef7575b50505050508152505082600081518110610f3557634e487b7160e01b600052603260045260246000fd5b6020026020010181905250600b60008260020154815260200190815260200160002060405180608001604052908160008201548152602001600182015481526020016002820154815260200160038201805480602002602001604051908101604052809291908181526020018280548015610fcf57602002820191906000526020600020905b815481526020019060010190808311610fbb575b50505050508152505082600181518110610ff957634e487b7160e01b600052603260045260246000fd5b60200260200101819052505b5092915050565b6109b68383836040518060200160405280600081525061183d565b606060006110348361142a565b90506000816001600160401b0381111561105e57634e487b7160e01b600052604160045260246000fd5b604051908082528060200260200182016040528015611087578160200160208202803683370190505b509050600080611095610c8c565b905060005b8181101561111257866001600160a01b03166110b861056c836112ee565b6001600160a01b03161415611100578084846110d381613c5e565b9550815181106110f357634e487b7160e01b600052603260045260246000fd5b6020026020010181815250505b8061110a81613c5e565b91505061109a565b509195945050505050565b6000818152600b602052604081206003810154606092906001600160401b0381111561115957634e487b7160e01b600052604160045260246000fd5b60405190808252806020026020018201604052801561119257816020015b61117f612bd2565b8152602001906001900390816111775790505b50905060005b60038301548110156112a257600b60008460030183815481106111cb57634e487b7160e01b600052603260045260246000fd5b906000526020600020015481526020019081526020016000206040518060800160405290816000820154815260200160018201548152602001600282015481526020016003820180548060200260200160405190810160405280929190818152602001828054801561125c57602002820191906000526020600020905b815481526020019060010190808311611248575b50505050508152505082828151811061128557634e487b7160e01b600052603260045260246000fd5b602090810291909101015261129b600182613b95565b9050611198565b509392505050565b6112b2611fb1565b6001600160a01b03166112c36115e6565b6001600160a01b0316146112e95760405162461bcd60e51b81526004016108fe9061386d565b601255565b60006112f8610c8c565b82106113165760405162461bcd60e51b81526004016108fe90613a90565b6008828154811061133757634e487b7160e01b600052603260045260246000fd5b90600052602060002001549050919050565b73396823f49aa9f0e3fac4b939bc27ad5cd88264db81565b6000818152600260205260408120546001600160a01b0316806108255760405162461bcd60e51b81526004016108fe9061371d565b600f80546113a390613c23565b80601f01602080910402602001604051908101604052809291908181526020018280546113cf90613c23565b801561141c5780601f106113f15761010080835404028352916020019161141c565b820191906000526020600020905b8154815290600101906020018083116113ff57829003601f168201915b505050505081565b60105481565b60006001600160a01b0382166114525760405162461bcd60e51b81526004016108fe906136d3565b506001600160a01b031660009081526003602052604090205490565b611476611fb1565b6001600160a01b03166114876115e6565b6001600160a01b0316146114ad5760405162461bcd60e51b81526004016108fe9061386d565b6114b760006121d5565b565b61277581565b600c5481565b3373396823f49aa9f0e3fac4b939bc27ad5cd88264db14806114fa575033733de2f28435f5e1110f7c2a4a0fb963b7509d2c85145b8061151d57506115086115e6565b6001600160a01b0316336001600160a01b0316145b6115395760405162461bcd60e51b81526004016108fe90613adc565b476402540be40081101561155f5760405162461bcd60e51b81526004016108fe906133e9565b60006115776064611571846005612227565b9061223a565b905061159773396823f49aa9f0e3fac4b939bc27ad5cd88264db82612246565b6115cb733de2f28435f5e1110f7c2a4a0fb963b7509d2c856103e86115bc8486613be0565b6115c69190613be0565b612246565b5050565b60006010546127756115e19190613be0565b905090565b600a546001600160a01b031690565b6000600c54620151806116089190613b95565b421115905090565b60606001805461085490613c23565b611627611fb1565b6001600160a01b03166116386115e6565b6001600160a01b03161461165e5760405162461bcd60e51b81526004016108fe9061386d565b80516115cb90600f906020840190612b4e565b611679611fb1565b6001600160a01b0316826001600160a01b031614156116aa5760405162461bcd60e51b81526004016108fe90613575565b80600560006116b7611fb1565b6001600160a01b03908116825260208083019390935260409182016000908120918716808252919093529120805460ff1916921515929092179091556116fb611fb1565b6001600160a01b03167f17307eab39ab6107e8899845ad3d59bd9653f200f220920489ca2b5937696c318360405161173391906133cb565b60405180910390a35050565b8082141561175f5760405162461bcd60e51b81526004016108fe90613766565b3361176983611361565b6001600160a01b031614801561178f57503361178482611361565b6001600160a01b0316145b6117ab5760405162461bcd60e51b81526004016108fe90613a65565b60006127756011546117bd9190613b95565b90506117ca8383836122c2565b6117d433826123b5565b6000818152600e6020908152604090912085516117f392870190612b4e565b506001601160008282546118079190613b95565b909155505060405181907f8ef1ea5ce94d405f55ffed5be4e495bdf6a9363d5b7af4fe3f4d66678d4ac84f90600090a250505050565b61184e611848611fb1565b83612023565b61186a5760405162461bcd60e51b81526004016108fe90613a14565b611876848484846123cf565b50505050565b611884611fb1565b6001600160a01b03166118956115e6565b6001600160a01b0316146118bb5760405162461bcd60e51b81526004016108fe9061386d565b600d805460ff191682151517908190556040517f10e1c3fcaff06b68391033547e8f9bb8067d7c4a2e32659b0629153814d242d3916118ff9160ff909116906133cb565b60405180910390a150565b66f8b0a10e47000081565b600d5460ff16156119385760405162461bcd60e51b81526004016108fe906137d2565b6119406115f5565b1561199a576012546119783360405160200161195c9190613217565b6040516020818303038152906040528051906020012084612402565b146119955760405162461bcd60e51b81526004016108fe906139a6565b6119ce565b6013546119b18260405160200161195c9190613242565b146119ce5760405162461bcd60e51b81526004016108fe906135ac565b612775601054106119f15760405162461bcd60e51b81526004016108fe906135d7565b66f8b0a10e470000341015611a185760405162461bcd60e51b81526004016108fe9061393a565b611a236010546124b3565b611a2f336010546123b5565b6010546040517fe022f58b17edead5c8a541758e9b66796ebfbf27d6fd8044500f2468ac6e39fc90600090a2600160106000828254611a6e9190613b95565b90915550505050565b6060611a8282611f94565b611a9e5760405162461bcd60e51b81526004016108fe906138eb565b612775821015611adc57600f611ab5601054612567565b604051602001611ac692919061325e565b6040516020818303038152906040529050610828565b6000828152600e602052604090208054611af590613c23565b80601f0160208091040260200160405190810160405280929190818152602001828054611b2190613c23565b8015611b6e5780601f10611b4357610100808354040283529160200191611b6e565b820191906000526020600020905b815481529060010190602001808311611b5157829003601f168201915b50505050509050919050565b611b82611fb1565b6001600160a01b0316611b936115e6565b6001600160a01b031614611bb95760405162461bcd60e51b81526004016108fe9061386d565b601355565b611bc6611fb1565b6001600160a01b0316611bd76115e6565b6001600160a01b031614611bfd5760405162461bcd60e51b81526004016108fe9061386d565b61277560105410611c205760405162461bcd60e51b81526004016108fe90613843565b601054611c2f90612775613be0565b815114611c4e5760405162461bcd60e51b81526004016108fe90613646565b6010545b612775811015611cdd578160105482611c6b9190613be0565b81518110611c8957634e487b7160e01b600052603260045260246000fd5b6020026020010151600e60008381526020019081526020016000209080519060200190611cb7929190612b4e565b50611cc1816124b3565b611ccb83826123b5565b80611cd581613c5e565b915050611c52565b505061277560105550565b6001600160a01b03918216600090815260056020908152604080832093909416825291909152205460ff1690565b60606000611d2484846109bb565b9050600081516001600160401b03811115611d4f57634e487b7160e01b600052604160045260246000fd5b604051908082528060200260200182016040528015611d8857816020015b611d75612bd2565b815260200190600190039081611d6d5790505b50905060005b8251811015611e8f57600b6000848381518110611dbb57634e487b7160e01b600052603260045260246000fd5b6020026020010151815260200190815260200160002060405180608001604052908160008201548152602001600182015481526020016002820154815260200160038201805480602002602001604051908101604052809291908181526020018280548015611e4957602002820191906000526020600020905b815481526020019060010190808311611e35575b505050505081525050828281518110611e7257634e487b7160e01b600052603260045260246000fd5b6020908102919091010152611e88600182613b95565b9050611d8e565b50949350505050565b611ea0611fb1565b6001600160a01b0316611eb16115e6565b6001600160a01b031614611ed75760405162461bcd60e51b81526004016108fe9061386d565b42600c55565b611ee5611fb1565b6001600160a01b0316611ef66115e6565b6001600160a01b031614611f1c5760405162461bcd60e51b81526004016108fe9061386d565b6001600160a01b038116611f425760405162461bcd60e51b81526004016108fe906134b4565b611f4b816121d5565b50565b3b151590565b60006001600160e01b031982166380ac58cd60e01b1480611f8557506001600160e01b03198216635b5e139f60e01b145b80610825575061082582612681565b6000908152600260205260409020546001600160a01b0316151590565b3390565b600081815260046020526040902080546001600160a01b0319166001600160a01b0384169081179091558190611fea82611361565b6001600160a01b03167f8c5be1e5ebec7d5bd14f71427d1e84f3dd0314c0f7b2291e5b200ac8c7c3b92560405160405180910390a45050565b600061202e82611f94565b61204a5760405162461bcd60e51b81526004016108fe906135fa565b600061205583611361565b9050806001600160a01b0316846001600160a01b031614806120905750836001600160a01b0316612085846108d7565b6001600160a01b0316145b806120a057506120a08185611ce8565b949350505050565b826001600160a01b03166120bb82611361565b6001600160a01b0316146120e15760405162461bcd60e51b81526004016108fe906138a2565b6001600160a01b0382166121075760405162461bcd60e51b81526004016108fe90613531565b61211283838361269a565b61211d600082611fb5565b6001600160a01b0383166000908152600360205260408120805460019290612146908490613be0565b90915550506001600160a01b0382166000908152600360205260408120805460019290612174908490613b95565b909155505060008181526002602052604080822080546001600160a01b0319166001600160a01b0386811691821790925591518493918716917fddf252ad1be2c89b69c2b068fc378daa952ba7f163c4a11628f55a4df523b3ef91a4505050565b600a80546001600160a01b038381166001600160a01b0319831681179093556040519116919082907f8be0079c531659141344cd1fd0a4f28419497f9722a3daafe3b4186f6b6457e090600090a35050565b60006122338284613bc1565b9392505050565b60006122338284613bad565b6000826001600160a01b03168260405161225f90613304565b60006040518083038185875af1925050503d806000811461229c576040519150601f19603f3d011682016040523d82523d6000602084013e6122a1565b606091505b50509050806109b65760405162461bcd60e51b81526004016108fe906139ea565b60405180608001604052806000815260200184815260200183815260200160006001600160401b0381111561230757634e487b7160e01b600052604160045260246000fd5b604051908082528060200260200182016040528015612330578160200160208202803683370190505b5090526000828152600b602090815260409182902083518155838201516001820155918301516002830155606083015180516123729260038501920190612bfa565b5050506000928352600b60209081526040808520600390810180546001818101835591885284882001859055948652908520018054938401815584529092200155565b6115cb828260405180602001604052806000815250612723565b6123da8484846120a8565b6123e684848484612756565b6118765760405162461bcd60e51b81526004016108fe90613462565b600082815b83518110156112a257600084828151811061243257634e487b7160e01b600052603260045260246000fd5b6020026020010151905080831015612474578281604051602001612457929190613234565b6040516020818303038152906040528051906020012092506124a0565b8083604051602001612487929190613234565b6040516020818303038152906040528051906020012092505b50806124ab81613c5e565b915050612407565b6040518060800160405280600081526020016000198152602001600019815260200160006001600160401b038111156124fc57634e487b7160e01b600052604160045260246000fd5b604051908082528060200260200182016040528015612525578160200160208202803683370190505b5090526000828152600b602090815260409182902083518155838201516001820155918301516002830155606083015180516118769260038501920190612bfa565b60608161258c57506040805180820190915260018152600360fc1b6020820152610828565b8160005b81156125b657806125a081613c5e565b91506125af9050600a83613bad565b9150612590565b6000816001600160401b038111156125de57634e487b7160e01b600052604160045260246000fd5b6040519080825280601f01601f191660200182016040528015612608576020820181803683370190505b5090505b84156120a05761261d600183613be0565b915061262a600a86613c79565b612635906030613b95565b60f81b81838151811061265857634e487b7160e01b600052603260045260246000fd5b60200101906001600160f81b031916908160001a90535061267a600a86613bad565b945061260c565b6001600160e01b031981166301ffc9a760e01b14919050565b6126a58383836109b6565b6001600160a01b0383166126c1576126bc81612871565b6126e4565b816001600160a01b0316836001600160a01b0316146126e4576126e483826128b5565b6001600160a01b038216612700576126fb81612952565b6109b6565b826001600160a01b0316826001600160a01b0316146109b6576109b68282612a2b565b61272d8383612a6f565b61273a6000848484612756565b6109b65760405162461bcd60e51b81526004016108fe90613462565b600061276a846001600160a01b0316611f4e565b1561286657836001600160a01b031663150b7a02612786611fb1565b8786866040518563ffffffff1660e01b81526004016127a8949392919061331b565b602060405180830381600087803b1580156127c257600080fd5b505af19250505080156127f2575060408051601f3d908101601f191682019092526127ef9181019061306e565b60015b61284c573d808015612820576040519150601f19603f3d011682016040523d82523d6000602084013e612825565b606091505b5080516128445760405162461bcd60e51b81526004016108fe90613462565b805181602001fd5b6001600160e01b031916630a85bd0160e11b1490506120a0565b506001949350505050565b600880546000838152600960205260408120829055600182018355919091527ff3f7a9fe364faab93b216da50a3214154f22a0a2b415b23a84c8169e8b636ee30155565b600060016128c28461142a565b6128cc9190613be0565b60008381526007602052604090205490915080821461291f576001600160a01b03841660009081526006602090815260408083208584528252808320548484528184208190558352600790915290208190555b5060009182526007602090815260408084208490556001600160a01b039094168352600681528383209183525290812055565b60085460009061296490600190613be0565b6000838152600960205260408120546008805493945090928490811061299a57634e487b7160e01b600052603260045260246000fd5b9060005260206000200154905080600883815481106129c957634e487b7160e01b600052603260045260246000fd5b6000918252602080832090910192909255828152600990915260408082208490558582528120556008805480612a0f57634e487b7160e01b600052603160045260246000fd5b6001900381819060005260206000200160009055905550505050565b6000612a368361142a565b6001600160a01b039093166000908152600660209081526040808320868452825280832085905593825260079052919091209190915550565b6001600160a01b038216612a955760405162461bcd60e51b81526004016108fe9061379d565b612a9e81611f94565b15612abb5760405162461bcd60e51b81526004016108fe906134fa565b612ac76000838361269a565b6001600160a01b0382166000908152600360205260408120805460019290612af0908490613b95565b909155505060008181526002602052604080822080546001600160a01b0319166001600160a01b03861690811790915590518392907fddf252ad1be2c89b69c2b068fc378daa952ba7f163c4a11628f55a4df523b3ef908290a45050565b828054612b5a90613c23565b90600052602060002090601f016020900481019282612b7c5760008555612bc2565b82601f10612b9557805160ff1916838001178555612bc2565b82800160010185558215612bc2579182015b82811115612bc2578251825591602001919060010190612ba7565b50612bce929150612c34565b5090565b6040518060800160405280600081526020016000815260200160008152602001606081525090565b828054828255906000526020600020908101928215612bc25791602002820182811115612bc2578251825591602001919060010190612ba7565b5b80821115612bce5760008155600101612c35565b60006001600160401b03831115612c6257612c62613cb9565b612c75601f8401601f1916602001613b3d565b9050828152838383011115612c8957600080fd5b828260208301376000602084830101529392505050565b80356001600160a01b038116811461082857600080fd5b8035801515811461082857600080fd5b600082601f830112612cd7578081fd5b61223383833560208501612c49565b600060208284031215612cf7578081fd5b61223382612ca0565b60008060408385031215612d12578081fd5b612d1b83612ca0565b9150612d2960208401612ca0565b90509250929050565b600080600060608486031215612d46578081fd5b612d4f84612ca0565b9250612d5d60208501612ca0565b9150604084013590509250925092565b60008060008060808587031215612d82578081fd5b612d8b85612ca0565b9350612d9960208601612ca0565b92506040850135915060608501356001600160401b03811115612dba578182fd5b8501601f81018713612dca578182fd5b612dd987823560208401612c49565b91505092959194509250565b60008060408385031215612df7578182fd5b612e0083612ca0565b91506020808401356001600160401b03811115612e1b578283fd5b8401601f81018613612e2b578283fd5b8035612e3e612e3982613b66565b613b3d565b81815283810190838501865b84811015612e7357612e618b888435890101612cc7565b84529286019290860190600101612e4a565b5096999098509650505050505050565b60008060408385031215612e95578182fd5b612e9e83612ca0565b9150612d2960208401612cb7565b60008060408385031215612ebe578182fd5b612ec783612ca0565b946020939093013593505050565b60008060408385031215612ee7578182fd5b82356001600160401b0380821115612efd578384fd5b818501915085601f830112612f10578384fd5b81356020612f20612e3983613b66565b82815281810190858301838502870184018b1015612f3c578889fd5b8896505b84871015612f5e578035835260019690960195918301918301612f40565b5096505086013592505080821115612f74578283fd5b50612f8185828601612cc7565b9150509250929050565b60008060408385031215612f9d578182fd5b82356001600160401b03811115612fb2578283fd5b8301601f81018513612fc2578283fd5b80356020612fd2612e3983613b66565b82815281810190848301838502860184018a1015612fee578788fd5b8795505b84861015613010578035835260019590950194918301918301612ff2565b5098969091013596505050505050565b600060208284031215613031578081fd5b61223382612cb7565b60006020828403121561304b578081fd5b5035919050565b600060208284031215613063578081fd5b813561223381613ccf565b60006020828403121561307f578081fd5b815161223381613ccf565b60006020828403121561309b578081fd5b81356001600160401b038111156130b0578182fd5b6120a084828501612cc7565b6000806000606084860312156130d0578081fd5b83356001600160401b038111156130e5578182fd5b6130f186828701612cc7565b9660208601359650604090950135949350505050565b60008060408385031215613119578182fd5b8235915060208301356001600160401b03811115613135578182fd5b612f8185828601612cc7565b60008060408385031215613153578182fd5b50508035926020909101359150565b6000815180845260208085019450808401835b8381101561319157815187529582019590820190600101613175565b509495945050505050565b600081518084526131b4816020860160208601613bf7565b601f01601f19169290920160200192915050565b600081516131da818560208601613bf7565b9290920192915050565b60008151835260208201516020840152604082015160408401526060820151608060608501526120a06080850182613162565b60609190911b6bffffffffffffffffffffffff1916815260140190565b918252602082015260400190565b60008251613254818460208701613bf7565b9190910192915050565b825460009081906002810460018083168061327a57607f831692505b602080841082141561329a57634e487b7160e01b87526022600452602487fd5b8180156132ae57600181146132bf576132eb565b60ff198616895284890196506132eb565b6132c88b613b89565b885b868110156132e35781548b8201529085019083016132ca565b505084890196505b5050505050506132fb81856131c8565b95945050505050565b90565b6001600160a01b0391909116815260200190565b6001600160a01b038581168252841660208201526040810183905260806060820181905260009061334e9083018461319c565b9695505050505050565b6000602080830181845280855180835260408601915060408482028701019250838701855b828110156133ab57603f198886030184526133998583516131e4565b9450928501929085019060010161337d565b5092979650505050505050565b6000602082526122336020830184613162565b901515815260200190565b600060208252612233602083018461319c565b60208082526014908201527310985b185b98d9481a5cc81d1bdbc81cdb585b1b60621b604082015260600190565b6020808252602b908201527f455243373231456e756d657261626c653a206f776e657220696e646578206f7560408201526a74206f6620626f756e647360a81b606082015260800190565b60208082526032908201527f4552433732313a207472616e7366657220746f206e6f6e20455243373231526560408201527131b2b4bb32b91034b6b83632b6b2b73a32b960711b606082015260800190565b60208082526026908201527f4f776e61626c653a206e6577206f776e657220697320746865207a65726f206160408201526564647265737360d01b606082015260800190565b6020808252601c908201527f4552433732313a20746f6b656e20616c7265616479206d696e74656400000000604082015260600190565b60208082526024908201527f4552433732313a207472616e7366657220746f20746865207a65726f206164646040820152637265737360e01b606082015260800190565b60208082526019908201527f4552433732313a20617070726f766520746f2063616c6c657200000000000000604082015260600190565b602080825260119082015270139bdd08185d5d1a195b9d1a58d85d1959607a1b604082015260600190565b60208082526009908201526813585e081b1a5b5a5d60ba1b604082015260600190565b6020808252602c908201527f4552433732313a206f70657261746f7220717565727920666f72206e6f6e657860408201526b34b9ba32b73a103a37b5b2b760a11b606082015260800190565b6020808252601690820152750a8ded6cadcaae4d2e640e6d0deead8c840dac2e8c6d60531b604082015260600190565b60208082526038908201527f4552433732313a20617070726f76652063616c6c6572206973206e6f74206f7760408201527f6e6572206e6f7220617070726f76656420666f7220616c6c0000000000000000606082015260800190565b6020808252602a908201527f4552433732313a2062616c616e636520717565727920666f7220746865207a65604082015269726f206164647265737360b01b606082015260800190565b60208082526029908201527f4552433732313a206f776e657220717565727920666f72206e6f6e657869737460408201526832b73a103a37b5b2b760b91b606082015260800190565b6020808252601a908201527f506172656e74732073686f756c64206e6f742062652073616d65000000000000604082015260600190565b6020808252818101527f4552433732313a206d696e7420746f20746865207a65726f2061646472657373604082015260600190565b6020808252600b908201526a14d85b194814185d5cd95960aa1b604082015260600190565b6020808252602c908201527f4552433732313a20617070726f76656420717565727920666f72206e6f6e657860408201526b34b9ba32b73a103a37b5b2b760a11b606082015260800190565b60208082526010908201526f4e6f20756e736f6c6420746f6b656e7360801b604082015260600190565b6020808252818101527f4f776e61626c653a2063616c6c6572206973206e6f7420746865206f776e6572604082015260600190565b60208082526029908201527f4552433732313a207472616e73666572206f6620746f6b656e2074686174206960408201526839903737ba1037bbb760b91b606082015260800190565b6020808252602f908201527f4552433732314d657461646174613a2055524920717565727920666f72206e6f60408201526e3732bc34b9ba32b73a103a37b5b2b760891b606082015260800190565b60208082526011908201527056616c75652062656c6f7720707269636560781b604082015260600190565b60208082526021908201527f4552433732313a20617070726f76616c20746f2063757272656e74206f776e656040820152603960f91b606082015260800190565b60208082526024908201527f41646472657373206973206e6f7420696e636c7564656420696e207768697465604082015263131a5cdd60e21b606082015260800190565b60208082526010908201526f2a3930b739b332b9103330b4b632b21760811b604082015260600190565b60208082526031908201527f4552433732313a207472616e736665722063616c6c6572206973206e6f74206f6040820152701ddb995c881b9bdc88185c1c1c9bdd9959607a1b606082015260800190565b60208082526011908201527014185c995b9d1cc81b9bdd08195e1a5cdd607a1b604082015260600190565b6020808252602c908201527f455243373231456e756d657261626c653a20676c6f62616c20696e646578206f60408201526b7574206f6620626f756e647360a01b606082015260800190565b60208082526025908201527f596f7520646f6e27742068617665207769746864726177696e672070726976696040820152646c6564676560d81b606082015260800190565b60006020825261223360208301846131e4565b90815260200190565b6040518181016001600160401b0381118282101715613b5e57613b5e613cb9565b604052919050565b60006001600160401b03821115613b7f57613b7f613cb9565b5060209081020190565b60009081526020902090565b60008219821115613ba857613ba8613c8d565b500190565b600082613bbc57613bbc613ca3565b500490565b6000816000190483118215151615613bdb57613bdb613c8d565b500290565b600082821015613bf257613bf2613c8d565b500390565b60005b83811015613c12578181015183820152602001613bfa565b838111156118765750506000910152565b600281046001821680613c3757607f821691505b60208210811415613c5857634e487b7160e01b600052602260045260246000fd5b50919050565b6000600019821415613c7257613c72613c8d565b5060010190565b600082613c8857613c88613ca3565b500690565b634e487b7160e01b600052601160045260246000fd5b634e487b7160e01b600052601260045260246000fd5b634e487b7160e01b600052604160045260246000fd5b6001600160e01b031981168114611f4b57600080fdfea26469706673582212201472753907b57da6938e21a19f61699ca797acef7f3b182c847043a38936671564736f6c63430008000033",
  "devdoc": {
    "kind": "dev",
    "methods": {
      "approve(address,uint256)": {
        "details": "See {IERC721-approve}."
      },
      "balanceOf(address)": {
        "details": "See {IERC721-balanceOf}."
      },
      "getApproved(uint256)": {
        "details": "See {IERC721-getApproved}."
      },
      "isApprovedForAll(address,address)": {
        "details": "See {IERC721-isApprovedForAll}."
      },
      "name()": {
        "details": "See {IERC721Metadata-name}."
      },
      "owner()": {
        "details": "Returns the address of the current owner."
      },
      "ownerOf(uint256)": {
        "details": "See {IERC721-ownerOf}."
      },
      "renounceOwnership()": {
        "details": "Leaves the contract without owner. It will not be possible to call `onlyOwner` functions anymore. Can only be called by the current owner. NOTE: Renouncing ownership will leave the contract without an owner, thereby removing any functionality that is only available to the owner."
      },
      "safeTransferFrom(address,address,uint256)": {
        "details": "See {IERC721-safeTransferFrom}."
      },
      "safeTransferFrom(address,address,uint256,bytes)": {
        "details": "See {IERC721-safeTransferFrom}."
      },
      "setApprovalForAll(address,bool)": {
        "details": "See {IERC721-setApprovalForAll}."
      },
      "supportsInterface(bytes4)": {
        "details": "See {IERC165-supportsInterface}."
      },
      "symbol()": {
        "details": "See {IERC721Metadata-symbol}."
      },
      "tokenByIndex(uint256)": {
        "details": "See {IERC721Enumerable-tokenByIndex}."
      },
      "tokenOfOwnerByIndex(address,uint256)": {
        "details": "See {IERC721Enumerable-tokenOfOwnerByIndex}."
      },
      "tokenURI(uint256)": {
        "details": "See {IERC721Metadata-tokenURI}."
      },
      "totalSupply()": {
        "details": "See {IERC721Enumerable-totalSupply}."
      },
      "transferFrom(address,address,uint256)": {
        "details": "See {IERC721-transferFrom}."
      },
      "transferOwnership(address)": {
        "details": "Transfers ownership of the contract to a new account (`newOwner`). Can only be called by the current owner."
      }
    },
    "version": 1
  },
  "userdoc": {
    "kind": "user",
    "methods": {},
    "version": 1
  },
  "storageLayout": {
    "storage": [
      {
        "astId": 129,
        "contract": "contracts/BrainDanceNft.sol:BrainDanceNft",
        "label": "_name",
        "offset": 0,
        "slot": "0",
        "type": "t_string_storage"
      },
      {
        "astId": 131,
        "contract": "contracts/BrainDanceNft.sol:BrainDanceNft",
        "label": "_symbol",
        "offset": 0,
        "slot": "1",
        "type": "t_string_storage"
      },
      {
        "astId": 135,
        "contract": "contracts/BrainDanceNft.sol:BrainDanceNft",
        "label": "_owners",
        "offset": 0,
        "slot": "2",
        "type": "t_mapping(t_uint256,t_address)"
      },
      {
        "astId": 139,
        "contract": "contracts/BrainDanceNft.sol:BrainDanceNft",
        "label": "_balances",
        "offset": 0,
        "slot": "3",
        "type": "t_mapping(t_address,t_uint256)"
      },
      {
        "astId": 143,
        "contract": "contracts/BrainDanceNft.sol:BrainDanceNft",
        "label": "_tokenApprovals",
        "offset": 0,
        "slot": "4",
        "type": "t_mapping(t_uint256,t_address)"
      },
      {
        "astId": 149,
        "contract": "contracts/BrainDanceNft.sol:BrainDanceNft",
        "label": "_operatorApprovals",
        "offset": 0,
        "slot": "5",
        "type": "t_mapping(t_address,t_mapping(t_address,t_bool))"
      },
      {
        "astId": 1068,
        "contract": "contracts/BrainDanceNft.sol:BrainDanceNft",
        "label": "_ownedTokens",
        "offset": 0,
        "slot": "6",
        "type": "t_mapping(t_address,t_mapping(t_uint256,t_uint256))"
      },
      {
        "astId": 1072,
        "contract": "contracts/BrainDanceNft.sol:BrainDanceNft",
        "label": "_ownedTokensIndex",
        "offset": 0,
        "slot": "7",
        "type": "t_mapping(t_uint256,t_uint256)"
      },
      {
        "astId": 1075,
        "contract": "contracts/BrainDanceNft.sol:BrainDanceNft",
        "label": "_allTokens",
        "offset": 0,
        "slot": "8",
        "type": "t_array(t_uint256)dyn_storage"
      },
      {
        "astId": 1079,
        "contract": "contracts/BrainDanceNft.sol:BrainDanceNft",
        "label": "_allTokensIndex",
        "offset": 0,
        "slot": "9",
        "type": "t_mapping(t_uint256,t_uint256)"
      },
      {
        "astId": 7,
        "contract": "contracts/BrainDanceNft.sol:BrainDanceNft",
        "label": "_owner",
        "offset": 0,
        "slot": "10",
        "type": "t_address"
      },
      {
        "astId": 3066,
        "contract": "contracts/BrainDanceNft.sol:BrainDanceNft",
        "label": "_heros",
        "offset": 0,
        "slot": "11",
        "type": "t_mapping(t_uint256,t_struct(Hero)3061_storage)"
      },
      {
        "astId": 2355,
        "contract": "contracts/BrainDanceNft.sol:BrainDanceNft",
        "label": "startTime",
        "offset": 0,
        "slot": "12",
        "type": "t_uint256"
      },
      {
        "astId": 2358,
        "contract": "contracts/BrainDanceNft.sol:BrainDanceNft",
        "label": "bPaused",
        "offset": 0,
        "slot": "13",
        "type": "t_bool"
      },
      {
        "astId": 2362,
        "contract": "contracts/BrainDanceNft.sol:BrainDanceNft",
        "label": "_tokenUris",
        "offset": 0,
        "slot": "14",
        "type": "t_mapping(t_uint256,t_string_storage)"
      },
      {
        "astId": 2364,
        "contract": "contracts/BrainDanceNft.sol:BrainDanceNft",
        "label": "baseURI",
        "offset": 0,
        "slot": "15",
        "type": "t_string_storage"
      },
      {
        "astId": 2367,
        "contract": "contracts/BrainDanceNft.sol:BrainDanceNft",
        "label": "mintedInitialTokenCount",
        "offset": 0,
        "slot": "16",
        "type": "t_uint256"
      },
      {
        "astId": 2370,
        "contract": "contracts/BrainDanceNft.sol:BrainDanceNft",
        "label": "breedTokenCount",
        "offset": 0,
        "slot": "17",
        "type": "t_uint256"
      },
      {
        "astId": 2373,
        "contract": "contracts/BrainDanceNft.sol:BrainDanceNft",
        "label": "_rootWhitelist",
        "offset": 0,
        "slot": "18",
        "type": "t_bytes32"
      },
      {
        "astId": 2376,
        "contract": "contracts/BrainDanceNft.sol:BrainDanceNft",
        "label": "_rootAuth",
        "offset": 0,
        "slot": "19",
        "type": "t_bytes32"
      }
    ],
    "types": {
      "t_address": {
        "encoding": "inplace",
        "label": "address",
        "numberOfBytes": "20"
      },
      "t_array(t_uint256)dyn_storage": {
        "base": "t_uint256",
        "encoding": "dynamic_array",
        "label": "uint256[]",
        "numberOfBytes": "32"
      },
      "t_bool": {
        "encoding": "inplace",
        "label": "bool",
        "numberOfBytes": "1"
      },
      "t_bytes32": {
        "encoding": "inplace",
        "label": "bytes32",
        "numberOfBytes": "32"
      },
      "t_mapping(t_address,t_bool)": {
        "encoding": "mapping",
        "key": "t_address",
        "label": "mapping(address => bool)",
        "numberOfBytes": "32",
        "value": "t_bool"
      },
      "t_mapping(t_address,t_mapping(t_address,t_bool))": {
        "encoding": "mapping",
        "key": "t_address",
        "label": "mapping(address => mapping(address => bool))",
        "numberOfBytes": "32",
        "value": "t_mapping(t_address,t_bool)"
      },
      "t_mapping(t_address,t_mapping(t_uint256,t_uint256))": {
        "encoding": "mapping",
        "key": "t_address",
        "label": "mapping(address => mapping(uint256 => uint256))",
        "numberOfBytes": "32",
        "value": "t_mapping(t_uint256,t_uint256)"
      },
      "t_mapping(t_address,t_uint256)": {
        "encoding": "mapping",
        "key": "t_address",
        "label": "mapping(address => uint256)",
        "numberOfBytes": "32",
        "value": "t_uint256"
      },
      "t_mapping(t_uint256,t_address)": {
        "encoding": "mapping",
        "key": "t_uint256",
        "label": "mapping(uint256 => address)",
        "numberOfBytes": "32",
        "value": "t_address"
      },
      "t_mapping(t_uint256,t_string_storage)": {
        "encoding": "mapping",
        "key": "t_uint256",
        "label": "mapping(uint256 => string)",
        "numberOfBytes": "32",
        "value": "t_string_storage"
      },
      "t_mapping(t_uint256,t_struct(Hero)3061_storage)": {
        "encoding": "mapping",
        "key": "t_uint256",
        "label": "mapping(uint256 => struct HeroFactory.Hero)",
        "numberOfBytes": "32",
        "value": "t_struct(Hero)3061_storage"
      },
      "t_mapping(t_uint256,t_uint256)": {
        "encoding": "mapping",
        "key": "t_uint256",
        "label": "mapping(uint256 => uint256)",
        "numberOfBytes": "32",
        "value": "t_uint256"
      },
      "t_string_storage": {
        "encoding": "bytes",
        "label": "string",
        "numberOfBytes": "32"
      },
      "t_struct(Hero)3061_storage": {
        "encoding": "inplace",
        "label": "struct HeroFactory.Hero",
        "members": [
          {
            "astId": 3053,
            "contract": "contracts/BrainDanceNft.sol:BrainDanceNft",
            "label": "traits",
            "offset": 0,
            "slot": "0",
            "type": "t_uint256"
          },
          {
            "astId": 3055,
            "contract": "contracts/BrainDanceNft.sol:BrainDanceNft",
            "label": "fatherId",
            "offset": 0,
            "slot": "1",
            "type": "t_uint256"
          },
          {
            "astId": 3057,
            "contract": "contracts/BrainDanceNft.sol:BrainDanceNft",
            "label": "motherId",
            "offset": 0,
            "slot": "2",
            "type": "t_uint256"
          },
          {
            "astId": 3060,
            "contract": "contracts/BrainDanceNft.sol:BrainDanceNft",
            "label": "childrenIds",
            "offset": 0,
            "slot": "3",
            "type": "t_array(t_uint256)dyn_storage"
          }
        ],
        "numberOfBytes": "128"
      },
      "t_uint256": {
        "encoding": "inplace",
        "label": "uint256",
        "numberOfBytes": "32"
      }
    }
  }
}